{
  "abi": [
    {
      "anonymous": false,
      "inputs": [
        {
          "indexed": true,
          "internalType": "address",
          "name": "addr",
          "type": "address"
        },
        {
          "indexed": true,
          "internalType": "uint256",
          "name": "accessoryId",
          "type": "uint256"
        },
        {
          "indexed": true,
          "internalType": "string",
          "name": "ipfsLink",
          "type": "string"
        },
        {
          "indexed": false,
          "internalType": "bool",
          "name": "unlocked",
          "type": "bool"
        },
        {
          "indexed": false,
          "internalType": "bytes32",
          "name": "ipfsEntryHash",
          "type": "bytes32"
        }
      ],
      "name": "AccessoryLockChanged",
      "type": "event"
    },
    {
      "anonymous": false,
      "inputs": [
        {
          "indexed": true,
          "internalType": "address",
          "name": "addr",
          "type": "address"
        },
        {
          "indexed": true,
          "internalType": "uint256",
          "name": "oldAccessory",
          "type": "uint256"
        },
        {
          "indexed": true,
          "internalType": "uint256",
          "name": "newAccessory",
          "type": "uint256"
        }
      ],
      "name": "AccessorySwapped",
      "type": "event"
    },
    {
      "anonymous": false,
      "inputs": [
        {
          "indexed": true,
          "internalType": "address",
          "name": "owner",
          "type": "address"
        },
        {
          "indexed": true,
          "internalType": "address",
          "name": "approved",
          "type": "address"
        },
        {
          "indexed": true,
          "internalType": "uint256",
          "name": "tokenId",
          "type": "uint256"
        }
      ],
      "name": "Approval",
      "type": "event"
    },
    {
      "anonymous": false,
      "inputs": [
        {
          "indexed": true,
          "internalType": "address",
          "name": "owner",
          "type": "address"
        },
        {
          "indexed": true,
          "internalType": "address",
          "name": "operator",
          "type": "address"
        },
        {
          "indexed": false,
          "internalType": "bool",
          "name": "approved",
          "type": "bool"
        }
      ],
      "name": "ApprovalForAll",
      "type": "event"
    },
    {
      "anonymous": false,
      "inputs": [
        {
          "indexed": true,
          "internalType": "address",
          "name": "addr",
          "type": "address"
        },
        {
          "indexed": true,
          "internalType": "string",
          "name": "categoryId",
          "type": "string"
        },
        {
          "indexed": true,
          "internalType": "string",
          "name": "ipfsLink",
          "type": "string"
        },
        {
          "indexed": false,
          "internalType": "uint256",
          "name": "newScore",
          "type": "uint256"
        },
        {
          "indexed": false,
          "internalType": "uint256",
          "name": "oldScore",
          "type": "uint256"
        },
        {
          "indexed": false,
          "internalType": "bytes32",
          "name": "ipfsEntryHash",
          "type": "bytes32"
        }
      ],
      "name": "CategoryScoreChanged",
      "type": "event"
    },
    {
      "anonymous": false,
      "inputs": [
        {
          "indexed": false,
          "internalType": "uint8",
          "name": "version",
          "type": "uint8"
        }
      ],
      "name": "Initialized",
      "type": "event"
    },
    {
      "anonymous": false,
      "inputs": [
        {
          "indexed": true,
          "internalType": "address",
          "name": "previousOwner",
          "type": "address"
        },
        {
          "indexed": true,
          "internalType": "address",
          "name": "newOwner",
          "type": "address"
        }
      ],
      "name": "OwnershipTransferred",
      "type": "event"
    },
    {
      "anonymous": false,
      "inputs": [
        {
          "indexed": true,
          "internalType": "address",
          "name": "from",
          "type": "address"
        },
        {
          "indexed": true,
          "internalType": "address",
          "name": "to",
          "type": "address"
        },
        {
          "indexed": true,
          "internalType": "uint256",
          "name": "tokenId",
          "type": "uint256"
        }
      ],
      "name": "Transfer",
      "type": "event"
    },
    {
      "inputs": [
        {
          "internalType": "uint256",
          "name": "",
          "type": "uint256"
        }
      ],
      "name": "accessoryIdToAccessory",
      "outputs": [
        {
          "internalType": "address",
          "name": "artContract",
          "type": "address"
        },
        {
          "internalType": "string",
          "name": "xpCategory",
          "type": "string"
        },
        {
          "internalType": "uint256",
          "name": "qualifyingXPScore",
          "type": "uint256"
        }
      ],
      "stateMutability": "view",
      "type": "function"
    },
    {
      "inputs": [
        {
          "components": [
            {
              "internalType": "address",
              "name": "artContract",
              "type": "address"
            },
            {
              "internalType": "string",
              "name": "xpCategory",
              "type": "string"
            },
            {
              "internalType": "uint256",
              "name": "qualifyingXPScore",
              "type": "uint256"
            }
          ],
          "internalType": "struct IBackedCommunityTokenV1.Accessory",
          "name": "accessory",
          "type": "tuple"
        }
      ],
      "name": "addAccessory",
      "outputs": [
        {
          "internalType": "uint256",
          "name": "newAccessoryId",
          "type": "uint256"
        }
      ],
      "stateMutability": "nonpayable",
      "type": "function"
    },
    {
      "inputs": [
        {
          "internalType": "address",
          "name": "",
          "type": "address"
        }
      ],
      "name": "addressToAccessoryEnabled",
      "outputs": [
        {
          "internalType": "uint256",
          "name": "",
          "type": "uint256"
        }
      ],
      "stateMutability": "view",
      "type": "function"
    },
    {
      "inputs": [
        {
          "internalType": "address",
          "name": "",
          "type": "address"
        },
        {
          "internalType": "uint256",
          "name": "",
          "type": "uint256"
        }
      ],
      "name": "addressToAccessoryUnlocked",
      "outputs": [
        {
          "internalType": "bool",
          "name": "",
          "type": "bool"
        }
      ],
      "stateMutability": "view",
      "type": "function"
    },
    {
      "inputs": [
        {
          "internalType": "address",
          "name": "",
          "type": "address"
        },
        {
          "internalType": "string",
          "name": "",
          "type": "string"
        }
      ],
      "name": "addressToCategoryScore",
      "outputs": [
        {
          "internalType": "uint256",
          "name": "",
          "type": "uint256"
        }
      ],
      "stateMutability": "view",
      "type": "function"
    },
    {
      "inputs": [
        {
          "internalType": "address",
          "name": "",
          "type": "address"
        }
      ],
      "name": "addressToPFPSVGLink",
      "outputs": [
        {
          "internalType": "string",
          "name": "",
          "type": "string"
        }
      ],
      "stateMutability": "view",
      "type": "function"
    },
    {
      "inputs": [
        {
          "internalType": "address",
          "name": "to",
          "type": "address"
        },
        {
          "internalType": "uint256",
          "name": "tokenId",
          "type": "uint256"
        }
      ],
      "name": "approve",
      "outputs": [],
      "stateMutability": "nonpayable",
      "type": "function"
    },
    {
      "inputs": [
        {
          "internalType": "address",
          "name": "owner",
          "type": "address"
        }
      ],
      "name": "balanceOf",
      "outputs": [
        {
          "internalType": "uint256",
          "name": "",
          "type": "uint256"
        }
      ],
      "stateMutability": "view",
      "type": "function"
    },
    {
      "inputs": [],
      "name": "bunnyPFPContractAddress",
      "outputs": [
        {
          "internalType": "address",
          "name": "",
          "type": "address"
        }
      ],
      "stateMutability": "view",
      "type": "function"
    },
    {
      "inputs": [],
      "name": "cdmAddr",
      "outputs": [
        {
          "internalType": "address",
          "name": "",
          "type": "address"
        }
      ],
      "stateMutability": "view",
      "type": "function"
    },
    {
      "inputs": [],
      "name": "clearBunnyPFPLink",
      "outputs": [],
      "stateMutability": "nonpayable",
      "type": "function"
    },
    {
      "inputs": [],
      "name": "descriptor",
      "outputs": [
        {
          "internalType": "contract IBackedCommunityTokenDescriptorV1",
          "name": "",
          "type": "address"
        }
      ],
      "stateMutability": "view",
      "type": "function"
    },
    {
      "inputs": [
        {
          "internalType": "uint256",
          "name": "tokenId",
          "type": "uint256"
        }
      ],
      "name": "getApproved",
      "outputs": [
        {
          "internalType": "address",
          "name": "",
          "type": "address"
        }
      ],
      "stateMutability": "view",
      "type": "function"
    },
    {
      "inputs": [
        {
          "internalType": "address",
          "name": "user",
          "type": "address"
        }
      ],
      "name": "getUnlockedAccessoriesForAddress",
      "outputs": [
        {
          "internalType": "uint256[]",
          "name": "",
          "type": "uint256[]"
        }
      ],
      "stateMutability": "view",
      "type": "function"
    },
    {
      "inputs": [
        {
          "internalType": "address",
          "name": "_descriptorAddress",
          "type": "address"
        }
      ],
      "name": "initialize",
      "outputs": [],
      "stateMutability": "nonpayable",
      "type": "function"
    },
    {
      "inputs": [
        {
          "internalType": "address",
          "name": "owner",
          "type": "address"
        },
        {
          "internalType": "address",
          "name": "operator",
          "type": "address"
        }
      ],
      "name": "isApprovedForAll",
      "outputs": [
        {
          "internalType": "bool",
          "name": "",
          "type": "bool"
        }
      ],
      "stateMutability": "view",
      "type": "function"
    },
    {
      "inputs": [
        {
          "internalType": "address",
          "name": "mintTo",
          "type": "address"
        }
      ],
      "name": "mint",
      "outputs": [],
      "stateMutability": "nonpayable",
      "type": "function"
    },
    {
      "inputs": [],
      "name": "name",
      "outputs": [
        {
          "internalType": "string",
          "name": "",
          "type": "string"
        }
      ],
      "stateMutability": "view",
      "type": "function"
    },
    {
      "inputs": [],
      "name": "nonce",
      "outputs": [
        {
          "internalType": "uint256",
          "name": "",
          "type": "uint256"
        }
      ],
      "stateMutability": "view",
      "type": "function"
    },
    {
      "inputs": [],
      "name": "owner",
      "outputs": [
        {
          "internalType": "address",
          "name": "",
          "type": "address"
        }
      ],
      "stateMutability": "view",
      "type": "function"
    },
    {
      "inputs": [
        {
          "internalType": "uint256",
          "name": "tokenId",
          "type": "uint256"
        }
      ],
      "name": "ownerOf",
      "outputs": [
        {
          "internalType": "address",
          "name": "",
          "type": "address"
        }
      ],
      "stateMutability": "view",
      "type": "function"
    },
    {
      "inputs": [
        {
          "components": [
            {
              "internalType": "bool",
              "name": "isCategoryChange",
              "type": "bool"
            },
            {
              "internalType": "address",
              "name": "user",
              "type": "address"
            },
            {
              "internalType": "string",
              "name": "categoryId",
              "type": "string"
            },
            {
              "internalType": "uint256",
              "name": "accessoryId",
              "type": "uint256"
            },
            {
              "internalType": "string",
              "name": "ipfsLink",
              "type": "string"
            }
          ],
          "internalType": "struct IBackedCommunityTokenV1.CategoryOrAccessoryChange[]",
          "name": "changes",
          "type": "tuple[]"
        }
      ],
      "name": "relockAccessoryOrDecrementCategory",
      "outputs": [],
      "stateMutability": "nonpayable",
      "type": "function"
    },
    {
      "inputs": [
        {
          "internalType": "uint256",
          "name": "accessoryId",
          "type": "uint256"
        }
      ],
      "name": "removeAccessory",
      "outputs": [],
      "stateMutability": "nonpayable",
      "type": "function"
    },
    {
      "inputs": [],
      "name": "renounceOwnership",
      "outputs": [],
      "stateMutability": "nonpayable",
      "type": "function"
    },
    {
      "inputs": [
        {
          "internalType": "address",
          "name": "from",
          "type": "address"
        },
        {
          "internalType": "address",
          "name": "to",
          "type": "address"
        },
        {
          "internalType": "uint256",
          "name": "tokenId",
          "type": "uint256"
        }
      ],
      "name": "safeTransferFrom",
      "outputs": [],
      "stateMutability": "nonpayable",
      "type": "function"
    },
    {
      "inputs": [
        {
          "internalType": "address",
          "name": "from",
          "type": "address"
        },
        {
          "internalType": "address",
          "name": "to",
          "type": "address"
        },
        {
          "internalType": "uint256",
          "name": "tokenId",
          "type": "uint256"
        },
        {
          "internalType": "bytes",
          "name": "_data",
          "type": "bytes"
        }
      ],
      "name": "safeTransferFrom",
      "outputs": [],
      "stateMutability": "nonpayable",
      "type": "function"
    },
    {
      "inputs": [
        {
          "internalType": "address",
          "name": "operator",
          "type": "address"
        },
        {
          "internalType": "bool",
          "name": "approved",
          "type": "bool"
        }
      ],
      "name": "setApprovalForAll",
      "outputs": [],
      "stateMutability": "nonpayable",
      "type": "function"
    },
    {
      "inputs": [
        {
          "internalType": "address",
          "name": "addr",
          "type": "address"
        }
      ],
      "name": "setBunnyPFPContract",
      "outputs": [],
      "stateMutability": "nonpayable",
      "type": "function"
    },
    {
      "inputs": [
        {
          "internalType": "bytes",
          "name": "message",
          "type": "bytes"
        }
      ],
      "name": "setBunnyPFPSVGFromL1",
      "outputs": [],
      "stateMutability": "nonpayable",
      "type": "function"
    },
    {
      "inputs": [
        {
          "internalType": "address",
          "name": "addr",
          "type": "address"
        }
      ],
      "name": "setDescriptorContract",
      "outputs": [],
      "stateMutability": "nonpayable",
      "type": "function"
    },
    {
      "inputs": [
        {
          "internalType": "uint256",
          "name": "accessoryId",
          "type": "uint256"
        }
      ],
      "name": "setEnabledAccessory",
      "outputs": [],
      "stateMutability": "nonpayable",
      "type": "function"
    },
    {
      "inputs": [
        {
          "internalType": "address",
          "name": "addr",
          "type": "address"
        }
      ],
      "name": "setOptimismCrossChainMessengerAddress",
      "outputs": [],
      "stateMutability": "nonpayable",
      "type": "function"
    },
    {
      "inputs": [
        {
          "internalType": "bytes4",
          "name": "interfaceId",
          "type": "bytes4"
        }
      ],
      "name": "supportsInterface",
      "outputs": [
        {
          "internalType": "bool",
          "name": "",
          "type": "bool"
        }
      ],
      "stateMutability": "view",
      "type": "function"
    },
    {
      "inputs": [],
      "name": "symbol",
      "outputs": [
        {
          "internalType": "string",
          "name": "",
          "type": "string"
        }
      ],
      "stateMutability": "view",
      "type": "function"
    },
    {
      "inputs": [
        {
          "internalType": "uint256",
          "name": "tokenId",
          "type": "uint256"
        }
      ],
      "name": "tokenURI",
      "outputs": [
        {
          "internalType": "string",
          "name": "",
          "type": "string"
        }
      ],
      "stateMutability": "view",
      "type": "function"
    },
    {
      "inputs": [],
      "name": "totalCategoryCount",
      "outputs": [
        {
          "internalType": "uint256",
          "name": "",
          "type": "uint256"
        }
      ],
      "stateMutability": "view",
      "type": "function"
    },
    {
      "inputs": [
        {
          "internalType": "address",
          "name": "from",
          "type": "address"
        },
        {
          "internalType": "address",
          "name": "to",
          "type": "address"
        },
        {
          "internalType": "uint256",
          "name": "tokenId",
          "type": "uint256"
        }
      ],
      "name": "transferFrom",
      "outputs": [],
      "stateMutability": "nonpayable",
      "type": "function"
    },
    {
      "inputs": [
        {
          "internalType": "address",
          "name": "newOwner",
          "type": "address"
        }
      ],
      "name": "transferOwnership",
      "outputs": [],
      "stateMutability": "nonpayable",
      "type": "function"
    },
    {
      "inputs": [
        {
          "components": [
            {
              "internalType": "bool",
              "name": "isCategoryChange",
              "type": "bool"
            },
            {
              "internalType": "address",
              "name": "user",
              "type": "address"
            },
            {
              "internalType": "string",
              "name": "categoryId",
              "type": "string"
            },
            {
              "internalType": "uint256",
              "name": "accessoryId",
              "type": "uint256"
            },
            {
              "internalType": "string",
              "name": "ipfsLink",
              "type": "string"
            }
          ],
          "internalType": "struct IBackedCommunityTokenV1.CategoryOrAccessoryChange[]",
          "name": "changes",
          "type": "tuple[]"
        }
      ],
      "name": "unlockAccessoryOrIncrementCategory",
      "outputs": [],
      "stateMutability": "nonpayable",
      "type": "function"
    }
  ],
  "bytecode": {
    "object": "0x608060405234801561001057600080fd5b50613160806100206000396000f3fe608060405234801561001057600080fd5b506004361061023d5760003560e01c80638da5cb5b1161013b578063cb19a1d6116100b8578063da2fd4cb1161007c578063da2fd4cb14610505578063db8a06cf14610541578063dfcf2cf814610563578063e985e9c514610576578063f2fde38b1461058957600080fd5b8063cb19a1d614610499578063cdb16e00146104ac578063d1c5df07146104bf578063d37825b2146104df578063d4f353c0146104f257600080fd5b8063b2b52ef1116100ff578063b2b52ef114610444578063b88d4fde1461044d578063c17c7faa14610460578063c4d66de814610473578063c87b56dd1461048657600080fd5b80638da5cb5b1461040757806395d89b4114610418578063a22cb46514610420578063aa416e5414610433578063affed0e01461043b57600080fd5b8063303e74df116101c95780636352211e1161018d5780636352211e146103a65780636a627842146103b957806370a08231146103cc578063715018a6146103df5780637473660a146103e757600080fd5b8063303e74df1461034757806336d587bf1461035a57806342842e0e1461036d57806345cb4e42146103805780634c0332a51461039357600080fd5b8063095ea7b311610210578063095ea7b3146102bf5780631ab87a44146102d257806323b872dd146102f35780632f2aa210146103065780632fdaa4901461031957600080fd5b806301ffc9a7146102425780630303348f1461026a57806306fdde031461027f578063081812fc14610294575b600080fd5b610255610250366004612652565b61059c565b60405190151581526020015b60405180910390f35b61027d610278366004612684565b6105ee565b005b610287610643565b60405161026191906126f9565b6102a76102a236600461270c565b6106d5565b6040516001600160a01b039091168152602001610261565b61027d6102cd366004612725565b61076a565b6102e56102e0366004612751565b610880565b604051908152602001610261565b61027d61030136600461278c565b6108d0565b61027d61031436600461270c565b610901565b610255610327366004612725565b600960209081526000928352604080842090915290825290205460ff1681565b6002546102a7906001600160a01b031681565b61027d6103683660046128d3565b6109d0565b61027d61037b36600461278c565b610a8c565b61027d61038e3660046128d3565b610aa7565b61027d6103a1366004612a23565b610b5f565b6102a76103b436600461270c565b610d08565b61027d6103c7366004612684565b610d7f565b6102e56103da366004612684565b610da0565b61027d610e26565b6102e56103f5366004612684565b600a6020526000908152604090205481565b60a4546001600160a01b03166102a7565b610287610e5c565b61027d61042e366004612a95565b610e6b565b61027d610e76565b6102e560005481565b6102e560035481565b61027d61045b366004612aca565b610e9e565b6001546102a7906001600160a01b031681565b61027d610481366004612684565b610ed6565b61028761049436600461270c565b610fad565b6102876104a7366004612684565b6110c2565b61027d6104ba36600461270c565b61115c565b6104d26104cd366004612684565b61118f565b6040516102619190612b4a565b61027d6104ed366004612684565b611252565b61027d610500366004612684565b61129e565b6102e5610513366004612b8e565b6004602090815260009283526040909220815180830184018051928152908401929093019190912091525481565b61055461054f36600461270c565b6112ea565b60405161026193929190612bde565b600b546102a7906001600160a01b031681565b610255610584366004612c12565b61139f565b61027d610597366004612684565b6113cd565b60006001600160e01b031982166380ac58cd60e01b14806105cd57506001600160e01b03198216635b5e139f60e01b145b806105e857506301ffc9a760e01b6001600160e01b03198316145b92915050565b60a4546001600160a01b031633146106215760405162461bcd60e51b815260040161061890612c4b565b60405180910390fd5b600180546001600160a01b0319166001600160a01b0392909216919091179055565b60606072805461065290612c80565b80601f016020809104026020016040519081016040528092919081815260200182805461067e90612c80565b80156106cb5780601f106106a0576101008083540402835291602001916106cb565b820191906000526020600020905b8154815290600101906020018083116106ae57829003601f168201915b5050505050905090565b6000818152607460205260408120546001600160a01b031661074e5760405162461bcd60e51b815260206004820152602c60248201527f4552433732313a20617070726f76656420717565727920666f72206e6f6e657860448201526b34b9ba32b73a103a37b5b2b760a11b6064820152608401610618565b506000908152607660205260409020546001600160a01b031690565b600061077582610d08565b9050806001600160a01b0316836001600160a01b031614156107e35760405162461bcd60e51b815260206004820152602160248201527f4552433732313a20617070726f76616c20746f2063757272656e74206f776e656044820152603960f91b6064820152608401610618565b336001600160a01b03821614806107ff57506107ff813361139f565b6108715760405162461bcd60e51b815260206004820152603860248201527f4552433732313a20617070726f76652063616c6c6572206973206e6f74206f7760448201527f6e6572206e6f7220617070726f76656420666f7220616c6c00000000000000006064820152608401610618565b61087b8383611465565b505050565b60a4546000906001600160a01b031633146108ad5760405162461bcd60e51b815260040161061890612c4b565b5060078054600101908190556108cb816108c684612cbb565b6114d3565b919050565b6108da3382611554565b6108f65760405162461bcd60e51b815260040161061890612d3c565b61087b83838361162b565b336000818152600a60205260409020549061091c90836116aa565b61098e5760405162461bcd60e51b815260206004820152603760248201527f4261636b6564436f6d6d756e697479546f6b656e56313a2075736572206e6f7460448201527f20656c696769626c6520666f72206163636573736f72790000000000000000006064820152608401610618565b336000818152600a6020526040808220859055518492849290917fea1b1f91e87d6596dd266ab28a1e2231755992988caaafc59ed42f2331d41e8c9190a45050565b60a4546001600160a01b031633146109fa5760405162461bcd60e51b815260040161061890612c4b565b60005b8151811015610a8857818181518110610a1857610a18612d8d565b60200260200101516000015115610a5257610a4d828281518110610a3e57610a3e612d8d565b60200260200101516001611816565b610a76565b610a76828281518110610a6757610a67612d8d565b602002602001015160016119db565b80610a8081612db9565b9150506109fd565b5050565b61087b83838360405180602001604052806000815250610e9e565b60a4546001600160a01b03163314610ad15760405162461bcd60e51b815260040161061890612c4b565b60005b8151811015610a8857818181518110610aef57610aef612d8d565b60200260200101516000015115610b2957610b24828281518110610b1557610b15612d8d565b60200260200101516000611816565b610b4d565b610b4d828281518110610b3e57610b3e612d8d565b602002602001015160006119db565b80610b5781612db9565b915050610ad4565b600080610b6e83850185612b8e565b60015491935091506001600160a01b03163314610bf35760405162461bcd60e51b815260206004820152603d60248201527f4261636b6564436f6d6d756e697479546f6b656e56313a2063616c6c6572206d60448201527f7573742062652063726f737320646f6d61696e206d657373656e6765720000006064820152608401610618565b600b5460015460408051636e296e4560e01b815290516001600160a01b039384169390921691636e296e45916004808201926020929091908290030181865afa158015610c44573d6000803e3d6000fd5b505050506040513d601f19601f82011682018060405250810190610c689190612dd4565b6001600160a01b031614610cd85760405162461bcd60e51b815260206004820152603160248201527f4261636b6564436f6d6d756e697479546f6b656e56313a206f726967696e206d6044820152700757374206265204261636b65642050465607c1b6064820152608401610618565b6001600160a01b0382166000908152600c602090815260409091208251610d01928401906125a3565b5050505050565b6000818152607460205260408120546001600160a01b0316806105e85760405162461bcd60e51b815260206004820152602960248201527f4552433732313a206f776e657220717565727920666f72206e6f6e657869737460448201526832b73a103a37b5b2b760b91b6064820152608401610618565b60008054610d9d9183919080610d9483612db9565b91905055611be6565b50565b60006001600160a01b038216610e0a5760405162461bcd60e51b815260206004820152602960248201527f4552433732313a2061646472657373207a65726f206973206e6f7420612076616044820152683634b21037bbb732b960b91b6064820152608401610618565b506001600160a01b031660009081526075602052604090205490565b60a4546001600160a01b03163314610e505760405162461bcd60e51b815260040161061890612c4b565b610e5a6000611c58565b565b60606073805461065290612c80565b610a88338383611caa565b6040805160208082018084526000808452338152600c9092529290209051610d9d92906125a3565b610ea83383611554565b610ec45760405162461bcd60e51b815260040161061890612d3c565b610ed084848484611d79565b50505050565b6000610ee26001611dac565b90508015610efa57600d805461ff0019166101001790555b610f496040518060400160405280600f81526020016e4261636b6564436f6d6d756e69747960881b81525060405180604001604052806006815260200165109050d2d15160d21b815250611e36565b600280546001600160a01b0319166001600160a01b0384161790558015610a8857600d805461ff0019169055604051600181527f7f26b83ff96e1f2b6a682f133852f6798a09c465da95921460cefb38474024989060200160405180910390a15050565b6040516331a9108f60e11b8152600481018290526060906000903090636352211e90602401602060405180830381865afa158015610fef573d6000803e3d6000fd5b505050506040513d601f19601f820116820180604052508101906110139190612dd4565b6002546001600160a01b038083166000818152600a602090815260408083205483526008825280832054938352600c90915290819020905163045b0e1b60e01b81529495509282169363045b0e1b93611076938993889391169190600401612df1565b600060405180830381865afa158015611093573d6000803e3d6000fd5b505050506040513d6000823e601f3d908101601f191682016040526110bb9190810190612ebf565b9392505050565b600c60205260009081526040902080546110db90612c80565b80601f016020809104026020016040519081016040528092919081815260200182805461110790612c80565b80156111545780601f1061112957610100808354040283529160200191611154565b820191906000526020600020905b81548152906001019060200180831161113757829003601f168201915b505050505081565b60a4546001600160a01b031633146111865760405162461bcd60e51b815260040161061890612c4b565b610d9d81611e6f565b6060600061119d6005611e7a565b905060008167ffffffffffffffff8111156111ba576111ba6127cd565b6040519080825280602002602001820160405280156111e3578160200160208202803683370190505b50905060005b8281101561124a5761120585611200600584611e84565b6116aa565b61121057600061121b565b61121b600582611e84565b82828151811061122d5761122d612d8d565b60209081029190910101528061124281612db9565b9150506111e9565b509392505050565b60a4546001600160a01b0316331461127c5760405162461bcd60e51b815260040161061890612c4b565b600280546001600160a01b0319166001600160a01b0392909216919091179055565b60a4546001600160a01b031633146112c85760405162461bcd60e51b815260040161061890612c4b565b600b80546001600160a01b0319166001600160a01b0392909216919091179055565b600860205260009081526040902080546001820180546001600160a01b03909216929161131690612c80565b80601f016020809104026020016040519081016040528092919081815260200182805461134290612c80565b801561138f5780601f106113645761010080835404028352916020019161138f565b820191906000526020600020905b81548152906001019060200180831161137257829003601f168201915b5050505050908060020154905083565b6001600160a01b03918216600090815260776020908152604080832093909416825291909152205460ff1690565b60a4546001600160a01b031633146113f75760405162461bcd60e51b815260040161061890612c4b565b6001600160a01b03811661145c5760405162461bcd60e51b815260206004820152602660248201527f4f776e61626c653a206e6577206f776e657220697320746865207a65726f206160448201526564647265737360d01b6064820152608401610618565b610d9d81611c58565b600081815260766020526040902080546001600160a01b0319166001600160a01b038416908117909155819061149a82610d08565b6001600160a01b03167f8c5be1e5ebec7d5bd14f71427d1e84f3dd0314c0f7b2291e5b200ac8c7c3b92560405160405180910390a45050565b6040805160608101825282516001600160a01b039081168252602080850151818401908152858501518486015260008781526008835294909420835181546001600160a01b0319169316929092178255925180519293919261153b92600185019201906125a3565b506040820151816002015590505061087b600583611e90565b6000818152607460205260408120546001600160a01b03166115cd5760405162461bcd60e51b815260206004820152602c60248201527f4552433732313a206f70657261746f7220717565727920666f72206e6f6e657860448201526b34b9ba32b73a103a37b5b2b760a11b6064820152608401610618565b60006115d883610d08565b9050806001600160a01b0316846001600160a01b031614806115ff57506115ff818561139f565b806116235750836001600160a01b0316611618846106d5565b6001600160a01b0316145b949350505050565b60a4546001600160a01b0316331461169f5760405162461bcd60e51b815260206004820152603160248201527f455243373231536f756c626f756e643a206f6e6c7920636f6e7472616374206f6044820152703bb732b91031b0b7103a3930b739b332b960791b6064820152608401610618565b61087b838383611e9c565b6000816116b9575060016105e8565b600082815260086020908152604080832081516060810190925280546001600160a01b0316825260018101805492939192918401916116f790612c80565b80601f016020809104026020016040519081016040528092919081815260200182805461172390612c80565b80156117705780601f1061174557610100808354040283529160200191611770565b820191906000526020600020905b81548152906001019060200180831161175357829003601f168201915b50505050508152602001600282015481525050905061178e83612038565b156117c15750506001600160a01b038216600090815260096020908152604080832084845290915290205460ff166105e8565b806040015160046000866001600160a01b03166001600160a01b0316815260200190815260200160002082602001516040516117fd9190612f36565b90815260200160405180910390205410159150506105e8565b6020808301516001600160a01b0316600090815260049091526040808220818501519151909161184591612f36565b9081526020016040518091039020549050600082156118c0576004600085602001516001600160a01b03166001600160a01b0316815260200190815260200160002084604001516040516118999190612f36565b9081526020016040518091039020600081546118b490612db9565b9182905550905061191e565b6004600085602001516001600160a01b03166001600160a01b0316815260200190815260200160002084604001516040516118fb9190612f36565b90815260200160405180910390206000815461191690612f52565b918290555090505b83608001516040516119309190612f36565b6040518091039020846040015160405161194a9190612f36565b604051809103902085602001516001600160a01b03167f9ef5bdac21c0b2ea1e3f6bb8f97d9da60f47f64a6b092f1e97f5f8f058bfbd72848689602001518a60400151888a6040516020016119a29493929190612f69565b60408051601f1981840301815282825280516020918201209483528201929092529081019190915260600160405180910390a450505050565b60608201516000908152600860205260409020546001600160a01b0316611a5d5760405162461bcd60e51b815260206004820152603060248201527f4261636b6564436f6d6d756e697479546f6b656e56313a204163636573736f7260448201526f1e48191bd95cc81b9bdd08195e1a5cdd60821b6064820152608401610618565b611a6a8260600151612038565b611ad45760405162461bcd60e51b815260206004820152603560248201527f4261636b6564436f6d6d756e697479546f6b656e56313a204163636573736f726044820152741e481b5d5cdd0818994818591b5a5b8818985cd959605a1b6064820152608401610618565b8015611b12576020808301516001600160a01b031660009081526009825260408082206060860151835290925220805460ff19166001179055611b43565b6020808301516001600160a01b031660009081526009825260408082206060860151835290925220805460ff191690555b8160800151604051611b559190612f36565b604080519182900382206060808601516020808801516001600160a01b03169086018190529385018190528515159185019190915290929091907f9585125add627de8c748eef8bbf87fd4d943068f750d41b4657804c42163b00f90859060800160408051601f19818403018152828252805160209182012093151583528201929092520160405180910390a45050565b6001611bf183610da0565b10611c4e5760405162461bcd60e51b815260206004820152602760248201527f455243373231536f756c626f756e643a2063616e6e6f74206f776e206d6f7265604482015266207468616e203160c81b6064820152608401610618565b610a88828261210d565b60a480546001600160a01b038381166001600160a01b0319831681179093556040519116919082907f8be0079c531659141344cd1fd0a4f28419497f9722a3daafe3b4186f6b6457e090600090a35050565b816001600160a01b0316836001600160a01b03161415611d0c5760405162461bcd60e51b815260206004820152601960248201527f4552433732313a20617070726f766520746f2063616c6c6572000000000000006044820152606401610618565b6001600160a01b03838116600081815260776020908152604080832094871680845294825291829020805460ff191686151590811790915591519182527f17307eab39ab6107e8899845ad3d59bd9653f200f220920489ca2b5937696c31910160405180910390a3505050565b611d8484848461162b565b611d908484848461224f565b610ed05760405162461bcd60e51b815260040161061890612fa0565b600d54600090610100900460ff1615611df5578160ff166001148015611dd15750303b155b611ded5760405162461bcd60e51b815260040161061890612ff2565b506000919050565b600d5460ff808416911610611e1c5760405162461bcd60e51b815260040161061890612ff2565b50600d805460ff191660ff92909216919091179055600190565b600d54610100900460ff16611e5d5760405162461bcd60e51b815260040161061890613040565b611e67828261234d565b610a8861237e565b610a886005826123ad565b60006105e8825490565b60006110bb83836123b9565b60006110bb83836123e3565b826001600160a01b0316611eaf82610d08565b6001600160a01b031614611f135760405162461bcd60e51b815260206004820152602560248201527f4552433732313a207472616e736665722066726f6d20696e636f72726563742060448201526437bbb732b960d91b6064820152608401610618565b6001600160a01b038216611f755760405162461bcd60e51b8152602060048201526024808201527f4552433732313a207472616e7366657220746f20746865207a65726f206164646044820152637265737360e01b6064820152608401610618565b611f80600082611465565b6001600160a01b0383166000908152607560205260408120805460019290611fa990849061308b565b90915550506001600160a01b0382166000908152607560205260408120805460019290611fd79084906130a2565b909155505060008181526074602052604080822080546001600160a01b0319166001600160a01b0386811691821790925591518493918716917fddf252ad1be2c89b69c2b068fc378daa952ba7f163c4a11628f55a4df523b3ef91a4505050565b600081815260086020908152604080832081516060810190925280546001600160a01b0316825260018101805485948401919061207490612c80565b80601f01602080910402602001604051908101604052809291908181526020018280546120a090612c80565b80156120ed5780601f106120c2576101008083540402835291602001916120ed565b820191906000526020600020905b8154815290600101906020018083116120d057829003601f168201915b505050918352505060029190910154602091820152015151159392505050565b6001600160a01b0382166121635760405162461bcd60e51b815260206004820181905260248201527f4552433732313a206d696e7420746f20746865207a65726f20616464726573736044820152606401610618565b6000818152607460205260409020546001600160a01b0316156121c85760405162461bcd60e51b815260206004820152601c60248201527f4552433732313a20746f6b656e20616c7265616479206d696e746564000000006044820152606401610618565b6001600160a01b03821660009081526075602052604081208054600192906121f19084906130a2565b909155505060008181526074602052604080822080546001600160a01b0319166001600160a01b03861690811790915590518392907fddf252ad1be2c89b69c2b068fc378daa952ba7f163c4a11628f55a4df523b3ef908290a45050565b60006001600160a01b0384163b1561234257604051630a85bd0160e11b81526001600160a01b0385169063150b7a02906122939033908990889088906004016130ba565b6020604051808303816000875af19250505080156122ce575060408051601f3d908101601f191682019092526122cb918101906130f7565b60015b612328573d8080156122fc576040519150601f19603f3d011682016040523d82523d6000602084013e612301565b606091505b5080516123205760405162461bcd60e51b815260040161061890612fa0565b805181602001fd5b6001600160e01b031916630a85bd0160e11b149050611623565b506001949350505050565b600d54610100900460ff166123745760405162461bcd60e51b815260040161061890613040565b610a888282612432565b600d54610100900460ff166123a55760405162461bcd60e51b815260040161061890613040565b610e5a612480565b60006110bb83836124b0565b60008260000182815481106123d0576123d0612d8d565b9060005260206000200154905092915050565b600081815260018301602052604081205461242a575081546001818101845560008481526020808220909301849055845484825282860190935260409020919091556105e8565b5060006105e8565b600d54610100900460ff166124595760405162461bcd60e51b815260040161061890613040565b815161246c9060729060208501906125a3565b50805161087b9060739060208401906125a3565b600d54610100900460ff166124a75760405162461bcd60e51b815260040161061890613040565b610e5a33611c58565b600081815260018301602052604081205480156125995760006124d460018361308b565b85549091506000906124e89060019061308b565b905081811461254d57600086600001828154811061250857612508612d8d565b906000526020600020015490508087600001848154811061252b5761252b612d8d565b6000918252602080832090910192909255918252600188019052604090208390555b855486908061255e5761255e613114565b6001900381819060005260206000200160009055905585600101600086815260200190815260200160002060009055600193505050506105e8565b60009150506105e8565b8280546125af90612c80565b90600052602060002090601f0160209004810192826125d15760008555612617565b82601f106125ea57805160ff1916838001178555612617565b82800160010185558215612617579182015b828111156126175782518255916020019190600101906125fc565b50612623929150612627565b5090565b5b808211156126235760008155600101612628565b6001600160e01b031981168114610d9d57600080fd5b60006020828403121561266457600080fd5b81356110bb8161263c565b6001600160a01b0381168114610d9d57600080fd5b60006020828403121561269657600080fd5b81356110bb8161266f565b60005b838110156126bc5781810151838201526020016126a4565b83811115610ed05750506000910152565b600081518084526126e58160208601602086016126a1565b601f01601f19169290920160200192915050565b6020815260006110bb60208301846126cd565b60006020828403121561271e57600080fd5b5035919050565b6000806040838503121561273857600080fd5b82356127438161266f565b946020939093013593505050565b60006020828403121561276357600080fd5b813567ffffffffffffffff81111561277a57600080fd5b8201606081850312156110bb57600080fd5b6000806000606084860312156127a157600080fd5b83356127ac8161266f565b925060208401356127bc8161266f565b929592945050506040919091013590565b634e487b7160e01b600052604160045260246000fd5b60405160a0810167ffffffffffffffff81118282101715612806576128066127cd565b60405290565b604051601f8201601f1916810167ffffffffffffffff81118282101715612835576128356127cd565b604052919050565b803580151581146108cb57600080fd5b600067ffffffffffffffff821115612867576128676127cd565b50601f01601f191660200190565b60006128886128838461284d565b61280c565b905082815283838301111561289c57600080fd5b828260208301376000602084830101529392505050565b600082601f8301126128c457600080fd5b6110bb83833560208501612875565b600060208083850312156128e657600080fd5b823567ffffffffffffffff808211156128fe57600080fd5b818501915085601f83011261291257600080fd5b813581811115612924576129246127cd565b8060051b61293385820161280c565b918252838101850191858101908984111561294d57600080fd5b86860192505b83831015612a165782358581111561296a57600080fd5b860160a0818c03601f190112156129815760008081fd5b6129896127e3565b61299489830161283d565b81526040808301356129a58161266f565b828b0152606083810135898111156129bd5760008081fd5b6129cb8f8d838801016128b3565b83850152506080915081840135818401525060a0830135888111156129f05760008081fd5b6129fe8e8c838701016128b3565b91830191909152508352509186019190860190612953565b9998505050505050505050565b60008060208385031215612a3657600080fd5b823567ffffffffffffffff80821115612a4e57600080fd5b818501915085601f830112612a6257600080fd5b813581811115612a7157600080fd5b866020828501011115612a8357600080fd5b60209290920196919550909350505050565b60008060408385031215612aa857600080fd5b8235612ab38161266f565b9150612ac16020840161283d565b90509250929050565b60008060008060808587031215612ae057600080fd5b8435612aeb8161266f565b93506020850135612afb8161266f565b925060408501359150606085013567ffffffffffffffff811115612b1e57600080fd5b8501601f81018713612b2f57600080fd5b612b3e87823560208401612875565b91505092959194509250565b6020808252825182820181905260009190848201906040850190845b81811015612b8257835183529284019291840191600101612b66565b50909695505050505050565b60008060408385031215612ba157600080fd5b8235612bac8161266f565b9150602083013567ffffffffffffffff811115612bc857600080fd5b612bd4858286016128b3565b9150509250929050565b6001600160a01b0384168152606060208201819052600090612c02908301856126cd565b9050826040830152949350505050565b60008060408385031215612c2557600080fd5b8235612c308161266f565b91506020830135612c408161266f565b809150509250929050565b6020808252818101527f4f776e61626c653a2063616c6c6572206973206e6f7420746865206f776e6572604082015260600190565b600181811c90821680612c9457607f821691505b60208210811415612cb557634e487b7160e01b600052602260045260246000fd5b50919050565b600060608236031215612ccd57600080fd5b6040516060810167ffffffffffffffff8282108183111715612cf157612cf16127cd565b8160405284359150612d028261266f565b90825260208401359080821115612d1857600080fd5b50612d25368286016128b3565b602083015250604092830135928101929092525090565b60208082526031908201527f4552433732313a207472616e736665722063616c6c6572206973206e6f74206f6040820152701ddb995c881b9bdc88185c1c1c9bdd9959607a1b606082015260800190565b634e487b7160e01b600052603260045260246000fd5b634e487b7160e01b600052601160045260246000fd5b6000600019821415612dcd57612dcd612da3565b5060010190565b600060208284031215612de657600080fd5b81516110bb8161266f565b8481526001600160a01b038481166020808401919091529084166040830152608060608301528254600091908290600181811c9082811680612e3457607f831692505b858310811415612e5257634e487b7160e01b85526022600452602485fd5b6080880183905260a08801818015612e715760018114612e8257612ead565b60ff19861682528782019650612ead565b60008b81526020902060005b86811015612ea757815484820152908501908901612e8e565b83019750505b50949c9b505050505050505050505050565b600060208284031215612ed157600080fd5b815167ffffffffffffffff811115612ee857600080fd5b8201601f81018413612ef957600080fd5b8051612f076128838261284d565b818152856020838501011115612f1c57600080fd5b612f2d8260208301602086016126a1565b95945050505050565b60008251612f488184602087016126a1565b9190910192915050565b600081612f6157612f61612da3565b506000190190565b6001600160a01b0385168152608060208201819052600090612f8d908301866126cd565b6040830194909452506060015292915050565b60208082526032908201527f4552433732313a207472616e7366657220746f206e6f6e20455243373231526560408201527131b2b4bb32b91034b6b83632b6b2b73a32b960711b606082015260800190565b6020808252602e908201527f496e697469616c697a61626c653a20636f6e747261637420697320616c72656160408201526d191e481a5b9a5d1a585b1a5e995960921b606082015260800190565b6020808252602b908201527f496e697469616c697a61626c653a20636f6e7472616374206973206e6f74206960408201526a6e697469616c697a696e6760a81b606082015260800190565b60008282101561309d5761309d612da3565b500390565b600082198211156130b5576130b5612da3565b500190565b6001600160a01b03858116825284166020820152604081018390526080606082018190526000906130ed908301846126cd565b9695505050505050565b60006020828403121561310957600080fd5b81516110bb8161263c565b634e487b7160e01b600052603160045260246000fdfea2646970667358221220ee8119f279aae7f52106e5243e0043ec21d06348a8a4c48350d2cad11fed790364736f6c634300080c0033",
    "linkReferences": {}
  },
  "methodIdentifiers": {
    "accessoryIdToAccessory(uint256)": "db8a06cf",
    "addAccessory((address,string,uint256))": "1ab87a44",
    "addressToAccessoryEnabled(address)": "7473660a",
    "addressToAccessoryUnlocked(address,uint256)": "2fdaa490",
    "addressToCategoryScore(address,string)": "da2fd4cb",
    "addressToPFPSVGLink(address)": "cb19a1d6",
    "approve(address,uint256)": "095ea7b3",
    "balanceOf(address)": "70a08231",
    "bunnyPFPContractAddress()": "dfcf2cf8",
    "cdmAddr()": "c17c7faa",
    "clearBunnyPFPLink()": "aa416e54",
    "descriptor()": "303e74df",
    "getApproved(uint256)": "081812fc",
    "getUnlockedAccessoriesForAddress(address)": "d1c5df07",
    "initialize(address)": "c4d66de8",
    "isApprovedForAll(address,address)": "e985e9c5",
    "mint(address)": "6a627842",
    "name()": "06fdde03",
    "nonce()": "affed0e0",
    "owner()": "8da5cb5b",
    "ownerOf(uint256)": "6352211e",
    "relockAccessoryOrDecrementCategory((bool,address,string,uint256,string)[])": "45cb4e42",
    "removeAccessory(uint256)": "cdb16e00",
    "renounceOwnership()": "715018a6",
    "safeTransferFrom(address,address,uint256)": "42842e0e",
    "safeTransferFrom(address,address,uint256,bytes)": "b88d4fde",
    "setApprovalForAll(address,bool)": "a22cb465",
    "setBunnyPFPContract(address)": "d4f353c0",
    "setBunnyPFPSVGFromL1(bytes)": "4c0332a5",
    "setDescriptorContract(address)": "d37825b2",
    "setEnabledAccessory(uint256)": "2f2aa210",
    "setOptimismCrossChainMessengerAddress(address)": "0303348f",
    "supportsInterface(bytes4)": "01ffc9a7",
    "symbol()": "95d89b41",
    "tokenURI(uint256)": "c87b56dd",
    "totalCategoryCount()": "b2b52ef1",
    "transferFrom(address,address,uint256)": "23b872dd",
    "transferOwnership(address)": "f2fde38b",
    "unlockAccessoryOrIncrementCategory((bool,address,string,uint256,string)[])": "36d587bf"
  },
  "id": 32
}