{
  "abi": [
    {
      "anonymous": false,
      "inputs": [
        {
          "indexed": true,
          "internalType": "address",
          "name": "addr",
          "type": "address"
        },
        {
          "indexed": true,
          "internalType": "uint256",
          "name": "accessoryId",
          "type": "uint256"
        },
        {
          "indexed": false,
          "internalType": "string",
          "name": "ipfsLink",
          "type": "string"
        },
        {
          "indexed": false,
          "internalType": "bool",
          "name": "unlocked",
          "type": "bool"
        },
        {
          "indexed": false,
          "internalType": "bytes32",
          "name": "ipfsEntryHash",
          "type": "bytes32"
        }
      ],
      "name": "AccessoryLockChanged",
      "type": "event"
    },
    {
      "anonymous": false,
      "inputs": [
        {
          "indexed": true,
          "internalType": "address",
          "name": "addr",
          "type": "address"
        },
        {
          "indexed": true,
          "internalType": "uint256",
          "name": "oldAccessory",
          "type": "uint256"
        },
        {
          "indexed": true,
          "internalType": "uint256",
          "name": "newAccessory",
          "type": "uint256"
        }
      ],
      "name": "AccessorySwapped",
      "type": "event"
    },
    {
      "anonymous": false,
      "inputs": [
        {
          "indexed": true,
          "internalType": "address",
          "name": "owner",
          "type": "address"
        },
        {
          "indexed": true,
          "internalType": "address",
          "name": "approved",
          "type": "address"
        },
        {
          "indexed": true,
          "internalType": "uint256",
          "name": "tokenId",
          "type": "uint256"
        }
      ],
      "name": "Approval",
      "type": "event"
    },
    {
      "anonymous": false,
      "inputs": [
        {
          "indexed": true,
          "internalType": "address",
          "name": "owner",
          "type": "address"
        },
        {
          "indexed": true,
          "internalType": "address",
          "name": "operator",
          "type": "address"
        },
        {
          "indexed": false,
          "internalType": "bool",
          "name": "approved",
          "type": "bool"
        }
      ],
      "name": "ApprovalForAll",
      "type": "event"
    },
    {
      "anonymous": false,
      "inputs": [
        {
          "indexed": true,
          "internalType": "address",
          "name": "owner",
          "type": "address"
        },
        {
          "indexed": true,
          "internalType": "uint256",
          "name": "tokenId",
          "type": "uint256"
        }
      ],
      "name": "BunnyPFPLinked",
      "type": "event"
    },
    {
      "anonymous": false,
      "inputs": [
        {
          "indexed": true,
          "internalType": "address",
          "name": "addr",
          "type": "address"
        },
        {
          "indexed": false,
          "internalType": "string",
          "name": "ipfsLink",
          "type": "string"
        },
        {
          "indexed": false,
          "internalType": "string",
          "name": "categoryId",
          "type": "string"
        },
        {
          "indexed": false,
          "internalType": "uint256",
          "name": "newScore",
          "type": "uint256"
        },
        {
          "indexed": false,
          "internalType": "uint256",
          "name": "oldScore",
          "type": "uint256"
        },
        {
          "indexed": false,
          "internalType": "bytes32",
          "name": "ipfsEntryHash",
          "type": "bytes32"
        }
      ],
      "name": "CategoryScoreChanged",
      "type": "event"
    },
    {
      "anonymous": false,
      "inputs": [
        {
          "indexed": false,
          "internalType": "uint8",
          "name": "version",
          "type": "uint8"
        }
      ],
      "name": "Initialized",
      "type": "event"
    },
    {
      "anonymous": false,
      "inputs": [
        {
          "indexed": true,
          "internalType": "address",
          "name": "previousOwner",
          "type": "address"
        },
        {
          "indexed": true,
          "internalType": "address",
          "name": "newOwner",
          "type": "address"
        }
      ],
      "name": "OwnershipTransferred",
      "type": "event"
    },
    {
      "anonymous": false,
      "inputs": [
        {
          "indexed": true,
          "internalType": "address",
          "name": "from",
          "type": "address"
        },
        {
          "indexed": true,
          "internalType": "address",
          "name": "to",
          "type": "address"
        },
        {
          "indexed": true,
          "internalType": "uint256",
          "name": "tokenId",
          "type": "uint256"
        }
      ],
      "name": "Transfer",
      "type": "event"
    },
    {
      "inputs": [
        {
          "internalType": "uint256",
          "name": "",
          "type": "uint256"
        }
      ],
      "name": "accessoryIdToAccessory",
      "outputs": [
        {
          "internalType": "address",
          "name": "artContract",
          "type": "address"
        },
        {
          "internalType": "string",
          "name": "xpCategory",
          "type": "string"
        },
        {
          "internalType": "uint256",
          "name": "qualifyingXPScore",
          "type": "uint256"
        }
      ],
      "stateMutability": "view",
      "type": "function"
    },
    {
      "inputs": [
        {
          "components": [
            {
              "internalType": "address",
              "name": "artContract",
              "type": "address"
            },
            {
              "internalType": "string",
              "name": "xpCategory",
              "type": "string"
            },
            {
              "internalType": "uint256",
              "name": "qualifyingXPScore",
              "type": "uint256"
            }
          ],
          "internalType": "struct IBackedCommunityTokenV1.Accessory",
          "name": "accessory",
          "type": "tuple"
        }
      ],
      "name": "addAccessory",
      "outputs": [
        {
          "internalType": "uint256",
          "name": "newAccessoryId",
          "type": "uint256"
        }
      ],
      "stateMutability": "nonpayable",
      "type": "function"
    },
    {
      "inputs": [
        {
          "internalType": "address",
          "name": "",
          "type": "address"
        }
      ],
      "name": "addressToAccessoryEnabled",
      "outputs": [
        {
          "internalType": "uint256",
          "name": "",
          "type": "uint256"
        }
      ],
      "stateMutability": "view",
      "type": "function"
    },
    {
      "inputs": [
        {
          "internalType": "address",
          "name": "",
          "type": "address"
        },
        {
          "internalType": "uint256",
          "name": "",
          "type": "uint256"
        }
      ],
      "name": "addressToAccessoryUnlocked",
      "outputs": [
        {
          "internalType": "bool",
          "name": "",
          "type": "bool"
        }
      ],
      "stateMutability": "view",
      "type": "function"
    },
    {
      "inputs": [
        {
          "internalType": "address",
          "name": "",
          "type": "address"
        },
        {
          "internalType": "string",
          "name": "",
          "type": "string"
        }
      ],
      "name": "addressToCategoryScore",
      "outputs": [
        {
          "internalType": "uint256",
          "name": "",
          "type": "uint256"
        }
      ],
      "stateMutability": "view",
      "type": "function"
    },
    {
      "inputs": [
        {
          "internalType": "address",
          "name": "",
          "type": "address"
        }
      ],
      "name": "addressToPFPSVGLink",
      "outputs": [
        {
          "internalType": "string",
          "name": "",
          "type": "string"
        }
      ],
      "stateMutability": "view",
      "type": "function"
    },
    {
      "inputs": [
        {
          "internalType": "address",
          "name": "to",
          "type": "address"
        },
        {
          "internalType": "uint256",
          "name": "tokenId",
          "type": "uint256"
        }
      ],
      "name": "approve",
      "outputs": [],
      "stateMutability": "nonpayable",
      "type": "function"
    },
    {
      "inputs": [
        {
          "internalType": "address",
          "name": "owner",
          "type": "address"
        }
      ],
      "name": "balanceOf",
      "outputs": [
        {
          "internalType": "uint256",
          "name": "",
          "type": "uint256"
        }
      ],
      "stateMutability": "view",
      "type": "function"
    },
    {
      "inputs": [],
      "name": "bunnyPFPContractAddress",
      "outputs": [
        {
          "internalType": "address",
          "name": "",
          "type": "address"
        }
      ],
      "stateMutability": "view",
      "type": "function"
    },
    {
      "inputs": [],
      "name": "cdmAddr",
      "outputs": [
        {
          "internalType": "address",
          "name": "",
          "type": "address"
        }
      ],
      "stateMutability": "view",
      "type": "function"
    },
    {
      "inputs": [],
      "name": "clearBunnyPFPLink",
      "outputs": [],
      "stateMutability": "nonpayable",
      "type": "function"
    },
    {
      "inputs": [],
      "name": "descriptor",
      "outputs": [
        {
          "internalType": "contract IBackedCommunityTokenDescriptorV1",
          "name": "",
          "type": "address"
        }
      ],
      "stateMutability": "view",
      "type": "function"
    },
    {
      "inputs": [
        {
          "internalType": "uint256",
          "name": "tokenId",
          "type": "uint256"
        }
      ],
      "name": "getApproved",
      "outputs": [
        {
          "internalType": "address",
          "name": "",
          "type": "address"
        }
      ],
      "stateMutability": "view",
      "type": "function"
    },
    {
      "inputs": [
        {
          "internalType": "address",
          "name": "user",
          "type": "address"
        }
      ],
      "name": "getUnlockedAccessoriesForAddress",
      "outputs": [
        {
          "internalType": "uint256[]",
          "name": "",
          "type": "uint256[]"
        }
      ],
      "stateMutability": "view",
      "type": "function"
    },
    {
      "inputs": [
        {
          "internalType": "address",
          "name": "_descriptorAddress",
          "type": "address"
        }
      ],
      "name": "initialize",
      "outputs": [],
      "stateMutability": "nonpayable",
      "type": "function"
    },
    {
      "inputs": [
        {
          "internalType": "address",
          "name": "owner",
          "type": "address"
        },
        {
          "internalType": "address",
          "name": "operator",
          "type": "address"
        }
      ],
      "name": "isApprovedForAll",
      "outputs": [
        {
          "internalType": "bool",
          "name": "",
          "type": "bool"
        }
      ],
      "stateMutability": "view",
      "type": "function"
    },
    {
      "inputs": [
        {
          "internalType": "address",
          "name": "mintTo",
          "type": "address"
        }
      ],
      "name": "mint",
      "outputs": [],
      "stateMutability": "nonpayable",
      "type": "function"
    },
    {
      "inputs": [],
      "name": "name",
      "outputs": [
        {
          "internalType": "string",
          "name": "",
          "type": "string"
        }
      ],
      "stateMutability": "view",
      "type": "function"
    },
    {
      "inputs": [],
      "name": "nonce",
      "outputs": [
        {
          "internalType": "uint256",
          "name": "",
          "type": "uint256"
        }
      ],
      "stateMutability": "view",
      "type": "function"
    },
    {
      "inputs": [],
      "name": "owner",
      "outputs": [
        {
          "internalType": "address",
          "name": "",
          "type": "address"
        }
      ],
      "stateMutability": "view",
      "type": "function"
    },
    {
      "inputs": [
        {
          "internalType": "uint256",
          "name": "tokenId",
          "type": "uint256"
        }
      ],
      "name": "ownerOf",
      "outputs": [
        {
          "internalType": "address",
          "name": "",
          "type": "address"
        }
      ],
      "stateMutability": "view",
      "type": "function"
    },
    {
      "inputs": [
        {
          "components": [
            {
              "internalType": "bool",
              "name": "isCategoryChange",
              "type": "bool"
            },
            {
              "internalType": "address",
              "name": "user",
              "type": "address"
            },
            {
              "internalType": "string",
              "name": "categoryId",
              "type": "string"
            },
            {
              "internalType": "uint256",
              "name": "accessoryId",
              "type": "uint256"
            },
            {
              "internalType": "string",
              "name": "ipfsLink",
              "type": "string"
            }
          ],
          "internalType": "struct IBackedCommunityTokenV1.CategoryOrAccessoryChange[]",
          "name": "changes",
          "type": "tuple[]"
        }
      ],
      "name": "relockAccessoryOrDecrementCategory",
      "outputs": [],
      "stateMutability": "nonpayable",
      "type": "function"
    },
    {
      "inputs": [
        {
          "internalType": "uint256",
          "name": "accessoryId",
          "type": "uint256"
        }
      ],
      "name": "removeAccessory",
      "outputs": [],
      "stateMutability": "nonpayable",
      "type": "function"
    },
    {
      "inputs": [],
      "name": "renounceOwnership",
      "outputs": [],
      "stateMutability": "nonpayable",
      "type": "function"
    },
    {
      "inputs": [
        {
          "internalType": "address",
          "name": "from",
          "type": "address"
        },
        {
          "internalType": "address",
          "name": "to",
          "type": "address"
        },
        {
          "internalType": "uint256",
          "name": "tokenId",
          "type": "uint256"
        }
      ],
      "name": "safeTransferFrom",
      "outputs": [],
      "stateMutability": "nonpayable",
      "type": "function"
    },
    {
      "inputs": [
        {
          "internalType": "address",
          "name": "from",
          "type": "address"
        },
        {
          "internalType": "address",
          "name": "to",
          "type": "address"
        },
        {
          "internalType": "uint256",
          "name": "tokenId",
          "type": "uint256"
        },
        {
          "internalType": "bytes",
          "name": "_data",
          "type": "bytes"
        }
      ],
      "name": "safeTransferFrom",
      "outputs": [],
      "stateMutability": "nonpayable",
      "type": "function"
    },
    {
      "inputs": [
        {
          "internalType": "address",
          "name": "operator",
          "type": "address"
        },
        {
          "internalType": "bool",
          "name": "approved",
          "type": "bool"
        }
      ],
      "name": "setApprovalForAll",
      "outputs": [],
      "stateMutability": "nonpayable",
      "type": "function"
    },
    {
      "inputs": [
        {
          "internalType": "address",
          "name": "addr",
          "type": "address"
        }
      ],
      "name": "setBunnyPFPContract",
      "outputs": [],
      "stateMutability": "nonpayable",
      "type": "function"
    },
    {
      "inputs": [
        {
          "internalType": "address",
          "name": "owner",
          "type": "address"
        },
        {
          "internalType": "string",
          "name": "svg",
          "type": "string"
        },
        {
          "internalType": "uint256",
          "name": "tokenId",
          "type": "uint256"
        }
      ],
      "name": "setBunnyPFPSVGFromL1",
      "outputs": [],
      "stateMutability": "nonpayable",
      "type": "function"
    },
    {
      "inputs": [
        {
          "internalType": "address",
          "name": "addr",
          "type": "address"
        }
      ],
      "name": "setDescriptorContract",
      "outputs": [],
      "stateMutability": "nonpayable",
      "type": "function"
    },
    {
      "inputs": [
        {
          "internalType": "uint256",
          "name": "accessoryId",
          "type": "uint256"
        }
      ],
      "name": "setEnabledAccessory",
      "outputs": [],
      "stateMutability": "nonpayable",
      "type": "function"
    },
    {
      "inputs": [
        {
          "internalType": "address",
          "name": "addr",
          "type": "address"
        }
      ],
      "name": "setOptimismCrossChainMessengerAddress",
      "outputs": [],
      "stateMutability": "nonpayable",
      "type": "function"
    },
    {
      "inputs": [
        {
          "internalType": "bytes4",
          "name": "interfaceId",
          "type": "bytes4"
        }
      ],
      "name": "supportsInterface",
      "outputs": [
        {
          "internalType": "bool",
          "name": "",
          "type": "bool"
        }
      ],
      "stateMutability": "view",
      "type": "function"
    },
    {
      "inputs": [],
      "name": "symbol",
      "outputs": [
        {
          "internalType": "string",
          "name": "",
          "type": "string"
        }
      ],
      "stateMutability": "view",
      "type": "function"
    },
    {
      "inputs": [
        {
          "internalType": "uint256",
          "name": "tokenId",
          "type": "uint256"
        }
      ],
      "name": "tokenURI",
      "outputs": [
        {
          "internalType": "string",
          "name": "",
          "type": "string"
        }
      ],
      "stateMutability": "view",
      "type": "function"
    },
    {
      "inputs": [],
      "name": "totalCategoryCount",
      "outputs": [
        {
          "internalType": "uint256",
          "name": "",
          "type": "uint256"
        }
      ],
      "stateMutability": "view",
      "type": "function"
    },
    {
      "inputs": [
        {
          "internalType": "address",
          "name": "from",
          "type": "address"
        },
        {
          "internalType": "address",
          "name": "to",
          "type": "address"
        },
        {
          "internalType": "uint256",
          "name": "tokenId",
          "type": "uint256"
        }
      ],
      "name": "transferFrom",
      "outputs": [],
      "stateMutability": "nonpayable",
      "type": "function"
    },
    {
      "inputs": [
        {
          "internalType": "address",
          "name": "newOwner",
          "type": "address"
        }
      ],
      "name": "transferOwnership",
      "outputs": [],
      "stateMutability": "nonpayable",
      "type": "function"
    },
    {
      "inputs": [
        {
          "components": [
            {
              "internalType": "bool",
              "name": "isCategoryChange",
              "type": "bool"
            },
            {
              "internalType": "address",
              "name": "user",
              "type": "address"
            },
            {
              "internalType": "string",
              "name": "categoryId",
              "type": "string"
            },
            {
              "internalType": "uint256",
              "name": "accessoryId",
              "type": "uint256"
            },
            {
              "internalType": "string",
              "name": "ipfsLink",
              "type": "string"
            }
          ],
          "internalType": "struct IBackedCommunityTokenV1.CategoryOrAccessoryChange[]",
          "name": "changes",
          "type": "tuple[]"
        }
      ],
      "name": "unlockAccessoryOrIncrementCategory",
      "outputs": [],
      "stateMutability": "nonpayable",
      "type": "function"
    }
  ],
  "bytecode": {
    "object": "0x608060405234801561001057600080fd5b5061323a806100206000396000f3fe608060405234801561001057600080fd5b506004361061023d5760003560e01c80638da5cb5b1161013b578063cb19a1d6116100b8578063da2fd4cb1161007c578063da2fd4cb14610505578063db8a06cf14610541578063dfcf2cf814610563578063e985e9c514610576578063f2fde38b1461058957600080fd5b8063cb19a1d614610499578063cdb16e00146104ac578063d1c5df07146104bf578063d37825b2146104df578063d4f353c0146104f257600080fd5b8063b2b52ef1116100ff578063b2b52ef114610444578063b88d4fde1461044d578063c17c7faa14610460578063c4d66de814610473578063c87b56dd1461048657600080fd5b80638da5cb5b1461040757806395d89b4114610418578063a22cb46514610420578063aa416e5414610433578063affed0e01461043b57600080fd5b80632fdaa490116101c95780636352211e1161018d5780636352211e146103a65780636a627842146103b957806370a08231146103cc578063715018a6146103df5780637473660a146103e757600080fd5b80632fdaa4901461032c578063303e74df1461035a57806336d587bf1461036d57806342842e0e1461038057806345cb4e421461039357600080fd5b8063095ea7b311610210578063095ea7b3146102bf5780631ab87a44146102d257806323b872dd146102f35780632427061d146103065780632f2aa2101461031957600080fd5b806301ffc9a7146102425780630303348f1461026a57806306fdde031461027f578063081812fc14610294575b600080fd5b6102556102503660046126ab565b61059c565b60405190151581526020015b60405180910390f35b61027d6102783660046126dd565b6105ee565b005b610287610643565b6040516102619190612752565b6102a76102a2366004612765565b6106d5565b6040516001600160a01b039091168152602001610261565b61027d6102cd36600461277e565b61076a565b6102e56102e03660046127aa565b610880565b604051908152602001610261565b61027d6103013660046127e5565b6108d0565b61027d610314366004612826565b610901565b61027d610327366004612765565b610ac6565b61025561033a36600461277e565b600960209081526000928352604080842090915290825290205460ff1681565b6002546102a7906001600160a01b031681565b61027d61037b3660046129b7565b610b95565b61027d61038e3660046127e5565b610c51565b61027d6103a13660046129b7565b610c6c565b6102a76103b4366004612765565b610d24565b61027d6103c73660046126dd565b610d9b565b6102e56103da3660046126dd565b610dbc565b61027d610e42565b6102e56103f53660046126dd565b600a6020526000908152604090205481565b60a4546001600160a01b03166102a7565b610287610e78565b61027d61042e366004612b07565b610e87565b61027d610e92565b6102e560005481565b6102e560035481565b61027d61045b366004612b3c565b610eba565b6001546102a7906001600160a01b031681565b61027d6104813660046126dd565b610ef2565b610287610494366004612765565b610fc9565b6102876104a73660046126dd565b6110de565b61027d6104ba366004612765565b611178565b6104d26104cd3660046126dd565b6111ab565b6040516102619190612bbc565b61027d6104ed3660046126dd565b61126e565b61027d6105003660046126dd565b6112ba565b6102e5610513366004612c00565b6004602090815260009283526040909220815180830184018051928152908401929093019190912091525481565b61055461054f366004612765565b611306565b60405161026193929190612c50565b600b546102a7906001600160a01b031681565b610255610584366004612c84565b6113bb565b61027d6105973660046126dd565b6113e9565b60006001600160e01b031982166380ac58cd60e01b14806105cd57506001600160e01b03198216635b5e139f60e01b145b806105e857506301ffc9a760e01b6001600160e01b03198316145b92915050565b60a4546001600160a01b031633146106215760405162461bcd60e51b815260040161061890612cbd565b60405180910390fd5b600180546001600160a01b0319166001600160a01b0392909216919091179055565b60606072805461065290612cf2565b80601f016020809104026020016040519081016040528092919081815260200182805461067e90612cf2565b80156106cb5780601f106106a0576101008083540402835291602001916106cb565b820191906000526020600020905b8154815290600101906020018083116106ae57829003601f168201915b5050505050905090565b6000818152607460205260408120546001600160a01b031661074e5760405162461bcd60e51b815260206004820152602c60248201527f4552433732313a20617070726f76656420717565727920666f72206e6f6e657860448201526b34b9ba32b73a103a37b5b2b760a11b6064820152608401610618565b506000908152607660205260409020546001600160a01b031690565b600061077582610d24565b9050806001600160a01b0316836001600160a01b031614156107e35760405162461bcd60e51b815260206004820152602160248201527f4552433732313a20617070726f76616c20746f2063757272656e74206f776e656044820152603960f91b6064820152608401610618565b336001600160a01b03821614806107ff57506107ff81336113bb565b6108715760405162461bcd60e51b815260206004820152603860248201527f4552433732313a20617070726f76652063616c6c6572206973206e6f74206f7760448201527f6e6572206e6f7220617070726f76656420666f7220616c6c00000000000000006064820152608401610618565b61087b8383611481565b505050565b60a4546000906001600160a01b031633146108ad5760405162461bcd60e51b815260040161061890612cbd565b5060078054600101908190556108cb816108c684612d2d565b6114ef565b919050565b6108da3382611570565b6108f65760405162461bcd60e51b815260040161061890612dae565b61087b838383611647565b6001546001600160a01b031633146109815760405162461bcd60e51b815260206004820152603d60248201527f4261636b6564436f6d6d756e697479546f6b656e56313a2063616c6c6572206d60448201527f7573742062652063726f737320646f6d61696e206d657373656e6765720000006064820152608401610618565b600b5460015460408051636e296e4560e01b815290516001600160a01b039384169390921691636e296e45916004808201926020929091908290030181865afa1580156109d2573d6000803e3d6000fd5b505050506040513d601f19601f820116820180604052508101906109f69190612dff565b6001600160a01b031614610a665760405162461bcd60e51b815260206004820152603160248201527f4261636b6564436f6d6d756e697479546f6b656e56313a206f726967696e206d6044820152700757374206265204261636b65642050465607c1b6064820152608401610618565b6001600160a01b0384166000908152600c60205260409020610a89908484612588565b5060405181906001600160a01b038616907f636b0e6ea24f7b2a58c337ff69d8744756d9b166bb29fdb31b21cc126e535ad190600090a350505050565b336000818152600a602052604090205490610ae190836116c6565b610b535760405162461bcd60e51b815260206004820152603760248201527f4261636b6564436f6d6d756e697479546f6b656e56313a2075736572206e6f7460448201527f20656c696769626c6520666f72206163636573736f72790000000000000000006064820152608401610618565b336000818152600a6020526040808220859055518492849290917fea1b1f91e87d6596dd266ab28a1e2231755992988caaafc59ed42f2331d41e8c9190a45050565b60a4546001600160a01b03163314610bbf5760405162461bcd60e51b815260040161061890612cbd565b60005b8151811015610c4d57818181518110610bdd57610bdd612e1c565b60200260200101516000015115610c1757610c12828281518110610c0357610c03612e1c565b60200260200101516001611832565b610c3b565b610c3b828281518110610c2c57610c2c612e1c565b602002602001015160016119c4565b80610c4581612e48565b915050610bc2565b5050565b61087b83838360405180602001604052806000815250610eba565b60a4546001600160a01b03163314610c965760405162461bcd60e51b815260040161061890612cbd565b60005b8151811015610c4d57818181518110610cb457610cb4612e1c565b60200260200101516000015115610cee57610ce9828281518110610cda57610cda612e1c565b60200260200101516000611832565b610d12565b610d12828281518110610d0357610d03612e1c565b602002602001015160006119c4565b80610d1c81612e48565b915050610c99565b6000818152607460205260408120546001600160a01b0316806105e85760405162461bcd60e51b815260206004820152602960248201527f4552433732313a206f776e657220717565727920666f72206e6f6e657869737460448201526832b73a103a37b5b2b760b91b6064820152608401610618565b60008054610db99183919080610db083612e48565b91905055611bcb565b50565b60006001600160a01b038216610e265760405162461bcd60e51b815260206004820152602960248201527f4552433732313a2061646472657373207a65726f206973206e6f7420612076616044820152683634b21037bbb732b960b91b6064820152608401610618565b506001600160a01b031660009081526075602052604090205490565b60a4546001600160a01b03163314610e6c5760405162461bcd60e51b815260040161061890612cbd565b610e766000611c3d565b565b60606073805461065290612cf2565b610c4d338383611c8f565b6040805160208082018084526000808452338152600c9092529290209051610db9929061260c565b610ec43383611570565b610ee05760405162461bcd60e51b815260040161061890612dae565b610eec84848484611d5e565b50505050565b6000610efe6001611d91565b90508015610f1657600d805461ff0019166101001790555b610f656040518060400160405280600f81526020016e4261636b6564436f6d6d756e69747960881b81525060405180604001604052806006815260200165109050d2d15160d21b815250611e1b565b600280546001600160a01b0319166001600160a01b0384161790558015610c4d57600d805461ff0019169055604051600181527f7f26b83ff96e1f2b6a682f133852f6798a09c465da95921460cefb38474024989060200160405180910390a15050565b6040516331a9108f60e11b8152600481018290526060906000903090636352211e90602401602060405180830381865afa15801561100b573d6000803e3d6000fd5b505050506040513d601f19601f8201168201806040525081019061102f9190612dff565b6002546001600160a01b038083166000818152600a602090815260408083205483526008825280832054938352600c90915290819020905163045b0e1b60e01b81529495509282169363045b0e1b93611092938993889391169190600401612e63565b600060405180830381865afa1580156110af573d6000803e3d6000fd5b505050506040513d6000823e601f3d908101601f191682016040526110d79190810190612f31565b9392505050565b600c60205260009081526040902080546110f790612cf2565b80601f016020809104026020016040519081016040528092919081815260200182805461112390612cf2565b80156111705780601f1061114557610100808354040283529160200191611170565b820191906000526020600020905b81548152906001019060200180831161115357829003601f168201915b505050505081565b60a4546001600160a01b031633146111a25760405162461bcd60e51b815260040161061890612cbd565b610db981611e54565b606060006111b96005611e5f565b905060008167ffffffffffffffff8111156111d6576111d66128b1565b6040519080825280602002602001820160405280156111ff578160200160208202803683370190505b50905060005b82811015611266576112218561121c600584611e69565b6116c6565b61122c576000611237565b611237600582611e69565b82828151811061124957611249612e1c565b60209081029190910101528061125e81612e48565b915050611205565b509392505050565b60a4546001600160a01b031633146112985760405162461bcd60e51b815260040161061890612cbd565b600280546001600160a01b0319166001600160a01b0392909216919091179055565b60a4546001600160a01b031633146112e45760405162461bcd60e51b815260040161061890612cbd565b600b80546001600160a01b0319166001600160a01b0392909216919091179055565b600860205260009081526040902080546001820180546001600160a01b03909216929161133290612cf2565b80601f016020809104026020016040519081016040528092919081815260200182805461135e90612cf2565b80156113ab5780601f10611380576101008083540402835291602001916113ab565b820191906000526020600020905b81548152906001019060200180831161138e57829003601f168201915b5050505050908060020154905083565b6001600160a01b03918216600090815260776020908152604080832093909416825291909152205460ff1690565b60a4546001600160a01b031633146114135760405162461bcd60e51b815260040161061890612cbd565b6001600160a01b0381166114785760405162461bcd60e51b815260206004820152602660248201527f4f776e61626c653a206e6577206f776e657220697320746865207a65726f206160448201526564647265737360d01b6064820152608401610618565b610db981611c3d565b600081815260766020526040902080546001600160a01b0319166001600160a01b03841690811790915581906114b682610d24565b6001600160a01b03167f8c5be1e5ebec7d5bd14f71427d1e84f3dd0314c0f7b2291e5b200ac8c7c3b92560405160405180910390a45050565b6040805160608101825282516001600160a01b039081168252602080850151818401908152858501518486015260008781526008835294909420835181546001600160a01b03191693169290921782559251805192939192611557926001850192019061260c565b506040820151816002015590505061087b600583611e75565b6000818152607460205260408120546001600160a01b03166115e95760405162461bcd60e51b815260206004820152602c60248201527f4552433732313a206f70657261746f7220717565727920666f72206e6f6e657860448201526b34b9ba32b73a103a37b5b2b760a11b6064820152608401610618565b60006115f483610d24565b9050806001600160a01b0316846001600160a01b0316148061161b575061161b81856113bb565b8061163f5750836001600160a01b0316611634846106d5565b6001600160a01b0316145b949350505050565b60a4546001600160a01b031633146116bb5760405162461bcd60e51b815260206004820152603160248201527f455243373231536f756c626f756e643a206f6e6c7920636f6e7472616374206f6044820152703bb732b91031b0b7103a3930b739b332b960791b6064820152608401610618565b61087b838383611e81565b6000816116d5575060016105e8565b600082815260086020908152604080832081516060810190925280546001600160a01b03168252600181018054929391929184019161171390612cf2565b80601f016020809104026020016040519081016040528092919081815260200182805461173f90612cf2565b801561178c5780601f106117615761010080835404028352916020019161178c565b820191906000526020600020905b81548152906001019060200180831161176f57829003601f168201915b5050505050815260200160028201548152505090506117aa8361201d565b156117dd5750506001600160a01b038216600090815260096020908152604080832084845290915290205460ff166105e8565b806040015160046000866001600160a01b03166001600160a01b0316815260200190815260200160002082602001516040516118199190612fa8565b90815260200160405180910390205410159150506105e8565b6020808301516001600160a01b0316600090815260049091526040808220818501519151909161186191612fa8565b9081526020016040518091039020549050600082156118dc576004600085602001516001600160a01b03166001600160a01b0316815260200190815260200160002084604001516040516118b59190612fa8565b9081526020016040518091039020600081546118d090612e48565b9182905550905061193a565b6004600085602001516001600160a01b03166001600160a01b0316815260200190815260200160002084604001516040516119179190612fa8565b90815260200160405180910390206000815461193290612fc4565b918290555090505b602080850151608086015160408088015190516001600160a01b038416947f9ef5bdac21c0b2ea1e3f6bb8f97d9da60f47f64a6b092f1e97f5f8f058bfbd72948792899261198f929186918691869101612fdb565b604051602081830303815290604052805190602001206040516119b6959493929190613012565b60405180910390a250505050565b60608201516000908152600860205260409020546001600160a01b0316611a465760405162461bcd60e51b815260206004820152603060248201527f4261636b6564436f6d6d756e697479546f6b656e56313a204163636573736f7260448201526f1e48191bd95cc81b9bdd08195e1a5cdd60821b6064820152608401610618565b611a53826060015161201d565b611abd5760405162461bcd60e51b815260206004820152603560248201527f4261636b6564436f6d6d756e697479546f6b656e56313a204163636573736f726044820152741e481b5d5cdd0818994818591b5a5b8818985cd959605a1b6064820152608401610618565b8015611afb576020808301516001600160a01b031660009081526009825260408082206060860151835290925220805460ff19166001179055611b2c565b6020808301516001600160a01b031660009081526009825260408082206060860151835290925220805460ff191690555b606082015160208084015160808501516040516001600160a01b038316937f9585125add627de8c748eef8bbf87fd4d943068f750d41b4657804c42163b00f938792611b9a9288918591016001600160a01b0393909316835260208301919091521515604082015260600190565b60405160208183030381529060405280519060200120604051611bbf93929190613055565b60405180910390a35050565b6001611bd683610dbc565b10611c335760405162461bcd60e51b815260206004820152602760248201527f455243373231536f756c626f756e643a2063616e6e6f74206f776e206d6f7265604482015266207468616e203160c81b6064820152608401610618565b610c4d82826120f2565b60a480546001600160a01b038381166001600160a01b0319831681179093556040519116919082907f8be0079c531659141344cd1fd0a4f28419497f9722a3daafe3b4186f6b6457e090600090a35050565b816001600160a01b0316836001600160a01b03161415611cf15760405162461bcd60e51b815260206004820152601960248201527f4552433732313a20617070726f766520746f2063616c6c6572000000000000006044820152606401610618565b6001600160a01b03838116600081815260776020908152604080832094871680845294825291829020805460ff191686151590811790915591519182527f17307eab39ab6107e8899845ad3d59bd9653f200f220920489ca2b5937696c31910160405180910390a3505050565b611d69848484611647565b611d7584848484612234565b610eec5760405162461bcd60e51b81526004016106189061307a565b600d54600090610100900460ff1615611dda578160ff166001148015611db65750303b155b611dd25760405162461bcd60e51b8152600401610618906130cc565b506000919050565b600d5460ff808416911610611e015760405162461bcd60e51b8152600401610618906130cc565b50600d805460ff191660ff92909216919091179055600190565b600d54610100900460ff16611e425760405162461bcd60e51b81526004016106189061311a565b611e4c8282612332565b610c4d612363565b610c4d600582612392565b60006105e8825490565b60006110d7838361239e565b60006110d783836123c8565b826001600160a01b0316611e9482610d24565b6001600160a01b031614611ef85760405162461bcd60e51b815260206004820152602560248201527f4552433732313a207472616e736665722066726f6d20696e636f72726563742060448201526437bbb732b960d91b6064820152608401610618565b6001600160a01b038216611f5a5760405162461bcd60e51b8152602060048201526024808201527f4552433732313a207472616e7366657220746f20746865207a65726f206164646044820152637265737360e01b6064820152608401610618565b611f65600082611481565b6001600160a01b0383166000908152607560205260408120805460019290611f8e908490613165565b90915550506001600160a01b0382166000908152607560205260408120805460019290611fbc90849061317c565b909155505060008181526074602052604080822080546001600160a01b0319166001600160a01b0386811691821790925591518493918716917fddf252ad1be2c89b69c2b068fc378daa952ba7f163c4a11628f55a4df523b3ef91a4505050565b600081815260086020908152604080832081516060810190925280546001600160a01b0316825260018101805485948401919061205990612cf2565b80601f016020809104026020016040519081016040528092919081815260200182805461208590612cf2565b80156120d25780601f106120a7576101008083540402835291602001916120d2565b820191906000526020600020905b8154815290600101906020018083116120b557829003601f168201915b505050918352505060029190910154602091820152015151159392505050565b6001600160a01b0382166121485760405162461bcd60e51b815260206004820181905260248201527f4552433732313a206d696e7420746f20746865207a65726f20616464726573736044820152606401610618565b6000818152607460205260409020546001600160a01b0316156121ad5760405162461bcd60e51b815260206004820152601c60248201527f4552433732313a20746f6b656e20616c7265616479206d696e746564000000006044820152606401610618565b6001600160a01b03821660009081526075602052604081208054600192906121d690849061317c565b909155505060008181526074602052604080822080546001600160a01b0319166001600160a01b03861690811790915590518392907fddf252ad1be2c89b69c2b068fc378daa952ba7f163c4a11628f55a4df523b3ef908290a45050565b60006001600160a01b0384163b1561232757604051630a85bd0160e11b81526001600160a01b0385169063150b7a0290612278903390899088908890600401613194565b6020604051808303816000875af19250505080156122b3575060408051601f3d908101601f191682019092526122b0918101906131d1565b60015b61230d573d8080156122e1576040519150601f19603f3d011682016040523d82523d6000602084013e6122e6565b606091505b5080516123055760405162461bcd60e51b81526004016106189061307a565b805181602001fd5b6001600160e01b031916630a85bd0160e11b14905061163f565b506001949350505050565b600d54610100900460ff166123595760405162461bcd60e51b81526004016106189061311a565b610c4d8282612417565b600d54610100900460ff1661238a5760405162461bcd60e51b81526004016106189061311a565b610e76612465565b60006110d78383612495565b60008260000182815481106123b5576123b5612e1c565b9060005260206000200154905092915050565b600081815260018301602052604081205461240f575081546001818101845560008481526020808220909301849055845484825282860190935260409020919091556105e8565b5060006105e8565b600d54610100900460ff1661243e5760405162461bcd60e51b81526004016106189061311a565b815161245190607290602085019061260c565b50805161087b90607390602084019061260c565b600d54610100900460ff1661248c5760405162461bcd60e51b81526004016106189061311a565b610e7633611c3d565b6000818152600183016020526040812054801561257e5760006124b9600183613165565b85549091506000906124cd90600190613165565b90508181146125325760008660000182815481106124ed576124ed612e1c565b906000526020600020015490508087600001848154811061251057612510612e1c565b6000918252602080832090910192909255918252600188019052604090208390555b8554869080612543576125436131ee565b6001900381819060005260206000200160009055905585600101600086815260200190815260200160002060009055600193505050506105e8565b60009150506105e8565b82805461259490612cf2565b90600052602060002090601f0160209004810192826125b657600085556125fc565b82601f106125cf5782800160ff198235161785556125fc565b828001600101855582156125fc579182015b828111156125fc5782358255916020019190600101906125e1565b50612608929150612680565b5090565b82805461261890612cf2565b90600052602060002090601f01602090048101928261263a57600085556125fc565b82601f1061265357805160ff19168380011785556125fc565b828001600101855582156125fc579182015b828111156125fc578251825591602001919060010190612665565b5b808211156126085760008155600101612681565b6001600160e01b031981168114610db957600080fd5b6000602082840312156126bd57600080fd5b81356110d781612695565b6001600160a01b0381168114610db957600080fd5b6000602082840312156126ef57600080fd5b81356110d7816126c8565b60005b838110156127155781810151838201526020016126fd565b83811115610eec5750506000910152565b6000815180845261273e8160208601602086016126fa565b601f01601f19169290920160200192915050565b6020815260006110d76020830184612726565b60006020828403121561277757600080fd5b5035919050565b6000806040838503121561279157600080fd5b823561279c816126c8565b946020939093013593505050565b6000602082840312156127bc57600080fd5b813567ffffffffffffffff8111156127d357600080fd5b8201606081850312156110d757600080fd5b6000806000606084860312156127fa57600080fd5b8335612805816126c8565b92506020840135612815816126c8565b929592945050506040919091013590565b6000806000806060858703121561283c57600080fd5b8435612847816126c8565b9350602085013567ffffffffffffffff8082111561286457600080fd5b818701915087601f83011261287857600080fd5b81358181111561288757600080fd5b88602082850101111561289957600080fd5b95986020929092019750949560400135945092505050565b634e487b7160e01b600052604160045260246000fd5b60405160a0810167ffffffffffffffff811182821017156128ea576128ea6128b1565b60405290565b604051601f8201601f1916810167ffffffffffffffff81118282101715612919576129196128b1565b604052919050565b803580151581146108cb57600080fd5b600067ffffffffffffffff82111561294b5761294b6128b1565b50601f01601f191660200190565b600061296c61296784612931565b6128f0565b905082815283838301111561298057600080fd5b828260208301376000602084830101529392505050565b600082601f8301126129a857600080fd5b6110d783833560208501612959565b600060208083850312156129ca57600080fd5b823567ffffffffffffffff808211156129e257600080fd5b818501915085601f8301126129f657600080fd5b813581811115612a0857612a086128b1565b8060051b612a178582016128f0565b9182528381018501918581019089841115612a3157600080fd5b86860192505b83831015612afa57823585811115612a4e57600080fd5b860160a0818c03601f19011215612a655760008081fd5b612a6d6128c7565b612a78898301612921565b8152604080830135612a89816126c8565b828b015260608381013589811115612aa15760008081fd5b612aaf8f8d83880101612997565b83850152506080915081840135818401525060a083013588811115612ad45760008081fd5b612ae28e8c83870101612997565b91830191909152508352509186019190860190612a37565b9998505050505050505050565b60008060408385031215612b1a57600080fd5b8235612b25816126c8565b9150612b3360208401612921565b90509250929050565b60008060008060808587031215612b5257600080fd5b8435612b5d816126c8565b93506020850135612b6d816126c8565b925060408501359150606085013567ffffffffffffffff811115612b9057600080fd5b8501601f81018713612ba157600080fd5b612bb087823560208401612959565b91505092959194509250565b6020808252825182820181905260009190848201906040850190845b81811015612bf457835183529284019291840191600101612bd8565b50909695505050505050565b60008060408385031215612c1357600080fd5b8235612c1e816126c8565b9150602083013567ffffffffffffffff811115612c3a57600080fd5b612c4685828601612997565b9150509250929050565b6001600160a01b0384168152606060208201819052600090612c7490830185612726565b9050826040830152949350505050565b60008060408385031215612c9757600080fd5b8235612ca2816126c8565b91506020830135612cb2816126c8565b809150509250929050565b6020808252818101527f4f776e61626c653a2063616c6c6572206973206e6f7420746865206f776e6572604082015260600190565b600181811c90821680612d0657607f821691505b60208210811415612d2757634e487b7160e01b600052602260045260246000fd5b50919050565b600060608236031215612d3f57600080fd5b6040516060810167ffffffffffffffff8282108183111715612d6357612d636128b1565b8160405284359150612d74826126c8565b90825260208401359080821115612d8a57600080fd5b50612d9736828601612997565b602083015250604092830135928101929092525090565b60208082526031908201527f4552433732313a207472616e736665722063616c6c6572206973206e6f74206f6040820152701ddb995c881b9bdc88185c1c1c9bdd9959607a1b606082015260800190565b600060208284031215612e1157600080fd5b81516110d7816126c8565b634e487b7160e01b600052603260045260246000fd5b634e487b7160e01b600052601160045260246000fd5b6000600019821415612e5c57612e5c612e32565b5060010190565b8481526001600160a01b038481166020808401919091529084166040830152608060608301528254600091908290600181811c9082811680612ea657607f831692505b858310811415612ec457634e487b7160e01b85526022600452602485fd5b6080880183905260a08801818015612ee35760018114612ef457612f1f565b60ff19861682528782019650612f1f565b60008b81526020902060005b86811015612f1957815484820152908501908901612f00565b83019750505b50949c9b505050505050505050505050565b600060208284031215612f4357600080fd5b815167ffffffffffffffff811115612f5a57600080fd5b8201601f81018413612f6b57600080fd5b8051612f7961296782612931565b818152856020838501011115612f8e57600080fd5b612f9f8260208301602086016126fa565b95945050505050565b60008251612fba8184602087016126fa565b9190910192915050565b600081612fd357612fd3612e32565b506000190190565b6001600160a01b0385168152608060208201819052600090612fff90830186612726565b6040830194909452506060015292915050565b60a08152600061302560a0830188612726565b82810360208401526130378188612726565b60408401969096525050606081019290925260809091015292915050565b6060815260006130686060830186612726565b93151560208301525060400152919050565b60208082526032908201527f4552433732313a207472616e7366657220746f206e6f6e20455243373231526560408201527131b2b4bb32b91034b6b83632b6b2b73a32b960711b606082015260800190565b6020808252602e908201527f496e697469616c697a61626c653a20636f6e747261637420697320616c72656160408201526d191e481a5b9a5d1a585b1a5e995960921b606082015260800190565b6020808252602b908201527f496e697469616c697a61626c653a20636f6e7472616374206973206e6f74206960408201526a6e697469616c697a696e6760a81b606082015260800190565b60008282101561317757613177612e32565b500390565b6000821982111561318f5761318f612e32565b500190565b6001600160a01b03858116825284166020820152604081018390526080606082018190526000906131c790830184612726565b9695505050505050565b6000602082840312156131e357600080fd5b81516110d781612695565b634e487b7160e01b600052603160045260246000fdfea26469706673582212200f8e5b6e920ebc7c9fe80d9e24905e9dab88431db84e35aeb4af68309538241664736f6c634300080c0033",
    "linkReferences": {}
  },
  "methodIdentifiers": {
    "accessoryIdToAccessory(uint256)": "db8a06cf",
    "addAccessory((address,string,uint256))": "1ab87a44",
    "addressToAccessoryEnabled(address)": "7473660a",
    "addressToAccessoryUnlocked(address,uint256)": "2fdaa490",
    "addressToCategoryScore(address,string)": "da2fd4cb",
    "addressToPFPSVGLink(address)": "cb19a1d6",
    "approve(address,uint256)": "095ea7b3",
    "balanceOf(address)": "70a08231",
    "bunnyPFPContractAddress()": "dfcf2cf8",
    "cdmAddr()": "c17c7faa",
    "clearBunnyPFPLink()": "aa416e54",
    "descriptor()": "303e74df",
    "getApproved(uint256)": "081812fc",
    "getUnlockedAccessoriesForAddress(address)": "d1c5df07",
    "initialize(address)": "c4d66de8",
    "isApprovedForAll(address,address)": "e985e9c5",
    "mint(address)": "6a627842",
    "name()": "06fdde03",
    "nonce()": "affed0e0",
    "owner()": "8da5cb5b",
    "ownerOf(uint256)": "6352211e",
    "relockAccessoryOrDecrementCategory((bool,address,string,uint256,string)[])": "45cb4e42",
    "removeAccessory(uint256)": "cdb16e00",
    "renounceOwnership()": "715018a6",
    "safeTransferFrom(address,address,uint256)": "42842e0e",
    "safeTransferFrom(address,address,uint256,bytes)": "b88d4fde",
    "setApprovalForAll(address,bool)": "a22cb465",
    "setBunnyPFPContract(address)": "d4f353c0",
    "setBunnyPFPSVGFromL1(address,string,uint256)": "2427061d",
    "setDescriptorContract(address)": "d37825b2",
    "setEnabledAccessory(uint256)": "2f2aa210",
    "setOptimismCrossChainMessengerAddress(address)": "0303348f",
    "supportsInterface(bytes4)": "01ffc9a7",
    "symbol()": "95d89b41",
    "tokenURI(uint256)": "c87b56dd",
    "totalCategoryCount()": "b2b52ef1",
    "transferFrom(address,address,uint256)": "23b872dd",
    "transferOwnership(address)": "f2fde38b",
    "unlockAccessoryOrIncrementCategory((bool,address,string,uint256,string)[])": "36d587bf"
  },
  "id": 32
}