{
  "abi": [
    {
      "anonymous": false,
      "inputs": [
        {
          "indexed": true,
          "internalType": "address",
          "name": "addr",
          "type": "address"
        },
        {
          "indexed": true,
          "internalType": "uint256",
          "name": "oldAccessory",
          "type": "uint256"
        },
        {
          "indexed": true,
          "internalType": "uint256",
          "name": "newAccessory",
          "type": "uint256"
        }
      ],
      "name": "AccessorySwapped",
      "type": "event"
    },
    {
      "anonymous": false,
      "inputs": [
        {
          "indexed": true,
          "internalType": "address",
          "name": "addr",
          "type": "address"
        },
        {
          "indexed": true,
          "internalType": "uint256",
          "name": "accessoryId",
          "type": "uint256"
        },
        {
          "indexed": true,
          "internalType": "string",
          "name": "ipfsLink",
          "type": "string"
        }
      ],
      "name": "AccessoryUnlocked",
      "type": "event"
    },
    {
      "anonymous": false,
      "inputs": [
        {
          "indexed": true,
          "internalType": "address",
          "name": "owner",
          "type": "address"
        },
        {
          "indexed": true,
          "internalType": "address",
          "name": "approved",
          "type": "address"
        },
        {
          "indexed": true,
          "internalType": "uint256",
          "name": "tokenId",
          "type": "uint256"
        }
      ],
      "name": "Approval",
      "type": "event"
    },
    {
      "anonymous": false,
      "inputs": [
        {
          "indexed": true,
          "internalType": "address",
          "name": "owner",
          "type": "address"
        },
        {
          "indexed": true,
          "internalType": "address",
          "name": "operator",
          "type": "address"
        },
        {
          "indexed": false,
          "internalType": "bool",
          "name": "approved",
          "type": "bool"
        }
      ],
      "name": "ApprovalForAll",
      "type": "event"
    },
    {
      "anonymous": false,
      "inputs": [
        {
          "indexed": true,
          "internalType": "address",
          "name": "addr",
          "type": "address"
        },
        {
          "indexed": true,
          "internalType": "uint256",
          "name": "categoryId",
          "type": "uint256"
        },
        {
          "indexed": true,
          "internalType": "string",
          "name": "ipfsLink",
          "type": "string"
        },
        {
          "indexed": false,
          "internalType": "uint256",
          "name": "newScore",
          "type": "uint256"
        }
      ],
      "name": "CategoryScoreChanged",
      "type": "event"
    },
    {
      "anonymous": false,
      "inputs": [
        {
          "indexed": false,
          "internalType": "uint8",
          "name": "version",
          "type": "uint8"
        }
      ],
      "name": "Initialized",
      "type": "event"
    },
    {
      "anonymous": false,
      "inputs": [
        {
          "indexed": true,
          "internalType": "address",
          "name": "previousOwner",
          "type": "address"
        },
        {
          "indexed": true,
          "internalType": "address",
          "name": "newOwner",
          "type": "address"
        }
      ],
      "name": "OwnershipTransferred",
      "type": "event"
    },
    {
      "anonymous": false,
      "inputs": [
        {
          "indexed": true,
          "internalType": "address",
          "name": "from",
          "type": "address"
        },
        {
          "indexed": true,
          "internalType": "address",
          "name": "to",
          "type": "address"
        },
        {
          "indexed": true,
          "internalType": "uint256",
          "name": "tokenId",
          "type": "uint256"
        }
      ],
      "name": "Transfer",
      "type": "event"
    },
    {
      "inputs": [
        {
          "internalType": "uint256",
          "name": "",
          "type": "uint256"
        }
      ],
      "name": "accessoryIdToAccessory",
      "outputs": [
        {
          "internalType": "string",
          "name": "name",
          "type": "string"
        },
        {
          "internalType": "bool",
          "name": "xpBased",
          "type": "bool"
        },
        {
          "internalType": "address",
          "name": "artContract",
          "type": "address"
        },
        {
          "internalType": "uint256",
          "name": "qualifyingXPScore",
          "type": "uint256"
        },
        {
          "internalType": "uint256",
          "name": "xpCategory",
          "type": "uint256"
        }
      ],
      "stateMutability": "view",
      "type": "function"
    },
    {
      "inputs": [
        {
          "internalType": "string",
          "name": "displayName",
          "type": "string"
        }
      ],
      "name": "addCategory",
      "outputs": [],
      "stateMutability": "nonpayable",
      "type": "function"
    },
    {
      "inputs": [
        {
          "components": [
            {
              "internalType": "string",
              "name": "name",
              "type": "string"
            },
            {
              "internalType": "bool",
              "name": "xpBased",
              "type": "bool"
            },
            {
              "internalType": "address",
              "name": "artContract",
              "type": "address"
            },
            {
              "internalType": "uint256",
              "name": "qualifyingXPScore",
              "type": "uint256"
            },
            {
              "internalType": "uint256",
              "name": "xpCategory",
              "type": "uint256"
            }
          ],
          "internalType": "struct IBackedCommunityTokenV1.Accessory",
          "name": "accessory",
          "type": "tuple"
        }
      ],
      "name": "addSpecialAccessory",
      "outputs": [],
      "stateMutability": "nonpayable",
      "type": "function"
    },
    {
      "inputs": [
        {
          "internalType": "address",
          "name": "",
          "type": "address"
        }
      ],
      "name": "addressToAccessoryEnabled",
      "outputs": [
        {
          "internalType": "uint256",
          "name": "",
          "type": "uint256"
        }
      ],
      "stateMutability": "view",
      "type": "function"
    },
    {
      "inputs": [
        {
          "internalType": "address",
          "name": "",
          "type": "address"
        },
        {
          "internalType": "uint256",
          "name": "",
          "type": "uint256"
        }
      ],
      "name": "addressToAccessoryUnlocked",
      "outputs": [
        {
          "internalType": "bool",
          "name": "",
          "type": "bool"
        }
      ],
      "stateMutability": "view",
      "type": "function"
    },
    {
      "inputs": [
        {
          "internalType": "address",
          "name": "",
          "type": "address"
        },
        {
          "internalType": "uint256",
          "name": "",
          "type": "uint256"
        }
      ],
      "name": "addressToCategoryScore",
      "outputs": [
        {
          "internalType": "uint256",
          "name": "",
          "type": "uint256"
        }
      ],
      "stateMutability": "view",
      "type": "function"
    },
    {
      "inputs": [
        {
          "internalType": "address",
          "name": "",
          "type": "address"
        }
      ],
      "name": "addressToPFPSVGLink",
      "outputs": [
        {
          "internalType": "string",
          "name": "",
          "type": "string"
        }
      ],
      "stateMutability": "view",
      "type": "function"
    },
    {
      "inputs": [
        {
          "internalType": "address",
          "name": "to",
          "type": "address"
        },
        {
          "internalType": "uint256",
          "name": "tokenId",
          "type": "uint256"
        }
      ],
      "name": "approve",
      "outputs": [],
      "stateMutability": "nonpayable",
      "type": "function"
    },
    {
      "inputs": [
        {
          "internalType": "address",
          "name": "owner",
          "type": "address"
        }
      ],
      "name": "balanceOf",
      "outputs": [
        {
          "internalType": "uint256",
          "name": "",
          "type": "uint256"
        }
      ],
      "stateMutability": "view",
      "type": "function"
    },
    {
      "inputs": [],
      "name": "bunnyPFPContractAddress",
      "outputs": [
        {
          "internalType": "address",
          "name": "",
          "type": "address"
        }
      ],
      "stateMutability": "view",
      "type": "function"
    },
    {
      "inputs": [
        {
          "internalType": "uint256",
          "name": "",
          "type": "uint256"
        }
      ],
      "name": "categoryIdToDisplayName",
      "outputs": [
        {
          "internalType": "string",
          "name": "",
          "type": "string"
        }
      ],
      "stateMutability": "view",
      "type": "function"
    },
    {
      "inputs": [],
      "name": "cdmAddr",
      "outputs": [
        {
          "internalType": "address",
          "name": "",
          "type": "address"
        }
      ],
      "stateMutability": "view",
      "type": "function"
    },
    {
      "inputs": [],
      "name": "clearBunnyPFPLink",
      "outputs": [],
      "stateMutability": "nonpayable",
      "type": "function"
    },
    {
      "inputs": [],
      "name": "descriptor",
      "outputs": [
        {
          "internalType": "contract IBackedCommunityTokenDescriptorV1",
          "name": "",
          "type": "address"
        }
      ],
      "stateMutability": "view",
      "type": "function"
    },
    {
      "inputs": [
        {
          "internalType": "uint256",
          "name": "tokenId",
          "type": "uint256"
        }
      ],
      "name": "getApproved",
      "outputs": [
        {
          "internalType": "address",
          "name": "",
          "type": "address"
        }
      ],
      "stateMutability": "view",
      "type": "function"
    },
    {
      "inputs": [
        {
          "internalType": "address",
          "name": "addr",
          "type": "address"
        }
      ],
      "name": "getUnlockedAccessoriesForAddress",
      "outputs": [
        {
          "internalType": "int256[]",
          "name": "",
          "type": "int256[]"
        }
      ],
      "stateMutability": "view",
      "type": "function"
    },
    {
      "inputs": [
        {
          "internalType": "address",
          "name": "_descriptorAddress",
          "type": "address"
        }
      ],
      "name": "initialize",
      "outputs": [],
      "stateMutability": "nonpayable",
      "type": "function"
    },
    {
      "inputs": [
        {
          "internalType": "address",
          "name": "owner",
          "type": "address"
        },
        {
          "internalType": "address",
          "name": "operator",
          "type": "address"
        }
      ],
      "name": "isApprovedForAll",
      "outputs": [
        {
          "internalType": "bool",
          "name": "",
          "type": "bool"
        }
      ],
      "stateMutability": "view",
      "type": "function"
    },
    {
      "inputs": [
        {
          "internalType": "address",
          "name": "mintTo",
          "type": "address"
        }
      ],
      "name": "mint",
      "outputs": [],
      "stateMutability": "nonpayable",
      "type": "function"
    },
    {
      "inputs": [],
      "name": "name",
      "outputs": [
        {
          "internalType": "string",
          "name": "",
          "type": "string"
        }
      ],
      "stateMutability": "view",
      "type": "function"
    },
    {
      "inputs": [],
      "name": "nonce",
      "outputs": [
        {
          "internalType": "uint256",
          "name": "",
          "type": "uint256"
        }
      ],
      "stateMutability": "view",
      "type": "function"
    },
    {
      "inputs": [],
      "name": "owner",
      "outputs": [
        {
          "internalType": "address",
          "name": "",
          "type": "address"
        }
      ],
      "stateMutability": "view",
      "type": "function"
    },
    {
      "inputs": [
        {
          "internalType": "uint256",
          "name": "tokenId",
          "type": "uint256"
        }
      ],
      "name": "ownerOf",
      "outputs": [
        {
          "internalType": "address",
          "name": "",
          "type": "address"
        }
      ],
      "stateMutability": "view",
      "type": "function"
    },
    {
      "inputs": [],
      "name": "renounceOwnership",
      "outputs": [],
      "stateMutability": "nonpayable",
      "type": "function"
    },
    {
      "inputs": [
        {
          "internalType": "address",
          "name": "from",
          "type": "address"
        },
        {
          "internalType": "address",
          "name": "to",
          "type": "address"
        },
        {
          "internalType": "uint256",
          "name": "tokenId",
          "type": "uint256"
        }
      ],
      "name": "safeTransferFrom",
      "outputs": [],
      "stateMutability": "nonpayable",
      "type": "function"
    },
    {
      "inputs": [
        {
          "internalType": "address",
          "name": "from",
          "type": "address"
        },
        {
          "internalType": "address",
          "name": "to",
          "type": "address"
        },
        {
          "internalType": "uint256",
          "name": "tokenId",
          "type": "uint256"
        },
        {
          "internalType": "bytes",
          "name": "_data",
          "type": "bytes"
        }
      ],
      "name": "safeTransferFrom",
      "outputs": [],
      "stateMutability": "nonpayable",
      "type": "function"
    },
    {
      "inputs": [
        {
          "internalType": "address",
          "name": "operator",
          "type": "address"
        },
        {
          "internalType": "bool",
          "name": "approved",
          "type": "bool"
        }
      ],
      "name": "setApprovalForAll",
      "outputs": [],
      "stateMutability": "nonpayable",
      "type": "function"
    },
    {
      "inputs": [
        {
          "internalType": "address",
          "name": "addr",
          "type": "address"
        }
      ],
      "name": "setBunnyPFPContract",
      "outputs": [],
      "stateMutability": "nonpayable",
      "type": "function"
    },
    {
      "inputs": [
        {
          "internalType": "bytes",
          "name": "message",
          "type": "bytes"
        }
      ],
      "name": "setBunnyPFPSVGFromL1",
      "outputs": [],
      "stateMutability": "nonpayable",
      "type": "function"
    },
    {
      "inputs": [
        {
          "internalType": "address",
          "name": "addr",
          "type": "address"
        }
      ],
      "name": "setDescriptorContract",
      "outputs": [],
      "stateMutability": "nonpayable",
      "type": "function"
    },
    {
      "inputs": [
        {
          "internalType": "uint256",
          "name": "accessoryId",
          "type": "uint256"
        }
      ],
      "name": "setEnabledAccessory",
      "outputs": [],
      "stateMutability": "nonpayable",
      "type": "function"
    },
    {
      "inputs": [
        {
          "internalType": "address",
          "name": "addr",
          "type": "address"
        }
      ],
      "name": "setOptimismCrossChainMessengerAddress",
      "outputs": [],
      "stateMutability": "nonpayable",
      "type": "function"
    },
    {
      "inputs": [
        {
          "internalType": "bytes4",
          "name": "interfaceId",
          "type": "bytes4"
        }
      ],
      "name": "supportsInterface",
      "outputs": [
        {
          "internalType": "bool",
          "name": "",
          "type": "bool"
        }
      ],
      "stateMutability": "view",
      "type": "function"
    },
    {
      "inputs": [],
      "name": "symbol",
      "outputs": [
        {
          "internalType": "string",
          "name": "",
          "type": "string"
        }
      ],
      "stateMutability": "view",
      "type": "function"
    },
    {
      "inputs": [
        {
          "internalType": "uint256",
          "name": "tokenId",
          "type": "uint256"
        }
      ],
      "name": "tokenURI",
      "outputs": [
        {
          "internalType": "string",
          "name": "",
          "type": "string"
        }
      ],
      "stateMutability": "view",
      "type": "function"
    },
    {
      "inputs": [],
      "name": "totalCategoryCount",
      "outputs": [
        {
          "internalType": "uint256",
          "name": "",
          "type": "uint256"
        }
      ],
      "stateMutability": "view",
      "type": "function"
    },
    {
      "inputs": [],
      "name": "totalSpecialyAccessoryCount",
      "outputs": [
        {
          "internalType": "uint256",
          "name": "",
          "type": "uint256"
        }
      ],
      "stateMutability": "view",
      "type": "function"
    },
    {
      "inputs": [
        {
          "internalType": "address",
          "name": "from",
          "type": "address"
        },
        {
          "internalType": "address",
          "name": "to",
          "type": "address"
        },
        {
          "internalType": "uint256",
          "name": "tokenId",
          "type": "uint256"
        }
      ],
      "name": "transferFrom",
      "outputs": [],
      "stateMutability": "nonpayable",
      "type": "function"
    },
    {
      "inputs": [
        {
          "internalType": "address",
          "name": "newOwner",
          "type": "address"
        }
      ],
      "name": "transferOwnership",
      "outputs": [],
      "stateMutability": "nonpayable",
      "type": "function"
    },
    {
      "inputs": [
        {
          "components": [
            {
              "internalType": "bool",
              "name": "isCategoryChange",
              "type": "bool"
            },
            {
              "internalType": "address",
              "name": "addr",
              "type": "address"
            },
            {
              "internalType": "uint256",
              "name": "changeableId",
              "type": "uint256"
            },
            {
              "internalType": "string",
              "name": "ipfsLink",
              "type": "string"
            }
          ],
          "internalType": "struct IBackedCommunityTokenV1.CategoryOrAccessoryChange[]",
          "name": "changes",
          "type": "tuple[]"
        }
      ],
      "name": "unlockAccessoryOrIncrementCategory",
      "outputs": [],
      "stateMutability": "nonpayable",
      "type": "function"
    }
  ],
  "bytecode": {
    "object": "0x608060405234801561001057600080fd5b50613040806100206000396000f3fe608060405234801561001057600080fd5b50600436106102485760003560e01c80638da5cb5b1161013b578063c4d66de8116100b8578063d4f353c01161007c578063d4f353c014610531578063db8a06cf14610544578063dfcf2cf814610568578063e985e9c51461057b578063f2fde38b146105b757600080fd5b8063c4d66de8146104c5578063c87b56dd146104d8578063cb19a1d6146104eb578063d1c5df07146104fe578063d37825b21461051e57600080fd5b8063aa416e54116100ff578063aa416e5414610485578063affed0e01461048d578063b2b52ef114610496578063b88d4fde1461049f578063c17c7faa146104b257600080fd5b80638da5cb5b14610425578063904b65d914610436578063957a27541461043f57806395d89b411461046a578063a22cb4651461047257600080fd5b80632fdaa490116101c95780636352211e1161018d5780636352211e146103b65780636a627842146103c957806370a08231146103dc578063715018a6146103fd5780637473660a1461040557600080fd5b80632fdaa4901461033c578063303e74df1461036a5780633ed0b70e1461037d57806342842e0e146103905780634c0332a5146103a357600080fd5b80631050c356116102105780631050c356146102dd5780631073ce33146102f057806323b872dd146103035780632e0dcbf7146103165780632f2aa2101461032957600080fd5b806301ffc9a71461024d5780630303348f1461027557806306fdde031461028a578063081812fc1461029f578063095ea7b3146102ca575b600080fd5b61026061025b366004612535565b6105ca565b60405190151581526020015b60405180910390f35b61028861028336600461256e565b61061c565b005b610292610671565b60405161026c91906125e3565b6102b26102ad3660046125f6565b610703565b6040516001600160a01b03909116815260200161026c565b6102886102d836600461260f565b610798565b6102886102eb366004612760565b6108ae565b6102886102fe366004612887565b610966565b610288610311366004612931565b610a72565b610288610324366004612972565b610aa3565b6102886103373660046125f6565b610b08565b61026061034a36600461260f565b600860209081526000928352604080842090915290825290205460ff1681565b6002546102b2906001600160a01b031681565b61029261038b3660046125f6565b610d5c565b61028861039e366004612931565b610df6565b6102886103b13660046129a6565b610e11565b6102b26103c43660046125f6565b610fba565b6102886103d736600461256e565b611031565b6103ef6103ea36600461256e565b611052565b60405190815260200161026c565b6102886110d8565b6103ef61041336600461256e565b60096020526000908152604090205481565b60a3546001600160a01b03166102b2565b6103ef60065481565b6103ef61044d36600461260f565b600560209081526000928352604080842090915290825290205481565b61029261110e565b610288610480366004612a17565b61111d565b610288611128565b6103ef60005481565b6103ef60035481565b6102886104ad366004612a4c565b611150565b6001546102b2906001600160a01b031681565b6102886104d336600461256e565b611188565b6102926104e63660046125f6565b61125f565b6102926104f936600461256e565b61142a565b61051161050c36600461256e565b611443565b60405161026c9190612acb565b61028861052c36600461256e565b611659565b61028861053f36600461256e565b6116a5565b6105576105523660046125f6565b6116f1565b60405161026c959493929190612b0f565b600a546102b2906001600160a01b031681565b610260610589366004612b4f565b6001600160a01b03918216600090815260766020908152604080832093909416825291909152205460ff1690565b6102886105c536600461256e565b6117b5565b60006001600160e01b031982166380ac58cd60e01b14806105fb57506001600160e01b03198216635b5e139f60e01b145b8061061657506301ffc9a760e01b6001600160e01b03198316145b92915050565b60a3546001600160a01b0316331461064f5760405162461bcd60e51b815260040161064690612b88565b60405180910390fd5b600180546001600160a01b0319166001600160a01b0392909216919091179055565b60606071805461068090612bbd565b80601f01602080910402602001604051908101604052809291908181526020018280546106ac90612bbd565b80156106f95780601f106106ce576101008083540402835291602001916106f9565b820191906000526020600020905b8154815290600101906020018083116106dc57829003601f168201915b5050505050905090565b6000818152607360205260408120546001600160a01b031661077c5760405162461bcd60e51b815260206004820152602c60248201527f4552433732313a20617070726f76656420717565727920666f72206e6f6e657860448201526b34b9ba32b73a103a37b5b2b760a11b6064820152608401610646565b506000908152607560205260409020546001600160a01b031690565b60006107a382610fba565b9050806001600160a01b0316836001600160a01b031614156108115760405162461bcd60e51b815260206004820152602160248201527f4552433732313a20617070726f76616c20746f2063757272656e74206f776e656044820152603960f91b6064820152608401610646565b336001600160a01b038216148061082d575061082d8133610589565b61089f5760405162461bcd60e51b815260206004820152603860248201527f4552433732313a20617070726f76652063616c6c6572206973206e6f74206f7760448201527f6e6572206e6f7220617070726f76656420666f7220616c6c00000000000000006064820152608401610646565b6108a9838361184d565b505050565b60a3546001600160a01b031633146108d85760405162461bcd60e51b815260040161064690612b88565b60005b8151811015610962578181815181106108f6576108f6612bf8565b6020026020010151600001511561092e5761092982828151811061091c5761091c612bf8565b60200260200101516118bb565b610950565b61095082828151811061094357610943612bf8565b6020026020010151611962565b8061095a81612c24565b9150506108db565b5050565b60a3546001600160a01b031633146109905760405162461bcd60e51b815260040161064690612b88565b6040518060a001604052808260000151815260200182602001511515815260200182604001516001600160a01b0316815260200182606001518152602001826080015181525060076000600660008154809291906109ed90612c24565b909155508152602080820192909252604001600020825180519192610a1792849290910190612486565b50602082015160018201805460408501516001600160a01b031661010002610100600160a81b0319931515939093166001600160a81b0319909116179190911790556060820151600282015560809091015160039091015550565b610a7c3382611bc9565b610a985760405162461bcd60e51b815260040161064690612c3f565b6108a9838383611cbf565b60a3546001600160a01b03163314610acd5760405162461bcd60e51b815260040161064690612b88565b60038054829160049160009182610ae383612c24565b9190505581526020019081526020016000209080519060200190610962929190612486565b336000908152600960209081526040808320548484526007909252808320815160a08101909252805492939282908290610b4190612bbd565b80601f0160208091040260200160405190810160405280929190818152602001828054610b6d90612bbd565b8015610bba5780601f10610b8f57610100808354040283529160200191610bba565b820191906000526020600020905b815481529060010190602001808311610b9d57829003601f168201915b5050509183525050600182015460ff811615156020808401919091526101009091046001600160a01b031660408301526002830154606083015260039092015460809091015281015190915015610c98576060810151336000908152600560209081526040808320608086015184529091529020541015610c935760405162461bcd60e51b815260206004820152602d60248201527f4261636b6564436f6d6d756e697479546f6b656e56313a207573657220646f6560448201526c73206e6f74207175616c69667960981b6064820152608401610646565b610d19565b33600090815260086020908152604080832086845290915290205460ff16610d195760405162461bcd60e51b815260206004820152602e60248201527f4261636b6564436f6d6d756e697479546f6b656e56313a206163636573736f7260448201526d1e481b9bdd081d5b9b1bd8dad95960921b6064820152608401610646565b33600081815260096020526040808220869055518592859290917fea1b1f91e87d6596dd266ab28a1e2231755992988caaafc59ed42f2331d41e8c9190a4505050565b60046020526000908152604090208054610d7590612bbd565b80601f0160208091040260200160405190810160405280929190818152602001828054610da190612bbd565b8015610dee5780601f10610dc357610100808354040283529160200191610dee565b820191906000526020600020905b815481529060010190602001808311610dd157829003601f168201915b505050505081565b6108a983838360405180602001604052806000815250611150565b600080610e2083850185612c90565b60015491935091506001600160a01b03163314610ea55760405162461bcd60e51b815260206004820152603d60248201527f4261636b6564436f6d6d756e697479546f6b656e56313a2063616c6c6572206d60448201527f7573742062652063726f737320646f6d61696e206d657373656e6765720000006064820152608401610646565b600a5460015460408051636e296e4560e01b815290516001600160a01b039384169390921691636e296e45916004808201926020929091908290030181865afa158015610ef6573d6000803e3d6000fd5b505050506040513d601f19601f82011682018060405250810190610f1a9190612cdf565b6001600160a01b031614610f8a5760405162461bcd60e51b815260206004820152603160248201527f4261636b6564436f6d6d756e697479546f6b656e56313a206f726967696e206d6044820152700757374206265204261636b65642050465607c1b6064820152608401610646565b6001600160a01b0382166000908152600b602090815260409091208251610fb392840190612486565b5050505050565b6000818152607360205260408120546001600160a01b0316806106165760405162461bcd60e51b815260206004820152602960248201527f4552433732313a206f776e657220717565727920666f72206e6f6e657869737460448201526832b73a103a37b5b2b760b91b6064820152608401610646565b6000805461104f918391908061104683612c24565b91905055611d3e565b50565b60006001600160a01b0382166110bc5760405162461bcd60e51b815260206004820152602960248201527f4552433732313a2061646472657373207a65726f206973206e6f7420612076616044820152683634b21037bbb732b960b91b6064820152608401610646565b506001600160a01b031660009081526074602052604090205490565b60a3546001600160a01b031633146111025760405162461bcd60e51b815260040161064690612b88565b61110c6000611db0565b565b60606072805461068090612bbd565b610962338383611e02565b6040805160208082018084526000808452338152600b909252929020905161104f9290612486565b61115a3383611bc9565b6111765760405162461bcd60e51b815260040161064690612c3f565b61118284848484611ed1565b50505050565b60006111946001611f04565b905080156111ac57600c805461ff0019166101001790555b6111fb6040518060400160405280600f81526020016e4261636b6564436f6d6d756e69747960881b81525060405180604001604052806006815260200165109050d2d15160d21b815250611f93565b600280546001600160a01b0319166001600160a01b038416179055801561096257600c805461ff0019169055604051600181527f7f26b83ff96e1f2b6a682f133852f6798a09c465da95921460cefb38474024989060200160405180910390a15050565b6040516331a9108f60e11b8152600481018290526060906000903090636352211e90602401602060405180830381865afa1580156112a1573d6000803e3d6000fd5b505050506040513d601f19601f820116820180604052508101906112c59190612cdf565b905060006003546001600160401b038111156112e3576112e361263b565b60405190808252806020026020018201604052801561130c578160200160208202803683370190505b50905060005b600354811015611371576001600160a01b0383166000908152600560209081526040808320848452909152902054825183908390811061135457611354612bf8565b60209081029190910101528061136981612c24565b915050611312565b506002546001600160a01b0383811660008181526009602090815260408083205483526007825280832060010154938352600b90915290819020905163dc90d34360e01b81529383169363dc90d343936113dd938a938993899361010090930490921691600401612cfc565b600060405180830381865afa1580156113fa573d6000803e3d6000fd5b505050506040513d6000823e601f3d908101601f191682016040526114229190810190612e04565b949350505050565b600b6020526000908152604090208054610d7590612bbd565b606060006006546001600160401b038111156114615761146161263b565b60405190808252806020026020018201604052801561148a578160200160208202803683370190505b50905060005b60065481101561165257600081815260076020526040808220815160a081019092528054829082906114c190612bbd565b80601f01602080910402602001604051908101604052809291908181526020018280546114ed90612bbd565b801561153a5780601f1061150f5761010080835404028352916020019161153a565b820191906000526020600020905b81548152906001019060200180831161151d57829003601f168201915b5050509183525050600182015460ff811615156020808401919091526101009091046001600160a01b0316604083015260028301546060830152600390920154608090910152810151909150156115eb5760608101516001600160a01b03861660009081526005602090815260408083206080860151845290915290205410156115c6576000196115c8565b815b8383815181106115da576115da612bf8565b60200260200101818152505061163f565b6001600160a01b038516600090815260086020908152604080832085845290915290205460ff1661161e57600019611620565b815b83838151811061163257611632612bf8565b6020026020010181815250505b508061164a81612c24565b915050611490565b5092915050565b60a3546001600160a01b031633146116835760405162461bcd60e51b815260040161064690612b88565b600280546001600160a01b0319166001600160a01b0392909216919091179055565b60a3546001600160a01b031633146116cf5760405162461bcd60e51b815260040161064690612b88565b600a80546001600160a01b0319166001600160a01b0392909216919091179055565b60076020526000908152604090208054819061170c90612bbd565b80601f016020809104026020016040519081016040528092919081815260200182805461173890612bbd565b80156117855780601f1061175a57610100808354040283529160200191611785565b820191906000526020600020905b81548152906001019060200180831161176857829003601f168201915b5050505060018301546002840154600390940154929360ff8216936101009092046001600160a01b031692509085565b60a3546001600160a01b031633146117df5760405162461bcd60e51b815260040161064690612b88565b6001600160a01b0381166118445760405162461bcd60e51b815260206004820152602660248201527f4f776e61626c653a206e6577206f776e657220697320746865207a65726f206160448201526564647265737360d01b6064820152608401610646565b61104f81611db0565b600081815260756020526040902080546001600160a01b0319166001600160a01b038416908117909155819061188282610fba565b6001600160a01b03167f8c5be1e5ebec7d5bd14f71427d1e84f3dd0314c0f7b2291e5b200ac8c7c3b92560405160405180910390a45050565b6020808201516001600160a01b03166000908152600582526040808220818501518352909252908120805482906118f190612c24565b9182905550606083015160405191925061190a91612e7a565b6040518091039020826040015183602001516001600160a01b03167f4adfb6c8799106a05c87f98cd81c34d5636f2a657ab1d2b940cd96a643d91b4c8460405161195691815260200190565b60405180910390a45050565b600060076000836040015181526020019081526020016000206040518060a001604052908160008201805461199690612bbd565b80601f01602080910402602001604051908101604052809291908181526020018280546119c290612bbd565b8015611a0f5780601f106119e457610100808354040283529160200191611a0f565b820191906000526020600020905b8154815290600101906020018083116119f257829003601f168201915b5050509183525050600182015460ff811615156020808401919091526101009091046001600160a01b031660408301526002830154606083015260039092015460809091015281015190915015611ac65760405162461bcd60e51b815260206004820152603560248201527f4261636b6564436f6d6d756e697479546f6b656e56313a204163636573736f726044820152741e481b5d5cdd0818994818591b5a5b8818985cd959605a1b6064820152608401610646565b60408101516001600160a01b0316611b395760405162461bcd60e51b815260206004820152603060248201527f4261636b6564436f6d6d756e697479546f6b656e56313a204163636573736f7260448201526f1e48191bd95cc81b9bdd08195e1a5cdd60821b6064820152608401610646565b6020808301516001600160a01b03166000908152600882526040808220818601518352909252819020805460ff1916600117905560608301519051611b7e9190612e7a565b6040518091039020826040015183602001516001600160a01b03167f21d40621155f17d6d4e01f8387b7ac9f14f7b993868011846ad64e5ad770e46460405160405180910390a45050565b6000818152607360205260408120546001600160a01b0316611c425760405162461bcd60e51b815260206004820152602c60248201527f4552433732313a206f70657261746f7220717565727920666f72206e6f6e657860448201526b34b9ba32b73a103a37b5b2b760a11b6064820152608401610646565b6000611c4d83610fba565b9050806001600160a01b0316846001600160a01b03161480611c9457506001600160a01b0380821660009081526076602090815260408083209388168352929052205460ff165b806114225750836001600160a01b0316611cad84610703565b6001600160a01b031614949350505050565b60a3546001600160a01b03163314611d335760405162461bcd60e51b815260206004820152603160248201527f455243373231536f756c626f756e643a206f6e6c7920636f6e7472616374206f6044820152703bb732b91031b0b7103a3930b739b332b960791b6064820152608401610646565b6108a9838383611fcc565b6001611d4983611052565b10611da65760405162461bcd60e51b815260206004820152602760248201527f455243373231536f756c626f756e643a2063616e6e6f74206f776e206d6f7265604482015266207468616e203160c81b6064820152608401610646565b6109628282612168565b60a380546001600160a01b038381166001600160a01b0319831681179093556040519116919082907f8be0079c531659141344cd1fd0a4f28419497f9722a3daafe3b4186f6b6457e090600090a35050565b816001600160a01b0316836001600160a01b03161415611e645760405162461bcd60e51b815260206004820152601960248201527f4552433732313a20617070726f766520746f2063616c6c6572000000000000006044820152606401610646565b6001600160a01b03838116600081815260766020908152604080832094871680845294825291829020805460ff191686151590811790915591519182527f17307eab39ab6107e8899845ad3d59bd9653f200f220920489ca2b5937696c31910160405180910390a3505050565b611edc848484611cbf565b611ee8848484846122aa565b6111825760405162461bcd60e51b815260040161064690612e96565b600c54600090610100900460ff1615611f4d578160ff166001148015611f295750303b155b611f455760405162461bcd60e51b815260040161064690612ee8565b506000919050565b600c5460ff808416911610611f745760405162461bcd60e51b815260040161064690612ee8565b50600c805460ff191660ff92909216919091179055600190565b919050565b600c54610100900460ff16611fba5760405162461bcd60e51b815260040161064690612f36565b611fc482826123a8565b6109626123d9565b826001600160a01b0316611fdf82610fba565b6001600160a01b0316146120435760405162461bcd60e51b815260206004820152602560248201527f4552433732313a207472616e736665722066726f6d20696e636f72726563742060448201526437bbb732b960d91b6064820152608401610646565b6001600160a01b0382166120a55760405162461bcd60e51b8152602060048201526024808201527f4552433732313a207472616e7366657220746f20746865207a65726f206164646044820152637265737360e01b6064820152608401610646565b6120b060008261184d565b6001600160a01b03831660009081526074602052604081208054600192906120d9908490612f81565b90915550506001600160a01b0382166000908152607460205260408120805460019290612107908490612f98565b909155505060008181526073602052604080822080546001600160a01b0319166001600160a01b0386811691821790925591518493918716917fddf252ad1be2c89b69c2b068fc378daa952ba7f163c4a11628f55a4df523b3ef91a4505050565b6001600160a01b0382166121be5760405162461bcd60e51b815260206004820181905260248201527f4552433732313a206d696e7420746f20746865207a65726f20616464726573736044820152606401610646565b6000818152607360205260409020546001600160a01b0316156122235760405162461bcd60e51b815260206004820152601c60248201527f4552433732313a20746f6b656e20616c7265616479206d696e746564000000006044820152606401610646565b6001600160a01b038216600090815260746020526040812080546001929061224c908490612f98565b909155505060008181526073602052604080822080546001600160a01b0319166001600160a01b03861690811790915590518392907fddf252ad1be2c89b69c2b068fc378daa952ba7f163c4a11628f55a4df523b3ef908290a45050565b60006001600160a01b0384163b1561239d57604051630a85bd0160e11b81526001600160a01b0385169063150b7a02906122ee903390899088908890600401612fb0565b6020604051808303816000875af1925050508015612329575060408051601f3d908101601f1916820190925261232691810190612fed565b60015b612383573d808015612357576040519150601f19603f3d011682016040523d82523d6000602084013e61235c565b606091505b50805161237b5760405162461bcd60e51b815260040161064690612e96565b805181602001fd5b6001600160e01b031916630a85bd0160e11b149050611422565b506001949350505050565b600c54610100900460ff166123cf5760405162461bcd60e51b815260040161064690612f36565b6109628282612408565b600c54610100900460ff166124005760405162461bcd60e51b815260040161064690612f36565b61110c612456565b600c54610100900460ff1661242f5760405162461bcd60e51b815260040161064690612f36565b8151612442906071906020850190612486565b5080516108a9906072906020840190612486565b600c54610100900460ff1661247d5760405162461bcd60e51b815260040161064690612f36565b61110c33611db0565b82805461249290612bbd565b90600052602060002090601f0160209004810192826124b457600085556124fa565b82601f106124cd57805160ff19168380011785556124fa565b828001600101855582156124fa579182015b828111156124fa5782518255916020019190600101906124df565b5061250692915061250a565b5090565b5b80821115612506576000815560010161250b565b6001600160e01b03198116811461104f57600080fd5b60006020828403121561254757600080fd5b81356125528161251f565b9392505050565b6001600160a01b038116811461104f57600080fd5b60006020828403121561258057600080fd5b813561255281612559565b60005b838110156125a657818101518382015260200161258e565b838111156111825750506000910152565b600081518084526125cf81602086016020860161258b565b601f01601f19169290920160200192915050565b60208152600061255260208301846125b7565b60006020828403121561260857600080fd5b5035919050565b6000806040838503121561262257600080fd5b823561262d81612559565b946020939093013593505050565b634e487b7160e01b600052604160045260246000fd5b604051608081016001600160401b03811182821017156126735761267361263b565b60405290565b60405160a081016001600160401b03811182821017156126735761267361263b565b604051601f8201601f191681016001600160401b03811182821017156126c3576126c361263b565b604052919050565b80358015158114611f8e57600080fd5b60006001600160401b038211156126f4576126f461263b565b50601f01601f191660200190565b6000612715612710846126db565b61269b565b905082815283838301111561272957600080fd5b828260208301376000602084830101529392505050565b600082601f83011261275157600080fd5b61255283833560208501612702565b6000602080838503121561277357600080fd5b82356001600160401b038082111561278a57600080fd5b818501915085601f83011261279e57600080fd5b8135818111156127b0576127b061263b565b8060051b6127bf85820161269b565b91825283810185019185810190898411156127d957600080fd5b86860192505b8383101561287a578235858111156127f75760008081fd5b86016080818c03601f190181131561280f5760008081fd5b612817612651565b6128228a84016126cb565b815260408084013561283381612559565b828c01526060848101358284015292840135928984111561285657600091508182fd5b6128648f8d86880101612740565b90830152508452505091860191908601906127df565b9998505050505050505050565b60006020828403121561289957600080fd5b81356001600160401b03808211156128b057600080fd5b9083019060a082860312156128c457600080fd5b6128cc612679565b8235828111156128db57600080fd5b6128e787828601612740565b8252506128f6602084016126cb565b60208201526040830135915061290b82612559565b816040820152606083013560608201526080830135608082015280935050505092915050565b60008060006060848603121561294657600080fd5b833561295181612559565b9250602084013561296181612559565b929592945050506040919091013590565b60006020828403121561298457600080fd5b81356001600160401b0381111561299a57600080fd5b61142284828501612740565b600080602083850312156129b957600080fd5b82356001600160401b03808211156129d057600080fd5b818501915085601f8301126129e457600080fd5b8135818111156129f357600080fd5b866020828501011115612a0557600080fd5b60209290920196919550909350505050565b60008060408385031215612a2a57600080fd5b8235612a3581612559565b9150612a43602084016126cb565b90509250929050565b60008060008060808587031215612a6257600080fd5b8435612a6d81612559565b93506020850135612a7d81612559565b92506040850135915060608501356001600160401b03811115612a9f57600080fd5b8501601f81018713612ab057600080fd5b612abf87823560208401612702565b91505092959194509250565b6020808252825182820181905260009190848201906040850190845b81811015612b0357835183529284019291840191600101612ae7565b50909695505050505050565b60a081526000612b2260a08301886125b7565b9515156020830152506001600160a01b039390931660408401526060830191909152608090910152919050565b60008060408385031215612b6257600080fd5b8235612b6d81612559565b91506020830135612b7d81612559565b809150509250929050565b6020808252818101527f4f776e61626c653a2063616c6c6572206973206e6f7420746865206f776e6572604082015260600190565b600181811c90821680612bd157607f821691505b60208210811415612bf257634e487b7160e01b600052602260045260246000fd5b50919050565b634e487b7160e01b600052603260045260246000fd5b634e487b7160e01b600052601160045260246000fd5b6000600019821415612c3857612c38612c0e565b5060010190565b60208082526031908201527f4552433732313a207472616e736665722063616c6c6572206973206e6f74206f6040820152701ddb995c881b9bdc88185c1c1c9bdd9959607a1b606082015260800190565b60008060408385031215612ca357600080fd5b8235612cae81612559565b915060208301356001600160401b03811115612cc957600080fd5b612cd585828601612740565b9150509250929050565b600060208284031215612cf157600080fd5b815161255281612559565b600060a08201878352602060018060a01b038089168286015260a0604086015282885180855260c087019150838a01945060005b81811015612d4c57855183529484019491840191600101612d30565b50509087166060860152848103608086015285546000935090600182811c9080841680612d7a57607f831692505b858310811415612d9857634e487b7160e01b87526022600452602487fd5b828452602084019350808015612db55760018114612dc657612df1565b60ff19861685528685019750612df1565b60008b81526020902060005b85811015612deb57815487820152908401908801612dd2565b86019850505b50959d9c50505050505050505050505050565b600060208284031215612e1657600080fd5b81516001600160401b03811115612e2c57600080fd5b8201601f81018413612e3d57600080fd5b8051612e4b612710826126db565b818152856020838501011115612e6057600080fd5b612e7182602083016020860161258b565b95945050505050565b60008251612e8c81846020870161258b565b9190910192915050565b60208082526032908201527f4552433732313a207472616e7366657220746f206e6f6e20455243373231526560408201527131b2b4bb32b91034b6b83632b6b2b73a32b960711b606082015260800190565b6020808252602e908201527f496e697469616c697a61626c653a20636f6e747261637420697320616c72656160408201526d191e481a5b9a5d1a585b1a5e995960921b606082015260800190565b6020808252602b908201527f496e697469616c697a61626c653a20636f6e7472616374206973206e6f74206960408201526a6e697469616c697a696e6760a81b606082015260800190565b600082821015612f9357612f93612c0e565b500390565b60008219821115612fab57612fab612c0e565b500190565b6001600160a01b0385811682528416602082015260408101839052608060608201819052600090612fe3908301846125b7565b9695505050505050565b600060208284031215612fff57600080fd5b81516125528161251f56fea26469706673582212209c1251af7cc04a5f07954b1345bc84f969f14738cdf46a91d104c834f5c53e5c64736f6c634300080c0033",
    "linkReferences": {}
  },
  "methodIdentifiers": {
    "accessoryIdToAccessory(uint256)": "db8a06cf",
    "addCategory(string)": "2e0dcbf7",
    "addSpecialAccessory((string,bool,address,uint256,uint256))": "1073ce33",
    "addressToAccessoryEnabled(address)": "7473660a",
    "addressToAccessoryUnlocked(address,uint256)": "2fdaa490",
    "addressToCategoryScore(address,uint256)": "957a2754",
    "addressToPFPSVGLink(address)": "cb19a1d6",
    "approve(address,uint256)": "095ea7b3",
    "balanceOf(address)": "70a08231",
    "bunnyPFPContractAddress()": "dfcf2cf8",
    "categoryIdToDisplayName(uint256)": "3ed0b70e",
    "cdmAddr()": "c17c7faa",
    "clearBunnyPFPLink()": "aa416e54",
    "descriptor()": "303e74df",
    "getApproved(uint256)": "081812fc",
    "getUnlockedAccessoriesForAddress(address)": "d1c5df07",
    "initialize(address)": "c4d66de8",
    "isApprovedForAll(address,address)": "e985e9c5",
    "mint(address)": "6a627842",
    "name()": "06fdde03",
    "nonce()": "affed0e0",
    "owner()": "8da5cb5b",
    "ownerOf(uint256)": "6352211e",
    "renounceOwnership()": "715018a6",
    "safeTransferFrom(address,address,uint256)": "42842e0e",
    "safeTransferFrom(address,address,uint256,bytes)": "b88d4fde",
    "setApprovalForAll(address,bool)": "a22cb465",
    "setBunnyPFPContract(address)": "d4f353c0",
    "setBunnyPFPSVGFromL1(bytes)": "4c0332a5",
    "setDescriptorContract(address)": "d37825b2",
    "setEnabledAccessory(uint256)": "2f2aa210",
    "setOptimismCrossChainMessengerAddress(address)": "0303348f",
    "supportsInterface(bytes4)": "01ffc9a7",
    "symbol()": "95d89b41",
    "tokenURI(uint256)": "c87b56dd",
    "totalCategoryCount()": "b2b52ef1",
    "totalSpecialyAccessoryCount()": "904b65d9",
    "transferFrom(address,address,uint256)": "23b872dd",
    "transferOwnership(address)": "f2fde38b",
    "unlockAccessoryOrIncrementCategory((bool,address,uint256,string)[])": "1050c356"
  },
  "id": 31
}