{
  "abi": [
    {
      "anonymous": false,
      "inputs": [
        {
          "indexed": true,
          "internalType": "uint256",
          "name": "accessoryId",
          "type": "uint256"
        },
        {
          "indexed": true,
          "internalType": "address",
          "name": "artContract",
          "type": "address"
        },
        {
          "indexed": false,
          "internalType": "string",
          "name": "xpCategory",
          "type": "string"
        },
        {
          "indexed": false,
          "internalType": "uint256",
          "name": "qualifyingXPScore",
          "type": "uint256"
        }
      ],
      "name": "AccessoryAdded",
      "type": "event"
    },
    {
      "anonymous": false,
      "inputs": [
        {
          "indexed": true,
          "internalType": "address",
          "name": "addr",
          "type": "address"
        },
        {
          "indexed": true,
          "internalType": "uint256",
          "name": "accessoryId",
          "type": "uint256"
        },
        {
          "indexed": false,
          "internalType": "string",
          "name": "ipfsLink",
          "type": "string"
        },
        {
          "indexed": false,
          "internalType": "bool",
          "name": "unlocked",
          "type": "bool"
        },
        {
          "indexed": false,
          "internalType": "bytes32",
          "name": "ipfsEntryHash",
          "type": "bytes32"
        }
      ],
      "name": "AccessoryLockChanged",
      "type": "event"
    },
    {
      "anonymous": false,
      "inputs": [
        {
          "indexed": true,
          "internalType": "uint256",
          "name": "accessoryId",
          "type": "uint256"
        }
      ],
      "name": "AccessoryRemoved",
      "type": "event"
    },
    {
      "anonymous": false,
      "inputs": [
        {
          "indexed": true,
          "internalType": "address",
          "name": "addr",
          "type": "address"
        },
        {
          "indexed": true,
          "internalType": "uint256",
          "name": "oldAccessory",
          "type": "uint256"
        },
        {
          "indexed": true,
          "internalType": "uint256",
          "name": "newAccessory",
          "type": "uint256"
        }
      ],
      "name": "AccessorySwapped",
      "type": "event"
    },
    {
      "anonymous": false,
      "inputs": [
        {
          "indexed": true,
          "internalType": "address",
          "name": "owner",
          "type": "address"
        },
        {
          "indexed": true,
          "internalType": "address",
          "name": "approved",
          "type": "address"
        },
        {
          "indexed": true,
          "internalType": "uint256",
          "name": "tokenId",
          "type": "uint256"
        }
      ],
      "name": "Approval",
      "type": "event"
    },
    {
      "anonymous": false,
      "inputs": [
        {
          "indexed": true,
          "internalType": "address",
          "name": "owner",
          "type": "address"
        },
        {
          "indexed": true,
          "internalType": "address",
          "name": "operator",
          "type": "address"
        },
        {
          "indexed": false,
          "internalType": "bool",
          "name": "approved",
          "type": "bool"
        }
      ],
      "name": "ApprovalForAll",
      "type": "event"
    },
    {
      "anonymous": false,
      "inputs": [
        {
          "indexed": true,
          "internalType": "address",
          "name": "owner",
          "type": "address"
        },
        {
          "indexed": true,
          "internalType": "uint256",
          "name": "tokenId",
          "type": "uint256"
        }
      ],
      "name": "BunnyPFPLinked",
      "type": "event"
    },
    {
      "anonymous": false,
      "inputs": [
        {
          "indexed": true,
          "internalType": "address",
          "name": "addr",
          "type": "address"
        },
        {
          "indexed": false,
          "internalType": "string",
          "name": "ipfsLink",
          "type": "string"
        },
        {
          "indexed": false,
          "internalType": "string",
          "name": "categoryId",
          "type": "string"
        },
        {
          "indexed": false,
          "internalType": "uint256",
          "name": "newScore",
          "type": "uint256"
        },
        {
          "indexed": false,
          "internalType": "uint256",
          "name": "oldScore",
          "type": "uint256"
        },
        {
          "indexed": false,
          "internalType": "bytes32",
          "name": "ipfsEntryHash",
          "type": "bytes32"
        }
      ],
      "name": "CategoryScoreChanged",
      "type": "event"
    },
    {
      "anonymous": false,
      "inputs": [
        {
          "indexed": false,
          "internalType": "uint8",
          "name": "version",
          "type": "uint8"
        }
      ],
      "name": "Initialized",
      "type": "event"
    },
    {
      "anonymous": false,
      "inputs": [
        {
          "indexed": true,
          "internalType": "address",
          "name": "previousOwner",
          "type": "address"
        },
        {
          "indexed": true,
          "internalType": "address",
          "name": "newOwner",
          "type": "address"
        }
      ],
      "name": "OwnershipTransferred",
      "type": "event"
    },
    {
      "anonymous": false,
      "inputs": [
        {
          "indexed": true,
          "internalType": "address",
          "name": "from",
          "type": "address"
        },
        {
          "indexed": true,
          "internalType": "address",
          "name": "to",
          "type": "address"
        },
        {
          "indexed": true,
          "internalType": "uint256",
          "name": "tokenId",
          "type": "uint256"
        }
      ],
      "name": "Transfer",
      "type": "event"
    },
    {
      "inputs": [
        {
          "internalType": "uint256",
          "name": "",
          "type": "uint256"
        }
      ],
      "name": "accessoryIdToAccessory",
      "outputs": [
        {
          "internalType": "address",
          "name": "artContract",
          "type": "address"
        },
        {
          "internalType": "string",
          "name": "xpCategory",
          "type": "string"
        },
        {
          "internalType": "uint256",
          "name": "qualifyingXPScore",
          "type": "uint256"
        }
      ],
      "stateMutability": "view",
      "type": "function"
    },
    {
      "inputs": [
        {
          "components": [
            {
              "internalType": "address",
              "name": "artContract",
              "type": "address"
            },
            {
              "internalType": "string",
              "name": "xpCategory",
              "type": "string"
            },
            {
              "internalType": "uint256",
              "name": "qualifyingXPScore",
              "type": "uint256"
            }
          ],
          "internalType": "struct IBackedCommunityTokenV1.Accessory",
          "name": "accessory",
          "type": "tuple"
        }
      ],
      "name": "addAccessory",
      "outputs": [
        {
          "internalType": "uint256",
          "name": "newAccessoryId",
          "type": "uint256"
        }
      ],
      "stateMutability": "nonpayable",
      "type": "function"
    },
    {
      "inputs": [
        {
          "internalType": "address",
          "name": "",
          "type": "address"
        }
      ],
      "name": "addressToAccessoryEnabled",
      "outputs": [
        {
          "internalType": "uint256",
          "name": "",
          "type": "uint256"
        }
      ],
      "stateMutability": "view",
      "type": "function"
    },
    {
      "inputs": [
        {
          "internalType": "address",
          "name": "",
          "type": "address"
        },
        {
          "internalType": "uint256",
          "name": "",
          "type": "uint256"
        }
      ],
      "name": "addressToAccessoryUnlocked",
      "outputs": [
        {
          "internalType": "bool",
          "name": "",
          "type": "bool"
        }
      ],
      "stateMutability": "view",
      "type": "function"
    },
    {
      "inputs": [
        {
          "internalType": "address",
          "name": "",
          "type": "address"
        },
        {
          "internalType": "string",
          "name": "",
          "type": "string"
        }
      ],
      "name": "addressToCategoryScore",
      "outputs": [
        {
          "internalType": "uint256",
          "name": "",
          "type": "uint256"
        }
      ],
      "stateMutability": "view",
      "type": "function"
    },
    {
      "inputs": [
        {
          "internalType": "address",
          "name": "",
          "type": "address"
        }
      ],
      "name": "addressToPFPSVGLink",
      "outputs": [
        {
          "internalType": "string",
          "name": "",
          "type": "string"
        }
      ],
      "stateMutability": "view",
      "type": "function"
    },
    {
      "inputs": [
        {
          "internalType": "address",
          "name": "to",
          "type": "address"
        },
        {
          "internalType": "uint256",
          "name": "tokenId",
          "type": "uint256"
        }
      ],
      "name": "approve",
      "outputs": [],
      "stateMutability": "nonpayable",
      "type": "function"
    },
    {
      "inputs": [
        {
          "internalType": "address",
          "name": "owner",
          "type": "address"
        }
      ],
      "name": "balanceOf",
      "outputs": [
        {
          "internalType": "uint256",
          "name": "",
          "type": "uint256"
        }
      ],
      "stateMutability": "view",
      "type": "function"
    },
    {
      "inputs": [],
      "name": "bunnyPFPContractAddress",
      "outputs": [
        {
          "internalType": "address",
          "name": "",
          "type": "address"
        }
      ],
      "stateMutability": "view",
      "type": "function"
    },
    {
      "inputs": [],
      "name": "cdmAddr",
      "outputs": [
        {
          "internalType": "address",
          "name": "",
          "type": "address"
        }
      ],
      "stateMutability": "view",
      "type": "function"
    },
    {
      "inputs": [
        {
          "components": [
            {
              "internalType": "address",
              "name": "user",
              "type": "address"
            },
            {
              "internalType": "bool",
              "name": "unlock",
              "type": "bool"
            },
            {
              "internalType": "uint256",
              "name": "accessoryId",
              "type": "uint256"
            },
            {
              "internalType": "string",
              "name": "ipfsLink",
              "type": "string"
            }
          ],
          "internalType": "struct IBackedCommunityTokenV1.AccessoryChange[]",
          "name": "changes",
          "type": "tuple[]"
        }
      ],
      "name": "changeAccessoryLocks",
      "outputs": [],
      "stateMutability": "nonpayable",
      "type": "function"
    },
    {
      "inputs": [
        {
          "components": [
            {
              "internalType": "address",
              "name": "user",
              "type": "address"
            },
            {
              "internalType": "string",
              "name": "categoryId",
              "type": "string"
            },
            {
              "internalType": "int256",
              "name": "value",
              "type": "int256"
            },
            {
              "internalType": "string",
              "name": "ipfsLink",
              "type": "string"
            }
          ],
          "internalType": "struct IBackedCommunityTokenV1.CategoryChange[]",
          "name": "changes",
          "type": "tuple[]"
        }
      ],
      "name": "changeCategoryScores",
      "outputs": [],
      "stateMutability": "nonpayable",
      "type": "function"
    },
    {
      "inputs": [],
      "name": "clearBunnyPFPLink",
      "outputs": [],
      "stateMutability": "nonpayable",
      "type": "function"
    },
    {
      "inputs": [],
      "name": "descriptor",
      "outputs": [
        {
          "internalType": "contract IBackedCommunityTokenDescriptorV1",
          "name": "",
          "type": "address"
        }
      ],
      "stateMutability": "view",
      "type": "function"
    },
    {
      "inputs": [
        {
          "internalType": "uint256",
          "name": "tokenId",
          "type": "uint256"
        }
      ],
      "name": "getApproved",
      "outputs": [
        {
          "internalType": "address",
          "name": "",
          "type": "address"
        }
      ],
      "stateMutability": "view",
      "type": "function"
    },
    {
      "inputs": [
        {
          "internalType": "address",
          "name": "user",
          "type": "address"
        }
      ],
      "name": "getUnlockedAccessoriesForAddress",
      "outputs": [
        {
          "internalType": "uint256[]",
          "name": "",
          "type": "uint256[]"
        }
      ],
      "stateMutability": "view",
      "type": "function"
    },
    {
      "inputs": [
        {
          "internalType": "address",
          "name": "_descriptorAddress",
          "type": "address"
        }
      ],
      "name": "initialize",
      "outputs": [],
      "stateMutability": "nonpayable",
      "type": "function"
    },
    {
      "inputs": [
        {
          "internalType": "address",
          "name": "owner",
          "type": "address"
        },
        {
          "internalType": "address",
          "name": "operator",
          "type": "address"
        }
      ],
      "name": "isApprovedForAll",
      "outputs": [
        {
          "internalType": "bool",
          "name": "",
          "type": "bool"
        }
      ],
      "stateMutability": "view",
      "type": "function"
    },
    {
      "inputs": [
        {
          "internalType": "address",
          "name": "mintTo",
          "type": "address"
        }
      ],
      "name": "mint",
      "outputs": [],
      "stateMutability": "nonpayable",
      "type": "function"
    },
    {
      "inputs": [],
      "name": "name",
      "outputs": [
        {
          "internalType": "string",
          "name": "",
          "type": "string"
        }
      ],
      "stateMutability": "view",
      "type": "function"
    },
    {
      "inputs": [],
      "name": "nonce",
      "outputs": [
        {
          "internalType": "uint256",
          "name": "",
          "type": "uint256"
        }
      ],
      "stateMutability": "view",
      "type": "function"
    },
    {
      "inputs": [],
      "name": "owner",
      "outputs": [
        {
          "internalType": "address",
          "name": "",
          "type": "address"
        }
      ],
      "stateMutability": "view",
      "type": "function"
    },
    {
      "inputs": [
        {
          "internalType": "uint256",
          "name": "tokenId",
          "type": "uint256"
        }
      ],
      "name": "ownerOf",
      "outputs": [
        {
          "internalType": "address",
          "name": "",
          "type": "address"
        }
      ],
      "stateMutability": "view",
      "type": "function"
    },
    {
      "inputs": [
        {
          "internalType": "uint256",
          "name": "accessoryId",
          "type": "uint256"
        }
      ],
      "name": "removeAccessory",
      "outputs": [],
      "stateMutability": "nonpayable",
      "type": "function"
    },
    {
      "inputs": [],
      "name": "renounceOwnership",
      "outputs": [],
      "stateMutability": "nonpayable",
      "type": "function"
    },
    {
      "inputs": [
        {
          "internalType": "address",
          "name": "from",
          "type": "address"
        },
        {
          "internalType": "address",
          "name": "to",
          "type": "address"
        },
        {
          "internalType": "uint256",
          "name": "tokenId",
          "type": "uint256"
        }
      ],
      "name": "safeTransferFrom",
      "outputs": [],
      "stateMutability": "nonpayable",
      "type": "function"
    },
    {
      "inputs": [
        {
          "internalType": "address",
          "name": "from",
          "type": "address"
        },
        {
          "internalType": "address",
          "name": "to",
          "type": "address"
        },
        {
          "internalType": "uint256",
          "name": "tokenId",
          "type": "uint256"
        },
        {
          "internalType": "bytes",
          "name": "_data",
          "type": "bytes"
        }
      ],
      "name": "safeTransferFrom",
      "outputs": [],
      "stateMutability": "nonpayable",
      "type": "function"
    },
    {
      "inputs": [
        {
          "internalType": "address",
          "name": "operator",
          "type": "address"
        },
        {
          "internalType": "bool",
          "name": "approved",
          "type": "bool"
        }
      ],
      "name": "setApprovalForAll",
      "outputs": [],
      "stateMutability": "nonpayable",
      "type": "function"
    },
    {
      "inputs": [
        {
          "internalType": "address",
          "name": "addr",
          "type": "address"
        }
      ],
      "name": "setBunnyPFPContract",
      "outputs": [],
      "stateMutability": "nonpayable",
      "type": "function"
    },
    {
      "inputs": [
        {
          "internalType": "address",
          "name": "owner",
          "type": "address"
        },
        {
          "internalType": "string",
          "name": "svg",
          "type": "string"
        },
        {
          "internalType": "uint256",
          "name": "tokenId",
          "type": "uint256"
        }
      ],
      "name": "setBunnyPFPSVGFromL1",
      "outputs": [],
      "stateMutability": "nonpayable",
      "type": "function"
    },
    {
      "inputs": [
        {
          "internalType": "address",
          "name": "addr",
          "type": "address"
        }
      ],
      "name": "setDescriptorContract",
      "outputs": [],
      "stateMutability": "nonpayable",
      "type": "function"
    },
    {
      "inputs": [
        {
          "internalType": "uint256",
          "name": "accessoryId",
          "type": "uint256"
        }
      ],
      "name": "setEnabledAccessory",
      "outputs": [],
      "stateMutability": "nonpayable",
      "type": "function"
    },
    {
      "inputs": [
        {
          "internalType": "address",
          "name": "addr",
          "type": "address"
        }
      ],
      "name": "setOptimismCrossChainMessengerAddress",
      "outputs": [],
      "stateMutability": "nonpayable",
      "type": "function"
    },
    {
      "inputs": [
        {
          "internalType": "bytes4",
          "name": "interfaceId",
          "type": "bytes4"
        }
      ],
      "name": "supportsInterface",
      "outputs": [
        {
          "internalType": "bool",
          "name": "",
          "type": "bool"
        }
      ],
      "stateMutability": "view",
      "type": "function"
    },
    {
      "inputs": [],
      "name": "symbol",
      "outputs": [
        {
          "internalType": "string",
          "name": "",
          "type": "string"
        }
      ],
      "stateMutability": "view",
      "type": "function"
    },
    {
      "inputs": [
        {
          "internalType": "uint256",
          "name": "tokenId",
          "type": "uint256"
        }
      ],
      "name": "tokenURI",
      "outputs": [
        {
          "internalType": "string",
          "name": "",
          "type": "string"
        }
      ],
      "stateMutability": "view",
      "type": "function"
    },
    {
      "inputs": [],
      "name": "totalCategoryCount",
      "outputs": [
        {
          "internalType": "uint256",
          "name": "",
          "type": "uint256"
        }
      ],
      "stateMutability": "view",
      "type": "function"
    },
    {
      "inputs": [
        {
          "internalType": "address",
          "name": "from",
          "type": "address"
        },
        {
          "internalType": "address",
          "name": "to",
          "type": "address"
        },
        {
          "internalType": "uint256",
          "name": "tokenId",
          "type": "uint256"
        }
      ],
      "name": "transferFrom",
      "outputs": [],
      "stateMutability": "nonpayable",
      "type": "function"
    },
    {
      "inputs": [
        {
          "internalType": "address",
          "name": "newOwner",
          "type": "address"
        }
      ],
      "name": "transferOwnership",
      "outputs": [],
      "stateMutability": "nonpayable",
      "type": "function"
    }
  ],
  "bytecode": {
    "object": "0x608060405234801561001057600080fd5b506132e9806100206000396000f3fe608060405234801561001057600080fd5b506004361061023d5760003560e01c806395d89b411161013b578063cdb16e00116100b8578063db8a06cf1161007c578063db8a06cf1461052e578063dfcf2cf814610550578063e36b1e5314610563578063e985e9c514610576578063f2fde38b1461058957600080fd5b8063cdb16e0014610499578063d1c5df07146104ac578063d37825b2146104cc578063d4f353c0146104df578063da2fd4cb146104f257600080fd5b8063b88d4fde116100ff578063b88d4fde1461043a578063c17c7faa1461044d578063c4d66de814610460578063c87b56dd14610473578063cb19a1d61461048657600080fd5b806395d89b4114610405578063a22cb4651461040d578063aa416e5414610420578063affed0e014610428578063b2b52ef11461043157600080fd5b80632fdaa490116101c95780636a6278421161018d5780636a627842146103a657806370a08231146103b9578063715018a6146103cc5780637473660a146103d45780638da5cb5b146103f457600080fd5b80632fdaa4901461032c578063303e74df1461035a57806342842e0e1461036d5780635be6b2eb146103805780636352211e1461039357600080fd5b8063095ea7b311610210578063095ea7b3146102bf5780631ab87a44146102d257806323b872dd146102f35780632427061d146103065780632f2aa2101461031957600080fd5b806301ffc9a7146102425780630303348f1461026a57806306fdde031461027f578063081812fc14610294575b600080fd5b6102556102503660046126b1565b61059c565b60405190151581526020015b60405180910390f35b61027d6102783660046126e3565b6105ee565b005b610287610643565b6040516102619190612758565b6102a76102a236600461276b565b6106d5565b6040516001600160a01b039091168152602001610261565b61027d6102cd366004612784565b61076a565b6102e56102e03660046127b0565b610880565b604051908152602001610261565b61027d6103013660046127ea565b6109f1565b61027d61031436600461282b565b610a22565b61027d61032736600461276b565b610be7565b61025561033a366004612784565b600960209081526000928352604080842090915290825290205460ff1681565b6002546102a7906001600160a01b031681565b61027d61037b3660046127ea565b610cb6565b61027d61038e366004612900565b610cd1565b6102a76103a136600461276b565b610eff565b61027d6103b43660046126e3565b610f76565b6102e56103c73660046126e3565b610f97565b61027d61101d565b6102e56103e23660046126e3565b600a6020526000908152604090205481565b60a4546001600160a01b03166102a7565b610287611053565b61027d61041b366004612951565b611062565b61027d611071565b6102e560005481565b6102e560035481565b61027d610448366004612a59565b611099565b6001546102a7906001600160a01b031681565b61027d61046e3660046126e3565b6110d1565b61028761048136600461276b565b6111a8565b6102876104943660046126e3565b6112bd565b61027d6104a736600461276b565b611357565b6104bf6104ba3660046126e3565b6113bb565b6040516102619190612ad8565b61027d6104da3660046126e3565b61147d565b61027d6104ed3660046126e3565b6114c9565b6102e5610500366004612b3c565b6004602090815260009283526040909220815180830184018051928152908401929093019190912091525481565b61054161053c36600461276b565b611515565b60405161026193929190612b8b565b600b546102a7906001600160a01b031681565b61027d610571366004612900565b6115ca565b610255610584366004612bbf565b6117f9565b61027d6105973660046126e3565b611827565b60006001600160e01b031982166380ac58cd60e01b14806105cd57506001600160e01b03198216635b5e139f60e01b145b806105e857506301ffc9a760e01b6001600160e01b03198316145b92915050565b60a4546001600160a01b031633146106215760405162461bcd60e51b815260040161061890612bf8565b60405180910390fd5b600180546001600160a01b0319166001600160a01b0392909216919091179055565b60606072805461065290612c2d565b80601f016020809104026020016040519081016040528092919081815260200182805461067e90612c2d565b80156106cb5780601f106106a0576101008083540402835291602001916106cb565b820191906000526020600020905b8154815290600101906020018083116106ae57829003601f168201915b5050505050905090565b6000818152607460205260408120546001600160a01b031661074e5760405162461bcd60e51b815260206004820152602c60248201527f4552433732313a20617070726f76656420717565727920666f72206e6f6e657860448201526b34b9ba32b73a103a37b5b2b760a11b6064820152608401610618565b506000908152607660205260409020546001600160a01b031690565b600061077582610eff565b9050806001600160a01b0316836001600160a01b031614156107e35760405162461bcd60e51b815260206004820152602160248201527f4552433732313a20617070726f76616c20746f2063757272656e74206f776e656044820152603960f91b6064820152608401610618565b336001600160a01b03821614806107ff57506107ff81336117f9565b6108715760405162461bcd60e51b815260206004820152603860248201527f4552433732313a20617070726f76652063616c6c6572206973206e6f74206f7760448201527f6e6572206e6f7220617070726f76656420666f7220616c6c00000000000000006064820152608401610618565b61087b83836118bf565b505050565b60a4546000906001600160a01b031633146108ad5760405162461bcd60e51b815260040161061890612bf8565b5060078054600101908190556040805160608101909152806108d260208501856126e3565b6001600160a01b031681526020018380602001906108f09190612c68565b8080601f0160208091040260200160405190810160405280939291908181526020018383808284376000920182905250938552505050604085810135602093840152848252600883529020825181546001600160a01b0319166001600160a01b0390911617815582820151805191926109719260018501929091019061258e565b506040820151816002015590505061098a60058261192d565b5061099860208301836126e3565b6001600160a01b0316817f1384d702228ebaf17be8c404a8106715f68a1c09f3944a997d13dd7838a12d6e6109d06020860186612c68565b86604001356040516109e493929190612cae565b60405180910390a3919050565b6109fb3382611939565b610a175760405162461bcd60e51b815260040161061890612ce7565b61087b838383611a10565b6001546001600160a01b03163314610aa25760405162461bcd60e51b815260206004820152603d60248201527f4261636b6564436f6d6d756e697479546f6b656e56313a2063616c6c6572206d60448201527f7573742062652063726f737320646f6d61696e206d657373656e6765720000006064820152608401610618565b600b5460015460408051636e296e4560e01b815290516001600160a01b039384169390921691636e296e45916004808201926020929091908290030181865afa158015610af3573d6000803e3d6000fd5b505050506040513d601f19601f82011682018060405250810190610b179190612d38565b6001600160a01b031614610b875760405162461bcd60e51b815260206004820152603160248201527f4261636b6564436f6d6d756e697479546f6b656e56313a206f726967696e206d6044820152700757374206265204261636b65642050465607c1b6064820152608401610618565b6001600160a01b0384166000908152600c60205260409020610baa908484612612565b5060405181906001600160a01b038616907f636b0e6ea24f7b2a58c337ff69d8744756d9b166bb29fdb31b21cc126e535ad190600090a350505050565b336000818152600a602052604090205490610c029083611ab7565b610c745760405162461bcd60e51b815260206004820152603760248201527f4261636b6564436f6d6d756e697479546f6b656e56313a2075736572206e6f7460448201527f20656c696769626c6520666f72206163636573736f72790000000000000000006064820152608401610618565b336000818152600a6020526040808220859055518492849290917fea1b1f91e87d6596dd266ab28a1e2231755992988caaafc59ed42f2331d41e8c9190a45050565b61087b83838360405180602001604052806000815250611099565b60a4546001600160a01b03163314610cfb5760405162461bcd60e51b815260040161061890612bf8565b60005b8181101561087b576000838383818110610d1a57610d1a612d55565b9050602002810190610d2c9190612d6b565b610d3590612d8b565b6040808201516000908152600860205220549091506001600160a01b0316610db85760405162461bcd60e51b815260206004820152603060248201527f4261636b6564436f6d6d756e697479546f6b656e56313a204163636573736f7260448201526f1e48191bd95cc81b9bdd08195e1a5cdd60821b6064820152608401610618565b610dc58160400151611c23565b610e2f5760405162461bcd60e51b815260206004820152603560248201527f4261636b6564436f6d6d756e697479546f6b656e56313a204163636573736f726044820152741e481b5d5cdd0818994818591b5a5b8818985cd959605a1b6064820152608401610618565b60208181015182516001600160a01b0390811660009081526009845260408082208187018051845290865291819020805460ff191685151590811790915591518651606080890151845192909616978201889052928101829052918201929092529293909290917f9585125add627de8c748eef8bbf87fd4d943068f750d41b4657804c42163b00f91859060800160405160208183030381529060405280519060200120604051610ee293929190612dfe565b60405180910390a350508080610ef790612e39565b915050610cfe565b6000818152607460205260408120546001600160a01b0316806105e85760405162461bcd60e51b815260206004820152602960248201527f4552433732313a206f776e657220717565727920666f72206e6f6e657869737460448201526832b73a103a37b5b2b760b91b6064820152608401610618565b60008054610f949183919080610f8b83612e39565b91905055611cf8565b50565b60006001600160a01b0382166110015760405162461bcd60e51b815260206004820152602960248201527f4552433732313a2061646472657373207a65726f206973206e6f7420612076616044820152683634b21037bbb732b960b91b6064820152608401610618565b506001600160a01b031660009081526075602052604090205490565b60a4546001600160a01b031633146110475760405162461bcd60e51b815260040161061890612bf8565b6110516000611d2a565b565b60606073805461065290612c2d565b61106d338383611d7c565b5050565b6040805160208082018084526000808452338152600c9092529290209051610f94929061258e565b6110a33383611939565b6110bf5760405162461bcd60e51b815260040161061890612ce7565b6110cb84848484611e4b565b50505050565b60006110dd6001611e7e565b905080156110f557600d805461ff0019166101001790555b6111446040518060400160405280600f81526020016e4261636b6564436f6d6d756e69747960881b81525060405180604001604052806006815260200165109050d2d15160d21b815250611f0d565b600280546001600160a01b0319166001600160a01b038416179055801561106d57600d805461ff0019169055604051600181527f7f26b83ff96e1f2b6a682f133852f6798a09c465da95921460cefb38474024989060200160405180910390a15050565b6040516331a9108f60e11b8152600481018290526060906000903090636352211e90602401602060405180830381865afa1580156111ea573d6000803e3d6000fd5b505050506040513d601f19601f8201168201806040525081019061120e9190612d38565b6002546001600160a01b038083166000818152600a602090815260408083205483526008825280832054938352600c90915290819020905163045b0e1b60e01b81529495509282169363045b0e1b93611271938993889391169190600401612e54565b600060405180830381865afa15801561128e573d6000803e3d6000fd5b505050506040513d6000823e601f3d908101601f191682016040526112b69190810190612f22565b9392505050565b600c60205260009081526040902080546112d690612c2d565b80601f016020809104026020016040519081016040528092919081815260200182805461130290612c2d565b801561134f5780601f106113245761010080835404028352916020019161134f565b820191906000526020600020905b81548152906001019060200180831161133257829003601f168201915b505050505081565b60a4546001600160a01b031633146113815760405162461bcd60e51b815260040161061890612bf8565b61138c600582611f46565b5060405181907f5845360a59cc0a8e9af0431a2d71aac5647e34c91e50205d35e2ac656fa0f30a90600090a250565b606060006113c96005611f52565b90506000816001600160401b038111156113e5576113e5612986565b60405190808252806020026020018201604052801561140e578160200160208202803683370190505b50905060005b82811015611475576114308561142b600584611f5c565b611ab7565b61143b576000611446565b611446600582611f5c565b82828151811061145857611458612d55565b60209081029190910101528061146d81612e39565b915050611414565b509392505050565b60a4546001600160a01b031633146114a75760405162461bcd60e51b815260040161061890612bf8565b600280546001600160a01b0319166001600160a01b0392909216919091179055565b60a4546001600160a01b031633146114f35760405162461bcd60e51b815260040161061890612bf8565b600b80546001600160a01b0319166001600160a01b0392909216919091179055565b600860205260009081526040902080546001820180546001600160a01b03909216929161154190612c2d565b80601f016020809104026020016040519081016040528092919081815260200182805461156d90612c2d565b80156115ba5780601f1061158f576101008083540402835291602001916115ba565b820191906000526020600020905b81548152906001019060200180831161159d57829003601f168201915b5050505050908060020154905083565b60a4546001600160a01b031633146115f45760405162461bcd60e51b815260040161061890612bf8565b60005b8181101561087b57600083838381811061161357611613612d55565b90506020028101906116259190612d6b565b61162e90612f98565b80516001600160a01b031660009081526004602090815260408083209184015190519394509192909161166091613015565b908152604080519182900360209081018320548583015186516001600160a01b03166000908152600484529384209287015191955092936116a19190613015565b9081526020016040518091039020546116ba9190613027565b905060008112156117225760405162461bcd60e51b815260206004820152602c60248201527f4261636b6564436f6d6d756e697479546f6b656e56313a2058502063616e6e6f60448201526b07420676f2062656c6f7720360a41b6064820152608401610618565b82516001600160a01b0316600090815260046020908152604091829020908501519151839261175091613015565b908152604051602091819003820181209290925584516060860151868301516001600160a01b038316947f9ef5bdac21c0b2ea1e3f6bb8f97d9da60f47f64a6b092f1e97f5f8f058bfbd729492939192879289926117b49286918691869101613068565b604051602081830303815290604052805190602001206040516117db95949392919061309f565b60405180910390a250505080806117f190612e39565b9150506115f7565b6001600160a01b03918216600090815260776020908152604080832093909416825291909152205460ff1690565b60a4546001600160a01b031633146118515760405162461bcd60e51b815260040161061890612bf8565b6001600160a01b0381166118b65760405162461bcd60e51b815260206004820152602660248201527f4f776e61626c653a206e6577206f776e657220697320746865207a65726f206160448201526564647265737360d01b6064820152608401610618565b610f9481611d2a565b600081815260766020526040902080546001600160a01b0319166001600160a01b03841690811790915581906118f482610eff565b6001600160a01b03167f8c5be1e5ebec7d5bd14f71427d1e84f3dd0314c0f7b2291e5b200ac8c7c3b92560405160405180910390a45050565b60006112b68383611f68565b6000818152607460205260408120546001600160a01b03166119b25760405162461bcd60e51b815260206004820152602c60248201527f4552433732313a206f70657261746f7220717565727920666f72206e6f6e657860448201526b34b9ba32b73a103a37b5b2b760a11b6064820152608401610618565b60006119bd83610eff565b9050806001600160a01b0316846001600160a01b031614806119e457506119e481856117f9565b80611a085750836001600160a01b03166119fd846106d5565b6001600160a01b0316145b949350505050565b60a4546001600160a01b03163314611a845760405162461bcd60e51b815260206004820152603160248201527f455243373231536f756c626f756e643a206f6e6c7920636f6e7472616374206f6044820152703bb732b91031b0b7103a3930b739b332b960791b6064820152608401610618565b6001611a8f83610f97565b10611aac5760405162461bcd60e51b8152600401610618906130e2565b61087b838383611fb7565b600081611ac6575060016105e8565b600082815260086020908152604080832081516060810190925280546001600160a01b031682526001810180549293919291840191611b0490612c2d565b80601f0160208091040260200160405190810160405280929190818152602001828054611b3090612c2d565b8015611b7d5780601f10611b5257610100808354040283529160200191611b7d565b820191906000526020600020905b815481529060010190602001808311611b6057829003601f168201915b505050505081526020016002820154815250509050611b9b83611c23565b15611bce5750506001600160a01b038216600090815260096020908152604080832084845290915290205460ff166105e8565b806040015160046000866001600160a01b03166001600160a01b031681526020019081526020016000208260200151604051611c0a9190613015565b90815260200160405180910390205410159150506105e8565b600081815260086020908152604080832081516060810190925280546001600160a01b03168252600181018054859484019190611c5f90612c2d565b80601f0160208091040260200160405190810160405280929190818152602001828054611c8b90612c2d565b8015611cd85780601f10611cad57610100808354040283529160200191611cd8565b820191906000526020600020905b815481529060010190602001808311611cbb57829003601f168201915b505050918352505060029190910154602091820152015151159392505050565b6001611d0383610f97565b10611d205760405162461bcd60e51b8152600401610618906130e2565b61106d8282612153565b60a480546001600160a01b038381166001600160a01b0319831681179093556040519116919082907f8be0079c531659141344cd1fd0a4f28419497f9722a3daafe3b4186f6b6457e090600090a35050565b816001600160a01b0316836001600160a01b03161415611dde5760405162461bcd60e51b815260206004820152601960248201527f4552433732313a20617070726f766520746f2063616c6c6572000000000000006044820152606401610618565b6001600160a01b03838116600081815260776020908152604080832094871680845294825291829020805460ff191686151590811790915591519182527f17307eab39ab6107e8899845ad3d59bd9653f200f220920489ca2b5937696c31910160405180910390a3505050565b611e56848484611a10565b611e6284848484612295565b6110cb5760405162461bcd60e51b815260040161061890613129565b600d54600090610100900460ff1615611ec7578160ff166001148015611ea35750303b155b611ebf5760405162461bcd60e51b81526004016106189061317b565b506000919050565b600d5460ff808416911610611eee5760405162461bcd60e51b81526004016106189061317b565b50600d805460ff191660ff92909216919091179055600190565b919050565b600d54610100900460ff16611f345760405162461bcd60e51b8152600401610618906131c9565b611f3e8282612393565b61106d6123c4565b60006112b683836123f3565b60006105e8825490565b60006112b683836124e6565b6000818152600183016020526040812054611faf575081546001818101845560008481526020808220909301849055845484825282860190935260409020919091556105e8565b5060006105e8565b826001600160a01b0316611fca82610eff565b6001600160a01b03161461202e5760405162461bcd60e51b815260206004820152602560248201527f4552433732313a207472616e736665722066726f6d20696e636f72726563742060448201526437bbb732b960d91b6064820152608401610618565b6001600160a01b0382166120905760405162461bcd60e51b8152602060048201526024808201527f4552433732313a207472616e7366657220746f20746865207a65726f206164646044820152637265737360e01b6064820152608401610618565b61209b6000826118bf565b6001600160a01b03831660009081526075602052604081208054600192906120c4908490613214565b90915550506001600160a01b03821660009081526075602052604081208054600192906120f290849061322b565b909155505060008181526074602052604080822080546001600160a01b0319166001600160a01b0386811691821790925591518493918716917fddf252ad1be2c89b69c2b068fc378daa952ba7f163c4a11628f55a4df523b3ef91a4505050565b6001600160a01b0382166121a95760405162461bcd60e51b815260206004820181905260248201527f4552433732313a206d696e7420746f20746865207a65726f20616464726573736044820152606401610618565b6000818152607460205260409020546001600160a01b03161561220e5760405162461bcd60e51b815260206004820152601c60248201527f4552433732313a20746f6b656e20616c7265616479206d696e746564000000006044820152606401610618565b6001600160a01b038216600090815260756020526040812080546001929061223790849061322b565b909155505060008181526074602052604080822080546001600160a01b0319166001600160a01b03861690811790915590518392907fddf252ad1be2c89b69c2b068fc378daa952ba7f163c4a11628f55a4df523b3ef908290a45050565b60006001600160a01b0384163b1561238857604051630a85bd0160e11b81526001600160a01b0385169063150b7a02906122d9903390899088908890600401613243565b6020604051808303816000875af1925050508015612314575060408051601f3d908101601f1916820190925261231191810190613280565b60015b61236e573d808015612342576040519150601f19603f3d011682016040523d82523d6000602084013e612347565b606091505b5080516123665760405162461bcd60e51b815260040161061890613129565b805181602001fd5b6001600160e01b031916630a85bd0160e11b149050611a08565b506001949350505050565b600d54610100900460ff166123ba5760405162461bcd60e51b8152600401610618906131c9565b61106d8282612510565b600d54610100900460ff166123eb5760405162461bcd60e51b8152600401610618906131c9565b61105161255e565b600081815260018301602052604081205480156124dc576000612417600183613214565b855490915060009061242b90600190613214565b905081811461249057600086600001828154811061244b5761244b612d55565b906000526020600020015490508087600001848154811061246e5761246e612d55565b6000918252602080832090910192909255918252600188019052604090208390555b85548690806124a1576124a161329d565b6001900381819060005260206000200160009055905585600101600086815260200190815260200160002060009055600193505050506105e8565b60009150506105e8565b60008260000182815481106124fd576124fd612d55565b9060005260206000200154905092915050565b600d54610100900460ff166125375760405162461bcd60e51b8152600401610618906131c9565b815161254a90607290602085019061258e565b50805161087b90607390602084019061258e565b600d54610100900460ff166125855760405162461bcd60e51b8152600401610618906131c9565b61105133611d2a565b82805461259a90612c2d565b90600052602060002090601f0160209004810192826125bc5760008555612602565b82601f106125d557805160ff1916838001178555612602565b82800160010185558215612602579182015b828111156126025782518255916020019190600101906125e7565b5061260e929150612686565b5090565b82805461261e90612c2d565b90600052602060002090601f0160209004810192826126405760008555612602565b82601f106126595782800160ff19823516178555612602565b82800160010185558215612602579182015b8281111561260257823582559160200191906001019061266b565b5b8082111561260e5760008155600101612687565b6001600160e01b031981168114610f9457600080fd5b6000602082840312156126c357600080fd5b81356112b68161269b565b6001600160a01b0381168114610f9457600080fd5b6000602082840312156126f557600080fd5b81356112b6816126ce565b60005b8381101561271b578181015183820152602001612703565b838111156110cb5750506000910152565b60008151808452612744816020860160208601612700565b601f01601f19169290920160200192915050565b6020815260006112b6602083018461272c565b60006020828403121561277d57600080fd5b5035919050565b6000806040838503121561279757600080fd5b82356127a2816126ce565b946020939093013593505050565b6000602082840312156127c257600080fd5b81356001600160401b038111156127d857600080fd5b8201606081850312156112b657600080fd5b6000806000606084860312156127ff57600080fd5b833561280a816126ce565b9250602084013561281a816126ce565b929592945050506040919091013590565b6000806000806060858703121561284157600080fd5b843561284c816126ce565b935060208501356001600160401b038082111561286857600080fd5b818701915087601f83011261287c57600080fd5b81358181111561288b57600080fd5b88602082850101111561289d57600080fd5b95986020929092019750949560400135945092505050565b60008083601f8401126128c757600080fd5b5081356001600160401b038111156128de57600080fd5b6020830191508360208260051b85010111156128f957600080fd5b9250929050565b6000806020838503121561291357600080fd5b82356001600160401b0381111561292957600080fd5b612935858286016128b5565b90969095509350505050565b80358015158114611f0857600080fd5b6000806040838503121561296457600080fd5b823561296f816126ce565b915061297d60208401612941565b90509250929050565b634e487b7160e01b600052604160045260246000fd5b604051608081016001600160401b03811182821017156129be576129be612986565b60405290565b604051601f8201601f191681016001600160401b03811182821017156129ec576129ec612986565b604052919050565b60006001600160401b03821115612a0d57612a0d612986565b50601f01601f191660200190565b6000612a2e612a29846129f4565b6129c4565b9050828152838383011115612a4257600080fd5b828260208301376000602084830101529392505050565b60008060008060808587031215612a6f57600080fd5b8435612a7a816126ce565b93506020850135612a8a816126ce565b92506040850135915060608501356001600160401b03811115612aac57600080fd5b8501601f81018713612abd57600080fd5b612acc87823560208401612a1b565b91505092959194509250565b6020808252825182820181905260009190848201906040850190845b81811015612b1057835183529284019291840191600101612af4565b50909695505050505050565b600082601f830112612b2d57600080fd5b6112b683833560208501612a1b565b60008060408385031215612b4f57600080fd5b8235612b5a816126ce565b915060208301356001600160401b03811115612b7557600080fd5b612b8185828601612b1c565b9150509250929050565b6001600160a01b0384168152606060208201819052600090612baf9083018561272c565b9050826040830152949350505050565b60008060408385031215612bd257600080fd5b8235612bdd816126ce565b91506020830135612bed816126ce565b809150509250929050565b6020808252818101527f4f776e61626c653a2063616c6c6572206973206e6f7420746865206f776e6572604082015260600190565b600181811c90821680612c4157607f821691505b60208210811415612c6257634e487b7160e01b600052602260045260246000fd5b50919050565b6000808335601e19843603018112612c7f57600080fd5b8301803591506001600160401b03821115612c9957600080fd5b6020019150368190038213156128f957600080fd5b604081528260408201528284606083013760006060848301015260006060601f19601f8601168301019050826020830152949350505050565b60208082526031908201527f4552433732313a207472616e736665722063616c6c6572206973206e6f74206f6040820152701ddb995c881b9bdc88185c1c1c9bdd9959607a1b606082015260800190565b600060208284031215612d4a57600080fd5b81516112b6816126ce565b634e487b7160e01b600052603260045260246000fd5b60008235607e19833603018112612d8157600080fd5b9190910192915050565b600060808236031215612d9d57600080fd5b612da561299c565b8235612db0816126ce565b8152612dbe60208401612941565b60208201526040830135604082015260608301356001600160401b03811115612de657600080fd5b612df236828601612b1c565b60608301525092915050565b606081526000612e11606083018661272c565b93151560208301525060400152919050565b634e487b7160e01b600052601160045260246000fd5b6000600019821415612e4d57612e4d612e23565b5060010190565b8481526001600160a01b038481166020808401919091529084166040830152608060608301528254600091908290600181811c9082811680612e9757607f831692505b858310811415612eb557634e487b7160e01b85526022600452602485fd5b6080880183905260a08801818015612ed45760018114612ee557612f10565b60ff19861682528782019650612f10565b60008b81526020902060005b86811015612f0a57815484820152908501908901612ef1565b83019750505b50949c9b505050505050505050505050565b600060208284031215612f3457600080fd5b81516001600160401b03811115612f4a57600080fd5b8201601f81018413612f5b57600080fd5b8051612f69612a29826129f4565b818152856020838501011115612f7e57600080fd5b612f8f826020830160208601612700565b95945050505050565b600060808236031215612faa57600080fd5b612fb261299c565b8235612fbd816126ce565b815260208301356001600160401b0380821115612fd957600080fd5b612fe536838701612b1c565b602084015260408501356040840152606085013591508082111561300857600080fd5b50612df236828601612b1c565b60008251612d81818460208701612700565b600080821280156001600160ff1b038490038513161561304957613049612e23565b600160ff1b839003841281161561306257613062612e23565b50500190565b6001600160a01b038516815260806020820181905260009061308c9083018661272c565b6040830194909452506060015292915050565b60a0815260006130b260a083018861272c565b82810360208401526130c4818861272c565b60408401969096525050606081019290925260809091015292915050565b60208082526027908201527f455243373231536f756c626f756e643a2063616e6e6f74206f776e206d6f7265604082015266207468616e203160c81b606082015260800190565b60208082526032908201527f4552433732313a207472616e7366657220746f206e6f6e20455243373231526560408201527131b2b4bb32b91034b6b83632b6b2b73a32b960711b606082015260800190565b6020808252602e908201527f496e697469616c697a61626c653a20636f6e747261637420697320616c72656160408201526d191e481a5b9a5d1a585b1a5e995960921b606082015260800190565b6020808252602b908201527f496e697469616c697a61626c653a20636f6e7472616374206973206e6f74206960408201526a6e697469616c697a696e6760a81b606082015260800190565b60008282101561322657613226612e23565b500390565b6000821982111561323e5761323e612e23565b500190565b6001600160a01b03858116825284166020820152604081018390526080606082018190526000906132769083018461272c565b9695505050505050565b60006020828403121561329257600080fd5b81516112b68161269b565b634e487b7160e01b600052603160045260246000fdfea26469706673582212201e2702870adff4f60764d914c347c4e122451a531265bc70ec5d7bd90adf5cca64736f6c634300080c0033",
    "linkReferences": {}
  },
  "methodIdentifiers": {
    "accessoryIdToAccessory(uint256)": "db8a06cf",
    "addAccessory((address,string,uint256))": "1ab87a44",
    "addressToAccessoryEnabled(address)": "7473660a",
    "addressToAccessoryUnlocked(address,uint256)": "2fdaa490",
    "addressToCategoryScore(address,string)": "da2fd4cb",
    "addressToPFPSVGLink(address)": "cb19a1d6",
    "approve(address,uint256)": "095ea7b3",
    "balanceOf(address)": "70a08231",
    "bunnyPFPContractAddress()": "dfcf2cf8",
    "cdmAddr()": "c17c7faa",
    "changeAccessoryLocks((address,bool,uint256,string)[])": "5be6b2eb",
    "changeCategoryScores((address,string,int256,string)[])": "e36b1e53",
    "clearBunnyPFPLink()": "aa416e54",
    "descriptor()": "303e74df",
    "getApproved(uint256)": "081812fc",
    "getUnlockedAccessoriesForAddress(address)": "d1c5df07",
    "initialize(address)": "c4d66de8",
    "isApprovedForAll(address,address)": "e985e9c5",
    "mint(address)": "6a627842",
    "name()": "06fdde03",
    "nonce()": "affed0e0",
    "owner()": "8da5cb5b",
    "ownerOf(uint256)": "6352211e",
    "removeAccessory(uint256)": "cdb16e00",
    "renounceOwnership()": "715018a6",
    "safeTransferFrom(address,address,uint256)": "42842e0e",
    "safeTransferFrom(address,address,uint256,bytes)": "b88d4fde",
    "setApprovalForAll(address,bool)": "a22cb465",
    "setBunnyPFPContract(address)": "d4f353c0",
    "setBunnyPFPSVGFromL1(address,string,uint256)": "2427061d",
    "setDescriptorContract(address)": "d37825b2",
    "setEnabledAccessory(uint256)": "2f2aa210",
    "setOptimismCrossChainMessengerAddress(address)": "0303348f",
    "supportsInterface(bytes4)": "01ffc9a7",
    "symbol()": "95d89b41",
    "tokenURI(uint256)": "c87b56dd",
    "totalCategoryCount()": "b2b52ef1",
    "transferFrom(address,address,uint256)": "23b872dd",
    "transferOwnership(address)": "f2fde38b"
  },
  "id": 38
}