{
  "abi": [
    {
      "anonymous": false,
      "inputs": [
        {
          "indexed": true,
          "internalType": "address",
          "name": "addr",
          "type": "address"
        },
        {
          "indexed": true,
          "internalType": "uint256",
          "name": "accessoryId",
          "type": "uint256"
        },
        {
          "indexed": true,
          "internalType": "string",
          "name": "ipfsLink",
          "type": "string"
        },
        {
          "indexed": false,
          "internalType": "bool",
          "name": "unlocked",
          "type": "bool"
        },
        {
          "indexed": false,
          "internalType": "string",
          "name": "ipfsEntryHash",
          "type": "string"
        }
      ],
      "name": "AccessoryLockChanged",
      "type": "event"
    },
    {
      "anonymous": false,
      "inputs": [
        {
          "indexed": true,
          "internalType": "address",
          "name": "addr",
          "type": "address"
        },
        {
          "indexed": true,
          "internalType": "uint256",
          "name": "oldAccessory",
          "type": "uint256"
        },
        {
          "indexed": true,
          "internalType": "uint256",
          "name": "newAccessory",
          "type": "uint256"
        }
      ],
      "name": "AccessorySwapped",
      "type": "event"
    },
    {
      "anonymous": false,
      "inputs": [
        {
          "indexed": true,
          "internalType": "address",
          "name": "owner",
          "type": "address"
        },
        {
          "indexed": true,
          "internalType": "address",
          "name": "approved",
          "type": "address"
        },
        {
          "indexed": true,
          "internalType": "uint256",
          "name": "tokenId",
          "type": "uint256"
        }
      ],
      "name": "Approval",
      "type": "event"
    },
    {
      "anonymous": false,
      "inputs": [
        {
          "indexed": true,
          "internalType": "address",
          "name": "owner",
          "type": "address"
        },
        {
          "indexed": true,
          "internalType": "address",
          "name": "operator",
          "type": "address"
        },
        {
          "indexed": false,
          "internalType": "bool",
          "name": "approved",
          "type": "bool"
        }
      ],
      "name": "ApprovalForAll",
      "type": "event"
    },
    {
      "anonymous": false,
      "inputs": [
        {
          "indexed": true,
          "internalType": "address",
          "name": "addr",
          "type": "address"
        },
        {
          "indexed": true,
          "internalType": "string",
          "name": "categoryId",
          "type": "string"
        },
        {
          "indexed": true,
          "internalType": "string",
          "name": "ipfsLink",
          "type": "string"
        },
        {
          "indexed": false,
          "internalType": "uint256",
          "name": "newScore",
          "type": "uint256"
        },
        {
          "indexed": false,
          "internalType": "uint256",
          "name": "oldScore",
          "type": "uint256"
        },
        {
          "indexed": false,
          "internalType": "string",
          "name": "ipfsEntryHash",
          "type": "string"
        }
      ],
      "name": "CategoryScoreChanged",
      "type": "event"
    },
    {
      "anonymous": false,
      "inputs": [
        {
          "indexed": false,
          "internalType": "uint8",
          "name": "version",
          "type": "uint8"
        }
      ],
      "name": "Initialized",
      "type": "event"
    },
    {
      "anonymous": false,
      "inputs": [
        {
          "indexed": true,
          "internalType": "address",
          "name": "previousOwner",
          "type": "address"
        },
        {
          "indexed": true,
          "internalType": "address",
          "name": "newOwner",
          "type": "address"
        }
      ],
      "name": "OwnershipTransferred",
      "type": "event"
    },
    {
      "anonymous": false,
      "inputs": [
        {
          "indexed": true,
          "internalType": "address",
          "name": "from",
          "type": "address"
        },
        {
          "indexed": true,
          "internalType": "address",
          "name": "to",
          "type": "address"
        },
        {
          "indexed": true,
          "internalType": "uint256",
          "name": "tokenId",
          "type": "uint256"
        }
      ],
      "name": "Transfer",
      "type": "event"
    },
    {
      "inputs": [
        {
          "internalType": "uint256",
          "name": "",
          "type": "uint256"
        }
      ],
      "name": "accessoryIdToAccessory",
      "outputs": [
        {
          "internalType": "address",
          "name": "artContract",
          "type": "address"
        },
        {
          "internalType": "string",
          "name": "xpCategory",
          "type": "string"
        },
        {
          "internalType": "uint256",
          "name": "qualifyingXPScore",
          "type": "uint256"
        }
      ],
      "stateMutability": "view",
      "type": "function"
    },
    {
      "inputs": [
        {
          "components": [
            {
              "internalType": "address",
              "name": "artContract",
              "type": "address"
            },
            {
              "internalType": "string",
              "name": "xpCategory",
              "type": "string"
            },
            {
              "internalType": "uint256",
              "name": "qualifyingXPScore",
              "type": "uint256"
            }
          ],
          "internalType": "struct IBackedCommunityTokenV1.Accessory",
          "name": "accessory",
          "type": "tuple"
        }
      ],
      "name": "addAccessory",
      "outputs": [
        {
          "internalType": "uint256",
          "name": "newAccessoryId",
          "type": "uint256"
        }
      ],
      "stateMutability": "nonpayable",
      "type": "function"
    },
    {
      "inputs": [
        {
          "internalType": "address",
          "name": "",
          "type": "address"
        }
      ],
      "name": "addressToAccessoryEnabled",
      "outputs": [
        {
          "internalType": "uint256",
          "name": "",
          "type": "uint256"
        }
      ],
      "stateMutability": "view",
      "type": "function"
    },
    {
      "inputs": [
        {
          "internalType": "address",
          "name": "",
          "type": "address"
        },
        {
          "internalType": "uint256",
          "name": "",
          "type": "uint256"
        }
      ],
      "name": "addressToAccessoryUnlocked",
      "outputs": [
        {
          "internalType": "bool",
          "name": "",
          "type": "bool"
        }
      ],
      "stateMutability": "view",
      "type": "function"
    },
    {
      "inputs": [
        {
          "internalType": "address",
          "name": "",
          "type": "address"
        },
        {
          "internalType": "string",
          "name": "",
          "type": "string"
        }
      ],
      "name": "addressToCategoryScore",
      "outputs": [
        {
          "internalType": "uint256",
          "name": "",
          "type": "uint256"
        }
      ],
      "stateMutability": "view",
      "type": "function"
    },
    {
      "inputs": [
        {
          "internalType": "address",
          "name": "",
          "type": "address"
        }
      ],
      "name": "addressToPFPSVGLink",
      "outputs": [
        {
          "internalType": "string",
          "name": "",
          "type": "string"
        }
      ],
      "stateMutability": "view",
      "type": "function"
    },
    {
      "inputs": [
        {
          "internalType": "address",
          "name": "to",
          "type": "address"
        },
        {
          "internalType": "uint256",
          "name": "tokenId",
          "type": "uint256"
        }
      ],
      "name": "approve",
      "outputs": [],
      "stateMutability": "nonpayable",
      "type": "function"
    },
    {
      "inputs": [
        {
          "internalType": "address",
          "name": "owner",
          "type": "address"
        }
      ],
      "name": "balanceOf",
      "outputs": [
        {
          "internalType": "uint256",
          "name": "",
          "type": "uint256"
        }
      ],
      "stateMutability": "view",
      "type": "function"
    },
    {
      "inputs": [],
      "name": "bunnyPFPContractAddress",
      "outputs": [
        {
          "internalType": "address",
          "name": "",
          "type": "address"
        }
      ],
      "stateMutability": "view",
      "type": "function"
    },
    {
      "inputs": [],
      "name": "cdmAddr",
      "outputs": [
        {
          "internalType": "address",
          "name": "",
          "type": "address"
        }
      ],
      "stateMutability": "view",
      "type": "function"
    },
    {
      "inputs": [],
      "name": "clearBunnyPFPLink",
      "outputs": [],
      "stateMutability": "nonpayable",
      "type": "function"
    },
    {
      "inputs": [],
      "name": "descriptor",
      "outputs": [
        {
          "internalType": "contract IBackedCommunityTokenDescriptorV1",
          "name": "",
          "type": "address"
        }
      ],
      "stateMutability": "view",
      "type": "function"
    },
    {
      "inputs": [
        {
          "internalType": "uint256",
          "name": "tokenId",
          "type": "uint256"
        }
      ],
      "name": "getApproved",
      "outputs": [
        {
          "internalType": "address",
          "name": "",
          "type": "address"
        }
      ],
      "stateMutability": "view",
      "type": "function"
    },
    {
      "inputs": [
        {
          "internalType": "address",
          "name": "user",
          "type": "address"
        }
      ],
      "name": "getUnlockedAccessoriesForAddress",
      "outputs": [
        {
          "internalType": "uint256[]",
          "name": "",
          "type": "uint256[]"
        }
      ],
      "stateMutability": "view",
      "type": "function"
    },
    {
      "inputs": [
        {
          "internalType": "address",
          "name": "_descriptorAddress",
          "type": "address"
        }
      ],
      "name": "initialize",
      "outputs": [],
      "stateMutability": "nonpayable",
      "type": "function"
    },
    {
      "inputs": [
        {
          "internalType": "address",
          "name": "owner",
          "type": "address"
        },
        {
          "internalType": "address",
          "name": "operator",
          "type": "address"
        }
      ],
      "name": "isApprovedForAll",
      "outputs": [
        {
          "internalType": "bool",
          "name": "",
          "type": "bool"
        }
      ],
      "stateMutability": "view",
      "type": "function"
    },
    {
      "inputs": [
        {
          "internalType": "address",
          "name": "mintTo",
          "type": "address"
        }
      ],
      "name": "mint",
      "outputs": [],
      "stateMutability": "nonpayable",
      "type": "function"
    },
    {
      "inputs": [],
      "name": "name",
      "outputs": [
        {
          "internalType": "string",
          "name": "",
          "type": "string"
        }
      ],
      "stateMutability": "view",
      "type": "function"
    },
    {
      "inputs": [],
      "name": "nonce",
      "outputs": [
        {
          "internalType": "uint256",
          "name": "",
          "type": "uint256"
        }
      ],
      "stateMutability": "view",
      "type": "function"
    },
    {
      "inputs": [],
      "name": "owner",
      "outputs": [
        {
          "internalType": "address",
          "name": "",
          "type": "address"
        }
      ],
      "stateMutability": "view",
      "type": "function"
    },
    {
      "inputs": [
        {
          "internalType": "uint256",
          "name": "tokenId",
          "type": "uint256"
        }
      ],
      "name": "ownerOf",
      "outputs": [
        {
          "internalType": "address",
          "name": "",
          "type": "address"
        }
      ],
      "stateMutability": "view",
      "type": "function"
    },
    {
      "inputs": [
        {
          "components": [
            {
              "internalType": "bool",
              "name": "isCategoryChange",
              "type": "bool"
            },
            {
              "internalType": "address",
              "name": "user",
              "type": "address"
            },
            {
              "internalType": "string",
              "name": "categoryId",
              "type": "string"
            },
            {
              "internalType": "uint256",
              "name": "accessoryId",
              "type": "uint256"
            },
            {
              "internalType": "string",
              "name": "ipfsLink",
              "type": "string"
            }
          ],
          "internalType": "struct IBackedCommunityTokenV1.CategoryOrAccessoryChange[]",
          "name": "changes",
          "type": "tuple[]"
        }
      ],
      "name": "relockAccessoryOrDecrementCategory",
      "outputs": [],
      "stateMutability": "nonpayable",
      "type": "function"
    },
    {
      "inputs": [
        {
          "internalType": "uint256",
          "name": "accessoryId",
          "type": "uint256"
        }
      ],
      "name": "removeAccessory",
      "outputs": [],
      "stateMutability": "nonpayable",
      "type": "function"
    },
    {
      "inputs": [],
      "name": "renounceOwnership",
      "outputs": [],
      "stateMutability": "nonpayable",
      "type": "function"
    },
    {
      "inputs": [
        {
          "internalType": "address",
          "name": "from",
          "type": "address"
        },
        {
          "internalType": "address",
          "name": "to",
          "type": "address"
        },
        {
          "internalType": "uint256",
          "name": "tokenId",
          "type": "uint256"
        }
      ],
      "name": "safeTransferFrom",
      "outputs": [],
      "stateMutability": "nonpayable",
      "type": "function"
    },
    {
      "inputs": [
        {
          "internalType": "address",
          "name": "from",
          "type": "address"
        },
        {
          "internalType": "address",
          "name": "to",
          "type": "address"
        },
        {
          "internalType": "uint256",
          "name": "tokenId",
          "type": "uint256"
        },
        {
          "internalType": "bytes",
          "name": "_data",
          "type": "bytes"
        }
      ],
      "name": "safeTransferFrom",
      "outputs": [],
      "stateMutability": "nonpayable",
      "type": "function"
    },
    {
      "inputs": [
        {
          "internalType": "address",
          "name": "operator",
          "type": "address"
        },
        {
          "internalType": "bool",
          "name": "approved",
          "type": "bool"
        }
      ],
      "name": "setApprovalForAll",
      "outputs": [],
      "stateMutability": "nonpayable",
      "type": "function"
    },
    {
      "inputs": [
        {
          "internalType": "address",
          "name": "addr",
          "type": "address"
        }
      ],
      "name": "setBunnyPFPContract",
      "outputs": [],
      "stateMutability": "nonpayable",
      "type": "function"
    },
    {
      "inputs": [
        {
          "internalType": "bytes",
          "name": "message",
          "type": "bytes"
        }
      ],
      "name": "setBunnyPFPSVGFromL1",
      "outputs": [],
      "stateMutability": "nonpayable",
      "type": "function"
    },
    {
      "inputs": [
        {
          "internalType": "address",
          "name": "addr",
          "type": "address"
        }
      ],
      "name": "setDescriptorContract",
      "outputs": [],
      "stateMutability": "nonpayable",
      "type": "function"
    },
    {
      "inputs": [
        {
          "internalType": "uint256",
          "name": "accessoryId",
          "type": "uint256"
        }
      ],
      "name": "setEnabledAccessory",
      "outputs": [],
      "stateMutability": "nonpayable",
      "type": "function"
    },
    {
      "inputs": [
        {
          "internalType": "address",
          "name": "addr",
          "type": "address"
        }
      ],
      "name": "setOptimismCrossChainMessengerAddress",
      "outputs": [],
      "stateMutability": "nonpayable",
      "type": "function"
    },
    {
      "inputs": [
        {
          "internalType": "bytes4",
          "name": "interfaceId",
          "type": "bytes4"
        }
      ],
      "name": "supportsInterface",
      "outputs": [
        {
          "internalType": "bool",
          "name": "",
          "type": "bool"
        }
      ],
      "stateMutability": "view",
      "type": "function"
    },
    {
      "inputs": [],
      "name": "symbol",
      "outputs": [
        {
          "internalType": "string",
          "name": "",
          "type": "string"
        }
      ],
      "stateMutability": "view",
      "type": "function"
    },
    {
      "inputs": [
        {
          "internalType": "uint256",
          "name": "tokenId",
          "type": "uint256"
        }
      ],
      "name": "tokenURI",
      "outputs": [
        {
          "internalType": "string",
          "name": "",
          "type": "string"
        }
      ],
      "stateMutability": "view",
      "type": "function"
    },
    {
      "inputs": [],
      "name": "totalCategoryCount",
      "outputs": [
        {
          "internalType": "uint256",
          "name": "",
          "type": "uint256"
        }
      ],
      "stateMutability": "view",
      "type": "function"
    },
    {
      "inputs": [
        {
          "internalType": "address",
          "name": "from",
          "type": "address"
        },
        {
          "internalType": "address",
          "name": "to",
          "type": "address"
        },
        {
          "internalType": "uint256",
          "name": "tokenId",
          "type": "uint256"
        }
      ],
      "name": "transferFrom",
      "outputs": [],
      "stateMutability": "nonpayable",
      "type": "function"
    },
    {
      "inputs": [
        {
          "internalType": "address",
          "name": "newOwner",
          "type": "address"
        }
      ],
      "name": "transferOwnership",
      "outputs": [],
      "stateMutability": "nonpayable",
      "type": "function"
    },
    {
      "inputs": [
        {
          "components": [
            {
              "internalType": "bool",
              "name": "isCategoryChange",
              "type": "bool"
            },
            {
              "internalType": "address",
              "name": "user",
              "type": "address"
            },
            {
              "internalType": "string",
              "name": "categoryId",
              "type": "string"
            },
            {
              "internalType": "uint256",
              "name": "accessoryId",
              "type": "uint256"
            },
            {
              "internalType": "string",
              "name": "ipfsLink",
              "type": "string"
            }
          ],
          "internalType": "struct IBackedCommunityTokenV1.CategoryOrAccessoryChange[]",
          "name": "changes",
          "type": "tuple[]"
        }
      ],
      "name": "unlockAccessoryOrIncrementCategory",
      "outputs": [],
      "stateMutability": "nonpayable",
      "type": "function"
    }
  ],
  "bytecode": {
    "object": "0x608060405234801561001057600080fd5b5061316c806100206000396000f3fe608060405234801561001057600080fd5b506004361061023d5760003560e01c80638da5cb5b1161013b578063cb19a1d6116100b8578063da2fd4cb1161007c578063da2fd4cb14610505578063db8a06cf14610541578063dfcf2cf814610563578063e985e9c514610576578063f2fde38b1461058957600080fd5b8063cb19a1d614610499578063cdb16e00146104ac578063d1c5df07146104bf578063d37825b2146104df578063d4f353c0146104f257600080fd5b8063b2b52ef1116100ff578063b2b52ef114610444578063b88d4fde1461044d578063c17c7faa14610460578063c4d66de814610473578063c87b56dd1461048657600080fd5b80638da5cb5b1461040757806395d89b4114610418578063a22cb46514610420578063aa416e5414610433578063affed0e01461043b57600080fd5b8063303e74df116101c95780636352211e1161018d5780636352211e146103a65780636a627842146103b957806370a08231146103cc578063715018a6146103df5780637473660a146103e757600080fd5b8063303e74df1461034757806336d587bf1461035a57806342842e0e1461036d57806345cb4e42146103805780634c0332a51461039357600080fd5b8063095ea7b311610210578063095ea7b3146102bf5780631ab87a44146102d257806323b872dd146102f35780632f2aa210146103065780632fdaa4901461031957600080fd5b806301ffc9a7146102425780630303348f1461026a57806306fdde031461027f578063081812fc14610294575b600080fd5b610255610250366004612624565b61059c565b60405190151581526020015b60405180910390f35b61027d610278366004612656565b6105ee565b005b610287610643565b60405161026191906126cb565b6102a76102a23660046126de565b6106d5565b6040516001600160a01b039091168152602001610261565b61027d6102cd3660046126f7565b61076a565b6102e56102e0366004612723565b610880565b604051908152602001610261565b61027d61030136600461275e565b6108d0565b61027d6103143660046126de565b610901565b6102556103273660046126f7565b600960209081526000928352604080842090915290825290205460ff1681565b6002546102a7906001600160a01b031681565b61027d6103683660046128a5565b6109d0565b61027d61037b36600461275e565b610a8c565b61027d61038e3660046128a5565b610aa7565b61027d6103a13660046129f5565b610b5f565b6102a76103b43660046126de565b610d08565b61027d6103c7366004612656565b610d7f565b6102e56103da366004612656565b610da0565b61027d610e26565b6102e56103f5366004612656565b600a6020526000908152604090205481565b60a4546001600160a01b03166102a7565b610287610e5c565b61027d61042e366004612a67565b610e6b565b61027d610e76565b6102e560005481565b6102e560035481565b61027d61045b366004612a9c565b610e9e565b6001546102a7906001600160a01b031681565b61027d610481366004612656565b610ed6565b6102876104943660046126de565b610fad565b6102876104a7366004612656565b6110c2565b61027d6104ba3660046126de565b61115c565b6104d26104cd366004612656565b61118f565b6040516102619190612b1c565b61027d6104ed366004612656565b611252565b61027d610500366004612656565b61129e565b6102e5610513366004612b60565b6004602090815260009283526040909220815180830184018051928152908401929093019190912091525481565b61055461054f3660046126de565b6112ea565b60405161026193929190612bb0565b600b546102a7906001600160a01b031681565b610255610584366004612be4565b61139f565b61027d610597366004612656565b6113cd565b60006001600160e01b031982166380ac58cd60e01b14806105cd57506001600160e01b03198216635b5e139f60e01b145b806105e857506301ffc9a760e01b6001600160e01b03198316145b92915050565b60a4546001600160a01b031633146106215760405162461bcd60e51b815260040161061890612c1d565b60405180910390fd5b600180546001600160a01b0319166001600160a01b0392909216919091179055565b60606072805461065290612c52565b80601f016020809104026020016040519081016040528092919081815260200182805461067e90612c52565b80156106cb5780601f106106a0576101008083540402835291602001916106cb565b820191906000526020600020905b8154815290600101906020018083116106ae57829003601f168201915b5050505050905090565b6000818152607460205260408120546001600160a01b031661074e5760405162461bcd60e51b815260206004820152602c60248201527f4552433732313a20617070726f76656420717565727920666f72206e6f6e657860448201526b34b9ba32b73a103a37b5b2b760a11b6064820152608401610618565b506000908152607660205260409020546001600160a01b031690565b600061077582610d08565b9050806001600160a01b0316836001600160a01b031614156107e35760405162461bcd60e51b815260206004820152602160248201527f4552433732313a20617070726f76616c20746f2063757272656e74206f776e656044820152603960f91b6064820152608401610618565b336001600160a01b03821614806107ff57506107ff813361139f565b6108715760405162461bcd60e51b815260206004820152603860248201527f4552433732313a20617070726f76652063616c6c6572206973206e6f74206f7760448201527f6e6572206e6f7220617070726f76656420666f7220616c6c00000000000000006064820152608401610618565b61087b8383611465565b505050565b60a4546000906001600160a01b031633146108ad5760405162461bcd60e51b815260040161061890612c1d565b5060078054600101908190556108cb816108c684612c8d565b6114d3565b919050565b6108da3382611554565b6108f65760405162461bcd60e51b815260040161061890612d0e565b61087b83838361162b565b336000818152600a60205260409020549061091c90836116aa565b61098e5760405162461bcd60e51b815260206004820152603760248201527f4261636b6564436f6d6d756e697479546f6b656e56313a2075736572206e6f7460448201527f20656c696769626c6520666f72206163636573736f72790000000000000000006064820152608401610618565b336000818152600a6020526040808220859055518492849290917fea1b1f91e87d6596dd266ab28a1e2231755992988caaafc59ed42f2331d41e8c9190a45050565b60a4546001600160a01b031633146109fa5760405162461bcd60e51b815260040161061890612c1d565b60005b8151811015610a8857818181518110610a1857610a18612d5f565b60200260200101516000015115610a5257610a4d828281518110610a3e57610a3e612d5f565b60200260200101516001611805565b610a76565b610a76828281518110610a6757610a67612d5f565b602002602001015160016119bb565b80610a8081612d8b565b9150506109fd565b5050565b61087b83838360405180602001604052806000815250610e9e565b60a4546001600160a01b03163314610ad15760405162461bcd60e51b815260040161061890612c1d565b60005b8151811015610a8857818181518110610aef57610aef612d5f565b60200260200101516000015115610b2957610b24828281518110610b1557610b15612d5f565b60200260200101516000611805565b610b4d565b610b4d828281518110610b3e57610b3e612d5f565b602002602001015160006119bb565b80610b5781612d8b565b915050610ad4565b600080610b6e83850185612b60565b60015491935091506001600160a01b03163314610bf35760405162461bcd60e51b815260206004820152603d60248201527f4261636b6564436f6d6d756e697479546f6b656e56313a2063616c6c6572206d60448201527f7573742062652063726f737320646f6d61696e206d657373656e6765720000006064820152608401610618565b600b5460015460408051636e296e4560e01b815290516001600160a01b039384169390921691636e296e45916004808201926020929091908290030181865afa158015610c44573d6000803e3d6000fd5b505050506040513d601f19601f82011682018060405250810190610c689190612da6565b6001600160a01b031614610cd85760405162461bcd60e51b815260206004820152603160248201527f4261636b6564436f6d6d756e697479546f6b656e56313a206f726967696e206d6044820152700757374206265204261636b65642050465607c1b6064820152608401610618565b6001600160a01b0382166000908152600c602090815260409091208251610d0192840190612575565b5050505050565b6000818152607460205260408120546001600160a01b0316806105e85760405162461bcd60e51b815260206004820152602960248201527f4552433732313a206f776e657220717565727920666f72206e6f6e657869737460448201526832b73a103a37b5b2b760b91b6064820152608401610618565b60008054610d9d9183919080610d9483612d8b565b91905055611bb8565b50565b60006001600160a01b038216610e0a5760405162461bcd60e51b815260206004820152602960248201527f4552433732313a2061646472657373207a65726f206973206e6f7420612076616044820152683634b21037bbb732b960b91b6064820152608401610618565b506001600160a01b031660009081526075602052604090205490565b60a4546001600160a01b03163314610e505760405162461bcd60e51b815260040161061890612c1d565b610e5a6000611c2a565b565b60606073805461065290612c52565b610a88338383611c7c565b6040805160208082018084526000808452338152600c9092529290209051610d9d9290612575565b610ea83383611554565b610ec45760405162461bcd60e51b815260040161061890612d0e565b610ed084848484611d4b565b50505050565b6000610ee26001611d7e565b90508015610efa57600d805461ff0019166101001790555b610f496040518060400160405280600f81526020016e4261636b6564436f6d6d756e69747960881b81525060405180604001604052806006815260200165109050d2d15160d21b815250611e08565b600280546001600160a01b0319166001600160a01b0384161790558015610a8857600d805461ff0019169055604051600181527f7f26b83ff96e1f2b6a682f133852f6798a09c465da95921460cefb38474024989060200160405180910390a15050565b6040516331a9108f60e11b8152600481018290526060906000903090636352211e90602401602060405180830381865afa158015610fef573d6000803e3d6000fd5b505050506040513d601f19601f820116820180604052508101906110139190612da6565b6002546001600160a01b038083166000818152600a602090815260408083205483526008825280832054938352600c90915290819020905163045b0e1b60e01b81529495509282169363045b0e1b93611076938993889391169190600401612dc3565b600060405180830381865afa158015611093573d6000803e3d6000fd5b505050506040513d6000823e601f3d908101601f191682016040526110bb9190810190612e91565b9392505050565b600c60205260009081526040902080546110db90612c52565b80601f016020809104026020016040519081016040528092919081815260200182805461110790612c52565b80156111545780601f1061112957610100808354040283529160200191611154565b820191906000526020600020905b81548152906001019060200180831161113757829003601f168201915b505050505081565b60a4546001600160a01b031633146111865760405162461bcd60e51b815260040161061890612c1d565b610d9d81611e41565b6060600061119d6005611e4c565b905060008167ffffffffffffffff8111156111ba576111ba61279f565b6040519080825280602002602001820160405280156111e3578160200160208202803683370190505b50905060005b8281101561124a5761120585611200600584611e56565b6116aa565b61121057600061121b565b61121b600582611e56565b82828151811061122d5761122d612d5f565b60209081029190910101528061124281612d8b565b9150506111e9565b509392505050565b60a4546001600160a01b0316331461127c5760405162461bcd60e51b815260040161061890612c1d565b600280546001600160a01b0319166001600160a01b0392909216919091179055565b60a4546001600160a01b031633146112c85760405162461bcd60e51b815260040161061890612c1d565b600b80546001600160a01b0319166001600160a01b0392909216919091179055565b600860205260009081526040902080546001820180546001600160a01b03909216929161131690612c52565b80601f016020809104026020016040519081016040528092919081815260200182805461134290612c52565b801561138f5780601f106113645761010080835404028352916020019161138f565b820191906000526020600020905b81548152906001019060200180831161137257829003601f168201915b5050505050908060020154905083565b6001600160a01b03918216600090815260776020908152604080832093909416825291909152205460ff1690565b60a4546001600160a01b031633146113f75760405162461bcd60e51b815260040161061890612c1d565b6001600160a01b03811661145c5760405162461bcd60e51b815260206004820152602660248201527f4f776e61626c653a206e6577206f776e657220697320746865207a65726f206160448201526564647265737360d01b6064820152608401610618565b610d9d81611c2a565b600081815260766020526040902080546001600160a01b0319166001600160a01b038416908117909155819061149a82610d08565b6001600160a01b03167f8c5be1e5ebec7d5bd14f71427d1e84f3dd0314c0f7b2291e5b200ac8c7c3b92560405160405180910390a45050565b6040805160608101825282516001600160a01b039081168252602080850151818401908152858501518486015260008781526008835294909420835181546001600160a01b0319169316929092178255925180519293919261153b9260018501920190612575565b506040820151816002015590505061087b600583611e62565b6000818152607460205260408120546001600160a01b03166115cd5760405162461bcd60e51b815260206004820152602c60248201527f4552433732313a206f70657261746f7220717565727920666f72206e6f6e657860448201526b34b9ba32b73a103a37b5b2b760a11b6064820152608401610618565b60006115d883610d08565b9050806001600160a01b0316846001600160a01b031614806115ff57506115ff818561139f565b806116235750836001600160a01b0316611618846106d5565b6001600160a01b0316145b949350505050565b60a4546001600160a01b0316331461169f5760405162461bcd60e51b815260206004820152603160248201527f455243373231536f756c626f756e643a206f6e6c7920636f6e7472616374206f6044820152703bb732b91031b0b7103a3930b739b332b960791b6064820152608401610618565b61087b838383611e6e565b600081815260086020908152604080832081516060810190925280546001600160a01b031682526001810180548594840191906116e690612c52565b80601f016020809104026020016040519081016040528092919081815260200182805461171290612c52565b801561175f5780601f106117345761010080835404028352916020019161175f565b820191906000526020600020905b81548152906001019060200180831161174257829003601f168201915b50505050508152602001600282015481525050905061177d8361200a565b156117b05750506001600160a01b038216600090815260096020908152604080832084845290915290205460ff166105e8565b806040015160046000866001600160a01b03166001600160a01b0316815260200190815260200160002082602001516040516117ec9190612f08565b90815260200160405180910390205410159150506105e8565b6020808301516001600160a01b0316600090815260049091526040808220818501519151909161183491612f08565b9081526020016040518091039020549050600082156118af576004600085602001516001600160a01b03166001600160a01b0316815260200190815260200160002084604001516040516118889190612f08565b9081526020016040518091039020600081546118a390612d8b565b9182905550905061190d565b6004600085602001516001600160a01b03166001600160a01b0316815260200190815260200160002084604001516040516118ea9190612f08565b90815260200160405180910390206000815461190590612f24565b918290555090505b836080015160405161191f9190612f08565b604051809103902084604001516040516119399190612f08565b604051809103902085602001516001600160a01b03167fb84a4b0c1b52bd1daf85d1ffc7b0ad396e75fbb70175158c8109612603369f73848689602001518a60400151888a6040516020016119919493929190612f3b565b60408051601f19818403018152908290526119ad939291612f72565b60405180910390a450505050565b60608201516000908152600860205260409020546001600160a01b0316611a3d5760405162461bcd60e51b815260206004820152603060248201527f4261636b6564436f6d6d756e697479546f6b656e56313a204163636573736f7260448201526f1e48191bd95cc81b9bdd08195e1a5cdd60821b6064820152608401610618565b611a4a826060015161200a565b611ab45760405162461bcd60e51b815260206004820152603560248201527f4261636b6564436f6d6d756e697479546f6b656e56313a204163636573736f726044820152741e481b5d5cdd0818994818591b5a5b8818985cd959605a1b6064820152608401610618565b8015611af2576020808301516001600160a01b031660009081526009825260408082206060860151835290925220805460ff19166001179055611b23565b6020808301516001600160a01b031660009081526009825260408082206060860151835290925220805460ff191690555b8160800151604051611b359190612f08565b604080519182900382206060858101516020808801516001600160a01b03169086018190528585018290528615158387015284518087039093018352608090950193849052919391927faef16cc4128722c7d5c228af1d8545f6860f72649281f1d84fc2afa9feadff0691611bac91879190612f91565b60405180910390a45050565b6001611bc383610da0565b10611c205760405162461bcd60e51b815260206004820152602760248201527f455243373231536f756c626f756e643a2063616e6e6f74206f776e206d6f7265604482015266207468616e203160c81b6064820152608401610618565b610a8882826120df565b60a480546001600160a01b038381166001600160a01b0319831681179093556040519116919082907f8be0079c531659141344cd1fd0a4f28419497f9722a3daafe3b4186f6b6457e090600090a35050565b816001600160a01b0316836001600160a01b03161415611cde5760405162461bcd60e51b815260206004820152601960248201527f4552433732313a20617070726f766520746f2063616c6c6572000000000000006044820152606401610618565b6001600160a01b03838116600081815260776020908152604080832094871680845294825291829020805460ff191686151590811790915591519182527f17307eab39ab6107e8899845ad3d59bd9653f200f220920489ca2b5937696c31910160405180910390a3505050565b611d5684848461162b565b611d6284848484612221565b610ed05760405162461bcd60e51b815260040161061890612fac565b600d54600090610100900460ff1615611dc7578160ff166001148015611da35750303b155b611dbf5760405162461bcd60e51b815260040161061890612ffe565b506000919050565b600d5460ff808416911610611dee5760405162461bcd60e51b815260040161061890612ffe565b50600d805460ff191660ff92909216919091179055600190565b600d54610100900460ff16611e2f5760405162461bcd60e51b81526004016106189061304c565b611e39828261231f565b610a88612350565b610a8860058261237f565b60006105e8825490565b60006110bb838361238b565b60006110bb83836123b5565b826001600160a01b0316611e8182610d08565b6001600160a01b031614611ee55760405162461bcd60e51b815260206004820152602560248201527f4552433732313a207472616e736665722066726f6d20696e636f72726563742060448201526437bbb732b960d91b6064820152608401610618565b6001600160a01b038216611f475760405162461bcd60e51b8152602060048201526024808201527f4552433732313a207472616e7366657220746f20746865207a65726f206164646044820152637265737360e01b6064820152608401610618565b611f52600082611465565b6001600160a01b0383166000908152607560205260408120805460019290611f7b908490613097565b90915550506001600160a01b0382166000908152607560205260408120805460019290611fa99084906130ae565b909155505060008181526074602052604080822080546001600160a01b0319166001600160a01b0386811691821790925591518493918716917fddf252ad1be2c89b69c2b068fc378daa952ba7f163c4a11628f55a4df523b3ef91a4505050565b600081815260086020908152604080832081516060810190925280546001600160a01b0316825260018101805485948401919061204690612c52565b80601f016020809104026020016040519081016040528092919081815260200182805461207290612c52565b80156120bf5780601f10612094576101008083540402835291602001916120bf565b820191906000526020600020905b8154815290600101906020018083116120a257829003601f168201915b505050918352505060029190910154602091820152015151159392505050565b6001600160a01b0382166121355760405162461bcd60e51b815260206004820181905260248201527f4552433732313a206d696e7420746f20746865207a65726f20616464726573736044820152606401610618565b6000818152607460205260409020546001600160a01b03161561219a5760405162461bcd60e51b815260206004820152601c60248201527f4552433732313a20746f6b656e20616c7265616479206d696e746564000000006044820152606401610618565b6001600160a01b03821660009081526075602052604081208054600192906121c39084906130ae565b909155505060008181526074602052604080822080546001600160a01b0319166001600160a01b03861690811790915590518392907fddf252ad1be2c89b69c2b068fc378daa952ba7f163c4a11628f55a4df523b3ef908290a45050565b60006001600160a01b0384163b1561231457604051630a85bd0160e11b81526001600160a01b0385169063150b7a02906122659033908990889088906004016130c6565b6020604051808303816000875af19250505080156122a0575060408051601f3d908101601f1916820190925261229d91810190613103565b60015b6122fa573d8080156122ce576040519150601f19603f3d011682016040523d82523d6000602084013e6122d3565b606091505b5080516122f25760405162461bcd60e51b815260040161061890612fac565b805181602001fd5b6001600160e01b031916630a85bd0160e11b149050611623565b506001949350505050565b600d54610100900460ff166123465760405162461bcd60e51b81526004016106189061304c565b610a888282612404565b600d54610100900460ff166123775760405162461bcd60e51b81526004016106189061304c565b610e5a612452565b60006110bb8383612482565b60008260000182815481106123a2576123a2612d5f565b9060005260206000200154905092915050565b60008181526001830160205260408120546123fc575081546001818101845560008481526020808220909301849055845484825282860190935260409020919091556105e8565b5060006105e8565b600d54610100900460ff1661242b5760405162461bcd60e51b81526004016106189061304c565b815161243e906072906020850190612575565b50805161087b906073906020840190612575565b600d54610100900460ff166124795760405162461bcd60e51b81526004016106189061304c565b610e5a33611c2a565b6000818152600183016020526040812054801561256b5760006124a6600183613097565b85549091506000906124ba90600190613097565b905081811461251f5760008660000182815481106124da576124da612d5f565b90600052602060002001549050808760000184815481106124fd576124fd612d5f565b6000918252602080832090910192909255918252600188019052604090208390555b855486908061253057612530613120565b6001900381819060005260206000200160009055905585600101600086815260200190815260200160002060009055600193505050506105e8565b60009150506105e8565b82805461258190612c52565b90600052602060002090601f0160209004810192826125a357600085556125e9565b82601f106125bc57805160ff19168380011785556125e9565b828001600101855582156125e9579182015b828111156125e95782518255916020019190600101906125ce565b506125f59291506125f9565b5090565b5b808211156125f557600081556001016125fa565b6001600160e01b031981168114610d9d57600080fd5b60006020828403121561263657600080fd5b81356110bb8161260e565b6001600160a01b0381168114610d9d57600080fd5b60006020828403121561266857600080fd5b81356110bb81612641565b60005b8381101561268e578181015183820152602001612676565b83811115610ed05750506000910152565b600081518084526126b7816020860160208601612673565b601f01601f19169290920160200192915050565b6020815260006110bb602083018461269f565b6000602082840312156126f057600080fd5b5035919050565b6000806040838503121561270a57600080fd5b823561271581612641565b946020939093013593505050565b60006020828403121561273557600080fd5b813567ffffffffffffffff81111561274c57600080fd5b8201606081850312156110bb57600080fd5b60008060006060848603121561277357600080fd5b833561277e81612641565b9250602084013561278e81612641565b929592945050506040919091013590565b634e487b7160e01b600052604160045260246000fd5b60405160a0810167ffffffffffffffff811182821017156127d8576127d861279f565b60405290565b604051601f8201601f1916810167ffffffffffffffff811182821017156128075761280761279f565b604052919050565b803580151581146108cb57600080fd5b600067ffffffffffffffff8211156128395761283961279f565b50601f01601f191660200190565b600061285a6128558461281f565b6127de565b905082815283838301111561286e57600080fd5b828260208301376000602084830101529392505050565b600082601f83011261289657600080fd5b6110bb83833560208501612847565b600060208083850312156128b857600080fd5b823567ffffffffffffffff808211156128d057600080fd5b818501915085601f8301126128e457600080fd5b8135818111156128f6576128f661279f565b8060051b6129058582016127de565b918252838101850191858101908984111561291f57600080fd5b86860192505b838310156129e85782358581111561293c57600080fd5b860160a0818c03601f190112156129535760008081fd5b61295b6127b5565b61296689830161280f565b815260408083013561297781612641565b828b01526060838101358981111561298f5760008081fd5b61299d8f8d83880101612885565b83850152506080915081840135818401525060a0830135888111156129c25760008081fd5b6129d08e8c83870101612885565b91830191909152508352509186019190860190612925565b9998505050505050505050565b60008060208385031215612a0857600080fd5b823567ffffffffffffffff80821115612a2057600080fd5b818501915085601f830112612a3457600080fd5b813581811115612a4357600080fd5b866020828501011115612a5557600080fd5b60209290920196919550909350505050565b60008060408385031215612a7a57600080fd5b8235612a8581612641565b9150612a936020840161280f565b90509250929050565b60008060008060808587031215612ab257600080fd5b8435612abd81612641565b93506020850135612acd81612641565b925060408501359150606085013567ffffffffffffffff811115612af057600080fd5b8501601f81018713612b0157600080fd5b612b1087823560208401612847565b91505092959194509250565b6020808252825182820181905260009190848201906040850190845b81811015612b5457835183529284019291840191600101612b38565b50909695505050505050565b60008060408385031215612b7357600080fd5b8235612b7e81612641565b9150602083013567ffffffffffffffff811115612b9a57600080fd5b612ba685828601612885565b9150509250929050565b6001600160a01b0384168152606060208201819052600090612bd49083018561269f565b9050826040830152949350505050565b60008060408385031215612bf757600080fd5b8235612c0281612641565b91506020830135612c1281612641565b809150509250929050565b6020808252818101527f4f776e61626c653a2063616c6c6572206973206e6f7420746865206f776e6572604082015260600190565b600181811c90821680612c6657607f821691505b60208210811415612c8757634e487b7160e01b600052602260045260246000fd5b50919050565b600060608236031215612c9f57600080fd5b6040516060810167ffffffffffffffff8282108183111715612cc357612cc361279f565b8160405284359150612cd482612641565b90825260208401359080821115612cea57600080fd5b50612cf736828601612885565b602083015250604092830135928101929092525090565b60208082526031908201527f4552433732313a207472616e736665722063616c6c6572206973206e6f74206f6040820152701ddb995c881b9bdc88185c1c1c9bdd9959607a1b606082015260800190565b634e487b7160e01b600052603260045260246000fd5b634e487b7160e01b600052601160045260246000fd5b6000600019821415612d9f57612d9f612d75565b5060010190565b600060208284031215612db857600080fd5b81516110bb81612641565b8481526001600160a01b038481166020808401919091529084166040830152608060608301528254600091908290600181811c9082811680612e0657607f831692505b858310811415612e2457634e487b7160e01b85526022600452602485fd5b6080880183905260a08801818015612e435760018114612e5457612e7f565b60ff19861682528782019650612e7f565b60008b81526020902060005b86811015612e7957815484820152908501908901612e60565b83019750505b50949c9b505050505050505050505050565b600060208284031215612ea357600080fd5b815167ffffffffffffffff811115612eba57600080fd5b8201601f81018413612ecb57600080fd5b8051612ed96128558261281f565b818152856020838501011115612eee57600080fd5b612eff826020830160208601612673565b95945050505050565b60008251612f1a818460208701612673565b9190910192915050565b600081612f3357612f33612d75565b506000190190565b6001600160a01b0385168152608060208201819052600090612f5f9083018661269f565b6040830194909452506060015292915050565b838152826020820152606060408201526000612eff606083018461269f565b8215158152604060208201526000611623604083018461269f565b60208082526032908201527f4552433732313a207472616e7366657220746f206e6f6e20455243373231526560408201527131b2b4bb32b91034b6b83632b6b2b73a32b960711b606082015260800190565b6020808252602e908201527f496e697469616c697a61626c653a20636f6e747261637420697320616c72656160408201526d191e481a5b9a5d1a585b1a5e995960921b606082015260800190565b6020808252602b908201527f496e697469616c697a61626c653a20636f6e7472616374206973206e6f74206960408201526a6e697469616c697a696e6760a81b606082015260800190565b6000828210156130a9576130a9612d75565b500390565b600082198211156130c1576130c1612d75565b500190565b6001600160a01b03858116825284166020820152604081018390526080606082018190526000906130f99083018461269f565b9695505050505050565b60006020828403121561311557600080fd5b81516110bb8161260e565b634e487b7160e01b600052603160045260246000fdfea264697066735822122010282202a1e5df50d83c4d601789a04edd53edd9a0ba8627296ffa77de21906e64736f6c634300080c0033",
    "linkReferences": {}
  },
  "methodIdentifiers": {
    "accessoryIdToAccessory(uint256)": "db8a06cf",
    "addAccessory((address,string,uint256))": "1ab87a44",
    "addressToAccessoryEnabled(address)": "7473660a",
    "addressToAccessoryUnlocked(address,uint256)": "2fdaa490",
    "addressToCategoryScore(address,string)": "da2fd4cb",
    "addressToPFPSVGLink(address)": "cb19a1d6",
    "approve(address,uint256)": "095ea7b3",
    "balanceOf(address)": "70a08231",
    "bunnyPFPContractAddress()": "dfcf2cf8",
    "cdmAddr()": "c17c7faa",
    "clearBunnyPFPLink()": "aa416e54",
    "descriptor()": "303e74df",
    "getApproved(uint256)": "081812fc",
    "getUnlockedAccessoriesForAddress(address)": "d1c5df07",
    "initialize(address)": "c4d66de8",
    "isApprovedForAll(address,address)": "e985e9c5",
    "mint(address)": "6a627842",
    "name()": "06fdde03",
    "nonce()": "affed0e0",
    "owner()": "8da5cb5b",
    "ownerOf(uint256)": "6352211e",
    "relockAccessoryOrDecrementCategory((bool,address,string,uint256,string)[])": "45cb4e42",
    "removeAccessory(uint256)": "cdb16e00",
    "renounceOwnership()": "715018a6",
    "safeTransferFrom(address,address,uint256)": "42842e0e",
    "safeTransferFrom(address,address,uint256,bytes)": "b88d4fde",
    "setApprovalForAll(address,bool)": "a22cb465",
    "setBunnyPFPContract(address)": "d4f353c0",
    "setBunnyPFPSVGFromL1(bytes)": "4c0332a5",
    "setDescriptorContract(address)": "d37825b2",
    "setEnabledAccessory(uint256)": "2f2aa210",
    "setOptimismCrossChainMessengerAddress(address)": "0303348f",
    "supportsInterface(bytes4)": "01ffc9a7",
    "symbol()": "95d89b41",
    "tokenURI(uint256)": "c87b56dd",
    "totalCategoryCount()": "b2b52ef1",
    "transferFrom(address,address,uint256)": "23b872dd",
    "transferOwnership(address)": "f2fde38b",
    "unlockAccessoryOrIncrementCategory((bool,address,string,uint256,string)[])": "36d587bf"
  },
  "id": 32
}