{
  "_format": "hh-sol-artifact-1",
  "contractName": "DAI",
  "sourceName": "contracts/test/DAI.sol",
  "abi": [
    {
      "inputs": [],
      "stateMutability": "nonpayable",
      "type": "constructor"
    },
    {
      "anonymous": false,
      "inputs": [
        {
          "indexed": true,
          "internalType": "address",
          "name": "owner",
          "type": "address"
        },
        {
          "indexed": true,
          "internalType": "address",
          "name": "spender",
          "type": "address"
        },
        {
          "indexed": false,
          "internalType": "uint256",
          "name": "value",
          "type": "uint256"
        }
      ],
      "name": "Approval",
      "type": "event"
    },
    {
      "anonymous": false,
      "inputs": [
        {
          "indexed": true,
          "internalType": "address",
          "name": "from",
          "type": "address"
        },
        {
          "indexed": true,
          "internalType": "address",
          "name": "to",
          "type": "address"
        },
        {
          "indexed": false,
          "internalType": "uint256",
          "name": "value",
          "type": "uint256"
        }
      ],
      "name": "Transfer",
      "type": "event"
    },
    {
      "inputs": [
        {
          "internalType": "address",
          "name": "owner",
          "type": "address"
        },
        {
          "internalType": "address",
          "name": "spender",
          "type": "address"
        }
      ],
      "name": "allowance",
      "outputs": [
        {
          "internalType": "uint256",
          "name": "",
          "type": "uint256"
        }
      ],
      "stateMutability": "view",
      "type": "function"
    },
    {
      "inputs": [
        {
          "internalType": "address",
          "name": "spender",
          "type": "address"
        },
        {
          "internalType": "uint256",
          "name": "amount",
          "type": "uint256"
        }
      ],
      "name": "approve",
      "outputs": [
        {
          "internalType": "bool",
          "name": "",
          "type": "bool"
        }
      ],
      "stateMutability": "nonpayable",
      "type": "function"
    },
    {
      "inputs": [
        {
          "internalType": "address",
          "name": "account",
          "type": "address"
        }
      ],
      "name": "balanceOf",
      "outputs": [
        {
          "internalType": "uint256",
          "name": "",
          "type": "uint256"
        }
      ],
      "stateMutability": "view",
      "type": "function"
    },
    {
      "inputs": [],
      "name": "decimals",
      "outputs": [
        {
          "internalType": "uint8",
          "name": "",
          "type": "uint8"
        }
      ],
      "stateMutability": "view",
      "type": "function"
    },
    {
      "inputs": [
        {
          "internalType": "address",
          "name": "spender",
          "type": "address"
        },
        {
          "internalType": "uint256",
          "name": "subtractedValue",
          "type": "uint256"
        }
      ],
      "name": "decreaseAllowance",
      "outputs": [
        {
          "internalType": "bool",
          "name": "",
          "type": "bool"
        }
      ],
      "stateMutability": "nonpayable",
      "type": "function"
    },
    {
      "inputs": [
        {
          "internalType": "address",
          "name": "spender",
          "type": "address"
        },
        {
          "internalType": "uint256",
          "name": "addedValue",
          "type": "uint256"
        }
      ],
      "name": "increaseAllowance",
      "outputs": [
        {
          "internalType": "bool",
          "name": "",
          "type": "bool"
        }
      ],
      "stateMutability": "nonpayable",
      "type": "function"
    },
    {
      "inputs": [
        {
          "internalType": "uint256",
          "name": "amount",
          "type": "uint256"
        },
        {
          "internalType": "address",
          "name": "to",
          "type": "address"
        }
      ],
      "name": "mint",
      "outputs": [],
      "stateMutability": "nonpayable",
      "type": "function"
    },
    {
      "inputs": [],
      "name": "name",
      "outputs": [
        {
          "internalType": "string",
          "name": "",
          "type": "string"
        }
      ],
      "stateMutability": "view",
      "type": "function"
    },
    {
      "inputs": [],
      "name": "symbol",
      "outputs": [
        {
          "internalType": "string",
          "name": "",
          "type": "string"
        }
      ],
      "stateMutability": "view",
      "type": "function"
    },
    {
      "inputs": [],
      "name": "totalSupply",
      "outputs": [
        {
          "internalType": "uint256",
          "name": "",
          "type": "uint256"
        }
      ],
      "stateMutability": "view",
      "type": "function"
    },
    {
      "inputs": [
        {
          "internalType": "address",
          "name": "recipient",
          "type": "address"
        },
        {
          "internalType": "uint256",
          "name": "amount",
          "type": "uint256"
        }
      ],
      "name": "transfer",
      "outputs": [
        {
          "internalType": "bool",
          "name": "",
          "type": "bool"
        }
      ],
      "stateMutability": "nonpayable",
      "type": "function"
    },
    {
      "inputs": [
        {
          "internalType": "address",
          "name": "sender",
          "type": "address"
        },
        {
          "internalType": "address",
          "name": "recipient",
          "type": "address"
        },
        {
          "internalType": "uint256",
          "name": "amount",
          "type": "uint256"
        }
      ],
      "name": "transferFrom",
      "outputs": [
        {
          "internalType": "bool",
          "name": "",
          "type": "bool"
        }
      ],
      "stateMutability": "nonpayable",
      "type": "function"
    }
  ],
  "bytecode": "0x60806040523480156200001157600080fd5b50604051806020016040528060008152506040518060400160405280600381526020017f444149000000000000000000000000000000000000000000000000000000000081525081600390805190602001906200007092919062000247565b5080600490805190602001906200008992919062000247565b505050620000ce33620000a1620000d460201b60201c565b60ff16600a620000b2919062000437565b620f4240620000c2919062000574565b620000dd60201b60201c565b620006a9565b60006012905090565b600073ffffffffffffffffffffffffffffffffffffffff168273ffffffffffffffffffffffffffffffffffffffff16141562000150576040517f08c379a000000000000000000000000000000000000000000000000000000000815260040162000147906200032f565b60405180910390fd5b62000164600083836200024260201b60201c565b80600260008282546200017891906200037f565b92505081905550806000808473ffffffffffffffffffffffffffffffffffffffff1673ffffffffffffffffffffffffffffffffffffffff1681526020019081526020016000206000828254620001cf91906200037f565b925050819055508173ffffffffffffffffffffffffffffffffffffffff16600073ffffffffffffffffffffffffffffffffffffffff167fddf252ad1be2c89b69c2b068fc378daa952ba7f163c4a11628f55a4df523b3ef8360405162000236919062000351565b60405180910390a35050565b505050565b8280546200025590620005df565b90600052602060002090601f016020900481019282620002795760008555620002c5565b82601f106200029457805160ff1916838001178555620002c5565b82800160010185558215620002c5579182015b82811115620002c4578251825591602001919060010190620002a7565b5b509050620002d49190620002d8565b5090565b5b80821115620002f3576000816000905550600101620002d9565b5090565b600062000306601f836200036e565b9150620003138262000680565b602082019050919050565b6200032981620005d5565b82525050565b600060208201905081810360008301526200034a81620002f7565b9050919050565b60006020820190506200036860008301846200031e565b92915050565b600082825260208201905092915050565b60006200038c82620005d5565b91506200039983620005d5565b9250827fffffffffffffffffffffffffffffffffffffffffffffffffffffffffffffffff03821115620003d157620003d062000615565b5b828201905092915050565b6000808291508390505b60018511156200042e5780860481111562000406576200040562000615565b5b6001851615620004165780820291505b8081029050620004268562000673565b9450620003e6565b94509492505050565b60006200044482620005d5565b91506200045183620005d5565b9250620004807fffffffffffffffffffffffffffffffffffffffffffffffffffffffffffffffff848462000488565b905092915050565b6000826200049a57600190506200056d565b81620004aa57600090506200056d565b8160018114620004c35760028114620004ce5762000504565b60019150506200056d565b60ff841115620004e357620004e262000615565b5b8360020a915084821115620004fd57620004fc62000615565b5b506200056d565b5060208310610133831016604e8410600b84101617156200053e5782820a90508381111562000538576200053762000615565b5b6200056d565b6200054d8484846001620003dc565b9250905081840481111562000567576200056662000615565b5b81810290505b9392505050565b60006200058182620005d5565b91506200058e83620005d5565b9250817fffffffffffffffffffffffffffffffffffffffffffffffffffffffffffffffff0483118215151615620005ca57620005c962000615565b5b828202905092915050565b6000819050919050565b60006002820490506001821680620005f857607f821691505b602082108114156200060f576200060e62000644565b5b50919050565b7f4e487b7100000000000000000000000000000000000000000000000000000000600052601160045260246000fd5b7f4e487b7100000000000000000000000000000000000000000000000000000000600052602260045260246000fd5b60008160011c9050919050565b7f45524332303a206d696e7420746f20746865207a65726f206164647265737300600082015250565b61168d80620006b96000396000f3fe608060405234801561001057600080fd5b50600436106100b45760003560e01c806370a082311161007157806370a08231146101a357806394bf804d146101d357806395d89b41146101ef578063a457c2d71461020d578063a9059cbb1461023d578063dd62ed3e1461026d576100b4565b806306fdde03146100b9578063095ea7b3146100d757806318160ddd1461010757806323b872dd14610125578063313ce567146101555780633950935114610173575b600080fd5b6100c161029d565b6040516100ce9190611051565b60405180910390f35b6100f160048036038101906100ec9190610e38565b61032f565b6040516100fe9190611036565b60405180910390f35b61010f61034d565b60405161011c9190611173565b60405180910390f35b61013f600480360381019061013a9190610de5565b610357565b60405161014c9190611036565b60405180910390f35b61015d610458565b60405161016a919061118e565b60405180910390f35b61018d60048036038101906101889190610e38565b610461565b60405161019a9190611036565b60405180910390f35b6101bd60048036038101906101b89190610d78565b61050d565b6040516101ca9190611173565b60405180910390f35b6101ed60048036038101906101e89190610e78565b610555565b005b6101f7610578565b6040516102049190611051565b60405180910390f35b61022760048036038101906102229190610e38565b61060a565b6040516102349190611036565b60405180910390f35b61025760048036038101906102529190610e38565b6106fe565b6040516102649190611036565b60405180910390f35b61028760048036038101906102829190610da5565b61071c565b6040516102949190611173565b60405180910390f35b6060600380546102ac90611331565b80601f01602080910402602001604051908101604052809291908181526020018280546102d890611331565b80156103255780601f106102fa57610100808354040283529160200191610325565b820191906000526020600020905b81548152906001019060200180831161030857829003601f168201915b5050505050905090565b600061034361033c6107a3565b84846107ab565b6001905092915050565b6000600254905090565b6000610364848484610976565b6000600160008673ffffffffffffffffffffffffffffffffffffffff1673ffffffffffffffffffffffffffffffffffffffff16815260200190815260200160002060006103af6107a3565b73ffffffffffffffffffffffffffffffffffffffff1673ffffffffffffffffffffffffffffffffffffffff1681526020019081526020016000205490508281101561042f576040517f08c379a0000000000000000000000000000000000000000000000000000000008152600401610426906110d3565b60405180910390fd5b61044c8561043b6107a3565b85846104479190611275565b6107ab565b60019150509392505050565b60006012905090565b600061050361046e6107a3565b84846001600061047c6107a3565b73ffffffffffffffffffffffffffffffffffffffff1673ffffffffffffffffffffffffffffffffffffffff16815260200190815260200160002060008873ffffffffffffffffffffffffffffffffffffffff1673ffffffffffffffffffffffffffffffffffffffff168152602001908152602001600020546104fe91906111c5565b6107ab565b6001905092915050565b60008060008373ffffffffffffffffffffffffffffffffffffffff1673ffffffffffffffffffffffffffffffffffffffff168152602001908152602001600020549050919050565b61057481610561610458565b60ff168461056f919061121b565b610bf5565b5050565b60606004805461058790611331565b80601f01602080910402602001604051908101604052809291908181526020018280546105b390611331565b80156106005780601f106105d557610100808354040283529160200191610600565b820191906000526020600020905b8154815290600101906020018083116105e357829003601f168201915b5050505050905090565b600080600160006106196107a3565b73ffffffffffffffffffffffffffffffffffffffff1673ffffffffffffffffffffffffffffffffffffffff16815260200190815260200160002060008573ffffffffffffffffffffffffffffffffffffffff1673ffffffffffffffffffffffffffffffffffffffff168152602001908152602001600020549050828110156106d6576040517f08c379a00000000000000000000000000000000000000000000000000000000081526004016106cd90611133565b60405180910390fd5b6106f36106e16107a3565b8585846106ee9190611275565b6107ab565b600191505092915050565b600061071261070b6107a3565b8484610976565b6001905092915050565b6000600160008473ffffffffffffffffffffffffffffffffffffffff1673ffffffffffffffffffffffffffffffffffffffff16815260200190815260200160002060008373ffffffffffffffffffffffffffffffffffffffff1673ffffffffffffffffffffffffffffffffffffffff16815260200190815260200160002054905092915050565b600033905090565b600073ffffffffffffffffffffffffffffffffffffffff168373ffffffffffffffffffffffffffffffffffffffff16141561081b576040517f08c379a000000000000000000000000000000000000000000000000000000000815260040161081290611113565b60405180910390fd5b600073ffffffffffffffffffffffffffffffffffffffff168273ffffffffffffffffffffffffffffffffffffffff16141561088b576040517f08c379a000000000000000000000000000000000000000000000000000000000815260040161088290611093565b60405180910390fd5b80600160008573ffffffffffffffffffffffffffffffffffffffff1673ffffffffffffffffffffffffffffffffffffffff16815260200190815260200160002060008473ffffffffffffffffffffffffffffffffffffffff1673ffffffffffffffffffffffffffffffffffffffff168152602001908152602001600020819055508173ffffffffffffffffffffffffffffffffffffffff168373ffffffffffffffffffffffffffffffffffffffff167f8c5be1e5ebec7d5bd14f71427d1e84f3dd0314c0f7b2291e5b200ac8c7c3b925836040516109699190611173565b60405180910390a3505050565b600073ffffffffffffffffffffffffffffffffffffffff168373ffffffffffffffffffffffffffffffffffffffff1614156109e6576040517f08c379a00000000000000000000000000000000000000000000000000000000081526004016109dd906110f3565b60405180910390fd5b600073ffffffffffffffffffffffffffffffffffffffff168273ffffffffffffffffffffffffffffffffffffffff161415610a56576040517f08c379a0000000000000000000000000000000000000000000000000000000008152600401610a4d90611073565b60405180910390fd5b610a61838383610d49565b60008060008573ffffffffffffffffffffffffffffffffffffffff1673ffffffffffffffffffffffffffffffffffffffff16815260200190815260200160002054905081811015610ae7576040517f08c379a0000000000000000000000000000000000000000000000000000000008152600401610ade906110b3565b60405180910390fd5b8181610af39190611275565b6000808673ffffffffffffffffffffffffffffffffffffffff1673ffffffffffffffffffffffffffffffffffffffff16815260200190815260200160002081905550816000808573ffffffffffffffffffffffffffffffffffffffff1673ffffffffffffffffffffffffffffffffffffffff1681526020019081526020016000206000828254610b8391906111c5565b925050819055508273ffffffffffffffffffffffffffffffffffffffff168473ffffffffffffffffffffffffffffffffffffffff167fddf252ad1be2c89b69c2b068fc378daa952ba7f163c4a11628f55a4df523b3ef84604051610be79190611173565b60405180910390a350505050565b600073ffffffffffffffffffffffffffffffffffffffff168273ffffffffffffffffffffffffffffffffffffffff161415610c65576040517f08c379a0000000000000000000000000000000000000000000000000000000008152600401610c5c90611153565b60405180910390fd5b610c7160008383610d49565b8060026000828254610c8391906111c5565b92505081905550806000808473ffffffffffffffffffffffffffffffffffffffff1673ffffffffffffffffffffffffffffffffffffffff1681526020019081526020016000206000828254610cd891906111c5565b925050819055508173ffffffffffffffffffffffffffffffffffffffff16600073ffffffffffffffffffffffffffffffffffffffff167fddf252ad1be2c89b69c2b068fc378daa952ba7f163c4a11628f55a4df523b3ef83604051610d3d9190611173565b60405180910390a35050565b505050565b600081359050610d5d81611629565b92915050565b600081359050610d7281611640565b92915050565b600060208284031215610d8e57610d8d6113c1565b5b6000610d9c84828501610d4e565b91505092915050565b60008060408385031215610dbc57610dbb6113c1565b5b6000610dca85828601610d4e565b9250506020610ddb85828601610d4e565b9150509250929050565b600080600060608486031215610dfe57610dfd6113c1565b5b6000610e0c86828701610d4e565b9350506020610e1d86828701610d4e565b9250506040610e2e86828701610d63565b9150509250925092565b60008060408385031215610e4f57610e4e6113c1565b5b6000610e5d85828601610d4e565b9250506020610e6e85828601610d63565b9150509250929050565b60008060408385031215610e8f57610e8e6113c1565b5b6000610e9d85828601610d63565b9250506020610eae85828601610d4e565b9150509250929050565b610ec1816112bb565b82525050565b6000610ed2826111a9565b610edc81856111b4565b9350610eec8185602086016112fe565b610ef5816113c6565b840191505092915050565b6000610f0d6023836111b4565b9150610f18826113d7565b604082019050919050565b6000610f306022836111b4565b9150610f3b82611426565b604082019050919050565b6000610f536026836111b4565b9150610f5e82611475565b604082019050919050565b6000610f766028836111b4565b9150610f81826114c4565b604082019050919050565b6000610f996025836111b4565b9150610fa482611513565b604082019050919050565b6000610fbc6024836111b4565b9150610fc782611562565b604082019050919050565b6000610fdf6025836111b4565b9150610fea826115b1565b604082019050919050565b6000611002601f836111b4565b915061100d82611600565b602082019050919050565b611021816112e7565b82525050565b611030816112f1565b82525050565b600060208201905061104b6000830184610eb8565b92915050565b6000602082019050818103600083015261106b8184610ec7565b905092915050565b6000602082019050818103600083015261108c81610f00565b9050919050565b600060208201905081810360008301526110ac81610f23565b9050919050565b600060208201905081810360008301526110cc81610f46565b9050919050565b600060208201905081810360008301526110ec81610f69565b9050919050565b6000602082019050818103600083015261110c81610f8c565b9050919050565b6000602082019050818103600083015261112c81610faf565b9050919050565b6000602082019050818103600083015261114c81610fd2565b9050919050565b6000602082019050818103600083015261116c81610ff5565b9050919050565b60006020820190506111886000830184611018565b92915050565b60006020820190506111a36000830184611027565b92915050565b600081519050919050565b600082825260208201905092915050565b60006111d0826112e7565b91506111db836112e7565b9250827fffffffffffffffffffffffffffffffffffffffffffffffffffffffffffffffff038211156112105761120f611363565b5b828201905092915050565b6000611226826112e7565b9150611231836112e7565b9250817fffffffffffffffffffffffffffffffffffffffffffffffffffffffffffffffff048311821515161561126a57611269611363565b5b828202905092915050565b6000611280826112e7565b915061128b836112e7565b92508282101561129e5761129d611363565b5b828203905092915050565b60006112b4826112c7565b9050919050565b60008115159050919050565b600073ffffffffffffffffffffffffffffffffffffffff82169050919050565b6000819050919050565b600060ff82169050919050565b60005b8381101561131c578082015181840152602081019050611301565b8381111561132b576000848401525b50505050565b6000600282049050600182168061134957607f821691505b6020821081141561135d5761135c611392565b5b50919050565b7f4e487b7100000000000000000000000000000000000000000000000000000000600052601160045260246000fd5b7f4e487b7100000000000000000000000000000000000000000000000000000000600052602260045260246000fd5b600080fd5b6000601f19601f8301169050919050565b7f45524332303a207472616e7366657220746f20746865207a65726f206164647260008201527f6573730000000000000000000000000000000000000000000000000000000000602082015250565b7f45524332303a20617070726f766520746f20746865207a65726f20616464726560008201527f7373000000000000000000000000000000000000000000000000000000000000602082015250565b7f45524332303a207472616e7366657220616d6f756e742065786365656473206260008201527f616c616e63650000000000000000000000000000000000000000000000000000602082015250565b7f45524332303a207472616e7366657220616d6f756e742065786365656473206160008201527f6c6c6f77616e6365000000000000000000000000000000000000000000000000602082015250565b7f45524332303a207472616e736665722066726f6d20746865207a65726f20616460008201527f6472657373000000000000000000000000000000000000000000000000000000602082015250565b7f45524332303a20617070726f76652066726f6d20746865207a65726f2061646460008201527f7265737300000000000000000000000000000000000000000000000000000000602082015250565b7f45524332303a2064656372656173656420616c6c6f77616e63652062656c6f7760008201527f207a65726f000000000000000000000000000000000000000000000000000000602082015250565b7f45524332303a206d696e7420746f20746865207a65726f206164647265737300600082015250565b611632816112a9565b811461163d57600080fd5b50565b611649816112e7565b811461165457600080fd5b5056fea26469706673582212206731654da82d22950246fb23bf51ff96e155ba3c9c6cfd2c47623fd5209e36d664736f6c63430008060033",
  "linkReferences": {},
  "deployedLinkReferences": {}
}