{
  "_format": "hh-sol-artifact-1",
  "contractName": "Commune",
  "sourceName": "contracts/Commune.sol",
  "abi": [
    {
      "inputs": [
        {
          "internalType": "address",
          "name": "controller",
          "type": "address"
        }
      ],
      "stateMutability": "nonpayable",
      "type": "constructor"
    },
    {
      "anonymous": false,
      "inputs": [
        {
          "indexed": true,
          "internalType": "address",
          "name": "account",
          "type": "address"
        },
        {
          "indexed": true,
          "internalType": "uint256",
          "name": "commune",
          "type": "uint256"
        }
      ],
      "name": "AddCommuneMember",
      "type": "event"
    },
    {
      "anonymous": false,
      "inputs": [
        {
          "indexed": true,
          "internalType": "address",
          "name": "account",
          "type": "address"
        },
        {
          "indexed": true,
          "internalType": "address",
          "name": "operator",
          "type": "address"
        },
        {
          "indexed": false,
          "internalType": "bool",
          "name": "approved",
          "type": "bool"
        }
      ],
      "name": "ApprovalForAll",
      "type": "event"
    },
    {
      "anonymous": false,
      "inputs": [
        {
          "indexed": true,
          "internalType": "address",
          "name": "account",
          "type": "address"
        },
        {
          "indexed": true,
          "internalType": "uint256",
          "name": "commune",
          "type": "uint256"
        },
        {
          "indexed": false,
          "internalType": "uint256",
          "name": "amount",
          "type": "uint256"
        }
      ],
      "name": "Contribute",
      "type": "event"
    },
    {
      "anonymous": false,
      "inputs": [
        {
          "indexed": true,
          "internalType": "address",
          "name": "account",
          "type": "address"
        },
        {
          "indexed": true,
          "internalType": "uint256",
          "name": "commune",
          "type": "uint256"
        }
      ],
      "name": "RemoveCommuneMember",
      "type": "event"
    },
    {
      "anonymous": false,
      "inputs": [
        {
          "indexed": false,
          "internalType": "string",
          "name": "value",
          "type": "string"
        },
        {
          "indexed": true,
          "internalType": "uint256",
          "name": "commune",
          "type": "uint256"
        }
      ],
      "name": "URI",
      "type": "event"
    },
    {
      "anonymous": false,
      "inputs": [
        {
          "indexed": true,
          "internalType": "address",
          "name": "account",
          "type": "address"
        },
        {
          "indexed": true,
          "internalType": "uint256",
          "name": "commune",
          "type": "uint256"
        }
      ],
      "name": "UpdateCommuneController",
      "type": "event"
    },
    {
      "anonymous": false,
      "inputs": [
        {
          "indexed": true,
          "internalType": "address",
          "name": "account",
          "type": "address"
        }
      ],
      "name": "UpdateController",
      "type": "event"
    },
    {
      "anonymous": false,
      "inputs": [
        {
          "indexed": false,
          "internalType": "uint256",
          "name": "basisPoints",
          "type": "uint256"
        }
      ],
      "name": "UpdateFee",
      "type": "event"
    },
    {
      "anonymous": false,
      "inputs": [
        {
          "indexed": true,
          "internalType": "address",
          "name": "account",
          "type": "address"
        }
      ],
      "name": "UpdateTreasuryAddress",
      "type": "event"
    },
    {
      "anonymous": false,
      "inputs": [
        {
          "indexed": true,
          "internalType": "address",
          "name": "operator",
          "type": "address"
        },
        {
          "indexed": true,
          "internalType": "address",
          "name": "account",
          "type": "address"
        },
        {
          "indexed": false,
          "internalType": "address",
          "name": "to",
          "type": "address"
        },
        {
          "indexed": true,
          "internalType": "uint256",
          "name": "commune",
          "type": "uint256"
        },
        {
          "indexed": false,
          "internalType": "uint256",
          "name": "amount",
          "type": "uint256"
        }
      ],
      "name": "Withdraw",
      "type": "event"
    },
    {
      "anonymous": false,
      "inputs": [
        {
          "indexed": true,
          "internalType": "address",
          "name": "operator",
          "type": "address"
        },
        {
          "indexed": true,
          "internalType": "address",
          "name": "account",
          "type": "address"
        },
        {
          "indexed": true,
          "internalType": "address",
          "name": "to",
          "type": "address"
        },
        {
          "indexed": false,
          "internalType": "uint256[]",
          "name": "communes",
          "type": "uint256[]"
        },
        {
          "indexed": false,
          "internalType": "uint256[]",
          "name": "amounts",
          "type": "uint256[]"
        }
      ],
      "name": "WithdrawBatch",
      "type": "event"
    },
    {
      "inputs": [
        {
          "internalType": "address",
          "name": "account",
          "type": "address"
        },
        {
          "internalType": "uint256",
          "name": "commune",
          "type": "uint256"
        }
      ],
      "name": "addCommuneMember",
      "outputs": [],
      "stateMutability": "nonpayable",
      "type": "function"
    },
    {
      "inputs": [
        {
          "internalType": "address",
          "name": "account",
          "type": "address"
        },
        {
          "internalType": "uint256",
          "name": "commune",
          "type": "uint256"
        }
      ],
      "name": "balanceOf",
      "outputs": [
        {
          "internalType": "uint256",
          "name": "",
          "type": "uint256"
        }
      ],
      "stateMutability": "view",
      "type": "function"
    },
    {
      "inputs": [
        {
          "internalType": "address[]",
          "name": "accounts",
          "type": "address[]"
        },
        {
          "internalType": "uint256[]",
          "name": "ids",
          "type": "uint256[]"
        }
      ],
      "name": "balanceOfBatch",
      "outputs": [
        {
          "internalType": "uint256[]",
          "name": "",
          "type": "uint256[]"
        }
      ],
      "stateMutability": "view",
      "type": "function"
    },
    {
      "inputs": [
        {
          "internalType": "uint256",
          "name": "amount",
          "type": "uint256"
        },
        {
          "internalType": "uint256",
          "name": "commune",
          "type": "uint256"
        }
      ],
      "name": "contribute",
      "outputs": [],
      "stateMutability": "nonpayable",
      "type": "function"
    },
    {
      "inputs": [],
      "name": "controller",
      "outputs": [
        {
          "internalType": "address",
          "name": "",
          "type": "address"
        }
      ],
      "stateMutability": "view",
      "type": "function"
    },
    {
      "inputs": [
        {
          "internalType": "string",
          "name": "_uri",
          "type": "string"
        },
        {
          "internalType": "address",
          "name": "asset",
          "type": "address"
        },
        {
          "internalType": "bool",
          "name": "allowJoining",
          "type": "bool"
        },
        {
          "internalType": "bool",
          "name": "allowRemoving",
          "type": "bool"
        },
        {
          "internalType": "bool",
          "name": "allowOutsideContribution",
          "type": "bool"
        }
      ],
      "name": "createCommune",
      "outputs": [
        {
          "internalType": "uint256",
          "name": "_id",
          "type": "uint256"
        }
      ],
      "stateMutability": "nonpayable",
      "type": "function"
    },
    {
      "inputs": [],
      "name": "feeRate",
      "outputs": [
        {
          "internalType": "uint256",
          "name": "",
          "type": "uint256"
        }
      ],
      "stateMutability": "view",
      "type": "function"
    },
    {
      "inputs": [
        {
          "internalType": "uint256",
          "name": "",
          "type": "uint256"
        }
      ],
      "name": "getCommune",
      "outputs": [
        {
          "internalType": "bool",
          "name": "allowsJoining",
          "type": "bool"
        },
        {
          "internalType": "bool",
          "name": "allowsRemoving",
          "type": "bool"
        },
        {
          "internalType": "bool",
          "name": "allowsOutsideContribution",
          "type": "bool"
        },
        {
          "internalType": "address",
          "name": "asset",
          "type": "address"
        },
        {
          "internalType": "uint256",
          "name": "proratedTotal",
          "type": "uint256"
        },
        {
          "internalType": "uint256",
          "name": "memberCount",
          "type": "uint256"
        },
        {
          "internalType": "address",
          "name": "controller",
          "type": "address"
        },
        {
          "internalType": "string",
          "name": "uri",
          "type": "string"
        }
      ],
      "stateMutability": "view",
      "type": "function"
    },
    {
      "inputs": [
        {
          "internalType": "address",
          "name": "account",
          "type": "address"
        },
        {
          "internalType": "address",
          "name": "operator",
          "type": "address"
        }
      ],
      "name": "isApprovedForAll",
      "outputs": [
        {
          "internalType": "bool",
          "name": "",
          "type": "bool"
        }
      ],
      "stateMutability": "view",
      "type": "function"
    },
    {
      "inputs": [
        {
          "internalType": "uint256",
          "name": "commune",
          "type": "uint256"
        },
        {
          "internalType": "address",
          "name": "account",
          "type": "address"
        }
      ],
      "name": "isCommuneMember",
      "outputs": [
        {
          "internalType": "bool",
          "name": "",
          "type": "bool"
        }
      ],
      "stateMutability": "view",
      "type": "function"
    },
    {
      "inputs": [
        {
          "internalType": "uint256",
          "name": "commune",
          "type": "uint256"
        }
      ],
      "name": "joinCommune",
      "outputs": [],
      "stateMutability": "nonpayable",
      "type": "function"
    },
    {
      "inputs": [
        {
          "internalType": "uint256",
          "name": "commune",
          "type": "uint256"
        }
      ],
      "name": "leaveCommune",
      "outputs": [],
      "stateMutability": "nonpayable",
      "type": "function"
    },
    {
      "inputs": [],
      "name": "numberOfCommunes",
      "outputs": [
        {
          "internalType": "uint256",
          "name": "",
          "type": "uint256"
        }
      ],
      "stateMutability": "view",
      "type": "function"
    },
    {
      "inputs": [
        {
          "internalType": "address",
          "name": "account",
          "type": "address"
        },
        {
          "internalType": "uint256",
          "name": "commune",
          "type": "uint256"
        }
      ],
      "name": "removeCommuneMember",
      "outputs": [],
      "stateMutability": "nonpayable",
      "type": "function"
    },
    {
      "inputs": [
        {
          "internalType": "address",
          "name": "operator",
          "type": "address"
        },
        {
          "internalType": "bool",
          "name": "approved",
          "type": "bool"
        }
      ],
      "name": "setApprovalForAll",
      "outputs": [],
      "stateMutability": "nonpayable",
      "type": "function"
    },
    {
      "inputs": [
        {
          "internalType": "address",
          "name": "newTreasury",
          "type": "address"
        }
      ],
      "name": "setTreasuryAddress",
      "outputs": [],
      "stateMutability": "nonpayable",
      "type": "function"
    },
    {
      "inputs": [],
      "name": "treasuryAddress",
      "outputs": [
        {
          "internalType": "address",
          "name": "",
          "type": "address"
        }
      ],
      "stateMutability": "view",
      "type": "function"
    },
    {
      "inputs": [
        {
          "internalType": "address",
          "name": "account",
          "type": "address"
        },
        {
          "internalType": "uint256",
          "name": "commune",
          "type": "uint256"
        }
      ],
      "name": "updateCommuneController",
      "outputs": [],
      "stateMutability": "nonpayable",
      "type": "function"
    },
    {
      "inputs": [
        {
          "internalType": "string",
          "name": "_uri",
          "type": "string"
        },
        {
          "internalType": "uint256",
          "name": "commune",
          "type": "uint256"
        }
      ],
      "name": "updateCommuneURI",
      "outputs": [],
      "stateMutability": "nonpayable",
      "type": "function"
    },
    {
      "inputs": [
        {
          "internalType": "address",
          "name": "account",
          "type": "address"
        }
      ],
      "name": "updateController",
      "outputs": [],
      "stateMutability": "nonpayable",
      "type": "function"
    },
    {
      "inputs": [
        {
          "internalType": "uint256",
          "name": "rate",
          "type": "uint256"
        }
      ],
      "name": "updateFee",
      "outputs": [],
      "stateMutability": "nonpayable",
      "type": "function"
    },
    {
      "inputs": [
        {
          "internalType": "uint256",
          "name": "commune",
          "type": "uint256"
        }
      ],
      "name": "uri",
      "outputs": [
        {
          "internalType": "string",
          "name": "",
          "type": "string"
        }
      ],
      "stateMutability": "view",
      "type": "function"
    },
    {
      "inputs": [
        {
          "internalType": "address",
          "name": "account",
          "type": "address"
        },
        {
          "internalType": "address",
          "name": "to",
          "type": "address"
        },
        {
          "internalType": "uint256",
          "name": "commune",
          "type": "uint256"
        },
        {
          "internalType": "uint256",
          "name": "amount",
          "type": "uint256"
        }
      ],
      "name": "withdraw",
      "outputs": [],
      "stateMutability": "nonpayable",
      "type": "function"
    },
    {
      "inputs": [
        {
          "internalType": "address",
          "name": "account",
          "type": "address"
        },
        {
          "internalType": "address",
          "name": "to",
          "type": "address"
        },
        {
          "internalType": "uint256[]",
          "name": "communes",
          "type": "uint256[]"
        },
        {
          "internalType": "uint256[]",
          "name": "amounts",
          "type": "uint256[]"
        }
      ],
      "name": "withdrawBatch",
      "outputs": [],
      "stateMutability": "nonpayable",
      "type": "function"
    }
  ],
  "bytecode": "0x6080604052606460045560006006553480156200001b57600080fd5b5060405162003d7a38038062003d7a833981810160405260208110156200004157600080fd5b8101908080519060200190929190505050620000986040518060400160405280600d81526020017f796f75722d7572692d68657265000000000000000000000000000000000000008152506200012160201b60201c565b80600760006101000a81548173ffffffffffffffffffffffffffffffffffffffff021916908373ffffffffffffffffffffffffffffffffffffffff16021790555080600560006101000a81548173ffffffffffffffffffffffffffffffffffffffff021916908373ffffffffffffffffffffffffffffffffffffffff16021790555050620001e3565b8060099080519060200190620001399291906200013d565b5050565b828054600181600116156101000203166002900490600052602060002090601f016020900481019282601f106200018057805160ff1916838001178555620001b1565b82800160010185558215620001b1579182015b82811115620001b057825182559160200191906001019062000193565b5b509050620001c09190620001c4565b5090565b5b80821115620001df576000816000905550600101620001c5565b5090565b613b8780620001f36000396000f3fe608060405234801561001057600080fd5b50600436106101575760003560e01c80638162c88a116100c3578063bc30f1111161007c578063bc30f11114610acf578063c5f956af14610afd578063e522598014610b31578063e985e9c514610b7f578063efa8b53514610bf9578063f77c479114610cbe57610157565b80638162c88a1461098f5780638c590917146109ad5780639012c4a8146109e5578063978bbdb914610a13578063a22cb46514610a31578063b031283b14610a8157610157565b806347179e131161011557806347179e13146104655780634e1273f4146105f15780635e68e3521461079257806360d7b37b146108a55780636605bfda146108d35780637bfe950c1461091757610157565b8062fdd58e1461015c57806306cb5b66146101be5780630c6e30be146102025780630e89341c1461025057806312977fa8146102f75780633cfd503d1461035b575b600080fd5b6101a86004803603604081101561017257600080fd5b81019080803573ffffffffffffffffffffffffffffffffffffffff16906020019092919080359060200190929190505050610cf2565b6040518082815260200191505060405180910390f35b610200600480360360208110156101d457600080fd5b81019080803573ffffffffffffffffffffffffffffffffffffffff169060200190929190505050610ec7565b005b61024e6004803603604081101561021857600080fd5b81019080803573ffffffffffffffffffffffffffffffffffffffff16906020019092919080359060200190929190505050610ff4565b005b61027c6004803603602081101561026657600080fd5b810190808035906020019092919050505061114b565b6040518080602001828103825283818151815260200191508051906020019080838360005b838110156102bc5780820151818401526020810190506102a1565b50505050905090810190601f1680156102e95780820380516001836020036101000a031916815260200191505b509250505060405180910390f35b6103436004803603604081101561030d57600080fd5b8101908080359060200190929190803573ffffffffffffffffffffffffffffffffffffffff169060200190929190505050611330565b60405180821515815260200191505060405180910390f35b6103876004803603602081101561037157600080fd5b8101908080359060200190929190505050611412565b604051808915158152602001881515815260200187151581526020018673ffffffffffffffffffffffffffffffffffffffff1681526020018581526020018481526020018373ffffffffffffffffffffffffffffffffffffffff16815260200180602001828103825283818151815260200191508051906020019080838360005b83811015610423578082015181840152602081019050610408565b50505050905090810190601f1680156104505780820380516001836020036101000a031916815260200191505b50995050505050505050505060405180910390f35b6105ef6004803603608081101561047b57600080fd5b81019080803573ffffffffffffffffffffffffffffffffffffffff169060200190929190803573ffffffffffffffffffffffffffffffffffffffff169060200190929190803590602001906401000000008111156104d857600080fd5b8201836020820111156104ea57600080fd5b8035906020019184602083028401116401000000008311171561050c57600080fd5b919080806020026020016040519081016040528093929190818152602001838360200280828437600081840152601f19601f8201169050808301925050505050505091929192908035906020019064010000000081111561056c57600080fd5b82018360208201111561057e57600080fd5b803590602001918460208302840111640100000000831117156105a057600080fd5b919080806020026020016040519081016040528093929190818152602001838360200280828437600081840152601f19601f820116905080830192505050505050509192919290505050611559565b005b61073b6004803603604081101561060757600080fd5b810190808035906020019064010000000081111561062457600080fd5b82018360208201111561063657600080fd5b8035906020019184602083028401116401000000008311171561065857600080fd5b919080806020026020016040519081016040528093929190818152602001838360200280828437600081840152601f19601f820116905080830192505050505050509192919290803590602001906401000000008111156106b857600080fd5b8201836020820111156106ca57600080fd5b803590602001918460208302840111640100000000831117156106ec57600080fd5b919080806020026020016040519081016040528093929190818152602001838360200280828437600081840152601f19601f820116905080830192505050505050509192919290505050611a7b565b6040518080602001828103825283818151815260200191508051906020019060200280838360005b8381101561077e578082015181840152602081019050610763565b505050509050019250505060405180910390f35b61088f600480360360a08110156107a857600080fd5b81019080803590602001906401000000008111156107c557600080fd5b8201836020820111156107d757600080fd5b803590602001918460018302840111640100000000831117156107f957600080fd5b91908080601f016020809104026020016040519081016040528093929190818152602001838380828437600081840152601f19601f820116905080830192505050505050509192919290803573ffffffffffffffffffffffffffffffffffffffff169060200190929190803515159060200190929190803515159060200190929190803515159060200190929190505050611c26565b6040518082815260200191505060405180910390f35b6108d1600480360360208110156108bb57600080fd5b8101908080359060200190929190505050611e38565b005b610915600480360360208110156108e957600080fd5b81019080803573ffffffffffffffffffffffffffffffffffffffff169060200190929190505050611e45565b005b61098d6004803603608081101561092d57600080fd5b81019080803573ffffffffffffffffffffffffffffffffffffffff169060200190929190803573ffffffffffffffffffffffffffffffffffffffff1690602001909291908035906020019092919080359060200190929190505050611f72565b005b610997612373565b6040518082815260200191505060405180910390f35b6109e3600480360360408110156109c357600080fd5b81019080803590602001909291908035906020019092919050505061237d565b005b610a11600480360360208110156109fb57600080fd5b8101908080359060200190929190505050612859565b005b610a1b6129a8565b6040518082815260200191505060405180910390f35b610a7f60048036036040811015610a4757600080fd5b81019080803573ffffffffffffffffffffffffffffffffffffffff1690602001909291908035151590602001909291905050506129b2565b005b610acd60048036036040811015610a9757600080fd5b81019080803573ffffffffffffffffffffffffffffffffffffffff16906020019092919080359060200190929190505050612b36565b005b610afb60048036036020811015610ae557600080fd5b8101908080359060200190929190505050612c77565b005b610b05612cfc565b604051808273ffffffffffffffffffffffffffffffffffffffff16815260200191505060405180910390f35b610b7d60048036036040811015610b4757600080fd5b81019080803573ffffffffffffffffffffffffffffffffffffffff16906020019092919080359060200190929190505050612d26565b005b610be160048036036040811015610b9557600080fd5b81019080803573ffffffffffffffffffffffffffffffffffffffff169060200190929190803573ffffffffffffffffffffffffffffffffffffffff169060200190929190505050612def565b60405180821515815260200191505060405180910390f35b610cbc60048036036040811015610c0f57600080fd5b8101908080359060200190640100000000811115610c2c57600080fd5b820183602082011115610c3e57600080fd5b80359060200191846001830284011164010000000083111715610c6057600080fd5b91908080601f016020809104026020016040519081016040528093929190818152602001838380828437600081840152601f19601f82011690508083019250505050505050919291929080359060200190929190505050612e83565b005b610cc6613009565b604051808273ffffffffffffffffffffffffffffffffffffffff16815260200191505060405180910390f35b60008073ffffffffffffffffffffffffffffffffffffffff168373ffffffffffffffffffffffffffffffffffffffff161415610d79576040517f08c379a000000000000000000000000000000000000000000000000000000000815260040180806020018281038252602b815260200180613910602b913960400191505060405180910390fd5b6001600083815260200190815260200160002060008473ffffffffffffffffffffffffffffffffffffffff1673ffffffffffffffffffffffffffffffffffffffff16815260200190815260200160002060009054906101000a900460ff16610de45760009050610ec1565b610ebe6003600084815260200190815260200160002060008573ffffffffffffffffffffffffffffffffffffffff1673ffffffffffffffffffffffffffffffffffffffff16815260200190815260200160002054610eb06002600086815260200190815260200160002060008773ffffffffffffffffffffffffffffffffffffffff1673ffffffffffffffffffffffffffffffffffffffff168152602001908152602001600020546000808781526020019081526020016000206001015461303390919063ffffffff16565b61303390919063ffffffff16565b90505b92915050565b600760009054906101000a900473ffffffffffffffffffffffffffffffffffffffff1673ffffffffffffffffffffffffffffffffffffffff163373ffffffffffffffffffffffffffffffffffffffff1614610f6d576040517f08c379a000000000000000000000000000000000000000000000000000000000815260040180806020018281038252602d815260200180613afc602d913960400191505060405180910390fd5b80600760006101000a81548173ffffffffffffffffffffffffffffffffffffffff021916908373ffffffffffffffffffffffffffffffffffffffff1602179055508073ffffffffffffffffffffffffffffffffffffffff167ffce593255b7647c9b730cf207aed89b0761a9c7ff374009a869068dffa08fb2a60405160405180910390a250565b803373ffffffffffffffffffffffffffffffffffffffff1660008083815260200190815260200160002060030160009054906101000a900473ffffffffffffffffffffffffffffffffffffffff1673ffffffffffffffffffffffffffffffffffffffff16146110ae576040517f08c379a000000000000000000000000000000000000000000000000000000000815260040180806020018281038252603081526020018061393b6030913960400191505060405180910390fd5b8260008084815260200190815260200160002060030160006101000a81548173ffffffffffffffffffffffffffffffffffffffff021916908373ffffffffffffffffffffffffffffffffffffffff160217905550818373ffffffffffffffffffffffffffffffffffffffff167f5292d79e4c0c7ffc23e5aa3f7b03e2f1347b115200d26cfa0124517a48cc5fd660405160405180910390a3505050565b6060816006548111156111c6576040517f08c379a00000000000000000000000000000000000000000000000000000000081526004018080602001828103825260208152602001807f436f6d6d756e653a20636f6d6d756e6520646f6573206e6f742065786973747381525060200191505060405180910390fd5b60606000808581526020019081526020016000206004018054600181600116156101000203166002900480601f0160208091040260200160405190810160405280929190818152602001828054600181600116156101000203166002900480156112715780601f1061124657610100808354040283529160200191611271565b820191906000526020600020905b81548152906001019060200180831161125457829003601f168201915b5050505050905060008151111561128b578092505061132a565b60098054600181600116156101000203166002900480601f0160208091040260200160405190810160405280929190818152602001828054600181600116156101000203166002900480156113215780601f106112f657610100808354040283529160200191611321565b820191906000526020600020905b81548152906001019060200180831161130457829003601f168201915b50505050509250505b50919050565b6000826006548111156113ab576040517f08c379a00000000000000000000000000000000000000000000000000000000081526004018080602001828103825260208152602001807f436f6d6d756e653a20636f6d6d756e6520646f6573206e6f742065786973747381525060200191505060405180910390fd5b6001600085815260200190815260200160002060008473ffffffffffffffffffffffffffffffffffffffff1673ffffffffffffffffffffffffffffffffffffffff16815260200190815260200160002060009054906101000a900460ff1691505092915050565b60006020528060005260406000206000915090508060000160009054906101000a900460ff16908060000160019054906101000a900460ff16908060000160029054906101000a900460ff16908060000160039054906101000a900473ffffffffffffffffffffffffffffffffffffffff16908060010154908060020154908060030160009054906101000a900473ffffffffffffffffffffffffffffffffffffffff1690806004018054600181600116156101000203166002900480601f01602080910402602001604051908101604052809291908181526020018280546001816001161561010002031660029004801561154f5780601f106115245761010080835404028352916020019161154f565b820191906000526020600020905b81548152906001019060200180831161153257829003601f168201915b5050505050905088565b600073ffffffffffffffffffffffffffffffffffffffff168473ffffffffffffffffffffffffffffffffffffffff1614156115df576040517f08c379a000000000000000000000000000000000000000000000000000000000815260040180806020018281038252602e815260200180613a02602e913960400191505060405180910390fd5b600073ffffffffffffffffffffffffffffffffffffffff168373ffffffffffffffffffffffffffffffffffffffff161415611665576040517f08c379a000000000000000000000000000000000000000000000000000000000815260040180806020018281038252602c8152602001806139b5602c913960400191505060405180910390fd5b3373ffffffffffffffffffffffffffffffffffffffff168473ffffffffffffffffffffffffffffffffffffffff1614806116a557506116a48433612def565b5b6116fa576040517f08c379a0000000000000000000000000000000000000000000000000000000008152600401808060200182810382526029815260200180613a306029913960400191505060405180910390fd5b600033905060005b835181101561196d5761176783828151811061171a57fe5b6020026020010151604051806060016040528060288152602001613a80602891396117588988868151811061174b57fe5b6020026020010151610cf2565b6130b69092919063ffffffff16565b506117f183828151811061177757fe5b60200260200101516003600087858151811061178f57fe5b6020026020010151815260200190815260200160002060008973ffffffffffffffffffffffffffffffffffffffff1673ffffffffffffffffffffffffffffffffffffffff1681526020019081526020016000205461317090919063ffffffff16565b6003600086848151811061180157fe5b6020026020010151815260200190815260200160002060008873ffffffffffffffffffffffffffffffffffffffff1673ffffffffffffffffffffffffffffffffffffffff1681526020019081526020016000208190555060008085838151811061186757fe5b6020026020010151815260200190815260200160002060000160039054906101000a900473ffffffffffffffffffffffffffffffffffffffff1673ffffffffffffffffffffffffffffffffffffffff1663a9059cbb868584815181106118c957fe5b60200260200101516040518363ffffffff1660e01b8152600401808373ffffffffffffffffffffffffffffffffffffffff16815260200182815260200192505050602060405180830381600087803b15801561192457600080fd5b505af1158015611938573d6000803e3d6000fd5b505050506040513d602081101561194e57600080fd5b8101908080519060200190929190505050508080600101915050611702565b508373ffffffffffffffffffffffffffffffffffffffff168573ffffffffffffffffffffffffffffffffffffffff168273ffffffffffffffffffffffffffffffffffffffff167f4aa94da09364420cbbd9430a37d2df748f30f11bab64c8b9d0ec5091811764da8686604051808060200180602001838103835285818151815260200191508051906020019060200280838360005b83811015611a1d578082015181840152602081019050611a02565b50505050905001838103825284818151815260200191508051906020019060200280838360005b83811015611a5f578082015181840152602081019050611a44565b5050505090500194505050505060405180910390a45050505050565b60608151835114611ad7576040517f08c379a0000000000000000000000000000000000000000000000000000000008152600401808060200182810382526029815260200180613aa86029913960400191505060405180910390fd5b6060835167ffffffffffffffff81118015611af157600080fd5b50604051908082528060200260200182016040528015611b205781602001602082028036833780820191505090505b50905060005b8451811015611c1b57600073ffffffffffffffffffffffffffffffffffffffff16858281518110611b5357fe5b602002602001015173ffffffffffffffffffffffffffffffffffffffff161415611bc8576040517f08c379a00000000000000000000000000000000000000000000000000000000081526004018080602001828103825260318152602001806138866031913960400191505060405180910390fd5b611bf8858281518110611bd757fe5b6020026020010151858381518110611beb57fe5b6020026020010151610cf2565b828281518110611c0457fe5b602002602001018181525050806001019050611b26565b508091505092915050565b600060066000815460010191905081905590503360008083815260200190815260200160002060030160006101000a81548173ffffffffffffffffffffffffffffffffffffffff021916908373ffffffffffffffffffffffffffffffffffffffff1602179055508360008083815260200190815260200160002060000160006101000a81548160ff0219169083151502179055508260008083815260200190815260200160002060000160016101000a81548160ff0219169083151502179055508160008083815260200190815260200160002060000160026101000a81548160ff0219169083151502179055508460008083815260200190815260200160002060000160036101000a81548173ffffffffffffffffffffffffffffffffffffffff021916908373ffffffffffffffffffffffffffffffffffffffff160217905550856000808381526020019081526020016000206004019080519060200190611d919291906137e8565b50807f6bb7ff708619ba0610cba295a58592e0451dee2622938c8755667688daf3529b876040518080602001828103825283818151815260200191508051906020019080838360005b83811015611df5578082015181840152602081019050611dda565b50505050905090810190601f168015611e225780820380516001836020036101000a031916815260200191505b509250505060405180910390a295945050505050565b611e4233826131f8565b50565b600760009054906101000a900473ffffffffffffffffffffffffffffffffffffffff1673ffffffffffffffffffffffffffffffffffffffff163373ffffffffffffffffffffffffffffffffffffffff1614611eeb576040517f08c379a000000000000000000000000000000000000000000000000000000000815260040180806020018281038252602d815260200180613afc602d913960400191505060405180910390fd5b80600560006101000a81548173ffffffffffffffffffffffffffffffffffffffff021916908373ffffffffffffffffffffffffffffffffffffffff1602179055508073ffffffffffffffffffffffffffffffffffffffff167f30d36c1dd67e2019526263df539f65050c3b537a6acf65766b5da7de7128cf3660405160405180910390a250565b600073ffffffffffffffffffffffffffffffffffffffff168473ffffffffffffffffffffffffffffffffffffffff161415611ff8576040517f08c379a000000000000000000000000000000000000000000000000000000000815260040180806020018281038252602e815260200180613a02602e913960400191505060405180910390fd5b600073ffffffffffffffffffffffffffffffffffffffff168373ffffffffffffffffffffffffffffffffffffffff16141561207e576040517f08c379a000000000000000000000000000000000000000000000000000000000815260040180806020018281038252602c8152602001806139b5602c913960400191505060405180910390fd5b3373ffffffffffffffffffffffffffffffffffffffff168473ffffffffffffffffffffffffffffffffffffffff1614806120be57506120bd8433612def565b5b612113576040517f08c379a0000000000000000000000000000000000000000000000000000000008152600401808060200182810382526029815260200180613a306029913960400191505060405180910390fd5b600033905061214e82604051806060016040528060288152602001613a806028913961213f8887610cf2565b6130b69092919063ffffffff16565b506121b2826003600086815260200190815260200160002060008873ffffffffffffffffffffffffffffffffffffffff1673ffffffffffffffffffffffffffffffffffffffff1681526020019081526020016000205461317090919063ffffffff16565b6003600085815260200190815260200160002060008773ffffffffffffffffffffffffffffffffffffffff1673ffffffffffffffffffffffffffffffffffffffff1681526020019081526020016000208190555060008084815260200190815260200160002060000160039054906101000a900473ffffffffffffffffffffffffffffffffffffffff1673ffffffffffffffffffffffffffffffffffffffff1663a9059cbb85846040518363ffffffff1660e01b8152600401808373ffffffffffffffffffffffffffffffffffffffff16815260200182815260200192505050602060405180830381600087803b1580156122ac57600080fd5b505af11580156122c0573d6000803e3d6000fd5b505050506040513d60208110156122d657600080fd5b810190808051906020019092919050505050828573ffffffffffffffffffffffffffffffffffffffff168273ffffffffffffffffffffffffffffffffffffffff167ffbde797d201c681b91056529119e0b02407c7bb96a4a2c75c01fc9667232c8db8786604051808373ffffffffffffffffffffffffffffffffffffffff1681526020018281526020019250505060405180910390a45050505050565b6000600654905090565b806006548111156123f6576040517f08c379a00000000000000000000000000000000000000000000000000000000081526004018080602001828103825260208152602001807f436f6d6d756e653a20636f6d6d756e6520646f6573206e6f742065786973747381525060200191505060405180910390fd5b6001600083815260200190815260200160002060003373ffffffffffffffffffffffffffffffffffffffff1673ffffffffffffffffffffffffffffffffffffffff16815260200190815260200160002060009054906101000a900460ff168061247e575060008083815260200190815260200160002060000160029054906101000a900460ff165b6124f0576040517f08c379a000000000000000000000000000000000000000000000000000000000815260040180806020018281038252601e8152602001807f4d7573742062652061206d656d62657220746f20636f6e74726962757465000081525060200191505060405180910390fd5b6000806000848152602001908152602001600020600201541161255e576040517f08c379a00000000000000000000000000000000000000000000000000000000081526004018080602001828103825260338152602001806138dd6033913960400191505060405180910390fd5b600080600084815260200190815260200160002060000160039054906101000a900473ffffffffffffffffffffffffffffffffffffffff169050600081905060006125c86127106125ba6004548961346e90919063ffffffff16565b6134f490919063ffffffff16565b90506000612606600080888152602001908152602001600020600201546125f8848a61303390919063ffffffff16565b6134f490919063ffffffff16565b90508273ffffffffffffffffffffffffffffffffffffffff166323b872dd3330846040518463ffffffff1660e01b8152600401808473ffffffffffffffffffffffffffffffffffffffff1681526020018373ffffffffffffffffffffffffffffffffffffffff1681526020018281526020019350505050602060405180830381600087803b15801561269757600080fd5b505af11580156126ab573d6000803e3d6000fd5b505050506040513d60208110156126c157600080fd5b8101908080519060200190929190505050508273ffffffffffffffffffffffffffffffffffffffff166323b872dd33600560009054906101000a900473ffffffffffffffffffffffffffffffffffffffff16856040518463ffffffff1660e01b8152600401808473ffffffffffffffffffffffffffffffffffffffff1681526020018373ffffffffffffffffffffffffffffffffffffffff1681526020018281526020019350505050602060405180830381600087803b15801561278457600080fd5b505af1158015612798573d6000803e3d6000fd5b505050506040513d60208110156127ae57600080fd5b8101908080519060200190929190505050506127e8816000808981526020019081526020016000206001015461317090919063ffffffff16565b60008088815260200190815260200160002060010181905550853373ffffffffffffffffffffffffffffffffffffffff167fc9ec9df36a160cd05ae36393dca23c0128234fc68a48baec833a6d8b5967d6da896040518082815260200191505060405180910390a350505050505050565b600760009054906101000a900473ffffffffffffffffffffffffffffffffffffffff1673ffffffffffffffffffffffffffffffffffffffff163373ffffffffffffffffffffffffffffffffffffffff16146128ff576040517f08c379a000000000000000000000000000000000000000000000000000000000815260040180806020018281038252602d815260200180613afc602d913960400191505060405180910390fd5b6101f48111158015612912575060008110155b612967576040517f08c379a000000000000000000000000000000000000000000000000000000000815260040180806020018281038252602b815260200180613ad1602b913960400191505060405180910390fd5b806004819055507f38e229a7f3f9c329892d08eb37c4e91ccac6d12c798d394990ca4f56028ec266816040518082815260200191505060405180910390a150565b6000600454905090565b8173ffffffffffffffffffffffffffffffffffffffff163373ffffffffffffffffffffffffffffffffffffffff161415612a37576040517f08c379a0000000000000000000000000000000000000000000000000000000008152600401808060200182810382526029815260200180613b296029913960400191505060405180910390fd5b80600860003373ffffffffffffffffffffffffffffffffffffffff1673ffffffffffffffffffffffffffffffffffffffff16815260200190815260200160002060008473ffffffffffffffffffffffffffffffffffffffff1673ffffffffffffffffffffffffffffffffffffffff16815260200190815260200160002060006101000a81548160ff0219169083151502179055508173ffffffffffffffffffffffffffffffffffffffff163373ffffffffffffffffffffffffffffffffffffffff167f17307eab39ab6107e8899845ad3d59bd9653f200f220920489ca2b5937696c318360405180821515815260200191505060405180910390a35050565b803373ffffffffffffffffffffffffffffffffffffffff1660008083815260200190815260200160002060030160009054906101000a900473ffffffffffffffffffffffffffffffffffffffff1673ffffffffffffffffffffffffffffffffffffffff1614612bf0576040517f08c379a000000000000000000000000000000000000000000000000000000000815260040180806020018281038252603081526020018061393b6030913960400191505060405180910390fd5b60008083815260200190815260200160002060000160019054906101000a900460ff16612c68576040517f08c379a000000000000000000000000000000000000000000000000000000000815260040180806020018281038252602881526020018061396b6028913960400191505060405180910390fd5b612c7283836131f8565b505050565b60008082815260200190815260200160002060000160009054906101000a900460ff16612cef576040517f08c379a0000000000000000000000000000000000000000000000000000000008152600401808060200182810382526027815260200180613a596027913960400191505060405180910390fd5b612cf9338261357d565b50565b6000600560009054906101000a900473ffffffffffffffffffffffffffffffffffffffff16905090565b803373ffffffffffffffffffffffffffffffffffffffff1660008083815260200190815260200160002060030160009054906101000a900473ffffffffffffffffffffffffffffffffffffffff1673ffffffffffffffffffffffffffffffffffffffff1614612de0576040517f08c379a000000000000000000000000000000000000000000000000000000000815260040180806020018281038252603081526020018061393b6030913960400191505060405180910390fd5b612dea838361357d565b505050565b6000600860008473ffffffffffffffffffffffffffffffffffffffff1673ffffffffffffffffffffffffffffffffffffffff16815260200190815260200160002060008373ffffffffffffffffffffffffffffffffffffffff1673ffffffffffffffffffffffffffffffffffffffff16815260200190815260200160002060009054906101000a900460ff16905092915050565b803373ffffffffffffffffffffffffffffffffffffffff1660008083815260200190815260200160002060030160009054906101000a900473ffffffffffffffffffffffffffffffffffffffff1673ffffffffffffffffffffffffffffffffffffffff1614612f3d576040517f08c379a000000000000000000000000000000000000000000000000000000000815260040180806020018281038252603081526020018061393b6030913960400191505060405180910390fd5b826000808481526020019081526020016000206004019080519060200190612f669291906137e8565b50817f6bb7ff708619ba0610cba295a58592e0451dee2622938c8755667688daf3529b846040518080602001828103825283818151815260200191508051906020019080838360005b83811015612fca578082015181840152602081019050612faf565b50505050905090810190601f168015612ff75780820380516001836020036101000a031916815260200191505b509250505060405180910390a2505050565b6000600760009054906101000a900473ffffffffffffffffffffffffffffffffffffffff16905090565b6000828211156130ab576040517f08c379a000000000000000000000000000000000000000000000000000000000815260040180806020018281038252601e8152602001807f536166654d6174683a207375627472616374696f6e206f766572666c6f77000081525060200191505060405180910390fd5b818303905092915050565b6000838311158290613163576040517f08c379a00000000000000000000000000000000000000000000000000000000081526004018080602001828103825283818151815260200191508051906020019080838360005b8381101561312857808201518184015260208101905061310d565b50505050905090810190601f1680156131555780820380516001836020036101000a031916815260200191505b509250505060405180910390fd5b5082840390509392505050565b6000808284019050838110156131ee576040517f08c379a000000000000000000000000000000000000000000000000000000000815260040180806020018281038252601b8152602001807f536166654d6174683a206164646974696f6e206f766572666c6f77000000000081525060200191505060405180910390fd5b8091505092915050565b80600654811115613271576040517f08c379a00000000000000000000000000000000000000000000000000000000081526004018080602001828103825260208152602001807f436f6d6d756e653a20636f6d6d756e6520646f6573206e6f742065786973747381525060200191505060405180910390fd5b6001600083815260200190815260200160002060008473ffffffffffffffffffffffffffffffffffffffff1673ffffffffffffffffffffffffffffffffffffffff16815260200190815260200160002060009054906101000a900460ff16613324576040517f08c379a00000000000000000000000000000000000000000000000000000000081526004018080602001828103825260228152602001806139936022913960400191505060405180910390fd5b60006001600084815260200190815260200160002060008573ffffffffffffffffffffffffffffffffffffffff1673ffffffffffffffffffffffffffffffffffffffff16815260200190815260200160002060006101000a81548160ff0219169083151502179055506133b660016000808581526020019081526020016000206002015461303390919063ffffffff16565b6000808481526020019081526020016000206002018190555060006003600084815260200190815260200160002060008573ffffffffffffffffffffffffffffffffffffffff1673ffffffffffffffffffffffffffffffffffffffff16815260200190815260200160002081905550818373ffffffffffffffffffffffffffffffffffffffff167f40633b7e2cdb931147c2936212d1bcc03003b8a5b46857f1fb6b10f938b5c32560405160405180910390a3505050565b60008083141561348157600090506134ee565b600082840290508284828161349257fe5b04146134e9576040517f08c379a00000000000000000000000000000000000000000000000000000000081526004018080602001828103825260218152602001806139e16021913960400191505060405180910390fd5b809150505b92915050565b600080821161356b576040517f08c379a000000000000000000000000000000000000000000000000000000000815260040180806020018281038252601a8152602001807f536166654d6174683a206469766973696f6e206279207a65726f00000000000081525060200191505060405180910390fd5b81838161357457fe5b04905092915050565b806006548111156135f6576040517f08c379a00000000000000000000000000000000000000000000000000000000081526004018080602001828103825260208152602001807f436f6d6d756e653a20636f6d6d756e6520646f6573206e6f742065786973747381525060200191505060405180910390fd5b6001600083815260200190815260200160002060008473ffffffffffffffffffffffffffffffffffffffff1673ffffffffffffffffffffffffffffffffffffffff16815260200190815260200160002060009054906101000a900460ff16156136aa576040517f08c379a00000000000000000000000000000000000000000000000000000000081526004018080602001828103825260268152602001806138b76026913960400191505060405180910390fd5b600180600084815260200190815260200160002060008573ffffffffffffffffffffffffffffffffffffffff1673ffffffffffffffffffffffffffffffffffffffff16815260200190815260200160002060006101000a81548160ff0219169083151502179055506000808381526020019081526020016000206002016000815460010191905081905550600080838152602001908152602001600020600101546002600084815260200190815260200160002060008573ffffffffffffffffffffffffffffffffffffffff1673ffffffffffffffffffffffffffffffffffffffff16815260200190815260200160002081905550818373ffffffffffffffffffffffffffffffffffffffff167f373ff2f620a99b4ccba38e347d8024d2b88c9ebfaaa9074d7286f9f963ca2f7560405160405180910390a3505050565b828054600181600116156101000203166002900490600052602060002090601f016020900481019282601f1061382957805160ff1916838001178555613857565b82800160010185558215613857579182015b8281111561385657825182559160200191906001019061383b565b5b5090506138649190613868565b5090565b5b80821115613881576000816000905550600101613869565b509056fe436f6d6d756e653a2062617463682062616c616e636520717565727920666f7220746865207a65726f2061646472657373436f6d6d756e653a206163636f756e7420697320616c726561647920696e20636f6d6d756e65636f6d6d756e6520686173206e6f206d656d626572732c2063616e6e6f742061636365707420636f6e747269627574696f6e73436f6d6d756e653a2062616c616e636520717565727920666f7220746865207a65726f2061646472657373436f6d6d756e653a206f6e6c792074686520636f6d6d756e6520636f6e74726f6c6c65722063616e20646f2074686973436f6d6d756e653a20636f6d6d756e6520646f6573206e6f7420616c6c6f772072656d6f76696e67436f6d6d756e653a206163636f756e74206973206e6f7420696e20636f6d6d756e65436f6d6d756e653a2043616e6e6f7420776974686472617720746f20746865207a65726f2061646472657373536166654d6174683a206d756c7469706c69636174696f6e206f766572666c6f77436f6d6d756e653a2043616e6e6f742077697468647261772066726f6d20746865207a65726f2061646472657373436f6d6d756e653a2043616c6c6572206973206e6f74206f776e6572206e6f7220617070726f766564436f6d6d756e653a20636f6d6d756e6520646f6573206e6f7420616c6c6f77206a6f696e696e67436f6d6d756e653a20776974686472617720616d6f756e7420657863656564732062616c616e6365436f6d6d756e653a206163636f756e747320616e6420696473206c656e677468206d69736d61746368436f6d6d756e653a206665652072617465206d757374206265206265747765656e203020616e6420353030436f6d6d756e653a206f6e6c7920636f6e747261637420636f6e74726f6c6c65722063616e20646f2074686973436f6d6d756e653a2073657474696e6720617070726f76616c2073746174757320666f722073656c66a2646970667358221220de347edbd928bc37a9627429abdbbafbd5eb07b0f52db3af5940f67df5d6cbfb64736f6c63430007030033",
  "linkReferences": {},
  "deployedLinkReferences": {}
}