{
  "_format": "hh-sol-artifact-1",
  "contractName": "NFTPawnShop",
  "sourceName": "contracts/PawnShop.sol",
  "abi": [
    {
      "inputs": [
        {
          "internalType": "address",
          "name": "_manager",
          "type": "address"
        }
      ],
      "stateMutability": "nonpayable",
      "type": "constructor"
    },
    {
      "anonymous": false,
      "inputs": [
        {
          "indexed": true,
          "internalType": "uint256",
          "name": "id",
          "type": "uint256"
        },
        {
          "indexed": true,
          "internalType": "address",
          "name": "underwriter",
          "type": "address"
        },
        {
          "indexed": true,
          "internalType": "address",
          "name": "replacedLoanOwner",
          "type": "address"
        },
        {
          "indexed": false,
          "internalType": "uint256",
          "name": "interestEarned",
          "type": "uint256"
        },
        {
          "indexed": false,
          "internalType": "uint256",
          "name": "replacedAmount",
          "type": "uint256"
        }
      ],
      "name": "BuyoutUnderwriter",
      "type": "event"
    },
    {
      "anonymous": false,
      "inputs": [
        {
          "indexed": true,
          "internalType": "uint256",
          "name": "id",
          "type": "uint256"
        }
      ],
      "name": "Close",
      "type": "event"
    },
    {
      "anonymous": false,
      "inputs": [
        {
          "indexed": true,
          "internalType": "uint256",
          "name": "id",
          "type": "uint256"
        },
        {
          "indexed": true,
          "internalType": "address",
          "name": "minter",
          "type": "address"
        },
        {
          "indexed": false,
          "internalType": "uint256",
          "name": "maxInterestRate",
          "type": "uint256"
        },
        {
          "indexed": false,
          "internalType": "uint256",
          "name": "minLoanAmount",
          "type": "uint256"
        },
        {
          "indexed": false,
          "internalType": "uint256",
          "name": "minDurationSeconds",
          "type": "uint256"
        }
      ],
      "name": "MintTicket",
      "type": "event"
    },
    {
      "anonymous": false,
      "inputs": [
        {
          "indexed": true,
          "internalType": "address",
          "name": "previousOwner",
          "type": "address"
        },
        {
          "indexed": true,
          "internalType": "address",
          "name": "newOwner",
          "type": "address"
        }
      ],
      "name": "OwnershipTransferred",
      "type": "event"
    },
    {
      "anonymous": false,
      "inputs": [
        {
          "indexed": true,
          "internalType": "uint256",
          "name": "id",
          "type": "uint256"
        },
        {
          "indexed": true,
          "internalType": "address",
          "name": "repayer",
          "type": "address"
        },
        {
          "indexed": true,
          "internalType": "address",
          "name": "loanOwner",
          "type": "address"
        },
        {
          "indexed": false,
          "internalType": "uint256",
          "name": "interestEarned",
          "type": "uint256"
        },
        {
          "indexed": false,
          "internalType": "uint256",
          "name": "loanAmount",
          "type": "uint256"
        }
      ],
      "name": "Repay",
      "type": "event"
    },
    {
      "anonymous": false,
      "inputs": [
        {
          "indexed": true,
          "internalType": "uint256",
          "name": "id",
          "type": "uint256"
        }
      ],
      "name": "SeizeCollateral",
      "type": "event"
    },
    {
      "anonymous": false,
      "inputs": [
        {
          "indexed": true,
          "internalType": "uint256",
          "name": "id",
          "type": "uint256"
        },
        {
          "indexed": true,
          "internalType": "address",
          "name": "underwriter",
          "type": "address"
        },
        {
          "indexed": false,
          "internalType": "uint256",
          "name": "interestRate",
          "type": "uint256"
        },
        {
          "indexed": false,
          "internalType": "uint256",
          "name": "loanAmount",
          "type": "uint256"
        },
        {
          "indexed": false,
          "internalType": "uint256",
          "name": "durationSeconds",
          "type": "uint256"
        }
      ],
      "name": "UnderwriteLoan",
      "type": "event"
    },
    {
      "inputs": [],
      "name": "INTEREST_RATE_DECIMALS",
      "outputs": [
        {
          "internalType": "uint8",
          "name": "",
          "type": "uint8"
        }
      ],
      "stateMutability": "view",
      "type": "function"
    },
    {
      "inputs": [],
      "name": "SCALAR",
      "outputs": [
        {
          "internalType": "uint256",
          "name": "",
          "type": "uint256"
        }
      ],
      "stateMutability": "view",
      "type": "function"
    },
    {
      "inputs": [
        {
          "internalType": "uint256",
          "name": "pawnTicketID",
          "type": "uint256"
        },
        {
          "internalType": "address",
          "name": "sendCollateralTo",
          "type": "address"
        }
      ],
      "name": "closeTicket",
      "outputs": [],
      "stateMutability": "nonpayable",
      "type": "function"
    },
    {
      "inputs": [
        {
          "internalType": "uint256",
          "name": "pawnTicketID",
          "type": "uint256"
        }
      ],
      "name": "interestOwed",
      "outputs": [
        {
          "internalType": "uint256",
          "name": "",
          "type": "uint256"
        }
      ],
      "stateMutability": "view",
      "type": "function"
    },
    {
      "inputs": [
        {
          "internalType": "uint256",
          "name": "pawnTicketID",
          "type": "uint256"
        }
      ],
      "name": "loanEndSeconds",
      "outputs": [
        {
          "internalType": "uint256",
          "name": "",
          "type": "uint256"
        }
      ],
      "stateMutability": "view",
      "type": "function"
    },
    {
      "inputs": [],
      "name": "loansContract",
      "outputs": [
        {
          "internalType": "address",
          "name": "",
          "type": "address"
        }
      ],
      "stateMutability": "view",
      "type": "function"
    },
    {
      "inputs": [],
      "name": "manager",
      "outputs": [
        {
          "internalType": "address",
          "name": "",
          "type": "address"
        }
      ],
      "stateMutability": "view",
      "type": "function"
    },
    {
      "inputs": [
        {
          "internalType": "uint256",
          "name": "nftID",
          "type": "uint256"
        },
        {
          "internalType": "address",
          "name": "nftAddress",
          "type": "address"
        },
        {
          "internalType": "uint256",
          "name": "maxInterest",
          "type": "uint256"
        },
        {
          "internalType": "uint256",
          "name": "minAmount",
          "type": "uint256"
        },
        {
          "internalType": "address",
          "name": "loanAsset",
          "type": "address"
        },
        {
          "internalType": "uint256",
          "name": "minDurationSeconds",
          "type": "uint256"
        },
        {
          "internalType": "address",
          "name": "mintTo",
          "type": "address"
        }
      ],
      "name": "mintPawnTicket",
      "outputs": [
        {
          "internalType": "uint256",
          "name": "id",
          "type": "uint256"
        }
      ],
      "stateMutability": "nonpayable",
      "type": "function"
    },
    {
      "inputs": [],
      "name": "originationFeeRate",
      "outputs": [
        {
          "internalType": "uint256",
          "name": "",
          "type": "uint256"
        }
      ],
      "stateMutability": "view",
      "type": "function"
    },
    {
      "inputs": [],
      "name": "owner",
      "outputs": [
        {
          "internalType": "address",
          "name": "",
          "type": "address"
        }
      ],
      "stateMutability": "view",
      "type": "function"
    },
    {
      "inputs": [],
      "name": "renounceOwnership",
      "outputs": [],
      "stateMutability": "nonpayable",
      "type": "function"
    },
    {
      "inputs": [
        {
          "internalType": "uint256",
          "name": "pawnTicketID",
          "type": "uint256"
        }
      ],
      "name": "repayAndCloseTicket",
      "outputs": [],
      "stateMutability": "nonpayable",
      "type": "function"
    },
    {
      "inputs": [
        {
          "internalType": "uint256",
          "name": "pawnTicketID",
          "type": "uint256"
        },
        {
          "internalType": "address",
          "name": "to",
          "type": "address"
        }
      ],
      "name": "seizeCollateral",
      "outputs": [],
      "stateMutability": "nonpayable",
      "type": "function"
    },
    {
      "inputs": [
        {
          "internalType": "address",
          "name": "_contract",
          "type": "address"
        }
      ],
      "name": "setPawnLoansContract",
      "outputs": [],
      "stateMutability": "nonpayable",
      "type": "function"
    },
    {
      "inputs": [
        {
          "internalType": "address",
          "name": "_contract",
          "type": "address"
        }
      ],
      "name": "setPawnTicketsContract",
      "outputs": [],
      "stateMutability": "nonpayable",
      "type": "function"
    },
    {
      "inputs": [
        {
          "internalType": "uint256",
          "name": "",
          "type": "uint256"
        }
      ],
      "name": "ticketInfo",
      "outputs": [
        {
          "internalType": "bool",
          "name": "closed",
          "type": "bool"
        },
        {
          "internalType": "uint256",
          "name": "perSecondInterestRate",
          "type": "uint256"
        },
        {
          "internalType": "uint256",
          "name": "accumulatedInterest",
          "type": "uint256"
        },
        {
          "internalType": "uint256",
          "name": "lastAccumulatedTimestamp",
          "type": "uint256"
        },
        {
          "internalType": "uint256",
          "name": "durationSeconds",
          "type": "uint256"
        },
        {
          "internalType": "uint256",
          "name": "loanAmount",
          "type": "uint256"
        },
        {
          "internalType": "uint256",
          "name": "collateralID",
          "type": "uint256"
        },
        {
          "internalType": "address",
          "name": "collateralAddress",
          "type": "address"
        },
        {
          "internalType": "address",
          "name": "loanAsset",
          "type": "address"
        }
      ],
      "stateMutability": "view",
      "type": "function"
    },
    {
      "inputs": [],
      "name": "ticketsContract",
      "outputs": [
        {
          "internalType": "address",
          "name": "",
          "type": "address"
        }
      ],
      "stateMutability": "view",
      "type": "function"
    },
    {
      "inputs": [
        {
          "internalType": "uint256",
          "name": "pawnTicketID",
          "type": "uint256"
        }
      ],
      "name": "totalOwed",
      "outputs": [
        {
          "internalType": "uint256",
          "name": "",
          "type": "uint256"
        }
      ],
      "stateMutability": "view",
      "type": "function"
    },
    {
      "inputs": [
        {
          "internalType": "address",
          "name": "newOwner",
          "type": "address"
        }
      ],
      "name": "transferOwnership",
      "outputs": [],
      "stateMutability": "nonpayable",
      "type": "function"
    },
    {
      "inputs": [
        {
          "internalType": "uint256",
          "name": "pawnTicketID",
          "type": "uint256"
        },
        {
          "internalType": "uint256",
          "name": "interestRate",
          "type": "uint256"
        },
        {
          "internalType": "uint256",
          "name": "amount",
          "type": "uint256"
        },
        {
          "internalType": "uint256",
          "name": "durationSeconds",
          "type": "uint256"
        },
        {
          "internalType": "address",
          "name": "sendLoanTo",
          "type": "address"
        }
      ],
      "name": "underwritePawnLoan",
      "outputs": [],
      "stateMutability": "nonpayable",
      "type": "function"
    },
    {
      "inputs": [
        {
          "internalType": "uint256",
          "name": "_originationFeeRate",
          "type": "uint256"
        }
      ],
      "name": "updateOriginationFeeRate",
      "outputs": [],
      "stateMutability": "nonpayable",
      "type": "function"
    },
    {
      "inputs": [
        {
          "internalType": "address",
          "name": "asset",
          "type": "address"
        },
        {
          "internalType": "uint256",
          "name": "amount",
          "type": "uint256"
        },
        {
          "internalType": "address",
          "name": "to",
          "type": "address"
        }
      ],
      "name": "withdrawFromCashDrawer",
      "outputs": [],
      "stateMutability": "nonpayable",
      "type": "function"
    }
  ],
  "bytecode": "0x60806040526402540be4006001553480156200001a57600080fd5b5060405162003c1338038062003c1383398181016040528101906200004091906200030f565b6000620000526200010860201b60201c565b9050806000806101000a81548173ffffffffffffffffffffffffffffffffffffffff021916908373ffffffffffffffffffffffffffffffffffffffff1602179055508073ffffffffffffffffffffffffffffffffffffffff16600073ffffffffffffffffffffffffffffffffffffffff167f8be0079c531659141344cd1fd0a4f28419497f9722a3daafe3b4186f6b6457e060405160405180910390a35062000101816200011060201b60201c565b50620004af565b600033905090565b620001206200010860201b60201c565b73ffffffffffffffffffffffffffffffffffffffff1662000146620002cf60201b60201c565b73ffffffffffffffffffffffffffffffffffffffff16146200019f576040517f08c379a00000000000000000000000000000000000000000000000000000000081526004016200019690620003b1565b60405180910390fd5b600073ffffffffffffffffffffffffffffffffffffffff168173ffffffffffffffffffffffffffffffffffffffff16141562000212576040517f08c379a000000000000000000000000000000000000000000000000000000000815260040162000209906200038f565b60405180910390fd5b8073ffffffffffffffffffffffffffffffffffffffff1660008054906101000a900473ffffffffffffffffffffffffffffffffffffffff1673ffffffffffffffffffffffffffffffffffffffff167f8be0079c531659141344cd1fd0a4f28419497f9722a3daafe3b4186f6b6457e060405160405180910390a3806000806101000a81548173ffffffffffffffffffffffffffffffffffffffff021916908373ffffffffffffffffffffffffffffffffffffffff16021790555050565b60008060009054906101000a900473ffffffffffffffffffffffffffffffffffffffff16905090565b600081519050620003098162000495565b92915050565b60006020828403121562000328576200032762000418565b5b60006200033884828501620002f8565b91505092915050565b600062000350602683620003d3565b91506200035d826200041d565b604082019050919050565b600062000377602083620003d3565b915062000384826200046c565b602082019050919050565b60006020820190508181036000830152620003aa8162000341565b9050919050565b60006020820190508181036000830152620003cc8162000368565b9050919050565b600082825260208201905092915050565b6000620003f182620003f8565b9050919050565b600073ffffffffffffffffffffffffffffffffffffffff82169050919050565b600080fd5b7f4f776e61626c653a206e6577206f776e657220697320746865207a65726f206160008201527f6464726573730000000000000000000000000000000000000000000000000000602082015250565b7f4f776e61626c653a2063616c6c6572206973206e6f7420746865206f776e6572600082015250565b620004a081620003e4565b8114620004ac57600080fd5b50565b61375480620004bf6000396000f3fe608060405234801561001057600080fd5b50600436106101425760003560e01c80638bd0425a116100b8578063ac9cf4db1161007c578063ac9cf4db1461032b578063c84621e414610347578063e926e9af14610363578063e97db3b914610393578063f2fde38b146103c3578063fa713083146103df57610142565b80638bd0425a1461029b5780638da5cb5b146102b75780638de1e256146102d55780639003b344146102f157806399c91fc41461030d57610142565b8063526cee8d1161010a578063526cee8d146101eb578063571e848f146102095780635ecd21731461022557806366234ffa146102555780636bf301a414610273578063715018a61461029157610142565b8063053050931461014757806310780bed146101635780633b817496146101935780634576bb5d146101b1578063481c6a75146101cd575b600080fd5b610161600480360381019061015c9190612690565b610417565b005b61017d60048036038101906101789190612710565b6104c3565b60405161018a9190612e6e565b60405180910390f35b61019b610539565b6040516101a89190612e6e565b60405180910390f35b6101cb60048036038101906101c69190612710565b61053f565b005b6101d561062d565b6040516101e29190612b64565b60405180910390f35b6101f3610653565b6040516102009190612b64565b60405180910390f35b610223600480360381019061021e919061281f565b610679565b005b61023f600480360381019061023a9190612710565b610ecc565b60405161024c9190612e6e565b60405180910390f35b61025d610f48565b60405161026a9190612ee9565b60405180910390f35b61027b610f4d565b6040516102889190612e6e565b60405180910390f35b610299610f56565b005b6102b560048036038101906102b09190612710565b611090565b005b6102bf61145e565b6040516102cc9190612b64565b60405180910390f35b6102ef60048036038101906102ea919061273d565b611487565b005b61030b60048036038101906103069190612636565b611735565b005b610315611886565b6040516103229190612b64565b60405180910390f35b6103456004803603810190610340919061273d565b6118ac565b005b610361600480360381019061035c9190612636565b611b95565b005b61037d60048036038101906103789190612710565b611ce6565b60405161038a9190612e6e565b60405180910390f35b6103ad60048036038101906103a8919061277d565b611d60565b6040516103ba9190612e6e565b60405180910390f35b6103dd60048036038101906103d89190612636565b611f97565b005b6103f960048036038101906103f49190612710565b612140565b60405161040e99989796959493929190612bdf565b60405180910390f35b61041f6121db565b73ffffffffffffffffffffffffffffffffffffffff1661043d61145e565b73ffffffffffffffffffffffffffffffffffffffff1614610493576040517f08c379a000000000000000000000000000000000000000000000000000000000815260040161048a90612d6e565b60405180910390fd5b6104be81838573ffffffffffffffffffffffffffffffffffffffff166121e39092919063ffffffff16565b505050565b60008160025481111561050b576040517f08c379a000000000000000000000000000000000000000000000000000000000815260040161050290612cee565b60405180910390fd5b6000600660008581526020019081526020016000209050610530818260010154612269565b92505050919050565b60015481565b6105476121db565b73ffffffffffffffffffffffffffffffffffffffff1661056561145e565b73ffffffffffffffffffffffffffffffffffffffff16146105bb576040517f08c379a00000000000000000000000000000000000000000000000000000000081526004016105b290612d6e565b60405180910390fd5b6002600c6105c991906131bc565b600a6105d59190613010565b60056105e1919061312e565b811115610623576040517f08c379a000000000000000000000000000000000000000000000000000000000815260040161061a90612c8e565b60405180910390fd5b8060018190555050565b600560009054906101000a900473ffffffffffffffffffffffffffffffffffffffff1681565b600460009054906101000a900473ffffffffffffffffffffffffffffffffffffffff1681565b846002548111156106bf576040517f08c379a00000000000000000000000000000000000000000000000000000000081526004016106b690612cee565b60405180910390fd5b60006006600088815260200190815260200160002090508060000160009054906101000a900460ff1615610728576040517f08c379a000000000000000000000000000000000000000000000000000000000815260040161071f90612e4e565b60405180910390fd5b85816001015410158015610740575083816004015411155b8015610750575084816005015411155b61078f576040517f08c379a000000000000000000000000000000000000000000000000000000000815260040161078690612d0e565b60405180910390fd5b6000816003015414156109a8576107ed3330878460080160009054906101000a900473ffffffffffffffffffffffffffffffffffffffff1673ffffffffffffffffffffffffffffffffffffffff166122ec909392919063ffffffff16565b600064e8d4a5100060015487610803919061312e565b61080d9190612f8c565b9050610913600460009054906101000a900473ffffffffffffffffffffffffffffffffffffffff1673ffffffffffffffffffffffffffffffffffffffff16636352211e8a6040518263ffffffff1660e01b815260040161086d9190612e6e565b60206040518083038186803b15801561088557600080fd5b505afa158015610899573d6000803e3d6000fd5b505050506040513d601f19601f820116820180604052508101906108bd9190612663565b82886108c99190613188565b8460080160009054906101000a900473ffffffffffffffffffffffffffffffffffffffff1673ffffffffffffffffffffffffffffffffffffffff166121e39092919063ffffffff16565b600360009054906101000a900473ffffffffffffffffffffffffffffffffffffffff1673ffffffffffffffffffffffffffffffffffffffff166340c10f19858a6040518363ffffffff1660e01b8152600401610970929190612bb6565b600060405180830381600087803b15801561098a57600080fd5b505af115801561099e573d6000803e3d6000fd5b5050505050610e4c565b60008160050154866109ba9190613188565b9050806064600a84600501546109d0919061312e565b6109da9190612f8c565b111580610a125750846064600a84600401546109f6919061312e565b610a009190612f8c565b8360040154610a0f9190612f36565b11155b80610a485750866064600a8460010154610a2c919061312e565b610a369190612f8c565b8360010154610a459190613188565b10155b610a87576040517f08c379a0000000000000000000000000000000000000000000000000000000008152600401610a7e90612cae565b60405180910390fd5b6000610a97838460010154612269565b9050610af53330838a610aaa9190612f36565b8660080160009054906101000a900473ffffffffffffffffffffffffffffffffffffffff1673ffffffffffffffffffffffffffffffffffffffff166122ec909392919063ffffffff16565b6000600360009054906101000a900473ffffffffffffffffffffffffffffffffffffffff1673ffffffffffffffffffffffffffffffffffffffff16636352211e8b6040518263ffffffff1660e01b8152600401610b529190612e6e565b60206040518083038186803b158015610b6a57600080fd5b505afa158015610b7e573d6000803e3d6000fd5b505050506040513d601f19601f82011682018060405250810190610ba29190612663565b9050610c0281856005015484610bb89190612f36565b8660080160009054906101000a900473ffffffffffffffffffffffffffffffffffffffff1673ffffffffffffffffffffffffffffffffffffffff166121e39092919063ffffffff16565b600360009054906101000a900473ffffffffffffffffffffffffffffffffffffffff1673ffffffffffffffffffffffffffffffffffffffff16631097519182888d6040518463ffffffff1660e01b8152600401610c6193929190612b7f565b600060405180830381600087803b158015610c7b57600080fd5b505af1158015610c8f573d6000803e3d6000fd5b505050506000831115610dd357600064e8d4a5100060015485610cb2919061312e565b610cbc9190612f8c565b9050610dd1600460009054906101000a900473ffffffffffffffffffffffffffffffffffffffff1673ffffffffffffffffffffffffffffffffffffffff16636352211e8d6040518263ffffffff1660e01b8152600401610d1c9190612e6e565b60206040518083038186803b158015610d3457600080fd5b505afa158015610d48573d6000803e3d6000fd5b505050506040513d601f19601f82011682018060405250810190610d6c9190612663565b8287600501548c610d7d9190613188565b610d879190613188565b8760080160009054906101000a900473ffffffffffffffffffffffffffffffffffffffff1673ffffffffffffffffffffffffffffffffffffffff166121e39092919063ffffffff16565b505b8184600201819055508073ffffffffffffffffffffffffffffffffffffffff163373ffffffffffffffffffffffffffffffffffffffff168b7f4426c7953fce0ff3ee8d5ae131fe344a6368710c93a44ea34eff98a0a2eb823a858860050154604051610e40929190612e89565b60405180910390a45050505b8581600101819055504281600301819055508381600401819055508481600501819055503373ffffffffffffffffffffffffffffffffffffffff16877f196faa84e8e25ea2d752848d95baeaad64525fc89c6b17b07d8cdaf9d402c3e8888888604051610ebb93929190612eb2565b60405180910390a350505050505050565b600081600254811115610f14576040517f08c379a0000000000000000000000000000000000000000000000000000000008152600401610f0b90612cee565b60405180910390fd5b600060066000858152602001908152602001600020905080600301548160040154610f3f9190612f36565b92505050919050565b600c81565b64e8d4a5100081565b610f5e6121db565b73ffffffffffffffffffffffffffffffffffffffff16610f7c61145e565b73ffffffffffffffffffffffffffffffffffffffff1614610fd2576040517f08c379a0000000000000000000000000000000000000000000000000000000008152600401610fc990612d6e565b60405180910390fd5b600073ffffffffffffffffffffffffffffffffffffffff1660008054906101000a900473ffffffffffffffffffffffffffffffffffffffff1673ffffffffffffffffffffffffffffffffffffffff167f8be0079c531659141344cd1fd0a4f28419497f9722a3daafe3b4186f6b6457e060405160405180910390a360008060006101000a81548173ffffffffffffffffffffffffffffffffffffffff021916908373ffffffffffffffffffffffffffffffffffffffff160217905550565b806002548111156110d6576040517f08c379a00000000000000000000000000000000000000000000000000000000081526004016110cd90612cee565b60405180910390fd5b60006006600084815260200190815260200160002090508060000160009054906101000a900460ff161561113f576040517f08c379a000000000000000000000000000000000000000000000000000000000815260040161113690612e4e565b60405180910390fd5b600061114f828360010154612269565b90506000600360009054906101000a900473ffffffffffffffffffffffffffffffffffffffff1673ffffffffffffffffffffffffffffffffffffffff16636352211e866040518263ffffffff1660e01b81526004016111ae9190612e6e565b60206040518083038186803b1580156111c657600080fd5b505afa1580156111da573d6000803e3d6000fd5b505050506040513d601f19601f820116820180604052508101906111fe9190612663565b905060018360000160006101000a81548160ff02191690831515021790555061127d33828560050154856112329190612f36565b8660080160009054906101000a900473ffffffffffffffffffffffffffffffffffffffff1673ffffffffffffffffffffffffffffffffffffffff166122ec909392919063ffffffff16565b8260070160009054906101000a900473ffffffffffffffffffffffffffffffffffffffff1673ffffffffffffffffffffffffffffffffffffffff166323b872dd30600460009054906101000a900473ffffffffffffffffffffffffffffffffffffffff1673ffffffffffffffffffffffffffffffffffffffff16636352211e896040518263ffffffff1660e01b81526004016113199190612e6e565b60206040518083038186803b15801561133157600080fd5b505afa158015611345573d6000803e3d6000fd5b505050506040513d601f19601f820116820180604052508101906113699190612663565b86600601546040518463ffffffff1660e01b815260040161138c93929190612b7f565b600060405180830381600087803b1580156113a657600080fd5b505af11580156113ba573d6000803e3d6000fd5b505050508073ffffffffffffffffffffffffffffffffffffffff163373ffffffffffffffffffffffffffffffffffffffff16867f9181b2981704b7cf4448130f29cb5da1f41e0418d000e7f8880000b09bcbea45858760050154604051611422929190612e89565b60405180910390a4847fbf67515a38ee520223d32c1266d52101c30d936ed1f3e436c8caeb0a43cb06bf60405160405180910390a25050505050565b60008060009054906101000a900473ffffffffffffffffffffffffffffffffffffffff16905090565b3373ffffffffffffffffffffffffffffffffffffffff16600460009054906101000a900473ffffffffffffffffffffffffffffffffffffffff1673ffffffffffffffffffffffffffffffffffffffff16636352211e846040518263ffffffff1660e01b81526004016114f99190612e6e565b60206040518083038186803b15801561151157600080fd5b505afa158015611525573d6000803e3d6000fd5b505050506040513d601f19601f820116820180604052508101906115499190612663565b73ffffffffffffffffffffffffffffffffffffffff161461159f576040517f08c379a000000000000000000000000000000000000000000000000000000000815260040161159690612d4e565b60405180910390fd5b60006006600084815260200190815260200160002090508060000160009054906101000a900460ff1615611608576040517f08c379a00000000000000000000000000000000000000000000000000000000081526004016115ff90612e4e565b60405180910390fd5b600081600301541461164f576040517f08c379a000000000000000000000000000000000000000000000000000000000815260040161164690612dee565b60405180910390fd5b60018160000160006101000a81548160ff0219169083151502179055508060070160009054906101000a900473ffffffffffffffffffffffffffffffffffffffff1673ffffffffffffffffffffffffffffffffffffffff166323b872dd308484600601546040518463ffffffff1660e01b81526004016116d193929190612b7f565b600060405180830381600087803b1580156116eb57600080fd5b505af11580156116ff573d6000803e3d6000fd5b50505050827fbf67515a38ee520223d32c1266d52101c30d936ed1f3e436c8caeb0a43cb06bf60405160405180910390a2505050565b61173d6121db565b73ffffffffffffffffffffffffffffffffffffffff1661175b61145e565b73ffffffffffffffffffffffffffffffffffffffff16146117b1576040517f08c379a00000000000000000000000000000000000000000000000000000000081526004016117a890612d6e565b60405180910390fd5b600073ffffffffffffffffffffffffffffffffffffffff16600360009054906101000a900473ffffffffffffffffffffffffffffffffffffffff1673ffffffffffffffffffffffffffffffffffffffff1614611842576040517f08c379a000000000000000000000000000000000000000000000000000000000815260040161183990612dce565b60405180910390fd5b80600360006101000a81548173ffffffffffffffffffffffffffffffffffffffff021916908373ffffffffffffffffffffffffffffffffffffffff16021790555050565b600360009054906101000a900473ffffffffffffffffffffffffffffffffffffffff1681565b3373ffffffffffffffffffffffffffffffffffffffff16600360009054906101000a900473ffffffffffffffffffffffffffffffffffffffff1673ffffffffffffffffffffffffffffffffffffffff16636352211e846040518263ffffffff1660e01b815260040161191e9190612e6e565b60206040518083038186803b15801561193657600080fd5b505afa15801561194a573d6000803e3d6000fd5b505050506040513d601f19601f8201168201806040525081019061196e9190612663565b73ffffffffffffffffffffffffffffffffffffffff16146119c4576040517f08c379a00000000000000000000000000000000000000000000000000000000081526004016119bb90612e2e565b60405180910390fd5b60006006600084815260200190815260200160002090508060000160009054906101000a900460ff1615611a2d576040517f08c379a0000000000000000000000000000000000000000000000000000000008152600401611a2490612e4e565b60405180910390fd5b80600301548160040154611a419190612f36565b4211611a82576040517f08c379a0000000000000000000000000000000000000000000000000000000008152600401611a7990612dae565b60405180910390fd5b60018160000160006101000a81548160ff0219169083151502179055508060070160009054906101000a900473ffffffffffffffffffffffffffffffffffffffff1673ffffffffffffffffffffffffffffffffffffffff166323b872dd308484600601546040518463ffffffff1660e01b8152600401611b0493929190612b7f565b600060405180830381600087803b158015611b1e57600080fd5b505af1158015611b32573d6000803e3d6000fd5b50505050827f19f0d220035b967365e70d19ca7093af2e75a9741c08ef27c5017d6f463febd960405160405180910390a2827fbf67515a38ee520223d32c1266d52101c30d936ed1f3e436c8caeb0a43cb06bf60405160405180910390a2505050565b611b9d6121db565b73ffffffffffffffffffffffffffffffffffffffff16611bbb61145e565b73ffffffffffffffffffffffffffffffffffffffff1614611c11576040517f08c379a0000000000000000000000000000000000000000000000000000000008152600401611c0890612d6e565b60405180910390fd5b600073ffffffffffffffffffffffffffffffffffffffff16600460009054906101000a900473ffffffffffffffffffffffffffffffffffffffff1673ffffffffffffffffffffffffffffffffffffffff1614611ca2576040517f08c379a0000000000000000000000000000000000000000000000000000000008152600401611c9990612dce565b60405180910390fd5b80600460006101000a81548173ffffffffffffffffffffffffffffffffffffffff021916908373ffffffffffffffffffffffffffffffffffffffff16021790555050565b600081600254811115611d2e576040517f08c379a0000000000000000000000000000000000000000000000000000000008152600401611d2590612cee565b60405180910390fd5b611d37836104c3565b6006600085815260200190815260200160002060050154611d589190612f36565b915050919050565b6000600260008154611d7190613278565b91905081905590506000600660008381526020019081526020016000209050848160080160006101000a81548173ffffffffffffffffffffffffffffffffffffffff021916908373ffffffffffffffffffffffffffffffffffffffff160217905550858160050181905550888160060181905550878160070160006101000a81548173ffffffffffffffffffffffffffffffffffffffff021916908373ffffffffffffffffffffffffffffffffffffffff1602179055508681600101819055508381600401819055508773ffffffffffffffffffffffffffffffffffffffff166323b872dd33308c6040518463ffffffff1660e01b8152600401611e7793929190612b7f565b600060405180830381600087803b158015611e9157600080fd5b505af1158015611ea5573d6000803e3d6000fd5b50505050600460009054906101000a900473ffffffffffffffffffffffffffffffffffffffff1673ffffffffffffffffffffffffffffffffffffffff166340c10f1984846040518363ffffffff1660e01b8152600401611f06929190612bb6565b600060405180830381600087803b158015611f2057600080fd5b505af1158015611f34573d6000803e3d6000fd5b505050503373ffffffffffffffffffffffffffffffffffffffff16827f228f8b980a28a25ce5d33d72031d4cfa8a0e5ff4af990fa47f75eb6f4beb6a8f898988604051611f8393929190612eb2565b60405180910390a350979650505050505050565b611f9f6121db565b73ffffffffffffffffffffffffffffffffffffffff16611fbd61145e565b73ffffffffffffffffffffffffffffffffffffffff1614612013576040517f08c379a000000000000000000000000000000000000000000000000000000000815260040161200a90612d6e565b60405180910390fd5b600073ffffffffffffffffffffffffffffffffffffffff168173ffffffffffffffffffffffffffffffffffffffff161415612083576040517f08c379a000000000000000000000000000000000000000000000000000000000815260040161207a90612cce565b60405180910390fd5b8073ffffffffffffffffffffffffffffffffffffffff1660008054906101000a900473ffffffffffffffffffffffffffffffffffffffff1673ffffffffffffffffffffffffffffffffffffffff167f8be0079c531659141344cd1fd0a4f28419497f9722a3daafe3b4186f6b6457e060405160405180910390a3806000806101000a81548173ffffffffffffffffffffffffffffffffffffffff021916908373ffffffffffffffffffffffffffffffffffffffff16021790555050565b60066020528060005260406000206000915090508060000160009054906101000a900460ff16908060010154908060020154908060030154908060040154908060050154908060060154908060070160009054906101000a900473ffffffffffffffffffffffffffffffffffffffff16908060080160009054906101000a900473ffffffffffffffffffffffffffffffffffffffff16905089565b600033905090565b6122648363a9059cbb60e01b8484604051602401612202929190612bb6565b604051602081830303815290604052907bffffffffffffffffffffffffffffffffffffffffffffffffffffffff19166020820180517bffffffffffffffffffffffffffffffffffffffffffffffffffffffff8381831617835250505050612375565b505050565b60008260000160009054906101000a900460ff168061228c575060008360030154145b1561229a57600090506122e6565b826002015464e8d4a51000838560030154426122b69190613188565b86600501546122c5919061312e565b6122cf919061312e565b6122d99190612f8c565b6122e39190612f36565b90505b92915050565b61236f846323b872dd60e01b85858560405160240161230d93929190612b7f565b604051602081830303815290604052907bffffffffffffffffffffffffffffffffffffffffffffffffffffffff19166020820180517bffffffffffffffffffffffffffffffffffffffffffffffffffffffff8381831617835250505050612375565b50505050565b60006123d7826040518060400160405280602081526020017f5361666545524332303a206c6f772d6c6576656c2063616c6c206661696c65648152508573ffffffffffffffffffffffffffffffffffffffff1661243c9092919063ffffffff16565b905060008151111561243757808060200190518101906123f791906126e3565b612436576040517f08c379a000000000000000000000000000000000000000000000000000000000815260040161242d90612e0e565b60405180910390fd5b5b505050565b606061244b8484600085612454565b90509392505050565b606082471015612499576040517f08c379a000000000000000000000000000000000000000000000000000000000815260040161249090612d2e565b60405180910390fd5b6124a285612568565b6124e1576040517f08c379a00000000000000000000000000000000000000000000000000000000081526004016124d890612d8e565b60405180910390fd5b6000808673ffffffffffffffffffffffffffffffffffffffff16858760405161250a9190612b4d565b60006040518083038185875af1925050503d8060008114612547576040519150601f19603f3d011682016040523d82523d6000602084013e61254c565b606091505b509150915061255c82828661257b565b92505050949350505050565b600080823b905060008111915050919050565b6060831561258b578290506125db565b60008351111561259e5782518084602001fd5b816040517f08c379a00000000000000000000000000000000000000000000000000000000081526004016125d29190612c6c565b60405180910390fd5b9392505050565b6000813590506125f1816136d9565b92915050565b600081519050612606816136d9565b92915050565b60008151905061261b816136f0565b92915050565b60008135905061263081613707565b92915050565b60006020828403121561264c5761264b61331f565b5b600061265a848285016125e2565b91505092915050565b6000602082840312156126795761267861331f565b5b6000612687848285016125f7565b91505092915050565b6000806000606084860312156126a9576126a861331f565b5b60006126b7868287016125e2565b93505060206126c886828701612621565b92505060406126d9868287016125e2565b9150509250925092565b6000602082840312156126f9576126f861331f565b5b60006127078482850161260c565b91505092915050565b6000602082840312156127265761272561331f565b5b600061273484828501612621565b91505092915050565b600080604083850312156127545761275361331f565b5b600061276285828601612621565b9250506020612773858286016125e2565b9150509250929050565b600080600080600080600060e0888a03121561279c5761279b61331f565b5b60006127aa8a828b01612621565b97505060206127bb8a828b016125e2565b96505060406127cc8a828b01612621565b95505060606127dd8a828b01612621565b94505060806127ee8a828b016125e2565b93505060a06127ff8a828b01612621565b92505060c06128108a828b016125e2565b91505092959891949750929550565b600080600080600060a0868803121561283b5761283a61331f565b5b600061284988828901612621565b955050602061285a88828901612621565b945050604061286b88828901612621565b935050606061287c88828901612621565b925050608061288d888289016125e2565b9150509295509295909350565b6128a3816131f0565b82525050565b6128b281613202565b82525050565b60006128c382612f04565b6128cd8185612f1a565b93506128dd818560208601613245565b80840191505092915050565b60006128f482612f0f565b6128fe8185612f25565b935061290e818560208601613245565b61291781613324565b840191505092915050565b600061292f601783612f25565b915061293a82613342565b602082019050919050565b6000612952603e83612f25565b915061295d8261336b565b604082019050919050565b6000612975602683612f25565b9150612980826133ba565b604082019050919050565b6000612998602783612f25565b91506129a382613409565b604082019050919050565b60006129bb602a83612f25565b91506129c682613458565b604082019050919050565b60006129de602683612f25565b91506129e9826134a7565b604082019050919050565b6000612a01602983612f25565b9150612a0c826134f6565b604082019050919050565b6000612a24602083612f25565b9150612a2f82613545565b602082019050919050565b6000612a47601d83612f25565b9150612a528261356e565b602082019050919050565b6000612a6a602083612f25565b9150612a7582613597565b602082019050919050565b6000612a8d601883612f25565b9150612a98826135c0565b602082019050919050565b6000612ab0602e83612f25565b9150612abb826135e9565b604082019050919050565b6000612ad3602a83612f25565b9150612ade82613638565b604082019050919050565b6000612af6601d83612f25565b9150612b0182613687565b602082019050919050565b6000612b19601a83612f25565b9150612b24826136b0565b602082019050919050565b612b388161322e565b82525050565b612b4781613238565b82525050565b6000612b5982846128b8565b915081905092915050565b6000602082019050612b79600083018461289a565b92915050565b6000606082019050612b94600083018661289a565b612ba1602083018561289a565b612bae6040830184612b2f565b949350505050565b6000604082019050612bcb600083018561289a565b612bd86020830184612b2f565b9392505050565b600061012082019050612bf5600083018c6128a9565b612c02602083018b612b2f565b612c0f604083018a612b2f565b612c1c6060830189612b2f565b612c296080830188612b2f565b612c3660a0830187612b2f565b612c4360c0830186612b2f565b612c5060e083018561289a565b612c5e61010083018461289a565b9a9950505050505050505050565b60006020820190508181036000830152612c8681846128e9565b905092915050565b60006020820190508181036000830152612ca781612922565b9050919050565b60006020820190508181036000830152612cc781612945565b9050919050565b60006020820190508181036000830152612ce781612968565b9050919050565b60006020820190508181036000830152612d078161298b565b9050919050565b60006020820190508181036000830152612d27816129ae565b9050919050565b60006020820190508181036000830152612d47816129d1565b9050919050565b60006020820190508181036000830152612d67816129f4565b9050919050565b60006020820190508181036000830152612d8781612a17565b9050919050565b60006020820190508181036000830152612da781612a3a565b9050919050565b60006020820190508181036000830152612dc781612a5d565b9050919050565b60006020820190508181036000830152612de781612a80565b9050919050565b60006020820190508181036000830152612e0781612aa3565b9050919050565b60006020820190508181036000830152612e2781612ac6565b9050919050565b60006020820190508181036000830152612e4781612ae9565b9050919050565b60006020820190508181036000830152612e6781612b0c565b9050919050565b6000602082019050612e836000830184612b2f565b92915050565b6000604082019050612e9e6000830185612b2f565b612eab6020830184612b2f565b9392505050565b6000606082019050612ec76000830186612b2f565b612ed46020830185612b2f565b612ee16040830184612b2f565b949350505050565b6000602082019050612efe6000830184612b3e565b92915050565b600081519050919050565b600081519050919050565b600081905092915050565b600082825260208201905092915050565b6000612f418261322e565b9150612f4c8361322e565b9250827fffffffffffffffffffffffffffffffffffffffffffffffffffffffffffffffff03821115612f8157612f806132c1565b5b828201905092915050565b6000612f978261322e565b9150612fa28361322e565b925082612fb257612fb16132f0565b5b828204905092915050565b6000808291508390505b600185111561300757808604811115612fe357612fe26132c1565b5b6001851615612ff25780820291505b808102905061300085613335565b9450612fc7565b94509492505050565b600061301b8261322e565b915061302683613238565b92506130537fffffffffffffffffffffffffffffffffffffffffffffffffffffffffffffffff848461305b565b905092915050565b60008261306b5760019050613127565b816130795760009050613127565b816001811461308f5760028114613099576130c8565b6001915050613127565b60ff8411156130ab576130aa6132c1565b5b8360020a9150848211156130c2576130c16132c1565b5b50613127565b5060208310610133831016604e8410600b84101617156130fd5782820a9050838111156130f8576130f76132c1565b5b613127565b61310a8484846001612fbd565b92509050818404811115613121576131206132c1565b5b81810290505b9392505050565b60006131398261322e565b91506131448361322e565b9250817fffffffffffffffffffffffffffffffffffffffffffffffffffffffffffffffff048311821515161561317d5761317c6132c1565b5b828202905092915050565b60006131938261322e565b915061319e8361322e565b9250828210156131b1576131b06132c1565b5b828203905092915050565b60006131c782613238565b91506131d283613238565b9250828210156131e5576131e46132c1565b5b828203905092915050565b60006131fb8261320e565b9050919050565b60008115159050919050565b600073ffffffffffffffffffffffffffffffffffffffff82169050919050565b6000819050919050565b600060ff82169050919050565b60005b83811015613263578082015181840152602081019050613248565b83811115613272576000848401525b50505050565b60006132838261322e565b91507fffffffffffffffffffffffffffffffffffffffffffffffffffffffffffffffff8214156132b6576132b56132c1565b5b600182019050919050565b7f4e487b7100000000000000000000000000000000000000000000000000000000600052601160045260246000fd5b7f4e487b7100000000000000000000000000000000000000000000000000000000600052601260045260246000fd5b600080fd5b6000601f19601f8301169050919050565b60008160011c9050919050565b7f4e46545061776e53686f703a206d617820666565203525000000000000000000600082015250565b7f4e46545061776e53686f703a2070726f706f736564207465726d73206d75737460008201527f20626520626574746572207468616e206578697374696e67207465726d730000602082015250565b7f4f776e61626c653a206e6577206f776e657220697320746865207a65726f206160008201527f6464726573730000000000000000000000000000000000000000000000000000602082015250565b7f4e46545061776e53686f703a207061776e207469636b657420646f6573206e6f60008201527f7420657869737400000000000000000000000000000000000000000000000000602082015250565b7f4e46545061776e53686f703a2050726f706f736564207465726d7320646f206e60008201527f6f74207175616c69667900000000000000000000000000000000000000000000602082015250565b7f416464726573733a20696e73756666696369656e742062616c616e636520666f60008201527f722063616c6c0000000000000000000000000000000000000000000000000000602082015250565b7f4e46545061776e53686f703a206d757374206265206f776e6572206f6620706160008201527f776e6564206974656d0000000000000000000000000000000000000000000000602082015250565b7f4f776e61626c653a2063616c6c6572206973206e6f7420746865206f776e6572600082015250565b7f416464726573733a2063616c6c20746f206e6f6e2d636f6e7472616374000000600082015250565b7f4e46545061776e53686f703a207061796d656e74206973206e6f74206c617465600082015250565b7f4e46545061776e53686f703a20616c7265616479207365740000000000000000600082015250565b7f4e46545061776e53686f703a20686173206c6f616e2c2075736520726570617960008201527f416e64436c6f73655469636b6574000000000000000000000000000000000000602082015250565b7f5361666545524332303a204552433230206f7065726174696f6e20646964206e60008201527f6f74207375636365656400000000000000000000000000000000000000000000602082015250565b7f4e46545061776e53686f703a20756e646572777269746572206f6e6c79000000600082015250565b7f4e46545061776e53686f703a207469636b657420636c6f736564000000000000600082015250565b6136e2816131f0565b81146136ed57600080fd5b50565b6136f981613202565b811461370457600080fd5b50565b6137108161322e565b811461371b57600080fd5b5056fea2646970667358221220776aa841ef3eb6781a0e38664030e459c461e7b314d07da57ec61673de759ead64736f6c63430008060033",
  "linkReferences": {},
  "deployedLinkReferences": {}
}