{
  "_format": "hh-sol-artifact-1",
  "contractName": "NFTPawnShop",
  "sourceName": "contracts/PawnShop.sol",
  "abi": [
    {
      "inputs": [
        {
          "internalType": "address",
          "name": "_manager",
          "type": "address"
        }
      ],
      "stateMutability": "nonpayable",
      "type": "constructor"
    },
    {
      "anonymous": false,
      "inputs": [
        {
          "indexed": true,
          "internalType": "uint256",
          "name": "id",
          "type": "uint256"
        },
        {
          "indexed": true,
          "internalType": "address",
          "name": "underwriter",
          "type": "address"
        },
        {
          "indexed": true,
          "internalType": "address",
          "name": "replacedLoanOwner",
          "type": "address"
        },
        {
          "indexed": false,
          "internalType": "uint256",
          "name": "interestEarned",
          "type": "uint256"
        },
        {
          "indexed": false,
          "internalType": "uint256",
          "name": "replacedAmount",
          "type": "uint256"
        }
      ],
      "name": "BuyoutUnderwriter",
      "type": "event"
    },
    {
      "anonymous": false,
      "inputs": [
        {
          "indexed": true,
          "internalType": "uint256",
          "name": "id",
          "type": "uint256"
        }
      ],
      "name": "Close",
      "type": "event"
    },
    {
      "anonymous": false,
      "inputs": [
        {
          "indexed": true,
          "internalType": "uint256",
          "name": "id",
          "type": "uint256"
        },
        {
          "indexed": true,
          "internalType": "address",
          "name": "minter",
          "type": "address"
        },
        {
          "indexed": false,
          "internalType": "uint256",
          "name": "maxInterestRate",
          "type": "uint256"
        },
        {
          "indexed": false,
          "internalType": "uint256",
          "name": "minLoanAmount",
          "type": "uint256"
        },
        {
          "indexed": false,
          "internalType": "uint256",
          "name": "minDurationSeconds",
          "type": "uint256"
        }
      ],
      "name": "MintTicket",
      "type": "event"
    },
    {
      "anonymous": false,
      "inputs": [
        {
          "indexed": true,
          "internalType": "address",
          "name": "previousOwner",
          "type": "address"
        },
        {
          "indexed": true,
          "internalType": "address",
          "name": "newOwner",
          "type": "address"
        }
      ],
      "name": "OwnershipTransferred",
      "type": "event"
    },
    {
      "anonymous": false,
      "inputs": [
        {
          "indexed": true,
          "internalType": "uint256",
          "name": "id",
          "type": "uint256"
        },
        {
          "indexed": true,
          "internalType": "address",
          "name": "repayer",
          "type": "address"
        },
        {
          "indexed": true,
          "internalType": "address",
          "name": "loanOwner",
          "type": "address"
        },
        {
          "indexed": false,
          "internalType": "uint256",
          "name": "interestEarned",
          "type": "uint256"
        },
        {
          "indexed": false,
          "internalType": "uint256",
          "name": "loanAmount",
          "type": "uint256"
        }
      ],
      "name": "Repay",
      "type": "event"
    },
    {
      "anonymous": false,
      "inputs": [
        {
          "indexed": true,
          "internalType": "uint256",
          "name": "id",
          "type": "uint256"
        }
      ],
      "name": "SeizeCollateral",
      "type": "event"
    },
    {
      "anonymous": false,
      "inputs": [
        {
          "indexed": true,
          "internalType": "uint256",
          "name": "id",
          "type": "uint256"
        },
        {
          "indexed": true,
          "internalType": "address",
          "name": "underwriter",
          "type": "address"
        },
        {
          "indexed": false,
          "internalType": "uint256",
          "name": "interestRate",
          "type": "uint256"
        },
        {
          "indexed": false,
          "internalType": "uint256",
          "name": "loanAmount",
          "type": "uint256"
        },
        {
          "indexed": false,
          "internalType": "uint256",
          "name": "durationSeconds",
          "type": "uint256"
        }
      ],
      "name": "UnderwriteLoan",
      "type": "event"
    },
    {
      "inputs": [],
      "name": "INTEREST_RATE_DECIMALS",
      "outputs": [
        {
          "internalType": "uint8",
          "name": "",
          "type": "uint8"
        }
      ],
      "stateMutability": "view",
      "type": "function"
    },
    {
      "inputs": [],
      "name": "SCALAR",
      "outputs": [
        {
          "internalType": "uint256",
          "name": "",
          "type": "uint256"
        }
      ],
      "stateMutability": "view",
      "type": "function"
    },
    {
      "inputs": [
        {
          "internalType": "uint256",
          "name": "pawnTicketID",
          "type": "uint256"
        },
        {
          "internalType": "address",
          "name": "sendCollateralTo",
          "type": "address"
        }
      ],
      "name": "closeTicket",
      "outputs": [],
      "stateMutability": "nonpayable",
      "type": "function"
    },
    {
      "inputs": [
        {
          "internalType": "uint256",
          "name": "pawnTicketID",
          "type": "uint256"
        }
      ],
      "name": "interestOwed",
      "outputs": [
        {
          "internalType": "uint256",
          "name": "",
          "type": "uint256"
        }
      ],
      "stateMutability": "view",
      "type": "function"
    },
    {
      "inputs": [
        {
          "internalType": "address",
          "name": "",
          "type": "address"
        }
      ],
      "name": "isAllowedLoanAsset",
      "outputs": [
        {
          "internalType": "bool",
          "name": "",
          "type": "bool"
        }
      ],
      "stateMutability": "view",
      "type": "function"
    },
    {
      "inputs": [
        {
          "internalType": "uint256",
          "name": "pawnTicketID",
          "type": "uint256"
        }
      ],
      "name": "loanEndSeconds",
      "outputs": [
        {
          "internalType": "uint256",
          "name": "",
          "type": "uint256"
        }
      ],
      "stateMutability": "view",
      "type": "function"
    },
    {
      "inputs": [],
      "name": "loansContract",
      "outputs": [
        {
          "internalType": "address",
          "name": "",
          "type": "address"
        }
      ],
      "stateMutability": "view",
      "type": "function"
    },
    {
      "inputs": [],
      "name": "manager",
      "outputs": [
        {
          "internalType": "address",
          "name": "",
          "type": "address"
        }
      ],
      "stateMutability": "view",
      "type": "function"
    },
    {
      "inputs": [],
      "name": "maxLoanAmount",
      "outputs": [
        {
          "internalType": "uint256",
          "name": "",
          "type": "uint256"
        }
      ],
      "stateMutability": "view",
      "type": "function"
    },
    {
      "inputs": [
        {
          "internalType": "uint256",
          "name": "nftID",
          "type": "uint256"
        },
        {
          "internalType": "address",
          "name": "nftAddress",
          "type": "address"
        },
        {
          "internalType": "uint256",
          "name": "maxInterest",
          "type": "uint256"
        },
        {
          "internalType": "uint256",
          "name": "minAmount",
          "type": "uint256"
        },
        {
          "internalType": "address",
          "name": "loanAsset",
          "type": "address"
        },
        {
          "internalType": "uint256",
          "name": "minDurationSeconds",
          "type": "uint256"
        },
        {
          "internalType": "address",
          "name": "mintTo",
          "type": "address"
        }
      ],
      "name": "mintPawnTicket",
      "outputs": [
        {
          "internalType": "uint256",
          "name": "id",
          "type": "uint256"
        }
      ],
      "stateMutability": "nonpayable",
      "type": "function"
    },
    {
      "inputs": [],
      "name": "originationFeeRate",
      "outputs": [
        {
          "internalType": "uint256",
          "name": "",
          "type": "uint256"
        }
      ],
      "stateMutability": "view",
      "type": "function"
    },
    {
      "inputs": [],
      "name": "owner",
      "outputs": [
        {
          "internalType": "address",
          "name": "",
          "type": "address"
        }
      ],
      "stateMutability": "view",
      "type": "function"
    },
    {
      "inputs": [],
      "name": "renounceOwnership",
      "outputs": [],
      "stateMutability": "nonpayable",
      "type": "function"
    },
    {
      "inputs": [
        {
          "internalType": "uint256",
          "name": "pawnTicketID",
          "type": "uint256"
        }
      ],
      "name": "repayAndCloseTicket",
      "outputs": [],
      "stateMutability": "nonpayable",
      "type": "function"
    },
    {
      "inputs": [
        {
          "internalType": "uint256",
          "name": "pawnTicketID",
          "type": "uint256"
        },
        {
          "internalType": "address",
          "name": "to",
          "type": "address"
        }
      ],
      "name": "seizeCollateral",
      "outputs": [],
      "stateMutability": "nonpayable",
      "type": "function"
    },
    {
      "inputs": [
        {
          "internalType": "address",
          "name": "asset",
          "type": "address"
        },
        {
          "internalType": "bool",
          "name": "allowed",
          "type": "bool"
        }
      ],
      "name": "setAllowedLoanAsset",
      "outputs": [],
      "stateMutability": "nonpayable",
      "type": "function"
    },
    {
      "inputs": [
        {
          "internalType": "uint256",
          "name": "amount",
          "type": "uint256"
        }
      ],
      "name": "setMaxLoanAmount",
      "outputs": [],
      "stateMutability": "nonpayable",
      "type": "function"
    },
    {
      "inputs": [
        {
          "internalType": "address",
          "name": "_contract",
          "type": "address"
        }
      ],
      "name": "setPawnLoansContract",
      "outputs": [],
      "stateMutability": "nonpayable",
      "type": "function"
    },
    {
      "inputs": [
        {
          "internalType": "address",
          "name": "_contract",
          "type": "address"
        }
      ],
      "name": "setPawnTicketsContract",
      "outputs": [],
      "stateMutability": "nonpayable",
      "type": "function"
    },
    {
      "inputs": [
        {
          "internalType": "uint256",
          "name": "",
          "type": "uint256"
        }
      ],
      "name": "ticketInfo",
      "outputs": [
        {
          "internalType": "bool",
          "name": "closed",
          "type": "bool"
        },
        {
          "internalType": "uint256",
          "name": "perSecondInterestRate",
          "type": "uint256"
        },
        {
          "internalType": "uint256",
          "name": "accumulatedInterest",
          "type": "uint256"
        },
        {
          "internalType": "uint256",
          "name": "lastAccumulatedTimestamp",
          "type": "uint256"
        },
        {
          "internalType": "uint256",
          "name": "durationSeconds",
          "type": "uint256"
        },
        {
          "internalType": "uint256",
          "name": "loanAmount",
          "type": "uint256"
        },
        {
          "internalType": "uint256",
          "name": "collateralID",
          "type": "uint256"
        },
        {
          "internalType": "address",
          "name": "collateralAddress",
          "type": "address"
        },
        {
          "internalType": "address",
          "name": "loanAsset",
          "type": "address"
        }
      ],
      "stateMutability": "view",
      "type": "function"
    },
    {
      "inputs": [],
      "name": "ticketsContract",
      "outputs": [
        {
          "internalType": "address",
          "name": "",
          "type": "address"
        }
      ],
      "stateMutability": "view",
      "type": "function"
    },
    {
      "inputs": [
        {
          "internalType": "uint256",
          "name": "pawnTicketID",
          "type": "uint256"
        }
      ],
      "name": "totalOwed",
      "outputs": [
        {
          "internalType": "uint256",
          "name": "",
          "type": "uint256"
        }
      ],
      "stateMutability": "view",
      "type": "function"
    },
    {
      "inputs": [
        {
          "internalType": "address",
          "name": "newOwner",
          "type": "address"
        }
      ],
      "name": "transferOwnership",
      "outputs": [],
      "stateMutability": "nonpayable",
      "type": "function"
    },
    {
      "inputs": [
        {
          "internalType": "uint256",
          "name": "pawnTicketID",
          "type": "uint256"
        },
        {
          "internalType": "uint256",
          "name": "interestRate",
          "type": "uint256"
        },
        {
          "internalType": "uint256",
          "name": "amount",
          "type": "uint256"
        },
        {
          "internalType": "uint256",
          "name": "durationSeconds",
          "type": "uint256"
        },
        {
          "internalType": "address",
          "name": "sendLoanTo",
          "type": "address"
        }
      ],
      "name": "underwritePawnLoan",
      "outputs": [],
      "stateMutability": "nonpayable",
      "type": "function"
    },
    {
      "inputs": [
        {
          "internalType": "uint256",
          "name": "_originationFeeRate",
          "type": "uint256"
        }
      ],
      "name": "updateOriginationFeeRate",
      "outputs": [],
      "stateMutability": "nonpayable",
      "type": "function"
    },
    {
      "inputs": [
        {
          "internalType": "address",
          "name": "asset",
          "type": "address"
        },
        {
          "internalType": "uint256",
          "name": "amount",
          "type": "uint256"
        },
        {
          "internalType": "address",
          "name": "to",
          "type": "address"
        }
      ],
      "name": "withdrawFromCashDrawer",
      "outputs": [],
      "stateMutability": "nonpayable",
      "type": "function"
    }
  ],
  "bytecode": "0x60806040526002600c62000014919062000610565b600a62000022919062000472565b6001620000309190620005af565b60015568056bc75e2d631000006008553480156200004d57600080fd5b506040516200457e3803806200457e833981810160405281019062000073919062000342565b6000620000856200013b60201b60201c565b9050806000806101000a81548173ffffffffffffffffffffffffffffffffffffffff021916908373ffffffffffffffffffffffffffffffffffffffff1602179055508073ffffffffffffffffffffffffffffffffffffffff16600073ffffffffffffffffffffffffffffffffffffffff167f8be0079c531659141344cd1fd0a4f28419497f9722a3daafe3b4186f6b6457e060405160405180910390a35062000134816200014360201b60201c565b5062000769565b600033905090565b620001536200013b60201b60201c565b73ffffffffffffffffffffffffffffffffffffffff16620001796200030260201b60201c565b73ffffffffffffffffffffffffffffffffffffffff1614620001d2576040517f08c379a0000000000000000000000000000000000000000000000000000000008152600401620001c990620003e4565b60405180910390fd5b600073ffffffffffffffffffffffffffffffffffffffff168173ffffffffffffffffffffffffffffffffffffffff16141562000245576040517f08c379a00000000000000000000000000000000000000000000000000000000081526004016200023c90620003c2565b60405180910390fd5b8073ffffffffffffffffffffffffffffffffffffffff1660008054906101000a900473ffffffffffffffffffffffffffffffffffffffff1673ffffffffffffffffffffffffffffffffffffffff167f8be0079c531659141344cd1fd0a4f28419497f9722a3daafe3b4186f6b6457e060405160405180910390a3806000806101000a81548173ffffffffffffffffffffffffffffffffffffffff021916908373ffffffffffffffffffffffffffffffffffffffff16021790555050565b60008060009054906101000a900473ffffffffffffffffffffffffffffffffffffffff16905090565b6000815190506200033c816200074f565b92915050565b6000602082840312156200035b576200035a620006c5565b5b60006200036b848285016200032b565b91505092915050565b60006200038360268362000406565b91506200039082620006d7565b604082019050919050565b6000620003aa60208362000406565b9150620003b78262000726565b602082019050919050565b60006020820190508181036000830152620003dd8162000374565b9050919050565b60006020820190508181036000830152620003ff816200039b565b9050919050565b600082825260208201905092915050565b6000808291508390505b6001851115620004695780860481111562000441576200044062000696565b5b6001851615620004515780820291505b80810290506200046185620006ca565b945062000421565b94509492505050565b60006200047f826200067f565b91506200048c8362000689565b9250620004bb7fffffffffffffffffffffffffffffffffffffffffffffffffffffffffffffffff8484620004c3565b905092915050565b600082620004d55760019050620005a8565b81620004e55760009050620005a8565b8160018114620004fe576002811462000509576200053f565b6001915050620005a8565b60ff8411156200051e576200051d62000696565b5b8360020a91508482111562000538576200053762000696565b5b50620005a8565b5060208310610133831016604e8410600b8410161715620005795782820a90508381111562000573576200057262000696565b5b620005a8565b62000588848484600162000417565b92509050818404811115620005a257620005a162000696565b5b81810290505b9392505050565b6000620005bc826200067f565b9150620005c9836200067f565b9250817fffffffffffffffffffffffffffffffffffffffffffffffffffffffffffffffff048311821515161562000605576200060462000696565b5b828202905092915050565b60006200061d8262000689565b91506200062a8362000689565b92508282101562000640576200063f62000696565b5b828203905092915050565b600062000658826200065f565b9050919050565b600073ffffffffffffffffffffffffffffffffffffffff82169050919050565b6000819050919050565b600060ff82169050919050565b7f4e487b7100000000000000000000000000000000000000000000000000000000600052601160045260246000fd5b600080fd5b60008160011c9050919050565b7f4f776e61626c653a206e6577206f776e657220697320746865207a65726f206160008201527f6464726573730000000000000000000000000000000000000000000000000000602082015250565b7f4f776e61626c653a2063616c6c6572206973206e6f7420746865206f776e6572600082015250565b6200075a816200064b565b81146200076657600080fd5b50565b613e0580620007796000396000f3fe608060405234801561001057600080fd5b506004361061018e5760003560e01c80638bd0425a116100de578063b3b4bbbf11610097578063e926e9af11610071578063e926e9af14610435578063e97db3b914610465578063f2fde38b14610495578063fa713083146104b15761018e565b8063b3b4bbbf146103e1578063b76e053b146103fd578063c84621e4146104195761018e565b80638bd0425a146103355780638da5cb5b146103515780638de1e2561461036f5780639003b3441461038b57806399c91fc4146103a7578063ac9cf4db146103c55761018e565b8063571e848f1161014b5780636bf301a4116101255780636bf301a4146102bf578063715018a6146102dd57806372f94365146102e75780638705725b146103055761018e565b8063571e848f146102555780635ecd21731461027157806366234ffa146102a15761018e565b8063053050931461019357806310780bed146101af5780633b817496146101df5780634576bb5d146101fd578063481c6a7514610219578063526cee8d14610237575b600080fd5b6101ad60048036038101906101a89190612bbc565b6104e9565b005b6101c960048036038101906101c49190612c3c565b610595565b6040516101d6919061347e565b60405180910390f35b6101e761060b565b6040516101f4919061347e565b60405180910390f35b61021760048036038101906102129190612c3c565b610611565b005b6102216106ff565b60405161022e91906130f9565b60405180910390f35b61023f610725565b60405161024c91906130f9565b60405180910390f35b61026f600480360381019061026a9190612d4b565b61074b565b005b61028b60048036038101906102869190612c3c565b61100d565b604051610298919061347e565b60405180910390f35b6102a9611089565b6040516102b691906134f9565b60405180910390f35b6102c761108e565b6040516102d4919061347e565b60405180910390f35b6102e56110ab565b005b6102ef6111e5565b6040516102fc919061347e565b60405180910390f35b61031f600480360381019061031a9190612b22565b6111eb565b60405161032c9190613174565b60405180910390f35b61034f600480360381019061034a9190612c3c565b61120b565b005b6103596116f1565b60405161036691906130f9565b60405180910390f35b61038960048036038101906103849190612c69565b61171a565b005b6103a560048036038101906103a09190612b22565b6119c8565b005b6103af611b19565b6040516103bc91906130f9565b60405180910390f35b6103df60048036038101906103da9190612c69565b611b3f565b005b6103fb60048036038101906103f69190612b7c565b611e28565b005b61041760048036038101906104129190612c3c565b611eff565b005b610433600480360381019061042e9190612b22565b611f85565b005b61044f600480360381019061044a9190612c3c565b6120d6565b60405161045c919061347e565b60405180910390f35b61047f600480360381019061047a9190612ca9565b612150565b60405161048c919061347e565b60405180910390f35b6104af60048036038101906104aa9190612b22565b61245a565b005b6104cb60048036038101906104c69190612c3c565b612603565b6040516104e09998979695949392919061318f565b60405180910390f35b6104f161269e565b73ffffffffffffffffffffffffffffffffffffffff1661050f6116f1565b73ffffffffffffffffffffffffffffffffffffffff1614610565576040517f08c379a000000000000000000000000000000000000000000000000000000000815260040161055c9061333e565b60405180910390fd5b61059081838573ffffffffffffffffffffffffffffffffffffffff166126a69092919063ffffffff16565b505050565b6000816002548111156105dd576040517f08c379a00000000000000000000000000000000000000000000000000000000081526004016105d49061329e565b60405180910390fd5b600060066000858152602001908152602001600020905061060281826001015461272c565b92505050919050565b60015481565b61061961269e565b73ffffffffffffffffffffffffffffffffffffffff166106376116f1565b73ffffffffffffffffffffffffffffffffffffffff161461068d576040517f08c379a00000000000000000000000000000000000000000000000000000000081526004016106849061333e565b60405180910390fd5b6002600c61069b91906137cc565b600a6106a79190613620565b60056106b3919061373e565b8111156106f5576040517f08c379a00000000000000000000000000000000000000000000000000000000081526004016106ec9061323e565b60405180910390fd5b8060018190555050565b600560009054906101000a900473ffffffffffffffffffffffffffffffffffffffff1681565b600460009054906101000a900473ffffffffffffffffffffffffffffffffffffffff1681565b82600854811115610791576040517f08c379a00000000000000000000000000000000000000000000000000000000081526004016107889061337e565b60405180910390fd5b856002548111156107d7576040517f08c379a00000000000000000000000000000000000000000000000000000000081526004016107ce9061329e565b60405180910390fd5b60006006600089815260200190815260200160002090508060000160009054906101000a900460ff1615610840576040517f08c379a00000000000000000000000000000000000000000000000000000000081526004016108379061345e565b60405180910390fd5b86816001015410158015610858575084816004015411155b8015610868575085816005015411155b6108a7576040517f08c379a000000000000000000000000000000000000000000000000000000000815260040161089e906132de565b60405180910390fd5b600081600301541415610ad4576109053330888460080160009054906101000a900473ffffffffffffffffffffffffffffffffffffffff1673ffffffffffffffffffffffffffffffffffffffff166127c3909392919063ffffffff16565b6000600c600a6109159190613620565b6001610921919061373e565b6001548861092f919061373e565b610939919061359c565b9050610a3f600460009054906101000a900473ffffffffffffffffffffffffffffffffffffffff1673ffffffffffffffffffffffffffffffffffffffff16636352211e8b6040518263ffffffff1660e01b8152600401610999919061347e565b60206040518083038186803b1580156109b157600080fd5b505afa1580156109c5573d6000803e3d6000fd5b505050506040513d601f19601f820116820180604052508101906109e99190612b4f565b82896109f59190613798565b8460080160009054906101000a900473ffffffffffffffffffffffffffffffffffffffff1673ffffffffffffffffffffffffffffffffffffffff166126a69092919063ffffffff16565b600360009054906101000a900473ffffffffffffffffffffffffffffffffffffffff1673ffffffffffffffffffffffffffffffffffffffff166340c10f19868b6040518363ffffffff1660e01b8152600401610a9c92919061314b565b600060405180830381600087803b158015610ab657600080fd5b505af1158015610aca573d6000803e3d6000fd5b5050505050610f8c565b6000816005015487610ae69190613798565b9050806064600a8460050154610afc919061373e565b610b06919061359c565b111580610b3e5750856064600a8460040154610b22919061373e565b610b2c919061359c565b8360040154610b3b9190613546565b11155b80610b745750876064600a8460010154610b58919061373e565b610b62919061359c565b8360010154610b719190613798565b10155b610bb3576040517f08c379a0000000000000000000000000000000000000000000000000000000008152600401610baa9061325e565b60405180910390fd5b6000610bc383846001015461272c565b9050610c213330838b610bd69190613546565b8660080160009054906101000a900473ffffffffffffffffffffffffffffffffffffffff1673ffffffffffffffffffffffffffffffffffffffff166127c3909392919063ffffffff16565b6000600360009054906101000a900473ffffffffffffffffffffffffffffffffffffffff1673ffffffffffffffffffffffffffffffffffffffff16636352211e8c6040518263ffffffff1660e01b8152600401610c7e919061347e565b60206040518083038186803b158015610c9657600080fd5b505afa158015610caa573d6000803e3d6000fd5b505050506040513d601f19601f82011682018060405250810190610cce9190612b4f565b9050610d2e81856005015484610ce49190613546565b8660080160009054906101000a900473ffffffffffffffffffffffffffffffffffffffff1673ffffffffffffffffffffffffffffffffffffffff166126a69092919063ffffffff16565b600360009054906101000a900473ffffffffffffffffffffffffffffffffffffffff1673ffffffffffffffffffffffffffffffffffffffff16631097519182898e6040518463ffffffff1660e01b8152600401610d8d93929190613114565b600060405180830381600087803b158015610da757600080fd5b505af1158015610dbb573d6000803e3d6000fd5b505050506000831115610f13576000600c600a610dd89190613620565b6001610de4919061373e565b60015485610df2919061373e565b610dfc919061359c565b9050610f11600460009054906101000a900473ffffffffffffffffffffffffffffffffffffffff1673ffffffffffffffffffffffffffffffffffffffff16636352211e8e6040518263ffffffff1660e01b8152600401610e5c919061347e565b60206040518083038186803b158015610e7457600080fd5b505afa158015610e88573d6000803e3d6000fd5b505050506040513d601f19601f82011682018060405250810190610eac9190612b4f565b8287600501548d610ebd9190613798565b610ec79190613798565b8760080160009054906101000a900473ffffffffffffffffffffffffffffffffffffffff1673ffffffffffffffffffffffffffffffffffffffff166126a69092919063ffffffff16565b505b8184600201819055508073ffffffffffffffffffffffffffffffffffffffff163373ffffffffffffffffffffffffffffffffffffffff168c7f4426c7953fce0ff3ee8d5ae131fe344a6368710c93a44ea34eff98a0a2eb823a858860050154604051610f80929190613499565b60405180910390a45050505b8681600101819055504281600301819055508481600401819055508581600501819055503373ffffffffffffffffffffffffffffffffffffffff16887f196faa84e8e25ea2d752848d95baeaad64525fc89c6b17b07d8cdaf9d402c3e8898989604051610ffb939291906134c2565b60405180910390a35050505050505050565b600081600254811115611055576040517f08c379a000000000000000000000000000000000000000000000000000000000815260040161104c9061329e565b60405180910390fd5b6000600660008581526020019081526020016000209050806003015481600401546110809190613546565b92505050919050565b600c81565b600c600a61109c9190613620565b60016110a8919061373e565b81565b6110b361269e565b73ffffffffffffffffffffffffffffffffffffffff166110d16116f1565b73ffffffffffffffffffffffffffffffffffffffff1614611127576040517f08c379a000000000000000000000000000000000000000000000000000000000815260040161111e9061333e565b60405180910390fd5b600073ffffffffffffffffffffffffffffffffffffffff1660008054906101000a900473ffffffffffffffffffffffffffffffffffffffff1673ffffffffffffffffffffffffffffffffffffffff167f8be0079c531659141344cd1fd0a4f28419497f9722a3daafe3b4186f6b6457e060405160405180910390a360008060006101000a81548173ffffffffffffffffffffffffffffffffffffffff021916908373ffffffffffffffffffffffffffffffffffffffff160217905550565b60085481565b60076020528060005260406000206000915054906101000a900460ff1681565b80600254811115611251576040517f08c379a00000000000000000000000000000000000000000000000000000000081526004016112489061329e565b60405180910390fd5b3373ffffffffffffffffffffffffffffffffffffffff16600460009054906101000a900473ffffffffffffffffffffffffffffffffffffffff1673ffffffffffffffffffffffffffffffffffffffff16636352211e846040518263ffffffff1660e01b81526004016112c3919061347e565b60206040518083038186803b1580156112db57600080fd5b505afa1580156112ef573d6000803e3d6000fd5b505050506040513d601f19601f820116820180604052508101906113139190612b4f565b73ffffffffffffffffffffffffffffffffffffffff1614611369576040517f08c379a00000000000000000000000000000000000000000000000000000000081526004016113609061335e565b60405180910390fd5b60006006600084815260200190815260200160002090508060000160009054906101000a900460ff16156113d2576040517f08c379a00000000000000000000000000000000000000000000000000000000081526004016113c99061345e565b60405180910390fd5b60006113e282836001015461272c565b90506000600360009054906101000a900473ffffffffffffffffffffffffffffffffffffffff1673ffffffffffffffffffffffffffffffffffffffff16636352211e866040518263ffffffff1660e01b8152600401611441919061347e565b60206040518083038186803b15801561145957600080fd5b505afa15801561146d573d6000803e3d6000fd5b505050506040513d601f19601f820116820180604052508101906114919190612b4f565b905060018360000160006101000a81548160ff02191690831515021790555061151033828560050154856114c59190613546565b8660080160009054906101000a900473ffffffffffffffffffffffffffffffffffffffff1673ffffffffffffffffffffffffffffffffffffffff166127c3909392919063ffffffff16565b8260070160009054906101000a900473ffffffffffffffffffffffffffffffffffffffff1673ffffffffffffffffffffffffffffffffffffffff166323b872dd30600460009054906101000a900473ffffffffffffffffffffffffffffffffffffffff1673ffffffffffffffffffffffffffffffffffffffff16636352211e896040518263ffffffff1660e01b81526004016115ac919061347e565b60206040518083038186803b1580156115c457600080fd5b505afa1580156115d8573d6000803e3d6000fd5b505050506040513d601f19601f820116820180604052508101906115fc9190612b4f565b86600601546040518463ffffffff1660e01b815260040161161f93929190613114565b600060405180830381600087803b15801561163957600080fd5b505af115801561164d573d6000803e3d6000fd5b505050508073ffffffffffffffffffffffffffffffffffffffff163373ffffffffffffffffffffffffffffffffffffffff16867f9181b2981704b7cf4448130f29cb5da1f41e0418d000e7f8880000b09bcbea458587600501546040516116b5929190613499565b60405180910390a4847fbf67515a38ee520223d32c1266d52101c30d936ed1f3e436c8caeb0a43cb06bf60405160405180910390a25050505050565b60008060009054906101000a900473ffffffffffffffffffffffffffffffffffffffff16905090565b3373ffffffffffffffffffffffffffffffffffffffff16600460009054906101000a900473ffffffffffffffffffffffffffffffffffffffff1673ffffffffffffffffffffffffffffffffffffffff16636352211e846040518263ffffffff1660e01b815260040161178c919061347e565b60206040518083038186803b1580156117a457600080fd5b505afa1580156117b8573d6000803e3d6000fd5b505050506040513d601f19601f820116820180604052508101906117dc9190612b4f565b73ffffffffffffffffffffffffffffffffffffffff1614611832576040517f08c379a00000000000000000000000000000000000000000000000000000000081526004016118299061331e565b60405180910390fd5b60006006600084815260200190815260200160002090508060000160009054906101000a900460ff161561189b576040517f08c379a00000000000000000000000000000000000000000000000000000000081526004016118929061345e565b60405180910390fd5b60008160030154146118e2576040517f08c379a00000000000000000000000000000000000000000000000000000000081526004016118d9906133fe565b60405180910390fd5b60018160000160006101000a81548160ff0219169083151502179055508060070160009054906101000a900473ffffffffffffffffffffffffffffffffffffffff1673ffffffffffffffffffffffffffffffffffffffff166323b872dd308484600601546040518463ffffffff1660e01b815260040161196493929190613114565b600060405180830381600087803b15801561197e57600080fd5b505af1158015611992573d6000803e3d6000fd5b50505050827fbf67515a38ee520223d32c1266d52101c30d936ed1f3e436c8caeb0a43cb06bf60405160405180910390a2505050565b6119d061269e565b73ffffffffffffffffffffffffffffffffffffffff166119ee6116f1565b73ffffffffffffffffffffffffffffffffffffffff1614611a44576040517f08c379a0000000000000000000000000000000000000000000000000000000008152600401611a3b9061333e565b60405180910390fd5b600073ffffffffffffffffffffffffffffffffffffffff16600360009054906101000a900473ffffffffffffffffffffffffffffffffffffffff1673ffffffffffffffffffffffffffffffffffffffff1614611ad5576040517f08c379a0000000000000000000000000000000000000000000000000000000008152600401611acc906133de565b60405180910390fd5b80600360006101000a81548173ffffffffffffffffffffffffffffffffffffffff021916908373ffffffffffffffffffffffffffffffffffffffff16021790555050565b600360009054906101000a900473ffffffffffffffffffffffffffffffffffffffff1681565b3373ffffffffffffffffffffffffffffffffffffffff16600360009054906101000a900473ffffffffffffffffffffffffffffffffffffffff1673ffffffffffffffffffffffffffffffffffffffff16636352211e846040518263ffffffff1660e01b8152600401611bb1919061347e565b60206040518083038186803b158015611bc957600080fd5b505afa158015611bdd573d6000803e3d6000fd5b505050506040513d601f19601f82011682018060405250810190611c019190612b4f565b73ffffffffffffffffffffffffffffffffffffffff1614611c57576040517f08c379a0000000000000000000000000000000000000000000000000000000008152600401611c4e9061343e565b60405180910390fd5b60006006600084815260200190815260200160002090508060000160009054906101000a900460ff1615611cc0576040517f08c379a0000000000000000000000000000000000000000000000000000000008152600401611cb79061345e565b60405180910390fd5b80600301548160040154611cd49190613546565b4211611d15576040517f08c379a0000000000000000000000000000000000000000000000000000000008152600401611d0c906133be565b60405180910390fd5b60018160000160006101000a81548160ff0219169083151502179055508060070160009054906101000a900473ffffffffffffffffffffffffffffffffffffffff1673ffffffffffffffffffffffffffffffffffffffff166323b872dd308484600601546040518463ffffffff1660e01b8152600401611d9793929190613114565b600060405180830381600087803b158015611db157600080fd5b505af1158015611dc5573d6000803e3d6000fd5b50505050827f19f0d220035b967365e70d19ca7093af2e75a9741c08ef27c5017d6f463febd960405160405180910390a2827fbf67515a38ee520223d32c1266d52101c30d936ed1f3e436c8caeb0a43cb06bf60405160405180910390a2505050565b611e3061269e565b73ffffffffffffffffffffffffffffffffffffffff16611e4e6116f1565b73ffffffffffffffffffffffffffffffffffffffff1614611ea4576040517f08c379a0000000000000000000000000000000000000000000000000000000008152600401611e9b9061333e565b60405180910390fd5b80600760008473ffffffffffffffffffffffffffffffffffffffff1673ffffffffffffffffffffffffffffffffffffffff16815260200190815260200160002060006101000a81548160ff0219169083151502179055505050565b611f0761269e565b73ffffffffffffffffffffffffffffffffffffffff16611f256116f1565b73ffffffffffffffffffffffffffffffffffffffff1614611f7b576040517f08c379a0000000000000000000000000000000000000000000000000000000008152600401611f729061333e565b60405180910390fd5b8060088190555050565b611f8d61269e565b73ffffffffffffffffffffffffffffffffffffffff16611fab6116f1565b73ffffffffffffffffffffffffffffffffffffffff1614612001576040517f08c379a0000000000000000000000000000000000000000000000000000000008152600401611ff89061333e565b60405180910390fd5b600073ffffffffffffffffffffffffffffffffffffffff16600460009054906101000a900473ffffffffffffffffffffffffffffffffffffffff1673ffffffffffffffffffffffffffffffffffffffff1614612092576040517f08c379a0000000000000000000000000000000000000000000000000000000008152600401612089906133de565b60405180910390fd5b80600460006101000a81548173ffffffffffffffffffffffffffffffffffffffff021916908373ffffffffffffffffffffffffffffffffffffffff16021790555050565b60008160025481111561211e576040517f08c379a00000000000000000000000000000000000000000000000000000000081526004016121159061329e565b60405180910390fd5b61212783610595565b60066000858152602001908152602001600020600501546121489190613546565b915050919050565b600084600854811115612198576040517f08c379a000000000000000000000000000000000000000000000000000000000815260040161218f9061337e565b60405180910390fd5b600760008673ffffffffffffffffffffffffffffffffffffffff1673ffffffffffffffffffffffffffffffffffffffff16815260200190815260200160002060009054906101000a900460ff16612224576040517f08c379a000000000000000000000000000000000000000000000000000000000815260040161221b906132be565b60405180910390fd5b60026000815461223390613888565b91905081905591506000600660008481526020019081526020016000209050858160080160006101000a81548173ffffffffffffffffffffffffffffffffffffffff021916908373ffffffffffffffffffffffffffffffffffffffff160217905550868160050181905550898160060181905550888160070160006101000a81548173ffffffffffffffffffffffffffffffffffffffff021916908373ffffffffffffffffffffffffffffffffffffffff1602179055508781600101819055508481600401819055508873ffffffffffffffffffffffffffffffffffffffff166323b872dd33308d6040518463ffffffff1660e01b815260040161233993929190613114565b600060405180830381600087803b15801561235357600080fd5b505af1158015612367573d6000803e3d6000fd5b50505050600460009054906101000a900473ffffffffffffffffffffffffffffffffffffffff1673ffffffffffffffffffffffffffffffffffffffff166340c10f1985856040518363ffffffff1660e01b81526004016123c892919061314b565b600060405180830381600087803b1580156123e257600080fd5b505af11580156123f6573d6000803e3d6000fd5b505050503373ffffffffffffffffffffffffffffffffffffffff16837f228f8b980a28a25ce5d33d72031d4cfa8a0e5ff4af990fa47f75eb6f4beb6a8f8a8a89604051612445939291906134c2565b60405180910390a35050979650505050505050565b61246261269e565b73ffffffffffffffffffffffffffffffffffffffff166124806116f1565b73ffffffffffffffffffffffffffffffffffffffff16146124d6576040517f08c379a00000000000000000000000000000000000000000000000000000000081526004016124cd9061333e565b60405180910390fd5b600073ffffffffffffffffffffffffffffffffffffffff168173ffffffffffffffffffffffffffffffffffffffff161415612546576040517f08c379a000000000000000000000000000000000000000000000000000000000815260040161253d9061327e565b60405180910390fd5b8073ffffffffffffffffffffffffffffffffffffffff1660008054906101000a900473ffffffffffffffffffffffffffffffffffffffff1673ffffffffffffffffffffffffffffffffffffffff167f8be0079c531659141344cd1fd0a4f28419497f9722a3daafe3b4186f6b6457e060405160405180910390a3806000806101000a81548173ffffffffffffffffffffffffffffffffffffffff021916908373ffffffffffffffffffffffffffffffffffffffff16021790555050565b60066020528060005260406000206000915090508060000160009054906101000a900460ff16908060010154908060020154908060030154908060040154908060050154908060060154908060070160009054906101000a900473ffffffffffffffffffffffffffffffffffffffff16908060080160009054906101000a900473ffffffffffffffffffffffffffffffffffffffff16905089565b600033905090565b6127278363a9059cbb60e01b84846040516024016126c592919061314b565b604051602081830303815290604052907bffffffffffffffffffffffffffffffffffffffffffffffffffffffff19166020820180517bffffffffffffffffffffffffffffffffffffffffffffffffffffffff838183161783525050505061284c565b505050565b60008260000160009054906101000a900460ff168061274f575060008360030154145b1561275d57600090506127bd565b8260020154600c600a6127709190613620565b600161277c919061373e565b8385600301544261278d9190613798565b866005015461279c919061373e565b6127a6919061373e565b6127b0919061359c565b6127ba9190613546565b90505b92915050565b612846846323b872dd60e01b8585856040516024016127e493929190613114565b604051602081830303815290604052907bffffffffffffffffffffffffffffffffffffffffffffffffffffffff19166020820180517bffffffffffffffffffffffffffffffffffffffffffffffffffffffff838183161783525050505061284c565b50505050565b60006128ae826040518060400160405280602081526020017f5361666545524332303a206c6f772d6c6576656c2063616c6c206661696c65648152508573ffffffffffffffffffffffffffffffffffffffff166129139092919063ffffffff16565b905060008151111561290e57808060200190518101906128ce9190612c0f565b61290d576040517f08c379a00000000000000000000000000000000000000000000000000000000081526004016129049061341e565b60405180910390fd5b5b505050565b6060612922848460008561292b565b90509392505050565b606082471015612970576040517f08c379a0000000000000000000000000000000000000000000000000000000008152600401612967906132fe565b60405180910390fd5b61297985612a3f565b6129b8576040517f08c379a00000000000000000000000000000000000000000000000000000000081526004016129af9061339e565b60405180910390fd5b6000808673ffffffffffffffffffffffffffffffffffffffff1685876040516129e191906130e2565b60006040518083038185875af1925050503d8060008114612a1e576040519150601f19603f3d011682016040523d82523d6000602084013e612a23565b606091505b5091509150612a33828286612a52565b92505050949350505050565b600080823b905060008111915050919050565b60608315612a6257829050612ab2565b600083511115612a755782518084602001fd5b816040517f08c379a0000000000000000000000000000000000000000000000000000000008152600401612aa9919061321c565b60405180910390fd5b9392505050565b600081359050612ac881613d8a565b92915050565b600081519050612add81613d8a565b92915050565b600081359050612af281613da1565b92915050565b600081519050612b0781613da1565b92915050565b600081359050612b1c81613db8565b92915050565b600060208284031215612b3857612b3761392f565b5b6000612b4684828501612ab9565b91505092915050565b600060208284031215612b6557612b6461392f565b5b6000612b7384828501612ace565b91505092915050565b60008060408385031215612b9357612b9261392f565b5b6000612ba185828601612ab9565b9250506020612bb285828601612ae3565b9150509250929050565b600080600060608486031215612bd557612bd461392f565b5b6000612be386828701612ab9565b9350506020612bf486828701612b0d565b9250506040612c0586828701612ab9565b9150509250925092565b600060208284031215612c2557612c2461392f565b5b6000612c3384828501612af8565b91505092915050565b600060208284031215612c5257612c5161392f565b5b6000612c6084828501612b0d565b91505092915050565b60008060408385031215612c8057612c7f61392f565b5b6000612c8e85828601612b0d565b9250506020612c9f85828601612ab9565b9150509250929050565b600080600080600080600060e0888a031215612cc857612cc761392f565b5b6000612cd68a828b01612b0d565b9750506020612ce78a828b01612ab9565b9650506040612cf88a828b01612b0d565b9550506060612d098a828b01612b0d565b9450506080612d1a8a828b01612ab9565b93505060a0612d2b8a828b01612b0d565b92505060c0612d3c8a828b01612ab9565b91505092959891949750929550565b600080600080600060a08688031215612d6757612d6661392f565b5b6000612d7588828901612b0d565b9550506020612d8688828901612b0d565b9450506040612d9788828901612b0d565b9350506060612da888828901612b0d565b9250506080612db988828901612ab9565b9150509295509295909350565b612dcf81613800565b82525050565b612dde81613812565b82525050565b6000612def82613514565b612df9818561352a565b9350612e09818560208601613855565b80840191505092915050565b6000612e208261351f565b612e2a8185613535565b9350612e3a818560208601613855565b612e4381613934565b840191505092915050565b6000612e5b601783613535565b9150612e6682613952565b602082019050919050565b6000612e7e603e83613535565b9150612e898261397b565b604082019050919050565b6000612ea1602683613535565b9150612eac826139ca565b604082019050919050565b6000612ec4602783613535565b9150612ecf82613a19565b604082019050919050565b6000612ee7601683613535565b9150612ef282613a68565b602082019050919050565b6000612f0a602a83613535565b9150612f1582613a91565b604082019050919050565b6000612f2d602683613535565b9150612f3882613ae0565b604082019050919050565b6000612f50602983613535565b9150612f5b82613b2f565b604082019050919050565b6000612f73602083613535565b9150612f7e82613b7e565b602082019050919050565b6000612f96601f83613535565b9150612fa182613ba7565b602082019050919050565b6000612fb9602183613535565b9150612fc482613bd0565b604082019050919050565b6000612fdc601d83613535565b9150612fe782613c1f565b602082019050919050565b6000612fff602083613535565b915061300a82613c48565b602082019050919050565b6000613022601883613535565b915061302d82613c71565b602082019050919050565b6000613045602e83613535565b915061305082613c9a565b604082019050919050565b6000613068602a83613535565b915061307382613ce9565b604082019050919050565b600061308b601d83613535565b915061309682613d38565b602082019050919050565b60006130ae601a83613535565b91506130b982613d61565b602082019050919050565b6130cd8161383e565b82525050565b6130dc81613848565b82525050565b60006130ee8284612de4565b915081905092915050565b600060208201905061310e6000830184612dc6565b92915050565b60006060820190506131296000830186612dc6565b6131366020830185612dc6565b61314360408301846130c4565b949350505050565b60006040820190506131606000830185612dc6565b61316d60208301846130c4565b9392505050565b60006020820190506131896000830184612dd5565b92915050565b6000610120820190506131a5600083018c612dd5565b6131b2602083018b6130c4565b6131bf604083018a6130c4565b6131cc60608301896130c4565b6131d960808301886130c4565b6131e660a08301876130c4565b6131f360c08301866130c4565b61320060e0830185612dc6565b61320e610100830184612dc6565b9a9950505050505050505050565b600060208201905081810360008301526132368184612e15565b905092915050565b6000602082019050818103600083015261325781612e4e565b9050919050565b6000602082019050818103600083015261327781612e71565b9050919050565b6000602082019050818103600083015261329781612e94565b9050919050565b600060208201905081810360008301526132b781612eb7565b9050919050565b600060208201905081810360008301526132d781612eda565b9050919050565b600060208201905081810360008301526132f781612efd565b9050919050565b6000602082019050818103600083015261331781612f20565b9050919050565b6000602082019050818103600083015261333781612f43565b9050919050565b6000602082019050818103600083015261335781612f66565b9050919050565b6000602082019050818103600083015261337781612f89565b9050919050565b6000602082019050818103600083015261339781612fac565b9050919050565b600060208201905081810360008301526133b781612fcf565b9050919050565b600060208201905081810360008301526133d781612ff2565b9050919050565b600060208201905081810360008301526133f781613015565b9050919050565b6000602082019050818103600083015261341781613038565b9050919050565b600060208201905081810360008301526134378161305b565b9050919050565b600060208201905081810360008301526134578161307e565b9050919050565b60006020820190508181036000830152613477816130a1565b9050919050565b600060208201905061349360008301846130c4565b92915050565b60006040820190506134ae60008301856130c4565b6134bb60208301846130c4565b9392505050565b60006060820190506134d760008301866130c4565b6134e460208301856130c4565b6134f160408301846130c4565b949350505050565b600060208201905061350e60008301846130d3565b92915050565b600081519050919050565b600081519050919050565b600081905092915050565b600082825260208201905092915050565b60006135518261383e565b915061355c8361383e565b9250827fffffffffffffffffffffffffffffffffffffffffffffffffffffffffffffffff03821115613591576135906138d1565b5b828201905092915050565b60006135a78261383e565b91506135b28361383e565b9250826135c2576135c1613900565b5b828204905092915050565b6000808291508390505b6001851115613617578086048111156135f3576135f26138d1565b5b60018516156136025780820291505b808102905061361085613945565b94506135d7565b94509492505050565b600061362b8261383e565b915061363683613848565b92506136637fffffffffffffffffffffffffffffffffffffffffffffffffffffffffffffffff848461366b565b905092915050565b60008261367b5760019050613737565b816136895760009050613737565b816001811461369f57600281146136a9576136d8565b6001915050613737565b60ff8411156136bb576136ba6138d1565b5b8360020a9150848211156136d2576136d16138d1565b5b50613737565b5060208310610133831016604e8410600b841016171561370d5782820a905083811115613708576137076138d1565b5b613737565b61371a84848460016135cd565b92509050818404811115613731576137306138d1565b5b81810290505b9392505050565b60006137498261383e565b91506137548361383e565b9250817fffffffffffffffffffffffffffffffffffffffffffffffffffffffffffffffff048311821515161561378d5761378c6138d1565b5b828202905092915050565b60006137a38261383e565b91506137ae8361383e565b9250828210156137c1576137c06138d1565b5b828203905092915050565b60006137d782613848565b91506137e283613848565b9250828210156137f5576137f46138d1565b5b828203905092915050565b600061380b8261381e565b9050919050565b60008115159050919050565b600073ffffffffffffffffffffffffffffffffffffffff82169050919050565b6000819050919050565b600060ff82169050919050565b60005b83811015613873578082015181840152602081019050613858565b83811115613882576000848401525b50505050565b60006138938261383e565b91507fffffffffffffffffffffffffffffffffffffffffffffffffffffffffffffffff8214156138c6576138c56138d1565b5b600182019050919050565b7f4e487b7100000000000000000000000000000000000000000000000000000000600052601160045260246000fd5b7f4e487b7100000000000000000000000000000000000000000000000000000000600052601260045260246000fd5b600080fd5b6000601f19601f8301169050919050565b60008160011c9050919050565b7f4e46545061776e53686f703a206d617820666565203525000000000000000000600082015250565b7f4e46545061776e53686f703a2070726f706f736564207465726d73206d75737460008201527f20626520626574746572207468616e206578697374696e67207465726d730000602082015250565b7f4f776e61626c653a206e6577206f776e657220697320746865207a65726f206160008201527f6464726573730000000000000000000000000000000000000000000000000000602082015250565b7f4e46545061776e53686f703a207061776e207469636b657420646f6573206e6f60008201527f7420657869737400000000000000000000000000000000000000000000000000602082015250565b7f6c6f616e206173736574206e6f7420616c6c6f77656400000000000000000000600082015250565b7f4e46545061776e53686f703a2050726f706f736564207465726d7320646f206e60008201527f6f74207175616c69667900000000000000000000000000000000000000000000602082015250565b7f416464726573733a20696e73756666696369656e742062616c616e636520666f60008201527f722063616c6c0000000000000000000000000000000000000000000000000000602082015250565b7f4e46545061776e53686f703a206d757374206265206f776e6572206f6620706160008201527f776e6564206974656d0000000000000000000000000000000000000000000000602082015250565b7f4f776e61626c653a2063616c6c6572206973206e6f7420746865206f776e6572600082015250565b7f4e46545061776e53686f703a207469636b657420686f6c646572206f6e6c7900600082015250565b7f4e46545061776e53686f703a206c6f616e20616d6f756e7420746f6f2068696760008201527f6800000000000000000000000000000000000000000000000000000000000000602082015250565b7f416464726573733a2063616c6c20746f206e6f6e2d636f6e7472616374000000600082015250565b7f4e46545061776e53686f703a207061796d656e74206973206e6f74206c617465600082015250565b7f4e46545061776e53686f703a20616c7265616479207365740000000000000000600082015250565b7f4e46545061776e53686f703a20686173206c6f616e2c2075736520726570617960008201527f416e64436c6f73655469636b6574000000000000000000000000000000000000602082015250565b7f5361666545524332303a204552433230206f7065726174696f6e20646964206e60008201527f6f74207375636365656400000000000000000000000000000000000000000000602082015250565b7f4e46545061776e53686f703a20756e646572777269746572206f6e6c79000000600082015250565b7f4e46545061776e53686f703a207469636b657420636c6f736564000000000000600082015250565b613d9381613800565b8114613d9e57600080fd5b50565b613daa81613812565b8114613db557600080fd5b50565b613dc18161383e565b8114613dcc57600080fd5b5056fea2646970667358221220a2326c5929c85d9ee9a017b655133a29e17dbeaee20338c0c688067bfb36039c64736f6c63430008060033",
  "linkReferences": {},
  "deployedLinkReferences": {}
}