{
  "_format": "hh-sol-artifact-1",
  "contractName": "NFTPawnShop",
  "sourceName": "contracts/PawnShop.sol",
  "abi": [
    {
      "inputs": [
        {
          "internalType": "address",
          "name": "_manager",
          "type": "address"
        }
      ],
      "stateMutability": "nonpayable",
      "type": "constructor"
    },
    {
      "anonymous": false,
      "inputs": [
        {
          "indexed": true,
          "internalType": "uint256",
          "name": "id",
          "type": "uint256"
        },
        {
          "indexed": true,
          "internalType": "address",
          "name": "underwriter",
          "type": "address"
        },
        {
          "indexed": true,
          "internalType": "address",
          "name": "replacedLoanOwner",
          "type": "address"
        },
        {
          "indexed": false,
          "internalType": "uint256",
          "name": "interestEarned",
          "type": "uint256"
        },
        {
          "indexed": false,
          "internalType": "uint256",
          "name": "replacedAmount",
          "type": "uint256"
        }
      ],
      "name": "BuyoutUnderwriter",
      "type": "event"
    },
    {
      "anonymous": false,
      "inputs": [
        {
          "indexed": true,
          "internalType": "uint256",
          "name": "id",
          "type": "uint256"
        }
      ],
      "name": "Close",
      "type": "event"
    },
    {
      "anonymous": false,
      "inputs": [
        {
          "indexed": true,
          "internalType": "uint256",
          "name": "id",
          "type": "uint256"
        },
        {
          "indexed": true,
          "internalType": "address",
          "name": "minter",
          "type": "address"
        },
        {
          "indexed": false,
          "internalType": "uint256",
          "name": "collateralTokenId",
          "type": "uint256"
        },
        {
          "indexed": false,
          "internalType": "address",
          "name": "collateralContract",
          "type": "address"
        },
        {
          "indexed": false,
          "internalType": "uint256",
          "name": "maxInterestRate",
          "type": "uint256"
        },
        {
          "indexed": false,
          "internalType": "address",
          "name": "loanAssetContract",
          "type": "address"
        },
        {
          "indexed": false,
          "internalType": "uint256",
          "name": "minLoanAmount",
          "type": "uint256"
        },
        {
          "indexed": false,
          "internalType": "uint256",
          "name": "minDurationSeconds",
          "type": "uint256"
        }
      ],
      "name": "MintTicket",
      "type": "event"
    },
    {
      "anonymous": false,
      "inputs": [
        {
          "indexed": true,
          "internalType": "address",
          "name": "previousOwner",
          "type": "address"
        },
        {
          "indexed": true,
          "internalType": "address",
          "name": "newOwner",
          "type": "address"
        }
      ],
      "name": "OwnershipTransferred",
      "type": "event"
    },
    {
      "anonymous": false,
      "inputs": [
        {
          "indexed": true,
          "internalType": "uint256",
          "name": "id",
          "type": "uint256"
        },
        {
          "indexed": true,
          "internalType": "address",
          "name": "repayer",
          "type": "address"
        },
        {
          "indexed": true,
          "internalType": "address",
          "name": "loanOwner",
          "type": "address"
        },
        {
          "indexed": false,
          "internalType": "uint256",
          "name": "interestEarned",
          "type": "uint256"
        },
        {
          "indexed": false,
          "internalType": "uint256",
          "name": "loanAmount",
          "type": "uint256"
        }
      ],
      "name": "Repay",
      "type": "event"
    },
    {
      "anonymous": false,
      "inputs": [
        {
          "indexed": true,
          "internalType": "uint256",
          "name": "id",
          "type": "uint256"
        }
      ],
      "name": "SeizeCollateral",
      "type": "event"
    },
    {
      "anonymous": false,
      "inputs": [
        {
          "indexed": true,
          "internalType": "uint256",
          "name": "id",
          "type": "uint256"
        },
        {
          "indexed": true,
          "internalType": "address",
          "name": "underwriter",
          "type": "address"
        },
        {
          "indexed": false,
          "internalType": "uint256",
          "name": "interestRate",
          "type": "uint256"
        },
        {
          "indexed": false,
          "internalType": "uint256",
          "name": "loanAmount",
          "type": "uint256"
        },
        {
          "indexed": false,
          "internalType": "uint256",
          "name": "durationSeconds",
          "type": "uint256"
        }
      ],
      "name": "UnderwriteLoan",
      "type": "event"
    },
    {
      "inputs": [],
      "name": "INTEREST_RATE_DECIMALS",
      "outputs": [
        {
          "internalType": "uint8",
          "name": "",
          "type": "uint8"
        }
      ],
      "stateMutability": "view",
      "type": "function"
    },
    {
      "inputs": [],
      "name": "SCALAR",
      "outputs": [
        {
          "internalType": "uint256",
          "name": "",
          "type": "uint256"
        }
      ],
      "stateMutability": "view",
      "type": "function"
    },
    {
      "inputs": [
        {
          "internalType": "uint256",
          "name": "pawnTicketID",
          "type": "uint256"
        },
        {
          "internalType": "address",
          "name": "sendCollateralTo",
          "type": "address"
        }
      ],
      "name": "closeTicket",
      "outputs": [],
      "stateMutability": "nonpayable",
      "type": "function"
    },
    {
      "inputs": [
        {
          "internalType": "uint256",
          "name": "pawnTicketID",
          "type": "uint256"
        }
      ],
      "name": "interestOwed",
      "outputs": [
        {
          "internalType": "uint256",
          "name": "",
          "type": "uint256"
        }
      ],
      "stateMutability": "view",
      "type": "function"
    },
    {
      "inputs": [
        {
          "internalType": "address",
          "name": "asset",
          "type": "address"
        },
        {
          "internalType": "uint256",
          "name": "loanAmount",
          "type": "uint256"
        }
      ],
      "name": "isAmountAllowed",
      "outputs": [
        {
          "internalType": "bool",
          "name": "",
          "type": "bool"
        }
      ],
      "stateMutability": "nonpayable",
      "type": "function"
    },
    {
      "inputs": [
        {
          "internalType": "address",
          "name": "",
          "type": "address"
        }
      ],
      "name": "loanAssetMaxAmount",
      "outputs": [
        {
          "internalType": "uint256",
          "name": "",
          "type": "uint256"
        }
      ],
      "stateMutability": "view",
      "type": "function"
    },
    {
      "inputs": [
        {
          "internalType": "uint256",
          "name": "pawnTicketID",
          "type": "uint256"
        }
      ],
      "name": "loanEndSeconds",
      "outputs": [
        {
          "internalType": "uint256",
          "name": "",
          "type": "uint256"
        }
      ],
      "stateMutability": "view",
      "type": "function"
    },
    {
      "inputs": [],
      "name": "loansContract",
      "outputs": [
        {
          "internalType": "address",
          "name": "",
          "type": "address"
        }
      ],
      "stateMutability": "view",
      "type": "function"
    },
    {
      "inputs": [],
      "name": "manager",
      "outputs": [
        {
          "internalType": "address",
          "name": "",
          "type": "address"
        }
      ],
      "stateMutability": "view",
      "type": "function"
    },
    {
      "inputs": [
        {
          "internalType": "uint256",
          "name": "nftID",
          "type": "uint256"
        },
        {
          "internalType": "address",
          "name": "nftAddress",
          "type": "address"
        },
        {
          "internalType": "uint256",
          "name": "maxInterest",
          "type": "uint256"
        },
        {
          "internalType": "uint256",
          "name": "minAmount",
          "type": "uint256"
        },
        {
          "internalType": "address",
          "name": "loanAsset",
          "type": "address"
        },
        {
          "internalType": "uint256",
          "name": "minDurationSeconds",
          "type": "uint256"
        },
        {
          "internalType": "address",
          "name": "mintTo",
          "type": "address"
        }
      ],
      "name": "mintPawnTicket",
      "outputs": [
        {
          "internalType": "uint256",
          "name": "id",
          "type": "uint256"
        }
      ],
      "stateMutability": "nonpayable",
      "type": "function"
    },
    {
      "inputs": [],
      "name": "originationFeeRate",
      "outputs": [
        {
          "internalType": "uint256",
          "name": "",
          "type": "uint256"
        }
      ],
      "stateMutability": "view",
      "type": "function"
    },
    {
      "inputs": [],
      "name": "owner",
      "outputs": [
        {
          "internalType": "address",
          "name": "",
          "type": "address"
        }
      ],
      "stateMutability": "view",
      "type": "function"
    },
    {
      "inputs": [],
      "name": "renounceOwnership",
      "outputs": [],
      "stateMutability": "nonpayable",
      "type": "function"
    },
    {
      "inputs": [
        {
          "internalType": "uint256",
          "name": "pawnTicketID",
          "type": "uint256"
        }
      ],
      "name": "repayAndCloseTicket",
      "outputs": [],
      "stateMutability": "nonpayable",
      "type": "function"
    },
    {
      "inputs": [
        {
          "internalType": "uint256",
          "name": "pawnTicketID",
          "type": "uint256"
        },
        {
          "internalType": "address",
          "name": "to",
          "type": "address"
        }
      ],
      "name": "seizeCollateral",
      "outputs": [],
      "stateMutability": "nonpayable",
      "type": "function"
    },
    {
      "inputs": [
        {
          "internalType": "address",
          "name": "asset",
          "type": "address"
        },
        {
          "internalType": "uint256",
          "name": "amount",
          "type": "uint256"
        }
      ],
      "name": "setLoanAssetMaxAmount",
      "outputs": [],
      "stateMutability": "nonpayable",
      "type": "function"
    },
    {
      "inputs": [
        {
          "internalType": "address",
          "name": "_contract",
          "type": "address"
        }
      ],
      "name": "setPawnLoansContract",
      "outputs": [],
      "stateMutability": "nonpayable",
      "type": "function"
    },
    {
      "inputs": [
        {
          "internalType": "address",
          "name": "_contract",
          "type": "address"
        }
      ],
      "name": "setPawnTicketsContract",
      "outputs": [],
      "stateMutability": "nonpayable",
      "type": "function"
    },
    {
      "inputs": [
        {
          "internalType": "uint256",
          "name": "",
          "type": "uint256"
        }
      ],
      "name": "ticketInfo",
      "outputs": [
        {
          "internalType": "bool",
          "name": "closed",
          "type": "bool"
        },
        {
          "internalType": "uint256",
          "name": "perAnumInterestRate",
          "type": "uint256"
        },
        {
          "internalType": "uint256",
          "name": "accumulatedInterest",
          "type": "uint256"
        },
        {
          "internalType": "uint256",
          "name": "lastAccumulatedTimestamp",
          "type": "uint256"
        },
        {
          "internalType": "uint256",
          "name": "durationSeconds",
          "type": "uint256"
        },
        {
          "internalType": "uint256",
          "name": "loanAmount",
          "type": "uint256"
        },
        {
          "internalType": "uint256",
          "name": "collateralID",
          "type": "uint256"
        },
        {
          "internalType": "address",
          "name": "collateralAddress",
          "type": "address"
        },
        {
          "internalType": "address",
          "name": "loanAsset",
          "type": "address"
        }
      ],
      "stateMutability": "view",
      "type": "function"
    },
    {
      "inputs": [],
      "name": "ticketsContract",
      "outputs": [
        {
          "internalType": "address",
          "name": "",
          "type": "address"
        }
      ],
      "stateMutability": "view",
      "type": "function"
    },
    {
      "inputs": [
        {
          "internalType": "uint256",
          "name": "pawnTicketID",
          "type": "uint256"
        }
      ],
      "name": "totalOwed",
      "outputs": [
        {
          "internalType": "uint256",
          "name": "",
          "type": "uint256"
        }
      ],
      "stateMutability": "view",
      "type": "function"
    },
    {
      "inputs": [
        {
          "internalType": "address",
          "name": "newOwner",
          "type": "address"
        }
      ],
      "name": "transferOwnership",
      "outputs": [],
      "stateMutability": "nonpayable",
      "type": "function"
    },
    {
      "inputs": [
        {
          "internalType": "uint256",
          "name": "pawnTicketID",
          "type": "uint256"
        },
        {
          "internalType": "uint256",
          "name": "interestRate",
          "type": "uint256"
        },
        {
          "internalType": "uint256",
          "name": "amount",
          "type": "uint256"
        },
        {
          "internalType": "uint256",
          "name": "durationSeconds",
          "type": "uint256"
        },
        {
          "internalType": "address",
          "name": "sendLoanTo",
          "type": "address"
        }
      ],
      "name": "underwritePawnLoan",
      "outputs": [],
      "stateMutability": "nonpayable",
      "type": "function"
    },
    {
      "inputs": [
        {
          "internalType": "uint256",
          "name": "_originationFeeRate",
          "type": "uint256"
        }
      ],
      "name": "updateOriginationFeeRate",
      "outputs": [],
      "stateMutability": "nonpayable",
      "type": "function"
    },
    {
      "inputs": [
        {
          "internalType": "address",
          "name": "asset",
          "type": "address"
        },
        {
          "internalType": "uint256",
          "name": "amount",
          "type": "uint256"
        },
        {
          "internalType": "address",
          "name": "to",
          "type": "address"
        }
      ],
      "name": "withdrawFromCashDrawer",
      "outputs": [],
      "stateMutability": "nonpayable",
      "type": "function"
    }
  ],
  "bytecode": "0x60806040526002600c62000014919062000603565b600a62000022919062000465565b6001620000309190620005a2565b6001553480156200004057600080fd5b50604051620043dd380380620043dd833981810160405281019062000066919062000335565b6000620000786200012e60201b60201c565b9050806000806101000a81548173ffffffffffffffffffffffffffffffffffffffff021916908373ffffffffffffffffffffffffffffffffffffffff1602179055508073ffffffffffffffffffffffffffffffffffffffff16600073ffffffffffffffffffffffffffffffffffffffff167f8be0079c531659141344cd1fd0a4f28419497f9722a3daafe3b4186f6b6457e060405160405180910390a35062000127816200013660201b60201c565b506200075c565b600033905090565b620001466200012e60201b60201c565b73ffffffffffffffffffffffffffffffffffffffff166200016c620002f560201b60201c565b73ffffffffffffffffffffffffffffffffffffffff1614620001c5576040517f08c379a0000000000000000000000000000000000000000000000000000000008152600401620001bc90620003d7565b60405180910390fd5b600073ffffffffffffffffffffffffffffffffffffffff168173ffffffffffffffffffffffffffffffffffffffff16141562000238576040517f08c379a00000000000000000000000000000000000000000000000000000000081526004016200022f90620003b5565b60405180910390fd5b8073ffffffffffffffffffffffffffffffffffffffff1660008054906101000a900473ffffffffffffffffffffffffffffffffffffffff1673ffffffffffffffffffffffffffffffffffffffff167f8be0079c531659141344cd1fd0a4f28419497f9722a3daafe3b4186f6b6457e060405160405180910390a3806000806101000a81548173ffffffffffffffffffffffffffffffffffffffff021916908373ffffffffffffffffffffffffffffffffffffffff16021790555050565b60008060009054906101000a900473ffffffffffffffffffffffffffffffffffffffff16905090565b6000815190506200032f8162000742565b92915050565b6000602082840312156200034e576200034d620006b8565b5b60006200035e848285016200031e565b91505092915050565b600062000376602683620003f9565b91506200038382620006ca565b604082019050919050565b60006200039d602083620003f9565b9150620003aa8262000719565b602082019050919050565b60006020820190508181036000830152620003d08162000367565b9050919050565b60006020820190508181036000830152620003f2816200038e565b9050919050565b600082825260208201905092915050565b6000808291508390505b60018511156200045c5780860481111562000434576200043362000689565b5b6001851615620004445780820291505b80810290506200045485620006bd565b945062000414565b94509492505050565b6000620004728262000672565b91506200047f836200067c565b9250620004ae7fffffffffffffffffffffffffffffffffffffffffffffffffffffffffffffffff8484620004b6565b905092915050565b600082620004c857600190506200059b565b81620004d857600090506200059b565b8160018114620004f15760028114620004fc5762000532565b60019150506200059b565b60ff84111562000511576200051062000689565b5b8360020a9150848211156200052b576200052a62000689565b5b506200059b565b5060208310610133831016604e8410600b84101617156200056c5782820a90508381111562000566576200056562000689565b5b6200059b565b6200057b84848460016200040a565b9250905081840481111562000595576200059462000689565b5b81810290505b9392505050565b6000620005af8262000672565b9150620005bc8362000672565b9250817fffffffffffffffffffffffffffffffffffffffffffffffffffffffffffffffff0483118215151615620005f857620005f762000689565b5b828202905092915050565b600062000610826200067c565b91506200061d836200067c565b92508282101562000633576200063262000689565b5b828203905092915050565b60006200064b8262000652565b9050919050565b600073ffffffffffffffffffffffffffffffffffffffff82169050919050565b6000819050919050565b600060ff82169050919050565b7f4e487b7100000000000000000000000000000000000000000000000000000000600052601160045260246000fd5b600080fd5b60008160011c9050919050565b7f4f776e61626c653a206e6577206f776e657220697320746865207a65726f206160008201527f6464726573730000000000000000000000000000000000000000000000000000602082015250565b7f4f776e61626c653a2063616c6c6572206973206e6f7420746865206f776e6572600082015250565b6200074d816200063e565b81146200075957600080fd5b50565b613c71806200076c6000396000f3fe608060405234801561001057600080fd5b50600436106101735760003560e01c80638bd0425a116100de578063b2e214a011610097578063e926e9af11610071578063e926e9af14610410578063e97db3b914610440578063f2fde38b14610470578063fa7130831461048c57610173565b8063b2e214a014610394578063c84621e4146103c4578063cbc598c5146103e057610173565b80638bd0425a146102e85780638da5cb5b146103045780638de1e256146103225780639003b3441461033e57806399c91fc41461035a578063ac9cf4db1461037857610173565b8063571e848f11610130578063571e848f1461023a5780635ecd21731461025657806366234ffa1461028657806368902d20146102a45780636bf301a4146102c0578063715018a6146102de57610173565b8063053050931461017857806310780bed146101945780633b817496146101c45780634576bb5d146101e2578063481c6a75146101fe578063526cee8d1461021c575b600080fd5b610192600480360381019061018d9190612a5b565b6104c4565b005b6101ae60048036038101906101a99190612adb565b610570565b6040516101bb91906132c4565b60405180910390f35b6101cc6105e6565b6040516101d991906132c4565b60405180910390f35b6101fc60048036038101906101f79190612adb565b6105ec565b005b6102066106da565b6040516102139190612f7f565b60405180910390f35b610224610700565b6040516102319190612f7f565b60405180910390f35b610254600480360381019061024f9190612bea565b610726565b005b610270600480360381019061026b9190612adb565b61100e565b60405161027d91906132c4565b60405180910390f35b61028e61108a565b60405161029b91906133a0565b60405180910390f35b6102be60048036038101906102b99190612a1b565b61108f565b005b6102c86111e7565b6040516102d591906132c4565b60405180910390f35b6102e6611204565b005b61030260048036038101906102fd9190612adb565b61133e565b005b61030c61170c565b6040516103199190612f7f565b60405180910390f35b61033c60048036038101906103379190612b08565b611735565b005b610358600480360381019061035391906129c1565b6119e3565b005b610362611b34565b60405161036f9190612f7f565b60405180910390f35b610392600480360381019061038d9190612b08565b611b5a565b005b6103ae60048036038101906103a991906129c1565b611e43565b6040516103bb91906132c4565b60405180910390f35b6103de60048036038101906103d991906129c1565b611e5b565b005b6103fa60048036038101906103f59190612a1b565b611fac565b6040516104079190612ffa565b60405180910390f35b61042a60048036038101906104259190612adb565b611ff9565b60405161043791906132c4565b60405180910390f35b61045a60048036038101906104559190612b48565b612073565b60405161046791906132c4565b60405180910390f35b61048a600480360381019061048591906129c1565b6122f9565b005b6104a660048036038101906104a19190612adb565b6124a2565b6040516104bb99989796959493929190613015565b60405180910390f35b6104cc61253d565b73ffffffffffffffffffffffffffffffffffffffff166104ea61170c565b73ffffffffffffffffffffffffffffffffffffffff1614610540576040517f08c379a0000000000000000000000000000000000000000000000000000000008152600401610537906131c4565b60405180910390fd5b61056b81838573ffffffffffffffffffffffffffffffffffffffff166125459092919063ffffffff16565b505050565b6000816002548111156105b8576040517f08c379a00000000000000000000000000000000000000000000000000000000081526004016105af90613124565b60405180910390fd5b60006006600085815260200190815260200160002090506105dd8182600101546125cb565b92505050919050565b60015481565b6105f461253d565b73ffffffffffffffffffffffffffffffffffffffff1661061261170c565b73ffffffffffffffffffffffffffffffffffffffff1614610668576040517f08c379a000000000000000000000000000000000000000000000000000000000815260040161065f906131c4565b60405180910390fd5b6002600c6106769190613673565b600a61068291906134c7565b600561068e91906135e5565b8111156106d0576040517f08c379a00000000000000000000000000000000000000000000000000000000081526004016106c7906130c4565b60405180910390fd5b8060018190555050565b600560009054906101000a900473ffffffffffffffffffffffffffffffffffffffff1681565b600460009054906101000a900473ffffffffffffffffffffffffffffffffffffffff1681565b8460025481111561076c576040517f08c379a000000000000000000000000000000000000000000000000000000000815260040161076390613124565b60405180910390fd5b60006006600088815260200190815260200160002090506107b18160080160009054906101000a900473ffffffffffffffffffffffffffffffffffffffff1686611fac565b6107f0576040517f08c379a00000000000000000000000000000000000000000000000000000000081526004016107e7906131e4565b60405180910390fd5b8060000160009054906101000a900460ff1615610842576040517f08c379a0000000000000000000000000000000000000000000000000000000008152600401610839906132a4565b60405180910390fd5b8581600101541015801561085a575083816004015411155b801561086a575084816005015411155b6108a9576040517f08c379a00000000000000000000000000000000000000000000000000000000081526004016108a090613164565b60405180910390fd5b600081600301541415610ad6576109073330878460080160009054906101000a900473ffffffffffffffffffffffffffffffffffffffff1673ffffffffffffffffffffffffffffffffffffffff16612662909392919063ffffffff16565b6000600c600a61091791906134c7565b600161092391906135e5565b6001548761093191906135e5565b61093b9190613443565b9050610a41600460009054906101000a900473ffffffffffffffffffffffffffffffffffffffff1673ffffffffffffffffffffffffffffffffffffffff16636352211e8a6040518263ffffffff1660e01b815260040161099b91906132c4565b60206040518083038186803b1580156109b357600080fd5b505afa1580156109c7573d6000803e3d6000fd5b505050506040513d601f19601f820116820180604052508101906109eb91906129ee565b82886109f7919061363f565b8460080160009054906101000a900473ffffffffffffffffffffffffffffffffffffffff1673ffffffffffffffffffffffffffffffffffffffff166125459092919063ffffffff16565b600360009054906101000a900473ffffffffffffffffffffffffffffffffffffffff1673ffffffffffffffffffffffffffffffffffffffff166340c10f19858a6040518363ffffffff1660e01b8152600401610a9e929190612fd1565b600060405180830381600087803b158015610ab857600080fd5b505af1158015610acc573d6000803e3d6000fd5b5050505050610f8e565b6000816005015486610ae8919061363f565b9050806064600a8460050154610afe91906135e5565b610b089190613443565b111580610b405750846064600a8460040154610b2491906135e5565b610b2e9190613443565b8360040154610b3d91906133ed565b11155b80610b765750866064600a8460010154610b5a91906135e5565b610b649190613443565b8360010154610b73919061363f565b10155b610bb5576040517f08c379a0000000000000000000000000000000000000000000000000000000008152600401610bac906130e4565b60405180910390fd5b6000610bc58384600101546125cb565b9050610c233330838a610bd891906133ed565b8660080160009054906101000a900473ffffffffffffffffffffffffffffffffffffffff1673ffffffffffffffffffffffffffffffffffffffff16612662909392919063ffffffff16565b6000600360009054906101000a900473ffffffffffffffffffffffffffffffffffffffff1673ffffffffffffffffffffffffffffffffffffffff16636352211e8b6040518263ffffffff1660e01b8152600401610c8091906132c4565b60206040518083038186803b158015610c9857600080fd5b505afa158015610cac573d6000803e3d6000fd5b505050506040513d601f19601f82011682018060405250810190610cd091906129ee565b9050610d3081856005015484610ce691906133ed565b8660080160009054906101000a900473ffffffffffffffffffffffffffffffffffffffff1673ffffffffffffffffffffffffffffffffffffffff166125459092919063ffffffff16565b600360009054906101000a900473ffffffffffffffffffffffffffffffffffffffff1673ffffffffffffffffffffffffffffffffffffffff16631097519182888d6040518463ffffffff1660e01b8152600401610d8f93929190612f9a565b600060405180830381600087803b158015610da957600080fd5b505af1158015610dbd573d6000803e3d6000fd5b505050506000831115610f15576000600c600a610dda91906134c7565b6001610de691906135e5565b60015485610df491906135e5565b610dfe9190613443565b9050610f13600460009054906101000a900473ffffffffffffffffffffffffffffffffffffffff1673ffffffffffffffffffffffffffffffffffffffff16636352211e8d6040518263ffffffff1660e01b8152600401610e5e91906132c4565b60206040518083038186803b158015610e7657600080fd5b505afa158015610e8a573d6000803e3d6000fd5b505050506040513d601f19601f82011682018060405250810190610eae91906129ee565b8287600501548c610ebf919061363f565b610ec9919061363f565b8760080160009054906101000a900473ffffffffffffffffffffffffffffffffffffffff1673ffffffffffffffffffffffffffffffffffffffff166125459092919063ffffffff16565b505b8184600201819055508073ffffffffffffffffffffffffffffffffffffffff163373ffffffffffffffffffffffffffffffffffffffff168b7f4426c7953fce0ff3ee8d5ae131fe344a6368710c93a44ea34eff98a0a2eb823a858860050154604051610f82929190613340565b60405180910390a45050505b8581600101819055504281600301819055508381600401819055508481600501819055503373ffffffffffffffffffffffffffffffffffffffff16877f196faa84e8e25ea2d752848d95baeaad64525fc89c6b17b07d8cdaf9d402c3e8888888604051610ffd93929190613369565b60405180910390a350505050505050565b600081600254811115611056576040517f08c379a000000000000000000000000000000000000000000000000000000000815260040161104d90613124565b60405180910390fd5b60006006600085815260200190815260200160002090508060030154816004015461108191906133ed565b92505050919050565b600c81565b61109761253d565b73ffffffffffffffffffffffffffffffffffffffff166110b561170c565b73ffffffffffffffffffffffffffffffffffffffff161461110b576040517f08c379a0000000000000000000000000000000000000000000000000000000008152600401611102906131c4565b60405180910390fd5b8173ffffffffffffffffffffffffffffffffffffffff1663313ce5676040518163ffffffff1660e01b815260040160206040518083038186803b15801561115157600080fd5b505afa158015611165573d6000803e3d6000fd5b505050506040513d601f19601f820116820180604052508101906111899190612c65565b600a61119591906134c7565b816111a091906135e5565b600760008473ffffffffffffffffffffffffffffffffffffffff1673ffffffffffffffffffffffffffffffffffffffff168152602001908152602001600020819055505050565b600c600a6111f591906134c7565b600161120191906135e5565b81565b61120c61253d565b73ffffffffffffffffffffffffffffffffffffffff1661122a61170c565b73ffffffffffffffffffffffffffffffffffffffff1614611280576040517f08c379a0000000000000000000000000000000000000000000000000000000008152600401611277906131c4565b60405180910390fd5b600073ffffffffffffffffffffffffffffffffffffffff1660008054906101000a900473ffffffffffffffffffffffffffffffffffffffff1673ffffffffffffffffffffffffffffffffffffffff167f8be0079c531659141344cd1fd0a4f28419497f9722a3daafe3b4186f6b6457e060405160405180910390a360008060006101000a81548173ffffffffffffffffffffffffffffffffffffffff021916908373ffffffffffffffffffffffffffffffffffffffff160217905550565b80600254811115611384576040517f08c379a000000000000000000000000000000000000000000000000000000000815260040161137b90613124565b60405180910390fd5b60006006600084815260200190815260200160002090508060000160009054906101000a900460ff16156113ed576040517f08c379a00000000000000000000000000000000000000000000000000000000081526004016113e4906132a4565b60405180910390fd5b60006113fd8283600101546125cb565b90506000600360009054906101000a900473ffffffffffffffffffffffffffffffffffffffff1673ffffffffffffffffffffffffffffffffffffffff16636352211e866040518263ffffffff1660e01b815260040161145c91906132c4565b60206040518083038186803b15801561147457600080fd5b505afa158015611488573d6000803e3d6000fd5b505050506040513d601f19601f820116820180604052508101906114ac91906129ee565b905060018360000160006101000a81548160ff02191690831515021790555061152b33828560050154856114e091906133ed565b8660080160009054906101000a900473ffffffffffffffffffffffffffffffffffffffff1673ffffffffffffffffffffffffffffffffffffffff16612662909392919063ffffffff16565b8260070160009054906101000a900473ffffffffffffffffffffffffffffffffffffffff1673ffffffffffffffffffffffffffffffffffffffff166323b872dd30600460009054906101000a900473ffffffffffffffffffffffffffffffffffffffff1673ffffffffffffffffffffffffffffffffffffffff16636352211e896040518263ffffffff1660e01b81526004016115c791906132c4565b60206040518083038186803b1580156115df57600080fd5b505afa1580156115f3573d6000803e3d6000fd5b505050506040513d601f19601f8201168201806040525081019061161791906129ee565b86600601546040518463ffffffff1660e01b815260040161163a93929190612f9a565b600060405180830381600087803b15801561165457600080fd5b505af1158015611668573d6000803e3d6000fd5b505050508073ffffffffffffffffffffffffffffffffffffffff163373ffffffffffffffffffffffffffffffffffffffff16867f9181b2981704b7cf4448130f29cb5da1f41e0418d000e7f8880000b09bcbea458587600501546040516116d0929190613340565b60405180910390a4847fbf67515a38ee520223d32c1266d52101c30d936ed1f3e436c8caeb0a43cb06bf60405160405180910390a25050505050565b60008060009054906101000a900473ffffffffffffffffffffffffffffffffffffffff16905090565b3373ffffffffffffffffffffffffffffffffffffffff16600460009054906101000a900473ffffffffffffffffffffffffffffffffffffffff1673ffffffffffffffffffffffffffffffffffffffff16636352211e846040518263ffffffff1660e01b81526004016117a791906132c4565b60206040518083038186803b1580156117bf57600080fd5b505afa1580156117d3573d6000803e3d6000fd5b505050506040513d601f19601f820116820180604052508101906117f791906129ee565b73ffffffffffffffffffffffffffffffffffffffff161461184d576040517f08c379a0000000000000000000000000000000000000000000000000000000008152600401611844906131a4565b60405180910390fd5b60006006600084815260200190815260200160002090508060000160009054906101000a900460ff16156118b6576040517f08c379a00000000000000000000000000000000000000000000000000000000081526004016118ad906132a4565b60405180910390fd5b60008160030154146118fd576040517f08c379a00000000000000000000000000000000000000000000000000000000081526004016118f490613144565b60405180910390fd5b60018160000160006101000a81548160ff0219169083151502179055508060070160009054906101000a900473ffffffffffffffffffffffffffffffffffffffff1673ffffffffffffffffffffffffffffffffffffffff166323b872dd308484600601546040518463ffffffff1660e01b815260040161197f93929190612f9a565b600060405180830381600087803b15801561199957600080fd5b505af11580156119ad573d6000803e3d6000fd5b50505050827fbf67515a38ee520223d32c1266d52101c30d936ed1f3e436c8caeb0a43cb06bf60405160405180910390a2505050565b6119eb61253d565b73ffffffffffffffffffffffffffffffffffffffff16611a0961170c565b73ffffffffffffffffffffffffffffffffffffffff1614611a5f576040517f08c379a0000000000000000000000000000000000000000000000000000000008152600401611a56906131c4565b60405180910390fd5b600073ffffffffffffffffffffffffffffffffffffffff16600360009054906101000a900473ffffffffffffffffffffffffffffffffffffffff1673ffffffffffffffffffffffffffffffffffffffff1614611af0576040517f08c379a0000000000000000000000000000000000000000000000000000000008152600401611ae790613244565b60405180910390fd5b80600360006101000a81548173ffffffffffffffffffffffffffffffffffffffff021916908373ffffffffffffffffffffffffffffffffffffffff16021790555050565b600360009054906101000a900473ffffffffffffffffffffffffffffffffffffffff1681565b3373ffffffffffffffffffffffffffffffffffffffff16600360009054906101000a900473ffffffffffffffffffffffffffffffffffffffff1673ffffffffffffffffffffffffffffffffffffffff16636352211e846040518263ffffffff1660e01b8152600401611bcc91906132c4565b60206040518083038186803b158015611be457600080fd5b505afa158015611bf8573d6000803e3d6000fd5b505050506040513d601f19601f82011682018060405250810190611c1c91906129ee565b73ffffffffffffffffffffffffffffffffffffffff1614611c72576040517f08c379a0000000000000000000000000000000000000000000000000000000008152600401611c6990613284565b60405180910390fd5b60006006600084815260200190815260200160002090508060000160009054906101000a900460ff1615611cdb576040517f08c379a0000000000000000000000000000000000000000000000000000000008152600401611cd2906132a4565b60405180910390fd5b80600301548160040154611cef91906133ed565b4211611d30576040517f08c379a0000000000000000000000000000000000000000000000000000000008152600401611d2790613224565b60405180910390fd5b60018160000160006101000a81548160ff0219169083151502179055508060070160009054906101000a900473ffffffffffffffffffffffffffffffffffffffff1673ffffffffffffffffffffffffffffffffffffffff166323b872dd308484600601546040518463ffffffff1660e01b8152600401611db293929190612f9a565b600060405180830381600087803b158015611dcc57600080fd5b505af1158015611de0573d6000803e3d6000fd5b50505050827f19f0d220035b967365e70d19ca7093af2e75a9741c08ef27c5017d6f463febd960405160405180910390a2827fbf67515a38ee520223d32c1266d52101c30d936ed1f3e436c8caeb0a43cb06bf60405160405180910390a2505050565b60076020528060005260406000206000915090505481565b611e6361253d565b73ffffffffffffffffffffffffffffffffffffffff16611e8161170c565b73ffffffffffffffffffffffffffffffffffffffff1614611ed7576040517f08c379a0000000000000000000000000000000000000000000000000000000008152600401611ece906131c4565b60405180910390fd5b600073ffffffffffffffffffffffffffffffffffffffff16600460009054906101000a900473ffffffffffffffffffffffffffffffffffffffff1673ffffffffffffffffffffffffffffffffffffffff1614611f68576040517f08c379a0000000000000000000000000000000000000000000000000000000008152600401611f5f90613244565b60405180910390fd5b80600460006101000a81548173ffffffffffffffffffffffffffffffffffffffff021916908373ffffffffffffffffffffffffffffffffffffffff16021790555050565b6000600760008473ffffffffffffffffffffffffffffffffffffffff1673ffffffffffffffffffffffffffffffffffffffff16815260200190815260200160002054821115905092915050565b600081600254811115612041576040517f08c379a000000000000000000000000000000000000000000000000000000000815260040161203890613124565b60405180910390fd5b61204a83610570565b600660008581526020019081526020016000206005015461206b91906133ed565b915050919050565b600061207f8486611fac565b6120be576040517f08c379a00000000000000000000000000000000000000000000000000000000081526004016120b5906131e4565b60405180910390fd5b8673ffffffffffffffffffffffffffffffffffffffff166323b872dd33308b6040518463ffffffff1660e01b81526004016120fb93929190612f9a565b600060405180830381600087803b15801561211557600080fd5b505af1158015612129573d6000803e3d6000fd5b5050505060026000815461213c9061372f565b91905081905590506000600660008381526020019081526020016000209050848160080160006101000a81548173ffffffffffffffffffffffffffffffffffffffff021916908373ffffffffffffffffffffffffffffffffffffffff160217905550858160050181905550888160060181905550878160070160006101000a81548173ffffffffffffffffffffffffffffffffffffffff021916908373ffffffffffffffffffffffffffffffffffffffff160217905550868160010181905550838160040181905550600460009054906101000a900473ffffffffffffffffffffffffffffffffffffffff1673ffffffffffffffffffffffffffffffffffffffff166340c10f1984846040518363ffffffff1660e01b8152600401612262929190612fd1565b600060405180830381600087803b15801561227c57600080fd5b505af1158015612290573d6000803e3d6000fd5b505050503373ffffffffffffffffffffffffffffffffffffffff16827f2ec44cd65373de2260dfd779f9da9d118a652f6568b2613f85f50b3528dfbd908b8b8b8a8c8b6040516122e5969594939291906132df565b60405180910390a350979650505050505050565b61230161253d565b73ffffffffffffffffffffffffffffffffffffffff1661231f61170c565b73ffffffffffffffffffffffffffffffffffffffff1614612375576040517f08c379a000000000000000000000000000000000000000000000000000000000815260040161236c906131c4565b60405180910390fd5b600073ffffffffffffffffffffffffffffffffffffffff168173ffffffffffffffffffffffffffffffffffffffff1614156123e5576040517f08c379a00000000000000000000000000000000000000000000000000000000081526004016123dc90613104565b60405180910390fd5b8073ffffffffffffffffffffffffffffffffffffffff1660008054906101000a900473ffffffffffffffffffffffffffffffffffffffff1673ffffffffffffffffffffffffffffffffffffffff167f8be0079c531659141344cd1fd0a4f28419497f9722a3daafe3b4186f6b6457e060405160405180910390a3806000806101000a81548173ffffffffffffffffffffffffffffffffffffffff021916908373ffffffffffffffffffffffffffffffffffffffff16021790555050565b60066020528060005260406000206000915090508060000160009054906101000a900460ff16908060010154908060020154908060030154908060040154908060050154908060060154908060070160009054906101000a900473ffffffffffffffffffffffffffffffffffffffff16908060080160009054906101000a900473ffffffffffffffffffffffffffffffffffffffff16905089565b600033905090565b6125c68363a9059cbb60e01b8484604051602401612564929190612fd1565b604051602081830303815290604052907bffffffffffffffffffffffffffffffffffffffffffffffffffffffff19166020820180517bffffffffffffffffffffffffffffffffffffffffffffffffffffffff83818316178352505050506126eb565b505050565b60008260000160009054906101000a900460ff16806125ee575060008360030154145b156125fc576000905061265c565b8260020154600c600a61260f91906134c7565b600161261b91906135e5565b8385600301544261262c919061363f565b866005015461263b91906135e5565b61264591906135e5565b61264f9190613443565b61265991906133ed565b90505b92915050565b6126e5846323b872dd60e01b85858560405160240161268393929190612f9a565b604051602081830303815290604052907bffffffffffffffffffffffffffffffffffffffffffffffffffffffff19166020820180517bffffffffffffffffffffffffffffffffffffffffffffffffffffffff83818316178352505050506126eb565b50505050565b600061274d826040518060400160405280602081526020017f5361666545524332303a206c6f772d6c6576656c2063616c6c206661696c65648152508573ffffffffffffffffffffffffffffffffffffffff166127b29092919063ffffffff16565b90506000815111156127ad578080602001905181019061276d9190612aae565b6127ac576040517f08c379a00000000000000000000000000000000000000000000000000000000081526004016127a390613264565b60405180910390fd5b5b505050565b60606127c184846000856127ca565b90509392505050565b60608247101561280f576040517f08c379a000000000000000000000000000000000000000000000000000000000815260040161280690613184565b60405180910390fd5b612818856128de565b612857576040517f08c379a000000000000000000000000000000000000000000000000000000000815260040161284e90613204565b60405180910390fd5b6000808673ffffffffffffffffffffffffffffffffffffffff1685876040516128809190612f68565b60006040518083038185875af1925050503d80600081146128bd576040519150601f19603f3d011682016040523d82523d6000602084013e6128c2565b606091505b50915091506128d28282866128f1565b92505050949350505050565b600080823b905060008111915050919050565b6060831561290157829050612951565b6000835111156129145782518084602001fd5b816040517f08c379a000000000000000000000000000000000000000000000000000000000815260040161294891906130a2565b60405180910390fd5b9392505050565b60008135905061296781613bdf565b92915050565b60008151905061297c81613bdf565b92915050565b60008151905061299181613bf6565b92915050565b6000813590506129a681613c0d565b92915050565b6000815190506129bb81613c24565b92915050565b6000602082840312156129d7576129d66137d6565b5b60006129e584828501612958565b91505092915050565b600060208284031215612a0457612a036137d6565b5b6000612a128482850161296d565b91505092915050565b60008060408385031215612a3257612a316137d6565b5b6000612a4085828601612958565b9250506020612a5185828601612997565b9150509250929050565b600080600060608486031215612a7457612a736137d6565b5b6000612a8286828701612958565b9350506020612a9386828701612997565b9250506040612aa486828701612958565b9150509250925092565b600060208284031215612ac457612ac36137d6565b5b6000612ad284828501612982565b91505092915050565b600060208284031215612af157612af06137d6565b5b6000612aff84828501612997565b91505092915050565b60008060408385031215612b1f57612b1e6137d6565b5b6000612b2d85828601612997565b9250506020612b3e85828601612958565b9150509250929050565b600080600080600080600060e0888a031215612b6757612b666137d6565b5b6000612b758a828b01612997565b9750506020612b868a828b01612958565b9650506040612b978a828b01612997565b9550506060612ba88a828b01612997565b9450506080612bb98a828b01612958565b93505060a0612bca8a828b01612997565b92505060c0612bdb8a828b01612958565b91505092959891949750929550565b600080600080600060a08688031215612c0657612c056137d6565b5b6000612c1488828901612997565b9550506020612c2588828901612997565b9450506040612c3688828901612997565b9350506060612c4788828901612997565b9250506080612c5888828901612958565b9150509295509295909350565b600060208284031215612c7b57612c7a6137d6565b5b6000612c89848285016129ac565b91505092915050565b612c9b816136a7565b82525050565b612caa816136b9565b82525050565b6000612cbb826133bb565b612cc581856133d1565b9350612cd58185602086016136fc565b80840191505092915050565b6000612cec826133c6565b612cf681856133dc565b9350612d068185602086016136fc565b612d0f816137db565b840191505092915050565b6000612d276017836133dc565b9150612d32826137f9565b602082019050919050565b6000612d4a603e836133dc565b9150612d5582613822565b604082019050919050565b6000612d6d6026836133dc565b9150612d7882613871565b604082019050919050565b6000612d906027836133dc565b9150612d9b826138c0565b604082019050919050565b6000612db36032836133dc565b9150612dbe8261390f565b604082019050919050565b6000612dd6602a836133dc565b9150612de18261395e565b604082019050919050565b6000612df96026836133dc565b9150612e04826139ad565b604082019050919050565b6000612e1c6029836133dc565b9150612e27826139fc565b604082019050919050565b6000612e3f6020836133dc565b9150612e4a82613a4b565b602082019050919050565b6000612e626021836133dc565b9150612e6d82613a74565b604082019050919050565b6000612e85601d836133dc565b9150612e9082613ac3565b602082019050919050565b6000612ea86020836133dc565b9150612eb382613aec565b602082019050919050565b6000612ecb6018836133dc565b9150612ed682613b15565b602082019050919050565b6000612eee602a836133dc565b9150612ef982613b3e565b604082019050919050565b6000612f11601d836133dc565b9150612f1c82613b8d565b602082019050919050565b6000612f34601a836133dc565b9150612f3f82613bb6565b602082019050919050565b612f53816136e5565b82525050565b612f62816136ef565b82525050565b6000612f748284612cb0565b915081905092915050565b6000602082019050612f946000830184612c92565b92915050565b6000606082019050612faf6000830186612c92565b612fbc6020830185612c92565b612fc96040830184612f4a565b949350505050565b6000604082019050612fe66000830185612c92565b612ff36020830184612f4a565b9392505050565b600060208201905061300f6000830184612ca1565b92915050565b60006101208201905061302b600083018c612ca1565b613038602083018b612f4a565b613045604083018a612f4a565b6130526060830189612f4a565b61305f6080830188612f4a565b61306c60a0830187612f4a565b61307960c0830186612f4a565b61308660e0830185612c92565b613094610100830184612c92565b9a9950505050505050505050565b600060208201905081810360008301526130bc8184612ce1565b905092915050565b600060208201905081810360008301526130dd81612d1a565b9050919050565b600060208201905081810360008301526130fd81612d3d565b9050919050565b6000602082019050818103600083015261311d81612d60565b9050919050565b6000602082019050818103600083015261313d81612d83565b9050919050565b6000602082019050818103600083015261315d81612da6565b9050919050565b6000602082019050818103600083015261317d81612dc9565b9050919050565b6000602082019050818103600083015261319d81612dec565b9050919050565b600060208201905081810360008301526131bd81612e0f565b9050919050565b600060208201905081810360008301526131dd81612e32565b9050919050565b600060208201905081810360008301526131fd81612e55565b9050919050565b6000602082019050818103600083015261321d81612e78565b9050919050565b6000602082019050818103600083015261323d81612e9b565b9050919050565b6000602082019050818103600083015261325d81612ebe565b9050919050565b6000602082019050818103600083015261327d81612ee1565b9050919050565b6000602082019050818103600083015261329d81612f04565b9050919050565b600060208201905081810360008301526132bd81612f27565b9050919050565b60006020820190506132d96000830184612f4a565b92915050565b600060c0820190506132f46000830189612f4a565b6133016020830188612c92565b61330e6040830187612f4a565b61331b6060830186612c92565b6133286080830185612f4a565b61333560a0830184612f4a565b979650505050505050565b60006040820190506133556000830185612f4a565b6133626020830184612f4a565b9392505050565b600060608201905061337e6000830186612f4a565b61338b6020830185612f4a565b6133986040830184612f4a565b949350505050565b60006020820190506133b56000830184612f59565b92915050565b600081519050919050565b600081519050919050565b600081905092915050565b600082825260208201905092915050565b60006133f8826136e5565b9150613403836136e5565b9250827fffffffffffffffffffffffffffffffffffffffffffffffffffffffffffffffff0382111561343857613437613778565b5b828201905092915050565b600061344e826136e5565b9150613459836136e5565b925082613469576134686137a7565b5b828204905092915050565b6000808291508390505b60018511156134be5780860481111561349a57613499613778565b5b60018516156134a95780820291505b80810290506134b7856137ec565b945061347e565b94509492505050565b60006134d2826136e5565b91506134dd836136ef565b925061350a7fffffffffffffffffffffffffffffffffffffffffffffffffffffffffffffffff8484613512565b905092915050565b60008261352257600190506135de565b8161353057600090506135de565b816001811461354657600281146135505761357f565b60019150506135de565b60ff84111561356257613561613778565b5b8360020a91508482111561357957613578613778565b5b506135de565b5060208310610133831016604e8410600b84101617156135b45782820a9050838111156135af576135ae613778565b5b6135de565b6135c18484846001613474565b925090508184048111156135d8576135d7613778565b5b81810290505b9392505050565b60006135f0826136e5565b91506135fb836136e5565b9250817fffffffffffffffffffffffffffffffffffffffffffffffffffffffffffffffff048311821515161561363457613633613778565b5b828202905092915050565b600061364a826136e5565b9150613655836136e5565b92508282101561366857613667613778565b5b828203905092915050565b600061367e826136ef565b9150613689836136ef565b92508282101561369c5761369b613778565b5b828203905092915050565b60006136b2826136c5565b9050919050565b60008115159050919050565b600073ffffffffffffffffffffffffffffffffffffffff82169050919050565b6000819050919050565b600060ff82169050919050565b60005b8381101561371a5780820151818401526020810190506136ff565b83811115613729576000848401525b50505050565b600061373a826136e5565b91507fffffffffffffffffffffffffffffffffffffffffffffffffffffffffffffffff82141561376d5761376c613778565b5b600182019050919050565b7f4e487b7100000000000000000000000000000000000000000000000000000000600052601160045260246000fd5b7f4e487b7100000000000000000000000000000000000000000000000000000000600052601260045260246000fd5b600080fd5b6000601f19601f8301169050919050565b60008160011c9050919050565b7f4e46545061776e53686f703a206d617820666565203525000000000000000000600082015250565b7f4e46545061776e53686f703a2070726f706f736564207465726d73206d75737460008201527f20626520626574746572207468616e206578697374696e67207465726d730000602082015250565b7f4f776e61626c653a206e6577206f776e657220697320746865207a65726f206160008201527f6464726573730000000000000000000000000000000000000000000000000000602082015250565b7f4e46545061776e53686f703a207061776e207469636b657420646f6573206e6f60008201527f7420657869737400000000000000000000000000000000000000000000000000602082015250565b7f4e46545061776e53686f703a20756e6465727772697474656e2c20757365207260008201527f65706179416e64436c6f73655469636b65740000000000000000000000000000602082015250565b7f4e46545061776e53686f703a2050726f706f736564207465726d7320646f206e60008201527f6f74207175616c69667900000000000000000000000000000000000000000000602082015250565b7f416464726573733a20696e73756666696369656e742062616c616e636520666f60008201527f722063616c6c0000000000000000000000000000000000000000000000000000602082015250565b7f4e46545061776e53686f703a206d757374206265206f776e6572206f6620706160008201527f776e6564206974656d0000000000000000000000000000000000000000000000602082015250565b7f4f776e61626c653a2063616c6c6572206973206e6f7420746865206f776e6572600082015250565b7f4e46545061776e53686f703a206c6f616e20616d6f756e7420746f6f2068696760008201527f6800000000000000000000000000000000000000000000000000000000000000602082015250565b7f416464726573733a2063616c6c20746f206e6f6e2d636f6e7472616374000000600082015250565b7f4e46545061776e53686f703a207061796d656e74206973206e6f74206c617465600082015250565b7f4e46545061776e53686f703a20616c7265616479207365740000000000000000600082015250565b7f5361666545524332303a204552433230206f7065726174696f6e20646964206e60008201527f6f74207375636365656400000000000000000000000000000000000000000000602082015250565b7f4e46545061776e53686f703a20756e646572777269746572206f6e6c79000000600082015250565b7f4e46545061776e53686f703a207469636b657420636c6f736564000000000000600082015250565b613be8816136a7565b8114613bf357600080fd5b50565b613bff816136b9565b8114613c0a57600080fd5b50565b613c16816136e5565b8114613c2157600080fd5b50565b613c2d816136ef565b8114613c3857600080fd5b5056fea26469706673582212203ad215c7d2866dca0a98f53b89dc9433b1d1fb5334bd5057c6b10cb2057f3f8064736f6c63430008060033",
  "linkReferences": {},
  "deployedLinkReferences": {}
}